{
  "contractName": "BatteryEnergy",
  "abi": [
    {
      "constant": true,
      "inputs": [],
      "name": "purchaseInterval",
      "outputs": [
        {
          "name": "",
          "type": "uint256"
        }
      ],
      "payable": false,
      "stateMutability": "view",
      "type": "function"
    },
    {
      "constant": true,
      "inputs": [],
      "name": "virtualPowerPlantAddress",
      "outputs": [
        {
          "name": "",
          "type": "address"
        }
      ],
      "payable": false,
      "stateMutability": "view",
      "type": "function"
    },
    {
      "inputs": [
        {
          "name": "_virtualPowerPlantAddress",
          "type": "address"
        }
      ],
      "payable": false,
      "stateMutability": "nonpayable",
      "type": "constructor"
    },
    {
      "anonymous": false,
      "inputs": [
        {
          "indexed": false,
          "name": "batteryID",
          "type": "uint256"
        }
      ],
      "name": "LogBatteryCheck",
      "type": "event"
    },
    {
      "anonymous": false,
      "inputs": [
        {
          "indexed": false,
          "name": "serialNumber",
          "type": "bytes32"
        },
        {
          "indexed": false,
          "name": "energyPurchased",
          "type": "uint256"
        },
        {
          "indexed": false,
          "name": "energyPrice",
          "type": "uint256"
        },
        {
          "indexed": false,
          "name": "remainingInvestment",
          "type": "uint256"
        }
      ],
      "name": "LogEnergyPurchased",
      "type": "event"
    },
    {
      "constant": false,
      "inputs": [],
      "name": "checkBatteryEnergy",
      "outputs": [
        {
          "name": "totalEnergyPurchase",
          "type": "uint256"
        }
      ],
      "payable": false,
      "stateMutability": "nonpayable",
      "type": "function"
    }
  ],
  "bytecode": "0x6080604052610e1060025534801561001657600080fd5b5060405160208061103c8339810180604052602081101561003657600080fd5b810190808051906020019092919050505080600160006101000a81548173ffffffffffffffffffffffffffffffffffffffff021916908373ffffffffffffffffffffffffffffffffffffffff160217905550806000806101000a81548173ffffffffffffffffffffffffffffffffffffffff021916908373ffffffffffffffffffffffffffffffffffffffff16021790555050610f64806100d86000396000f3fe608060405260043610610057576000357c0100000000000000000000000000000000000000000000000000000000900463ffffffff1680630fc646911461005c5780634fef236414610087578063feb663d0146100b2575b600080fd5b34801561006857600080fd5b50610071610109565b6040518082815260200191505060405180910390f35b34801561009357600080fd5b5061009c61010f565b6040518082815260200191505060405180910390f35b3480156100be57600080fd5b506100c761083c565b604051808273ffffffffffffffffffffffffffffffffffffffff1673ffffffffffffffffffffffffffffffffffffffff16815260200191505060405180910390f35b60025481565b60008061011a610862565b9050600080905060008090505b6000809054906101000a900473ffffffffffffffffffffffffffffffffffffffff1673ffffffffffffffffffffffffffffffffffffffff16637ab9be186040518163ffffffff167c010000000000000000000000000000000000000000000000000000000002815260040160206040518083038186803b1580156101aa57600080fd5b505afa1580156101be573d6000803e3d6000fd5b505050506040513d60208110156101d457600080fd5b81019080805190602001909291905050508110156108365760008060009054906101000a900473ffffffffffffffffffffffffffffffffffffffff1673ffffffffffffffffffffffffffffffffffffffff166364e98072836040518263ffffffff167c01000000000000000000000000000000000000000000000000000000000281526004018082815260200191505060206040518083038186803b15801561027c57600080fd5b505afa158015610290573d6000803e3d6000fd5b505050506040513d60208110156102a657600080fd5b810190808051906020019092919050505090507f43e0d79edab99ad436795e03537a27e8192b11095f7d9e54e8748f538f75910c816040518082815260200191505060405180910390a160008060009054906101000a900473ffffffffffffffffffffffffffffffffffffffff1673ffffffffffffffffffffffffffffffffffffffff166369777fce6040518163ffffffff167c010000000000000000000000000000000000000000000000000000000002815260040160206040518083038186803b15801561037557600080fd5b505afa158015610389573d6000803e3d6000fd5b505050506040513d602081101561039f57600080fd5b810190808051906020019092919050505073ffffffffffffffffffffffffffffffffffffffff1663af5cfae86040518163ffffffff167c010000000000000000000000000000000000000000000000000000000002815260040160206040518083038186803b15801561041157600080fd5b505afa158015610425573d6000803e3d6000fd5b505050506040513d602081101561043b57600080fd5b810190808051906020019092919050505011151561045857600080fd5b60008060008060008060008060009054906101000a900473ffffffffffffffffffffffffffffffffffffffff1673ffffffffffffffffffffffffffffffffffffffff16633dcd20f4896040518263ffffffff167c01000000000000000000000000000000000000000000000000000000000281526004018082815260200191505060e06040518083038186803b1580156104f157600080fd5b505afa158015610505573d6000803e3d6000fd5b505050506040513d60e081101561051b57600080fd5b810190808051906020019092919080519060200190929190805190602001909291908051906020019092919080519060200190929190805190602001909291908051906020019092919050505096509650965096509650965096508881141515610613576040517f08c379a00000000000000000000000000000000000000000000000000000000081526004018080602001828103825260348152602001807f4572726f72206d617070696e672066726f6d206261747465726965732061727281526020017f617920746f20626174746572794d617070696e6700000000000000000000000081525060400191505060405180910390fd5b6000868803905060008111158061062e575060001515831515145b1561064157505050505050505050610829565b61064b858d61086b565b1561081f57600061065d858e84610878565b905061066a8a828f610a2e565b1561081d577fe921c141ec599faf4d493fedfbb3af7c689ff38c273ed12108fd131c50f654a787828f6000809054906101000a900473ffffffffffffffffffffffffffffffffffffffff1673ffffffffffffffffffffffffffffffffffffffff166369777fce6040518163ffffffff167c010000000000000000000000000000000000000000000000000000000002815260040160206040518083038186803b15801561071657600080fd5b505afa15801561072a573d6000803e3d6000fd5b505050506040513d602081101561074057600080fd5b810190808051906020019092919050505073ffffffffffffffffffffffffffffffffffffffff1663af5cfae86040518163ffffffff167c010000000000000000000000000000000000000000000000000000000002815260040160206040518083038186803b1580156107b257600080fd5b505afa1580156107c6573d6000803e3d6000fd5b505050506040513d60208110156107dc57600080fd5b81019080805190602001909291905050506040518085815260200184815260200183815260200182815260200194505050505060405180910390a1808c019b505b505b5050505050505050505b8080600101915050610127565b50505090565b600160009054906101000a900473ffffffffffffffffffffffffffffffffffffffff1681565b60006005905090565b6000818311905092915050565b600080610889600254610e10610e95565b905061089e6108988683610ebf565b84610efd565b915060008060009054906101000a900473ffffffffffffffffffffffffffffffffffffffff1673ffffffffffffffffffffffffffffffffffffffff166369777fce6040518163ffffffff167c010000000000000000000000000000000000000000000000000000000002815260040160206040518083038186803b15801561092557600080fd5b505afa158015610939573d6000803e3d6000fd5b505050506040513d602081101561094f57600080fd5b810190808051906020019092919050505073ffffffffffffffffffffffffffffffffffffffff1663af5cfae86040518163ffffffff167c010000000000000000000000000000000000000000000000000000000002815260040160206040518083038186803b1580156109c157600080fd5b505afa1580156109d5573d6000803e3d6000fd5b505050506040513d60208110156109eb57600080fd5b810190808051906020019092919050505090506000610a0a8487610ebf565b905081811115610a2457819050610a218287610e95565b93505b5050509392505050565b600080610b9d6000809054906101000a900473ffffffffffffffffffffffffffffffffffffffff1673ffffffffffffffffffffffffffffffffffffffff166369777fce6040518163ffffffff167c010000000000000000000000000000000000000000000000000000000002815260040160206040518083038186803b158015610ab757600080fd5b505afa158015610acb573d6000803e3d6000fd5b505050506040513d6020811015610ae157600080fd5b810190808051906020019092919050505073ffffffffffffffffffffffffffffffffffffffff1663af5cfae86040518163ffffffff167c010000000000000000000000000000000000000000000000000000000002815260040160206040518083038186803b158015610b5357600080fd5b505afa158015610b67573d6000803e3d6000fd5b505050506040513d6020811015610b7d57600080fd5b8101908080519060200190929190505050610b988686610ebf565b610f16565b905060008110151515610c3e576040517f08c379a00000000000000000000000000000000000000000000000000000000081526004018080602001828103825260268152602001807f4e6f7420656e6f756768206d6f6e657920746f206d616b65207468697320707581526020017f726368617365000000000000000000000000000000000000000000000000000081525060400191505060405180910390fd5b6000809054906101000a900473ffffffffffffffffffffffffffffffffffffffff1673ffffffffffffffffffffffffffffffffffffffff166369777fce6040518163ffffffff167c010000000000000000000000000000000000000000000000000000000002815260040160206040518083038186803b158015610cc157600080fd5b505afa158015610cd5573d6000803e3d6000fd5b505050506040513d6020811015610ceb57600080fd5b810190808051906020019092919050505073ffffffffffffffffffffffffffffffffffffffff1663a342766b826040518263ffffffff167c010000000000000000000000000000000000000000000000000000000002815260040180828152602001915050602060405180830381600087803b158015610d6a57600080fd5b505af1158015610d7e573d6000803e3d6000fd5b505050506040513d6020811015610d9457600080fd5b810190808051906020019092919050505015610e88576000809054906101000a900473ffffffffffffffffffffffffffffffffffffffff1673ffffffffffffffffffffffffffffffffffffffff1663460fafbc86866040518363ffffffff167c01000000000000000000000000000000000000000000000000000000000281526004018083815260200182815260200192505050602060405180830381600087803b158015610e4257600080fd5b505af1158015610e56573d6000803e3d6000fd5b505050506040513d6020811015610e6c57600080fd5b8101908080519060200190929190505050506001915050610e8e565b60009150505b9392505050565b60008082111515610ea557600080fd5b60008284811515610eb257fe5b0490508091505092915050565b600080831415610ed25760009050610ef7565b60008284029050828482811515610ee557fe5b04141515610ef257600080fd5b809150505b92915050565b6000818310610f0c5781610f0e565b825b905092915050565b6000828211151515610f2757600080fd5b60008284039050809150509291505056fea165627a7a723058209eba13ba0557f02577fd3d20bee12513d3e0216e9bdc18048aad793c491a08030029",
  "source": "pragma solidity >=0.5.0;\n\nimport \"./VirtualPowerPlant.sol\";\n// import \"./BatteryLibrary.sol\";\nimport \"./SafeMath.sol\";\nimport \"./Math.sol\";\n\ncontract BatteryEnergy {\n\n    // Type declarations\n    VirtualPowerPlant VirtualPowerPlantContract;\n\n    // State variables\n    address public virtualPowerPlantAddress; // address of parent contract deploying battery investment\n    uint public purchaseInterval = 3600; // in sec,\n     // Battery[] public tempBattery;\n    // uint public temp;\n    // uint private remainingInvestment;  //\n\n    // Events\n    // event Log(uint counter);\n    event LogBatteryCheck(uint batteryID);\n    event LogEnergyPurchased(bytes32 serialNumber, uint energyPurchased, uint energyPrice, uint remainingInvestment);\n\n\n    constructor (address _virtualPowerPlantAddress) public {\n        virtualPowerPlantAddress = _virtualPowerPlantAddress;\n        VirtualPowerPlantContract = VirtualPowerPlant(_virtualPowerPlantAddress);\n    }\n\n\n    function checkBatteryEnergy () public returns (uint totalEnergyPurchase) {\n        // uint batteryIDMax = VirtualPowerPlantContract.getBatteryIDMax();\n        uint energyPrice = getRealTimeEnergyPrice();\n        uint totalEnergyPurchase = 0;\n\n        for (uint i = 0; i < VirtualPowerPlantContract.numBatteries(); i++) {\n            uint batteryID = VirtualPowerPlantContract.batteryMapping(i);\n            // uint capacity = VirtualPowerPlantContract.getBatteryCapacityRemaining(i);\n            // uint threshold = VirtualPowerPlantContract.getBatteryCapacityRemaining(i);\n            emit LogBatteryCheck(batteryID);\n            require((VirtualPowerPlantContract.batteryInvestmentContract()).remainingInvestment() > 0);\n            (\n                uint capacity,\n                uint currentFilled,\n                bytes32 serialNumber,\n                uint priceThreshold,\n                uint chargeRate,\n                bool isActive,\n                uint mapIndex\n            ) = VirtualPowerPlantContract.getRelevantBatteryInfo(batteryID);\n\n            require(mapIndex == i, \"Error mapping from batteries array to batteryMapping\");\n\n            uint emptyCapacity = capacity - currentFilled;\n            if (emptyCapacity <= 0 || isActive == false) {\n                //revert(\"Not enough Ether provided.\");\n                continue;\n            }\n\n            if (energyDecisionAlgorithm(priceThreshold, energyPrice)) {\n                uint energyAmountToPurchase = calculateEnergyToPurchase(chargeRate, energyPrice, emptyCapacity);\n                if (buyEnergy(batteryID, energyAmountToPurchase, energyPrice)){\n                    emit LogEnergyPurchased(\n                        serialNumber,\n                        energyAmountToPurchase,\n                        energyPrice,\n                        (VirtualPowerPlantContract.batteryInvestmentContract()).remainingInvestment()\n                    );\n                    totalEnergyPurchase += energyAmountToPurchase;\n                }\n            }\n        }\n        // remainingInvestment = (VirtualPowerPlantContract.BatteryInvestmentContract()).remainingInvestment();\n    }\n\n    function energyDecisionAlgorithm (uint _priceThreshold, uint _energyPrice) private pure returns (bool chargeBattery) {\n        chargeBattery = _priceThreshold > _energyPrice;\n    }\n\n    function calculateEnergyToPurchase\n    (\n        uint _chargeRate,\n        uint _energyPrice,\n        uint _emptyCapacity\n    )\n    private\n    view\n    returns (uint energyAmountToPurchase)\n    {\n        uint purchaseIntervalHours = SafeMath.div(purchaseInterval, 3600);  // convert seconds to hours\n        energyAmountToPurchase = Math.min(SafeMath.mul(_chargeRate, purchaseIntervalHours), _emptyCapacity);\n        uint remainingInvestment = (VirtualPowerPlantContract.batteryInvestmentContract()).remainingInvestment();\n        uint costOfEnergyPurchase = SafeMath.mul(energyAmountToPurchase, _energyPrice);\n        if (costOfEnergyPurchase > remainingInvestment) {\n            costOfEnergyPurchase = remainingInvestment;\n            energyAmountToPurchase = SafeMath.div(remainingInvestment, _energyPrice);\n        }\n    }\n\n    function getRealTimeEnergyPrice () private pure returns (uint realTimePrice) {\n        realTimePrice = 5;\n    }\n\n    function buyEnergy (uint _batteryID, uint _energyAmountToPurchase, uint _energyPrice) private returns (bool) {\n        uint newRemainingInvestment = SafeMath.sub(\n            (VirtualPowerPlantContract.batteryInvestmentContract()).remainingInvestment(),\n            SafeMath.mul(\n                _energyAmountToPurchase,\n                _energyPrice\n            )\n        );\n        require(newRemainingInvestment >= 0, \"Not enough money to make this purchase\");\n        if ((VirtualPowerPlantContract.batteryInvestmentContract()).updateRemainingInvestment(newRemainingInvestment)) {\n            // remainingInvestment = newRemainingInvestment;\n            VirtualPowerPlantContract.chargeBattery(_batteryID, _energyAmountToPurchase);\n            return true;\n        }\n        return false;\n    }\n\n\n}\n",
  "sourcePath": "/Users/yan-dev/Documents/virtual-power-plant/contracts/BatteryEnergy.sol",
  "compiler": {
    "name": "solc",
    "version": "0.5.0+commit.1d4f565a.Emscripten.clang"
  },
  "schemaVersion": "3.0.0",
  "updatedAt": "2019-01-06T01:12:38.781Z",
  "devdoc": {
    "methods": {}
  },
  "userdoc": {
    "methods": {}
  }
}