{
  "contractName": "BatteryEnergy",
  "abi": [
    {
      "constant": true,
      "inputs": [],
      "name": "purchaseInterval",
      "outputs": [
        {
          "name": "",
          "type": "uint256"
        }
      ],
      "payable": false,
      "stateMutability": "view",
      "type": "function"
    },
    {
      "constant": true,
      "inputs": [],
      "name": "virtualPowerPlantAddress",
      "outputs": [
        {
          "name": "",
          "type": "address"
        }
      ],
      "payable": false,
      "stateMutability": "view",
      "type": "function"
    },
    {
      "inputs": [
        {
          "name": "_virtualPowerPlantAddress",
          "type": "address"
        }
      ],
      "payable": false,
      "stateMutability": "nonpayable",
      "type": "constructor"
    },
    {
      "anonymous": false,
      "inputs": [
        {
          "indexed": false,
          "name": "batteryID",
          "type": "uint256"
        }
      ],
      "name": "LogBatteryCheck",
      "type": "event"
    },
    {
      "anonymous": false,
      "inputs": [
        {
          "indexed": false,
          "name": "serialNumber",
          "type": "string"
        },
        {
          "indexed": false,
          "name": "energyPurchased",
          "type": "uint256"
        },
        {
          "indexed": false,
          "name": "energyPrice",
          "type": "uint256"
        },
        {
          "indexed": false,
          "name": "remainingInvestment",
          "type": "uint256"
        }
      ],
      "name": "LogEnergyPurchased",
      "type": "event"
    },
    {
      "constant": false,
      "inputs": [],
      "name": "checkBatteryEnergy",
      "outputs": [
        {
          "name": "totalEnergyPurchase",
          "type": "uint256"
        }
      ],
      "payable": false,
      "stateMutability": "nonpayable",
      "type": "function"
    }
  ],
  "bytecode": "0x6080604052610e1060025534801561001657600080fd5b50604051602080610ec98339810180604052602081101561003657600080fd5b810190808051906020019092919050505080600160006101000a81548173ffffffffffffffffffffffffffffffffffffffff021916908373ffffffffffffffffffffffffffffffffffffffff160217905550806000806101000a81548173ffffffffffffffffffffffffffffffffffffffff021916908373ffffffffffffffffffffffffffffffffffffffff16021790555050610df1806100d86000396000f3fe608060405260043610610057576000357c0100000000000000000000000000000000000000000000000000000000900463ffffffff1680630fc646911461005c5780634fef236414610087578063feb663d0146100b2575b600080fd5b34801561006857600080fd5b50610071610109565b6040518082815260200191505060405180910390f35b34801561009357600080fd5b5061009c61010f565b6040518082815260200191505060405180910390f35b3480156100be57600080fd5b506100c761079e565b604051808273ffffffffffffffffffffffffffffffffffffffff1673ffffffffffffffffffffffffffffffffffffffff16815260200191505060405180910390f35b60025481565b6000806000809054906101000a900473ffffffffffffffffffffffffffffffffffffffff1673ffffffffffffffffffffffffffffffffffffffff1663cd54d44a6040518163ffffffff167c010000000000000000000000000000000000000000000000000000000002815260040160206040518083038186803b15801561019557600080fd5b505afa1580156101a9573d6000803e3d6000fd5b505050506040513d60208110156101bf57600080fd5b8101908080519060200190929190505050905060006101dc6107c4565b905060008090505b82811015610798577f43e0d79edab99ad436795e03537a27e8192b11095f7d9e54e8748f538f75910c816040518082815260200191505060405180910390a160008060009054906101000a900473ffffffffffffffffffffffffffffffffffffffff1673ffffffffffffffffffffffffffffffffffffffff166369777fce6040518163ffffffff167c010000000000000000000000000000000000000000000000000000000002815260040160206040518083038186803b1580156102a857600080fd5b505afa1580156102bc573d6000803e3d6000fd5b505050506040513d60208110156102d257600080fd5b810190808051906020019092919050505073ffffffffffffffffffffffffffffffffffffffff1663af5cfae86040518163ffffffff167c010000000000000000000000000000000000000000000000000000000002815260040160206040518083038186803b15801561034457600080fd5b505afa158015610358573d6000803e3d6000fd5b505050506040513d602081101561036e57600080fd5b810190808051906020019092919050505011151561038b57600080fd5b600080600080606060008060008060009054906101000a900473ffffffffffffffffffffffffffffffffffffffff1673ffffffffffffffffffffffffffffffffffffffff16635f392c908a6040518263ffffffff167c01000000000000000000000000000000000000000000000000000000000281526004018082815260200191505060006040518083038186803b15801561042657600080fd5b505afa15801561043a573d6000803e3d6000fd5b505050506040513d6000823e3d601f19601f8201168201806040525061010081101561046557600080fd5b810190808051906020019092919080519060200190929190805190602001909291908051906020019092919080516401000000008111156104a557600080fd5b828101905060208101848111156104bb57600080fd5b81518560018202830111640100000000821117156104d857600080fd5b5050929190602001805190602001909291908051906020019092919080519060200190929190505050975097509750975097509750975097506000878903905060008111158061052c575060001515821515145b1561053f5750505050505050505061078b565b610549848c6107cd565b1561078157600061055b848d846107da565b9050610567818d610990565b1561077f577f0b653bfdddfc30eea8a7592c320068fc3d8b9bd02cd23b28868c34542a7d60d886828e6000809054906101000a900473ffffffffffffffffffffffffffffffffffffffff1673ffffffffffffffffffffffffffffffffffffffff166369777fce6040518163ffffffff167c010000000000000000000000000000000000000000000000000000000002815260040160206040518083038186803b15801561061357600080fd5b505afa158015610627573d6000803e3d6000fd5b505050506040513d602081101561063d57600080fd5b810190808051906020019092919050505073ffffffffffffffffffffffffffffffffffffffff1663af5cfae86040518163ffffffff167c010000000000000000000000000000000000000000000000000000000002815260040160206040518083038186803b1580156106af57600080fd5b505afa1580156106c3573d6000803e3d6000fd5b505050506040513d60208110156106d957600080fd5b81019080805190602001909291905050506040518080602001858152602001848152602001838152602001828103825286818151815260200191508051906020019080838360005b8381101561073c578082015181840152602081019050610721565b50505050905090810190601f1680156107695780820380516001836020036101000a031916815260200191505b509550505050505060405180910390a1808e019d505b505b5050505050505050505b80806001019150506101e4565b50505090565b600160009054906101000a900473ffffffffffffffffffffffffffffffffffffffff1681565b60006001905090565b6000818311905092915050565b6000806107eb600254610e10610d22565b90506108006107fa8683610d4c565b84610d8a565b915060008060009054906101000a900473ffffffffffffffffffffffffffffffffffffffff1673ffffffffffffffffffffffffffffffffffffffff166369777fce6040518163ffffffff167c010000000000000000000000000000000000000000000000000000000002815260040160206040518083038186803b15801561088757600080fd5b505afa15801561089b573d6000803e3d6000fd5b505050506040513d60208110156108b157600080fd5b810190808051906020019092919050505073ffffffffffffffffffffffffffffffffffffffff1663af5cfae86040518163ffffffff167c010000000000000000000000000000000000000000000000000000000002815260040160206040518083038186803b15801561092357600080fd5b505afa158015610937573d6000803e3d6000fd5b505050506040513d602081101561094d57600080fd5b81019080805190602001909291905050509050600061096c8487610d4c565b905081811115610986578190506109838287610d22565b93505b5050509392505050565b600080610aff6000809054906101000a900473ffffffffffffffffffffffffffffffffffffffff1673ffffffffffffffffffffffffffffffffffffffff166369777fce6040518163ffffffff167c010000000000000000000000000000000000000000000000000000000002815260040160206040518083038186803b158015610a1957600080fd5b505afa158015610a2d573d6000803e3d6000fd5b505050506040513d6020811015610a4357600080fd5b810190808051906020019092919050505073ffffffffffffffffffffffffffffffffffffffff1663af5cfae86040518163ffffffff167c010000000000000000000000000000000000000000000000000000000002815260040160206040518083038186803b158015610ab557600080fd5b505afa158015610ac9573d6000803e3d6000fd5b505050506040513d6020811015610adf57600080fd5b8101908080519060200190929190505050610afa8686610d4c565b610da3565b905060008110151515610ba0576040517f08c379a00000000000000000000000000000000000000000000000000000000081526004018080602001828103825260268152602001807f4e6f7420656e6f756768206d6f6e657920746f206d616b65207468697320707581526020017f726368617365000000000000000000000000000000000000000000000000000081525060400191505060405180910390fd5b6000809054906101000a900473ffffffffffffffffffffffffffffffffffffffff1673ffffffffffffffffffffffffffffffffffffffff166369777fce6040518163ffffffff167c010000000000000000000000000000000000000000000000000000000002815260040160206040518083038186803b158015610c2357600080fd5b505afa158015610c37573d6000803e3d6000fd5b505050506040513d6020811015610c4d57600080fd5b810190808051906020019092919050505073ffffffffffffffffffffffffffffffffffffffff1663a342766b826040518263ffffffff167c010000000000000000000000000000000000000000000000000000000002815260040180828152602001915050602060405180830381600087803b158015610ccc57600080fd5b505af1158015610ce0573d6000803e3d6000fd5b505050506040513d6020811015610cf657600080fd5b810190808051906020019092919050505015610d16576001915050610d1c565b60009150505b92915050565b60008082111515610d3257600080fd5b60008284811515610d3f57fe5b0490508091505092915050565b600080831415610d5f5760009050610d84565b60008284029050828482811515610d7257fe5b04141515610d7f57600080fd5b809150505b92915050565b6000818310610d995781610d9b565b825b905092915050565b6000828211151515610db457600080fd5b60008284039050809150509291505056fea165627a7a72305820e381086d86cbb20cbcebd880b0a1466bb5df7222c522d04df8a52ffd58410f4d0029",
  "source": "pragma solidity >=0.5.0;\n\nimport \"./VirtualPowerPlant.sol\";\n// import \"./BatteryLibrary.sol\";\nimport \"./SafeMath.sol\";\nimport \"./Math.sol\";\n\ncontract BatteryEnergy {\n\n    // Type declarations\n    VirtualPowerPlant VirtualPowerPlantContract;\n\n    // State variables\n    address public virtualPowerPlantAddress; // address of parent contract deploying battery investment\n    uint public purchaseInterval = 3600; // in sec,\n     // Battery[] public tempBattery;\n    // uint public temp;\n    // uint private remainingInvestment;  //\n\n    // Events\n    // event Log(uint counter);\n    event LogBatteryCheck(uint batteryID);\n    event LogEnergyPurchased(string serialNumber, uint energyPurchased, uint energyPrice, uint remainingInvestment);\n\n\n    constructor (address _virtualPowerPlantAddress) public {\n        virtualPowerPlantAddress = _virtualPowerPlantAddress;\n        VirtualPowerPlantContract = VirtualPowerPlant(_virtualPowerPlantAddress);\n    }\n\n\n    function checkBatteryEnergy () public returns (uint totalEnergyPurchase) {\n        uint batteryIDMax = VirtualPowerPlantContract.getBatteryIDMax();\n        uint energyPrice = getRealTimeEnergyPrice();\n\n        for (uint batteryID = 0; batteryID < batteryIDMax; batteryID++) {\n            // uint capacity = VirtualPowerPlantContract.getBatteryCapacityRemaining(i);\n            // uint threshold = VirtualPowerPlantContract.getBatteryCapacityRemaining(i);\n            emit LogBatteryCheck(batteryID);\n            require((VirtualPowerPlantContract.batteryInvestmentContract()).remainingInvestment() > 0);\n            (\n                uint capacity,\n                uint currentFilled,\n                uint dateAdded,\n                uint cost,\n                string memory serialNumber,\n                uint priceThreshold,\n                uint chargeRate,\n                bool active\n            ) = VirtualPowerPlantContract.batteries(batteryID);\n\n            uint emptyCapacity = capacity - currentFilled;\n            if (emptyCapacity <= 0 || active == false) {\n                //revert(\"Not enough Ether provided.\");\n                continue;\n            }\n\n            if (energyDecisionAlgorithm(priceThreshold, energyPrice)) {\n                uint energyAmountToPurchase = calculateEnergyToPurchase(chargeRate, energyPrice, emptyCapacity);\n                if (buyEnergy(energyAmountToPurchase, energyPrice)){\n                    emit LogEnergyPurchased(\n                        serialNumber,\n                        energyAmountToPurchase,\n                        energyPrice,\n                        (VirtualPowerPlantContract.batteryInvestmentContract()).remainingInvestment()\n                    );\n                    totalEnergyPurchase += energyAmountToPurchase;\n                }\n            }\n            // return (VirtualPowerPlantContract.BatteryInvestmentContract()).remainingInvestment();\n        }\n\n    }\n\n    function energyDecisionAlgorithm (uint _priceThreshold, uint _energyPrice) private returns (bool chargeBattery) {\n        chargeBattery = _priceThreshold > _energyPrice;\n    }\n\n    function calculateEnergyToPurchase\n    (\n        uint _chargeRate,\n        uint _energyPrice,\n        uint _emptyCapacity\n    )\n    private\n    returns (uint energyAmountToPurchase)\n    {\n        uint purchaseIntervalHours = SafeMath.div(purchaseInterval, 3600);  // convert seconds to hours\n        energyAmountToPurchase = Math.min(SafeMath.mul(_chargeRate, purchaseIntervalHours), _emptyCapacity);\n        uint remainingInvestment = (VirtualPowerPlantContract.batteryInvestmentContract()).remainingInvestment();\n        uint costOfEnergyPurchase = SafeMath.mul(energyAmountToPurchase, _energyPrice);\n        if (costOfEnergyPurchase > remainingInvestment) {\n            costOfEnergyPurchase = remainingInvestment;\n            energyAmountToPurchase = SafeMath.div(remainingInvestment, _energyPrice);\n        }\n    }\n\n    function getRealTimeEnergyPrice () private returns (uint) {\n        return uint(1);\n    }\n\n    function buyEnergy (uint _energyAmountToPurchase, uint _energyPrice) private returns (bool) {\n        uint newRemainingInvestment = SafeMath.sub(\n            (VirtualPowerPlantContract.batteryInvestmentContract()).remainingInvestment(),\n            SafeMath.mul(\n                _energyAmountToPurchase,\n                _energyPrice\n            )\n        );\n        require(newRemainingInvestment >= 0, \"Not enough money to make this purchase\");\n        if ((VirtualPowerPlantContract.batteryInvestmentContract()).updateRemainingInvestment(newRemainingInvestment)) {\n            // remainingInvestment = newRemainingInvestment;\n            return true;\n        }\n        return false;\n    }\n\n\n}\n",
  "sourcePath": "/Users/yan-dev/Documents/virtual-power-plant/contracts/BatteryEnergy.sol",
  "compiler": {
    "name": "solc",
    "version": "0.5.0+commit.1d4f565a.Emscripten.clang"
  },
  "schemaVersion": "3.0.0",
  "updatedAt": "2019-01-04T23:41:06.501Z",
  "devdoc": {
    "methods": {}
  },
  "userdoc": {
    "methods": {}
  }
}