{
  "contractName": "BatteryEnergy",
  "abi": [
    {
      "constant": true,
      "inputs": [],
      "name": "purchaseInterval",
      "outputs": [
        {
          "name": "",
          "type": "uint256"
        }
      ],
      "payable": false,
      "stateMutability": "view",
      "type": "function"
    },
    {
      "constant": true,
      "inputs": [],
      "name": "virtualPowerPlantAddress",
      "outputs": [
        {
          "name": "",
          "type": "address"
        }
      ],
      "payable": false,
      "stateMutability": "view",
      "type": "function"
    },
    {
      "inputs": [
        {
          "name": "_virtualPowerPlantAddress",
          "type": "address"
        }
      ],
      "payable": false,
      "stateMutability": "nonpayable",
      "type": "constructor"
    },
    {
      "anonymous": false,
      "inputs": [
        {
          "indexed": false,
          "name": "batteryID",
          "type": "uint256"
        }
      ],
      "name": "LogBatteryCheck",
      "type": "event"
    },
    {
      "anonymous": false,
      "inputs": [
        {
          "indexed": false,
          "name": "serialNumber",
          "type": "bytes32"
        },
        {
          "indexed": false,
          "name": "energyPurchased",
          "type": "uint256"
        },
        {
          "indexed": false,
          "name": "energyPrice",
          "type": "uint256"
        },
        {
          "indexed": false,
          "name": "remainingInvestment",
          "type": "uint256"
        }
      ],
      "name": "LogEnergyPurchased",
      "type": "event"
    },
    {
      "anonymous": false,
      "inputs": [
        {
          "indexed": false,
          "name": "serialNumber",
          "type": "bytes32"
        },
        {
          "indexed": false,
          "name": "energyPurchased",
          "type": "uint256"
        },
        {
          "indexed": false,
          "name": "energyPrice",
          "type": "uint256"
        },
        {
          "indexed": false,
          "name": "remainingInvestment",
          "type": "uint256"
        }
      ],
      "name": "LogEnergySold",
      "type": "event"
    },
    {
      "constant": false,
      "inputs": [],
      "name": "checkBatteryEnergy",
      "outputs": [
        {
          "name": "",
          "type": "uint256"
        }
      ],
      "payable": false,
      "stateMutability": "nonpayable",
      "type": "function"
    },
    {
      "constant": false,
      "inputs": [
        {
          "name": "_batteryID",
          "type": "uint256"
        }
      ],
      "name": "executeBatteryTransaction",
      "outputs": [
        {
          "name": "",
          "type": "uint256"
        }
      ],
      "payable": false,
      "stateMutability": "nonpayable",
      "type": "function"
    }
  ],
  "bytecode": "0x6080604052610e1060025534801561001657600080fd5b506040516020806116d48339810180604052602081101561003657600080fd5b810190808051906020019092919050505080600160006101000a81548173ffffffffffffffffffffffffffffffffffffffff021916908373ffffffffffffffffffffffffffffffffffffffff160217905550806000806101000a81548173ffffffffffffffffffffffffffffffffffffffff021916908373ffffffffffffffffffffffffffffffffffffffff160217905550506115fc806100d86000396000f3fe608060405260043610610062576000357c0100000000000000000000000000000000000000000000000000000000900463ffffffff1680630fc64691146100675780634fef236414610092578063d5fbc71d146100bd578063feb663d01461010c575b600080fd5b34801561007357600080fd5b5061007c610163565b6040518082815260200191505060405180910390f35b34801561009e57600080fd5b506100a7610169565b6040518082815260200191505060405180910390f35b3480156100c957600080fd5b506100f6600480360360208110156100e057600080fd5b8101908080359060200190929190505050610327565b6040518082815260200191505060405180910390f35b34801561011857600080fd5b5061012161069d565b604051808273ffffffffffffffffffffffffffffffffffffffff1673ffffffffffffffffffffffffffffffffffffffff16815260200191505060405180910390f35b60025481565b600080600080600090505b6000809054906101000a900473ffffffffffffffffffffffffffffffffffffffff1673ffffffffffffffffffffffffffffffffffffffff16637ab9be186040518163ffffffff167c010000000000000000000000000000000000000000000000000000000002815260040160206040518083038186803b1580156101f757600080fd5b505afa15801561020b573d6000803e3d6000fd5b505050506040513d602081101561022157600080fd5b810190808051906020019092919050505081101561031e576000809054906101000a900473ffffffffffffffffffffffffffffffffffffffff1673ffffffffffffffffffffffffffffffffffffffff166364e98072826040518263ffffffff167c01000000000000000000000000000000000000000000000000000000000281526004018082815260200191505060206040518083038186803b1580156102c757600080fd5b505afa1580156102db573d6000803e3d6000fd5b505050506040513d60208110156102f157600080fd5b8101908080519060200190929190505050925061030d83610327565b820191508080600101915050610174565b50809250505090565b60008060006103346106c3565b90507f43e0d79edab99ad436795e03537a27e8192b11095f7d9e54e8748f538f75910c846040518082815260200191505060405180910390a160008060009054906101000a900473ffffffffffffffffffffffffffffffffffffffff1673ffffffffffffffffffffffffffffffffffffffff166369777fce6040518163ffffffff167c010000000000000000000000000000000000000000000000000000000002815260040160206040518083038186803b1580156103f257600080fd5b505afa158015610406573d6000803e3d6000fd5b505050506040513d602081101561041c57600080fd5b810190808051906020019092919050505073ffffffffffffffffffffffffffffffffffffffff1663af5cfae86040518163ffffffff167c010000000000000000000000000000000000000000000000000000000002815260040160206040518083038186803b15801561048e57600080fd5b505afa1580156104a2573d6000803e3d6000fd5b505050506040513d60208110156104b857600080fd5b81019080805190602001909291905050501115156104d557600080fd5b60008060008060008060008060009054906101000a900473ffffffffffffffffffffffffffffffffffffffff1673ffffffffffffffffffffffffffffffffffffffff16633dcd20f48c6040518263ffffffff167c01000000000000000000000000000000000000000000000000000000000281526004018082815260200191505060e06040518083038186803b15801561056e57600080fd5b505afa158015610582573d6000803e3d6000fd5b505050506040513d60e081101561059857600080fd5b810190808051906020019092919080519060200190929190805190602001909291908051906020019092919080519060200190929190805190602001909291908051906020019092919050505096509650965096509650965096506001151582151514151561066f576040517f08c379a00000000000000000000000000000000000000000000000000000000081526004018080602001828103825260188152602001807f426174746572792073686f756c6420626520616374697665000000000000000081525060200191505060405180910390fd5b600061067b858a6106cc565b905061068c8c898989888e876106ea565b995050505050505050505050919050565b600160009054906101000a900473ffffffffffffffffffffffffffffffffffffffff1681565b60006005905090565b6000818311156106df57600190506106e4565b600090505b92915050565b6000806106fb600254610e10610cda565b905060008789039050600115158415151415610b03576000811115156107af576040517f08c379a000000000000000000000000000000000000000000000000000000000815260040180806020018281038252602d8152602001807f426174746572792073686f756c64206861766520656d7074792063617061636981526020017f747920666f72206368617267650000000000000000000000000000000000000081525060400191505060405180910390fd5b6107c26107bc8784610d04565b82610d42565b925060008060009054906101000a900473ffffffffffffffffffffffffffffffffffffffff1673ffffffffffffffffffffffffffffffffffffffff166369777fce6040518163ffffffff167c010000000000000000000000000000000000000000000000000000000002815260040160206040518083038186803b15801561084957600080fd5b505afa15801561085d573d6000803e3d6000fd5b505050506040513d602081101561087357600080fd5b810190808051906020019092919050505073ffffffffffffffffffffffffffffffffffffffff1663af5cfae86040518163ffffffff167c010000000000000000000000000000000000000000000000000000000002815260040160206040518083038186803b1580156108e557600080fd5b505afa1580156108f9573d6000803e3d6000fd5b505050506040513d602081101561090f57600080fd5b81019080805190602001909291905050509050600061092e8588610d04565b905081811115610948578190506109458288610cda565b94505b6109538c8689610d5b565b507fe921c141ec599faf4d493fedfbb3af7c689ff38c273ed12108fd131c50f654a78986896000809054906101000a900473ffffffffffffffffffffffffffffffffffffffff1673ffffffffffffffffffffffffffffffffffffffff166369777fce6040518163ffffffff167c010000000000000000000000000000000000000000000000000000000002815260040160206040518083038186803b1580156109fb57600080fd5b505afa158015610a0f573d6000803e3d6000fd5b505050506040513d6020811015610a2557600080fd5b810190808051906020019092919050505073ffffffffffffffffffffffffffffffffffffffff1663af5cfae86040518163ffffffff167c010000000000000000000000000000000000000000000000000000000002815260040160206040518083038186803b158015610a9757600080fd5b505afa158015610aab573d6000803e3d6000fd5b505050506040513d6020811015610ac157600080fd5b81019080805190602001909291905050506040518085815260200184815260200183815260200182815260200194505050505060405180910390a15050610ccd565b610b16610b108784610d04565b89610d42565b9250610b238a84876111c2565b507f1eb90c2aa597b0bffa4231991db228ac204daee844c46a996ce98a8da13b71d18784876000809054906101000a900473ffffffffffffffffffffffffffffffffffffffff1673ffffffffffffffffffffffffffffffffffffffff166369777fce6040518163ffffffff167c010000000000000000000000000000000000000000000000000000000002815260040160206040518083038186803b158015610bcb57600080fd5b505afa158015610bdf573d6000803e3d6000fd5b505050506040513d6020811015610bf557600080fd5b810190808051906020019092919050505073ffffffffffffffffffffffffffffffffffffffff1663af5cfae86040518163ffffffff167c010000000000000000000000000000000000000000000000000000000002815260040160206040518083038186803b158015610c6757600080fd5b505afa158015610c7b573d6000803e3d6000fd5b505050506040513d6020811015610c9157600080fd5b81019080805190602001909291905050506040518085815260200184815260200183815260200182815260200194505050505060405180910390a15b5050979650505050505050565b60008082111515610cea57600080fd5b60008284811515610cf757fe5b0490508091505092915050565b600080831415610d175760009050610d3c565b60008284029050828482811515610d2a57fe5b04141515610d3757600080fd5b809150505b92915050565b6000818310610d515781610d53565b825b905092915050565b600080610eca6000809054906101000a900473ffffffffffffffffffffffffffffffffffffffff1673ffffffffffffffffffffffffffffffffffffffff166369777fce6040518163ffffffff167c010000000000000000000000000000000000000000000000000000000002815260040160206040518083038186803b158015610de457600080fd5b505afa158015610df8573d6000803e3d6000fd5b505050506040513d6020811015610e0e57600080fd5b810190808051906020019092919050505073ffffffffffffffffffffffffffffffffffffffff1663af5cfae86040518163ffffffff167c010000000000000000000000000000000000000000000000000000000002815260040160206040518083038186803b158015610e8057600080fd5b505afa158015610e94573d6000803e3d6000fd5b505050506040513d6020811015610eaa57600080fd5b8101908080519060200190929190505050610ec58686610d04565b61158d565b905060008110151515610f6b576040517f08c379a00000000000000000000000000000000000000000000000000000000081526004018080602001828103825260268152602001807f4e6f7420656e6f756768206d6f6e657920746f206d616b65207468697320707581526020017f726368617365000000000000000000000000000000000000000000000000000081525060400191505060405180910390fd5b6000809054906101000a900473ffffffffffffffffffffffffffffffffffffffff1673ffffffffffffffffffffffffffffffffffffffff166369777fce6040518163ffffffff167c010000000000000000000000000000000000000000000000000000000002815260040160206040518083038186803b158015610fee57600080fd5b505afa158015611002573d6000803e3d6000fd5b505050506040513d602081101561101857600080fd5b810190808051906020019092919050505073ffffffffffffffffffffffffffffffffffffffff1663a342766b826040518263ffffffff167c010000000000000000000000000000000000000000000000000000000002815260040180828152602001915050602060405180830381600087803b15801561109757600080fd5b505af11580156110ab573d6000803e3d6000fd5b505050506040513d60208110156110c157600080fd5b8101908080519060200190929190505050156111b5576000809054906101000a900473ffffffffffffffffffffffffffffffffffffffff1673ffffffffffffffffffffffffffffffffffffffff1663460fafbc86866040518363ffffffff167c01000000000000000000000000000000000000000000000000000000000281526004018083815260200182815260200192505050602060405180830381600087803b15801561116f57600080fd5b505af1158015611183573d6000803e3d6000fd5b505050506040513d602081101561119957600080fd5b81019080805190602001909291905050505060019150506111bb565b60009150505b9392505050565b6000806113316000809054906101000a900473ffffffffffffffffffffffffffffffffffffffff1673ffffffffffffffffffffffffffffffffffffffff166369777fce6040518163ffffffff167c010000000000000000000000000000000000000000000000000000000002815260040160206040518083038186803b15801561124b57600080fd5b505afa15801561125f573d6000803e3d6000fd5b505050506040513d602081101561127557600080fd5b810190808051906020019092919050505073ffffffffffffffffffffffffffffffffffffffff1663af5cfae86040518163ffffffff167c010000000000000000000000000000000000000000000000000000000002815260040160206040518083038186803b1580156112e757600080fd5b505afa1580156112fb573d6000803e3d6000fd5b505050506040513d602081101561131157600080fd5b810190808051906020019092919050505061132c8686610d04565b6115af565b90506000809054906101000a900473ffffffffffffffffffffffffffffffffffffffff1673ffffffffffffffffffffffffffffffffffffffff166369777fce6040518163ffffffff167c010000000000000000000000000000000000000000000000000000000002815260040160206040518083038186803b1580156113b657600080fd5b505afa1580156113ca573d6000803e3d6000fd5b505050506040513d60208110156113e057600080fd5b810190808051906020019092919050505073ffffffffffffffffffffffffffffffffffffffff1663a342766b826040518263ffffffff167c010000000000000000000000000000000000000000000000000000000002815260040180828152602001915050602060405180830381600087803b15801561145f57600080fd5b505af1158015611473573d6000803e3d6000fd5b505050506040513d602081101561148957600080fd5b810190808051906020019092919050505015611580576000809054906101000a900473ffffffffffffffffffffffffffffffffffffffff1673ffffffffffffffffffffffffffffffffffffffff1663460fafbc86866000036040518363ffffffff167c01000000000000000000000000000000000000000000000000000000000281526004018083815260200182815260200192505050602060405180830381600087803b15801561153a57600080fd5b505af115801561154e573d6000803e3d6000fd5b505050506040513d602081101561156457600080fd5b8101908080519060200190929190505050506001915050611586565b60009150505b9392505050565b600082821115151561159e57600080fd5b600082840390508091505092915050565b60008082840190508381101515156115c657600080fd5b809150509291505056fea165627a7a723058208b57af930333a29dfd1e944e6767afb4c425285c8d04817bf83dd3a0840466960029",
  "source": "pragma solidity >=0.5.0;\n\nimport \"./VirtualPowerPlant.sol\";\n// import \"./BatteryLibrary.sol\";\nimport \"./SafeMath.sol\";\nimport \"./Math.sol\";\n\ncontract BatteryEnergy {\n\n    // Type declarations\n    VirtualPowerPlant VirtualPowerPlantContract;\n\n    // State variables\n    address public virtualPowerPlantAddress; // address of parent contract deploying battery investment\n    uint public purchaseInterval = 3600; // in sec,\n     // Battery[] public tempBattery;\n    // uint public temp;\n    // uint private remainingInvestment;  //\n\n    // Events\n    // event Log(uint counter);\n    event LogBatteryCheck(uint batteryID);\n    event LogEnergyPurchased(bytes32 serialNumber, uint energyPurchased, uint energyPrice, uint remainingInvestment);\n    event LogEnergySold(bytes32 serialNumber, uint energyPurchased, uint energyPrice, uint remainingInvestment);\n\n\n    constructor (address _virtualPowerPlantAddress) public {\n        virtualPowerPlantAddress = _virtualPowerPlantAddress;\n        VirtualPowerPlantContract = VirtualPowerPlant(_virtualPowerPlantAddress);\n    }\n\n\n    function checkBatteryEnergy () public returns (uint) {\n        // uint batteryIDMax = VirtualPowerPlantContract.getBatteryIDMax();\n        // uint energyPrice = getRealTimeEnergyPrice();\n        // totalEnergyPurchase = 88;\n        uint batteryID;\n        uint totalEnergyPurchase;\n\n        for (uint i = 0; i < VirtualPowerPlantContract.numBatteries(); i++) {\n            batteryID = VirtualPowerPlantContract.batteryMapping(i);\n            totalEnergyPurchase += executeBatteryTransaction(batteryID);\n        }\n\n        return totalEnergyPurchase;\n        // remainingInvestment = (VirtualPowerPlantContract.BatteryInvestmentContract()).remainingInvestment();\n    }\n\n    function executeBatteryTransaction (uint _batteryID) public returns (uint) {\n\n        uint energyAmountToTransact;\n        uint energyPrice = getRealTimeEnergyPrice();\n\n        emit LogBatteryCheck(_batteryID);\n        require((VirtualPowerPlantContract.batteryInvestmentContract()).remainingInvestment() > 0);\n        (\n            uint capacity,\n            uint currentFilled,\n            bytes32 serialNumber,\n            uint priceThreshold,\n            uint chargeRate,\n            bool isActive,\n            uint mapIndex\n        ) = VirtualPowerPlantContract.getRelevantBatteryInfo(_batteryID);\n        // uint emptyCapacity = VirtualPowerPlantContract.getBatteryCapacityRemaining(_batteryID);\n\n        // require(emptyCapacity > 0, \"Battery should have empty capacity for charge\");\n        require(isActive == true, \"Battery should be active\");\n        bool chargeBattery = energyDecisionAlgorithm(priceThreshold, energyPrice);\n        energyAmountToTransact = transactEnergy(\n            _batteryID,\n            capacity,\n            currentFilled,\n            serialNumber,\n            chargeRate,\n            energyPrice,\n            chargeBattery\n        );\n\n        // if (chargeBattery == true) {\n        //\n        //     buyEnergy(_batteryID, energyAmountToTransact, energyPrice);\n        //\n        //     // emit LogEnergyPurchased(\n        //     //     serialNumber,\n        //     //     energyAmountToPurchase,\n        //     //     energyPrice,\n        //     //     (VirtualPowerPlantContract.batteryInvestmentContract()).remainingInvestment()\n        //     // );\n        //     // return energyAmountToPurchase;\n        // } else {\n        //     // energyToSell = calculateEnergyToTransact(chargeRate, energyPrice, emptyCapacity);\n        //     sellEnergy(_batteryID, energyAmountToTransact, energyPrice);\n        //     // emit LogEnergySold(\n        //     //     serialNumber,\n        //     //     energyAmountToPurchase,\n        //     //     energyPrice,\n        //     //     (VirtualPowerPlantContract.batteryInvestmentContract()).remainingInvestment()\n        //     // );\n        // }\n        // return 0;\n\n\n    }\n\n\n    function energyDecisionAlgorithm (uint _priceThreshold, uint _energyPrice) private pure returns (bool) {\n        if (_priceThreshold > _energyPrice) {\n            return true;\n        } else{\n            return false;\n        }\n    }\n\n    function transactEnergy\n    (\n        uint _batteryID,\n        uint _capacity,\n        uint _currentFilled,\n        bytes32 _serialNumber,\n        uint _chargeRate,\n        uint _energyPrice,\n        bool _chargeBattery\n    )\n    private\n    returns (uint calculateEnergyToTransact)\n    {\n        uint purchaseIntervalHours = SafeMath.div(purchaseInterval, 3600);  // convert seconds to hours\n        uint emptyCapacity = _capacity - _currentFilled;\n\n        if (_chargeBattery == true) {\n            require(emptyCapacity > 0, \"Battery should have empty capacity for charge\");\n\n            calculateEnergyToTransact = Math.min(SafeMath.mul(_chargeRate, purchaseIntervalHours), emptyCapacity);\n            uint remainingInvestment = (VirtualPowerPlantContract.batteryInvestmentContract()).remainingInvestment();\n            uint costOfEnergyPurchase = SafeMath.mul(calculateEnergyToTransact, _energyPrice);\n            if (costOfEnergyPurchase > remainingInvestment) {\n                costOfEnergyPurchase = remainingInvestment;\n                calculateEnergyToTransact = SafeMath.div(remainingInvestment, _energyPrice);\n            }\n\n            buyEnergy(_batteryID, calculateEnergyToTransact, _energyPrice);\n            emit LogEnergyPurchased(\n                _serialNumber,\n                calculateEnergyToTransact,\n                _energyPrice,\n                (VirtualPowerPlantContract.batteryInvestmentContract()).remainingInvestment()\n            );\n        } else {\n            calculateEnergyToTransact = Math.min(SafeMath.mul(_chargeRate, purchaseIntervalHours), _currentFilled);\n            sellEnergy(_batteryID, calculateEnergyToTransact, _energyPrice);\n            emit LogEnergySold(\n                _serialNumber,\n                calculateEnergyToTransact,\n                _energyPrice,\n                (VirtualPowerPlantContract.batteryInvestmentContract()).remainingInvestment()\n            );\n        }\n    }\n\n    function getRealTimeEnergyPrice () private pure returns (uint realTimePrice) {\n        realTimePrice = 5;\n    }\n\n    function buyEnergy (uint _batteryID, uint _energyAmountToPurchase, uint _energyPrice) private returns (bool) {\n        uint newRemainingInvestment = SafeMath.sub(\n            (VirtualPowerPlantContract.batteryInvestmentContract()).remainingInvestment(),\n            SafeMath.mul(\n                _energyAmountToPurchase,\n                _energyPrice\n            )\n        );\n        require(newRemainingInvestment >= 0, \"Not enough money to make this purchase\");\n        if ((VirtualPowerPlantContract.batteryInvestmentContract()).updateRemainingInvestment(newRemainingInvestment)) {\n            // remainingInvestment = newRemainingInvestment;\n            VirtualPowerPlantContract.chargeBattery(_batteryID, _energyAmountToPurchase);\n            return true;\n        }\n        return false;\n    }\n\n    function sellEnergy (uint _batteryID, uint _energyAmountToSell, uint _energyPrice) private returns (bool) {\n        uint newRemainingInvestment = SafeMath.add(\n            (VirtualPowerPlantContract.batteryInvestmentContract()).remainingInvestment(),\n            SafeMath.mul(\n                _energyAmountToSell,\n                _energyPrice\n            )\n        );\n        if ((VirtualPowerPlantContract.batteryInvestmentContract()).updateRemainingInvestment(newRemainingInvestment)) {\n            VirtualPowerPlantContract.chargeBattery(_batteryID, -_energyAmountToSell);\n            return true;\n        }\n        return false;\n    }\n\n\n}\n",
  "sourcePath": "/Users/yan-dev/Documents/virtual-power-plant/contracts/BatteryEnergy.sol",
  "compiler": {
    "name": "solc",
    "version": "0.5.0+commit.1d4f565a.Emscripten.clang"
  },
  "schemaVersion": "3.0.0",
  "updatedAt": "2019-01-08T22:08:39.958Z",
  "devdoc": {
    "methods": {}
  },
  "userdoc": {
    "methods": {}
  }
}