{
  "contractName": "BatteryEnergy",
  "abi": [
    {
      "constant": true,
      "inputs": [],
      "name": "purchaseInterval",
      "outputs": [
        {
          "name": "",
          "type": "uint256"
        }
      ],
      "payable": false,
      "stateMutability": "view",
      "type": "function"
    },
    {
      "constant": true,
      "inputs": [],
      "name": "batteryIDCounter",
      "outputs": [
        {
          "name": "",
          "type": "uint256"
        }
      ],
      "payable": false,
      "stateMutability": "view",
      "type": "function"
    },
    {
      "constant": true,
      "inputs": [],
      "name": "virtualPowerPlantAddress",
      "outputs": [
        {
          "name": "",
          "type": "address"
        }
      ],
      "payable": false,
      "stateMutability": "view",
      "type": "function"
    },
    {
      "inputs": [
        {
          "name": "_virtualPowerPlantAddress",
          "type": "address"
        }
      ],
      "payable": false,
      "stateMutability": "nonpayable",
      "type": "constructor"
    },
    {
      "anonymous": false,
      "inputs": [
        {
          "indexed": false,
          "name": "batteryID",
          "type": "uint256"
        }
      ],
      "name": "LogBatteryCheck",
      "type": "event"
    },
    {
      "anonymous": false,
      "inputs": [],
      "name": "LogBatteryCheckCompleted",
      "type": "event"
    },
    {
      "anonymous": false,
      "inputs": [
        {
          "indexed": false,
          "name": "serialNumber",
          "type": "bytes32"
        },
        {
          "indexed": false,
          "name": "energyTransacted",
          "type": "uint256"
        },
        {
          "indexed": false,
          "name": "energyPrice",
          "type": "uint256"
        },
        {
          "indexed": false,
          "name": "remainingInvestment",
          "type": "uint256"
        }
      ],
      "name": "LogEnergyPurchased",
      "type": "event"
    },
    {
      "anonymous": false,
      "inputs": [
        {
          "indexed": false,
          "name": "serialNumber",
          "type": "bytes32"
        },
        {
          "indexed": false,
          "name": "energyTransacted",
          "type": "uint256"
        },
        {
          "indexed": false,
          "name": "energyPrice",
          "type": "uint256"
        },
        {
          "indexed": false,
          "name": "remainingInvestment",
          "type": "uint256"
        }
      ],
      "name": "LogEnergySold",
      "type": "event"
    },
    {
      "constant": false,
      "inputs": [],
      "name": "checkBatteryEnergy",
      "outputs": [
        {
          "name": "",
          "type": "uint256"
        }
      ],
      "payable": false,
      "stateMutability": "nonpayable",
      "type": "function"
    },
    {
      "constant": false,
      "inputs": [
        {
          "name": "_batteryID",
          "type": "uint256"
        }
      ],
      "name": "executeBatteryTransaction",
      "outputs": [
        {
          "name": "",
          "type": "uint256"
        }
      ],
      "payable": false,
      "stateMutability": "nonpayable",
      "type": "function"
    }
  ],
  "bytecode": "0x6080604052610e1060025534801561001657600080fd5b506040516020806117688339810180604052602081101561003657600080fd5b810190808051906020019092919050505080600160006101000a81548173ffffffffffffffffffffffffffffffffffffffff021916908373ffffffffffffffffffffffffffffffffffffffff160217905550806000806101000a81548173ffffffffffffffffffffffffffffffffffffffff021916908373ffffffffffffffffffffffffffffffffffffffff16021790555050611690806100d86000396000f3fe60806040526004361061006d576000357c0100000000000000000000000000000000000000000000000000000000900463ffffffff1680630fc64691146100725780634fef23641461009d5780638f501a9b146100c8578063d5fbc71d146100f3578063feb663d014610142575b600080fd5b34801561007e57600080fd5b50610087610199565b6040518082815260200191505060405180910390f35b3480156100a957600080fd5b506100b261019f565b6040518082815260200191505060405180910390f35b3480156100d457600080fd5b506100dd6103b4565b6040518082815260200191505060405180910390f35b3480156100ff57600080fd5b5061012c6004803603602081101561011657600080fd5b81019080803590602001909291905050506103ba565b6040518082815260200191505060405180910390f35b34801561014e57600080fd5b50610157610730565b604051808273ffffffffffffffffffffffffffffffffffffffff1673ffffffffffffffffffffffffffffffffffffffff16815260200191505060405180910390f35b60025481565b600080600080600090505b60038110156103ab5760016003600082825401925050819055506000809054906101000a900473ffffffffffffffffffffffffffffffffffffffff1673ffffffffffffffffffffffffffffffffffffffff166364e980726003546040518263ffffffff167c01000000000000000000000000000000000000000000000000000000000281526004018082815260200191505060206040518083038186803b15801561025457600080fd5b505afa158015610268573d6000803e3d6000fd5b505050506040513d602081101561027e57600080fd5b8101908080519060200190929190505050925061029a836103ba565b820191506000809054906101000a900473ffffffffffffffffffffffffffffffffffffffff1673ffffffffffffffffffffffffffffffffffffffff16637ab9be186040518163ffffffff167c010000000000000000000000000000000000000000000000000000000002815260040160206040518083038186803b15801561032157600080fd5b505afa158015610335573d6000803e3d6000fd5b505050506040513d602081101561034b57600080fd5b8101908080519060200190929190505050600354141561039e5760006003819055507f2a337d71f9f377b9df07c7d0b3b45e113342364e6da3faa740095ae43dbfb67260405160405180910390a16103ab565b80806001019150506101aa565b50809250505090565b60035481565b60008060006103c7610756565b90507f43e0d79edab99ad436795e03537a27e8192b11095f7d9e54e8748f538f75910c846040518082815260200191505060405180910390a160008060009054906101000a900473ffffffffffffffffffffffffffffffffffffffff1673ffffffffffffffffffffffffffffffffffffffff166369777fce6040518163ffffffff167c010000000000000000000000000000000000000000000000000000000002815260040160206040518083038186803b15801561048557600080fd5b505afa158015610499573d6000803e3d6000fd5b505050506040513d60208110156104af57600080fd5b810190808051906020019092919050505073ffffffffffffffffffffffffffffffffffffffff1663af5cfae86040518163ffffffff167c010000000000000000000000000000000000000000000000000000000002815260040160206040518083038186803b15801561052157600080fd5b505afa158015610535573d6000803e3d6000fd5b505050506040513d602081101561054b57600080fd5b810190808051906020019092919050505011151561056857600080fd5b60008060008060008060008060009054906101000a900473ffffffffffffffffffffffffffffffffffffffff1673ffffffffffffffffffffffffffffffffffffffff16633dcd20f48c6040518263ffffffff167c01000000000000000000000000000000000000000000000000000000000281526004018082815260200191505060e06040518083038186803b15801561060157600080fd5b505afa158015610615573d6000803e3d6000fd5b505050506040513d60e081101561062b57600080fd5b8101908080519060200190929190805190602001909291908051906020019092919080519060200190929190805190602001909291908051906020019092919080519060200190929190505050965096509650965096509650965060011515821515141515610702576040517f08c379a00000000000000000000000000000000000000000000000000000000081526004018080602001828103825260188152602001807f426174746572792073686f756c6420626520616374697665000000000000000081525060200191505060405180910390fd5b600061070e858a610760565b905061071f8c898989888e8761077e565b995050505050505050505050919050565b600160009054906101000a900473ffffffffffffffffffffffffffffffffffffffff1681565b6000611388905090565b6000818311156107735760019050610778565b600090505b92915050565b60008061078f600254610e10610d6e565b905060008789039050600115158415151415610b9757600081111515610843576040517f08c379a00000000000000000000000000000000000000000000000000000000081526004018080602001828103825260398152602001807f426174746572792073686f756c6420686176652072656d61696e696e6720636181526020017f70616369747920696e206f7264657220746f206368617267650000000000000081525060400191505060405180910390fd5b6108566108508784610d98565b82610dd6565b925060008060009054906101000a900473ffffffffffffffffffffffffffffffffffffffff1673ffffffffffffffffffffffffffffffffffffffff166369777fce6040518163ffffffff167c010000000000000000000000000000000000000000000000000000000002815260040160206040518083038186803b1580156108dd57600080fd5b505afa1580156108f1573d6000803e3d6000fd5b505050506040513d602081101561090757600080fd5b810190808051906020019092919050505073ffffffffffffffffffffffffffffffffffffffff1663af5cfae86040518163ffffffff167c010000000000000000000000000000000000000000000000000000000002815260040160206040518083038186803b15801561097957600080fd5b505afa15801561098d573d6000803e3d6000fd5b505050506040513d60208110156109a357600080fd5b8101908080519060200190929190505050905060006109c28588610d98565b9050818111156109dc578190506109d98288610d6e565b94505b6109e78c8689610def565b507fe921c141ec599faf4d493fedfbb3af7c689ff38c273ed12108fd131c50f654a78986896000809054906101000a900473ffffffffffffffffffffffffffffffffffffffff1673ffffffffffffffffffffffffffffffffffffffff166369777fce6040518163ffffffff167c010000000000000000000000000000000000000000000000000000000002815260040160206040518083038186803b158015610a8f57600080fd5b505afa158015610aa3573d6000803e3d6000fd5b505050506040513d6020811015610ab957600080fd5b810190808051906020019092919050505073ffffffffffffffffffffffffffffffffffffffff1663af5cfae86040518163ffffffff167c010000000000000000000000000000000000000000000000000000000002815260040160206040518083038186803b158015610b2b57600080fd5b505afa158015610b3f573d6000803e3d6000fd5b505050506040513d6020811015610b5557600080fd5b81019080805190602001909291905050506040518085815260200184815260200183815260200182815260200194505050505060405180910390a15050610d61565b610baa610ba48784610d98565b89610dd6565b9250610bb78a8487611259565b507f1eb90c2aa597b0bffa4231991db228ac204daee844c46a996ce98a8da13b71d18784876000809054906101000a900473ffffffffffffffffffffffffffffffffffffffff1673ffffffffffffffffffffffffffffffffffffffff166369777fce6040518163ffffffff167c010000000000000000000000000000000000000000000000000000000002815260040160206040518083038186803b158015610c5f57600080fd5b505afa158015610c73573d6000803e3d6000fd5b505050506040513d6020811015610c8957600080fd5b810190808051906020019092919050505073ffffffffffffffffffffffffffffffffffffffff1663af5cfae86040518163ffffffff167c010000000000000000000000000000000000000000000000000000000002815260040160206040518083038186803b158015610cfb57600080fd5b505afa158015610d0f573d6000803e3d6000fd5b505050506040513d6020811015610d2557600080fd5b81019080805190602001909291905050506040518085815260200184815260200183815260200182815260200194505050505060405180910390a15b5050979650505050505050565b60008082111515610d7e57600080fd5b60008284811515610d8b57fe5b0490508091505092915050565b600080831415610dab5760009050610dd0565b60008284029050828482811515610dbe57fe5b04141515610dcb57600080fd5b809150505b92915050565b6000818310610de55781610de7565b825b905092915050565b600080610f5e6000809054906101000a900473ffffffffffffffffffffffffffffffffffffffff1673ffffffffffffffffffffffffffffffffffffffff166369777fce6040518163ffffffff167c010000000000000000000000000000000000000000000000000000000002815260040160206040518083038186803b158015610e7857600080fd5b505afa158015610e8c573d6000803e3d6000fd5b505050506040513d6020811015610ea257600080fd5b810190808051906020019092919050505073ffffffffffffffffffffffffffffffffffffffff1663af5cfae86040518163ffffffff167c010000000000000000000000000000000000000000000000000000000002815260040160206040518083038186803b158015610f1457600080fd5b505afa158015610f28573d6000803e3d6000fd5b505050506040513d6020811015610f3e57600080fd5b8101908080519060200190929190505050610f598686610d98565b611621565b905060008110151515610fff576040517f08c379a00000000000000000000000000000000000000000000000000000000081526004018080602001828103825260268152602001807f4e6f7420656e6f756768206d6f6e657920746f206d616b65207468697320707581526020017f726368617365000000000000000000000000000000000000000000000000000081525060400191505060405180910390fd5b6000809054906101000a900473ffffffffffffffffffffffffffffffffffffffff1673ffffffffffffffffffffffffffffffffffffffff166369777fce6040518163ffffffff167c010000000000000000000000000000000000000000000000000000000002815260040160206040518083038186803b15801561108257600080fd5b505afa158015611096573d6000803e3d6000fd5b505050506040513d60208110156110ac57600080fd5b810190808051906020019092919050505073ffffffffffffffffffffffffffffffffffffffff1663a342766b826040518263ffffffff167c010000000000000000000000000000000000000000000000000000000002815260040180828152602001915050602060405180830381600087803b15801561112b57600080fd5b505af115801561113f573d6000803e3d6000fd5b505050506040513d602081101561115557600080fd5b81019080805190602001909291905050501561124c576000809054906101000a900473ffffffffffffffffffffffffffffffffffffffff1673ffffffffffffffffffffffffffffffffffffffff1663460fafbc86866000036040518363ffffffff167c01000000000000000000000000000000000000000000000000000000000281526004018083815260200182815260200192505050602060405180830381600087803b15801561120657600080fd5b505af115801561121a573d6000803e3d6000fd5b505050506040513d602081101561123057600080fd5b8101908080519060200190929190505050506001915050611252565b60009150505b9392505050565b6000806113c86000809054906101000a900473ffffffffffffffffffffffffffffffffffffffff1673ffffffffffffffffffffffffffffffffffffffff166369777fce6040518163ffffffff167c010000000000000000000000000000000000000000000000000000000002815260040160206040518083038186803b1580156112e257600080fd5b505afa1580156112f6573d6000803e3d6000fd5b505050506040513d602081101561130c57600080fd5b810190808051906020019092919050505073ffffffffffffffffffffffffffffffffffffffff1663af5cfae86040518163ffffffff167c010000000000000000000000000000000000000000000000000000000002815260040160206040518083038186803b15801561137e57600080fd5b505afa158015611392573d6000803e3d6000fd5b505050506040513d60208110156113a857600080fd5b81019080805190602001909291905050506113c38686610d98565b611643565b90506000809054906101000a900473ffffffffffffffffffffffffffffffffffffffff1673ffffffffffffffffffffffffffffffffffffffff166369777fce6040518163ffffffff167c010000000000000000000000000000000000000000000000000000000002815260040160206040518083038186803b15801561144d57600080fd5b505afa158015611461573d6000803e3d6000fd5b505050506040513d602081101561147757600080fd5b810190808051906020019092919050505073ffffffffffffffffffffffffffffffffffffffff1663a342766b826040518263ffffffff167c010000000000000000000000000000000000000000000000000000000002815260040180828152602001915050602060405180830381600087803b1580156114f657600080fd5b505af115801561150a573d6000803e3d6000fd5b505050506040513d602081101561152057600080fd5b810190808051906020019092919050505015611614576000809054906101000a900473ffffffffffffffffffffffffffffffffffffffff1673ffffffffffffffffffffffffffffffffffffffff1663460fafbc86866040518363ffffffff167c01000000000000000000000000000000000000000000000000000000000281526004018083815260200182815260200192505050602060405180830381600087803b1580156115ce57600080fd5b505af11580156115e2573d6000803e3d6000fd5b505050506040513d60208110156115f857600080fd5b810190808051906020019092919050505050600191505061161a565b60009150505b9392505050565b600082821115151561163257600080fd5b600082840390508091505092915050565b600080828401905083811015151561165a57600080fd5b809150509291505056fea165627a7a723058206b42e7c6d4a6a833614e4ee4b73d9f129b66fdbf93efc991a903cf98d17557ac0029",
  "source": "pragma solidity >=0.5.0;\n\nimport \"./VirtualPowerPlant.sol\";\n// import \"./BatteryLibrary.sol\";\nimport \"./SafeMath.sol\";\nimport \"./Math.sol\";\n\ncontract BatteryEnergy {\n\n    // Type declarations\n    VirtualPowerPlant VirtualPowerPlantContract;\n\n    // State variables\n    address public virtualPowerPlantAddress; // address of parent contract deploying battery investment\n    uint public purchaseInterval = 3600; // in sec,\n    uint public batteryIDCounter;\n     // Battery[] public tempBattery;\n    // uint public temp;\n    // uint private remainingInvestment;  //\n\n    // Events\n    // event Log(uint counter);\n    event LogBatteryCheck(uint batteryID);\n    event LogBatteryCheckCompleted();\n    event LogEnergyPurchased(bytes32 serialNumber, uint energyTransacted, uint energyPrice, uint remainingInvestment);\n    event LogEnergySold(bytes32 serialNumber, uint energyTransacted, uint energyPrice, uint remainingInvestment);\n\n\n    constructor (address _virtualPowerPlantAddress) public {\n        virtualPowerPlantAddress = _virtualPowerPlantAddress;\n        VirtualPowerPlantContract = VirtualPowerPlant(_virtualPowerPlantAddress);\n    }\n\n\n    function checkBatteryEnergy () public returns (uint) {\n        // uint batteryIDMax = VirtualPowerPlantContract.getBatteryIDMax();\n        // uint energyPrice = getRealTimeEnergyPrice();\n        // totalEnergyPurchase = 88;\n        uint batteryID;\n        uint totalEnergyPurchase;\n\n        for (uint i = 0; i < 3; i++) {\n            batteryIDCounter += 1;\n            batteryID = VirtualPowerPlantContract.batteryMapping(batteryIDCounter);\n            totalEnergyPurchase += executeBatteryTransaction(batteryID);\n            if(batteryIDCounter == VirtualPowerPlantContract.numBatteries()){\n                batteryIDCounter = 0;\n                emit LogBatteryCheckCompleted();\n                break;\n            }\n        }\n\n        return totalEnergyPurchase;\n        // remainingInvestment = (VirtualPowerPlantContract.BatteryInvestmentContract()).remainingInvestment();\n    }\n\n    function executeBatteryTransaction (uint _batteryID) public returns (uint) {\n\n        uint energyAmountToTransact;\n        uint energyPrice = getRealTimeEnergyPrice();\n\n        emit LogBatteryCheck(_batteryID);\n        require((VirtualPowerPlantContract.batteryInvestmentContract()).remainingInvestment() > 0);\n        (\n            uint capacity,\n            uint currentFilled,\n            bytes32 serialNumber,\n            uint priceThreshold,\n            uint chargeRate,\n            bool isActive,\n            uint mapIndex\n        ) = VirtualPowerPlantContract.getRelevantBatteryInfo(_batteryID);\n        // uint emptyCapacity = VirtualPowerPlantContract.getBatteryCapacityRemaining(_batteryID);\n\n        // require(emptyCapacity > 0, \"Battery should have empty capacity for charge\");\n        require(isActive == true, \"Battery should be active\");\n        bool chargeBattery = energyDecisionAlgorithm(priceThreshold, energyPrice);\n        energyAmountToTransact = transactEnergy(\n            _batteryID,\n            capacity,\n            currentFilled,\n            serialNumber,\n            chargeRate,\n            energyPrice,\n            chargeBattery\n        );\n\n        // if (chargeBattery == true) {\n        //\n        //     buyEnergy(_batteryID, energyAmountToTransact, energyPrice);\n        //\n        //     // emit LogEnergyPurchased(\n        //     //     serialNumber,\n        //     //     energyAmountToPurchase,\n        //     //     energyPrice,\n        //     //     (VirtualPowerPlantContract.batteryInvestmentContract()).remainingInvestment()\n        //     // );\n        //     // return energyAmountToPurchase;\n        // } else {\n        //     // energyToSell = calculateEnergyToTransact(chargeRate, energyPrice, emptyCapacity);\n        //     sellEnergy(_batteryID, energyAmountToTransact, energyPrice);\n        //     // emit LogEnergySold(\n        //     //     serialNumber,\n        //     //     energyAmountToPurchase,\n        //     //     energyPrice,\n        //     //     (VirtualPowerPlantContract.batteryInvestmentContract()).remainingInvestment()\n        //     // );\n        // }\n        // return 0;\n\n\n    }\n\n\n    function energyDecisionAlgorithm (uint _priceThreshold, uint _energyPrice) private pure returns (bool) {\n        if (_priceThreshold > _energyPrice) {\n            return true;\n        } else{\n            return false;\n        }\n    }\n\n    function transactEnergy\n    (\n        uint _batteryID,\n        uint _capacity,\n        uint _currentFilled,\n        bytes32 _serialNumber,\n        uint _chargeRate,\n        uint _energyPrice,\n        bool _chargeBattery\n    )\n    private\n    returns (uint calculateEnergyToTransact)\n    {\n        uint purchaseIntervalHours = SafeMath.div(purchaseInterval, 3600);  // convert seconds to hours\n        uint emptyCapacity = _capacity - _currentFilled;\n\n        if (_chargeBattery == true) {\n            require(emptyCapacity > 0, \"Battery should have remaining capacity in order to charge\");\n\n            calculateEnergyToTransact = Math.min(SafeMath.mul(_chargeRate, purchaseIntervalHours), emptyCapacity);\n            uint remainingInvestment = (VirtualPowerPlantContract.batteryInvestmentContract()).remainingInvestment();\n            uint costOfEnergyPurchase = SafeMath.mul(calculateEnergyToTransact, _energyPrice);\n            if (costOfEnergyPurchase > remainingInvestment) {\n                costOfEnergyPurchase = remainingInvestment;\n                calculateEnergyToTransact = SafeMath.div(remainingInvestment, _energyPrice);\n            }\n\n            buyEnergy(_batteryID, calculateEnergyToTransact, _energyPrice);\n            emit LogEnergyPurchased(\n                _serialNumber,\n                calculateEnergyToTransact,\n                _energyPrice,\n                (VirtualPowerPlantContract.batteryInvestmentContract()).remainingInvestment()\n            );\n        } else {\n            calculateEnergyToTransact = Math.min(SafeMath.mul(_chargeRate, purchaseIntervalHours), _currentFilled);\n            sellEnergy(_batteryID, calculateEnergyToTransact, _energyPrice);\n            emit LogEnergySold(\n                _serialNumber,\n                calculateEnergyToTransact,\n                _energyPrice,\n                (VirtualPowerPlantContract.batteryInvestmentContract()).remainingInvestment()\n            );\n        }\n    }\n\n    function getRealTimeEnergyPrice () private pure returns (uint realTimePrice) {\n        realTimePrice = 5000;\n    }\n\n    function buyEnergy (uint _batteryID, uint _energyAmountToPurchase, uint _energyPrice) private returns (bool) {\n        uint newRemainingInvestment = SafeMath.sub(\n            (VirtualPowerPlantContract.batteryInvestmentContract()).remainingInvestment(),\n            SafeMath.mul(\n                _energyAmountToPurchase,\n                _energyPrice\n            )\n        );\n        require(newRemainingInvestment >= 0, \"Not enough money to make this purchase\");\n        if ((VirtualPowerPlantContract.batteryInvestmentContract()).updateRemainingInvestment(newRemainingInvestment)) {\n            // remainingInvestment = newRemainingInvestment;\n            VirtualPowerPlantContract.chargeBattery(_batteryID, -_energyAmountToPurchase);\n            return true;\n        }\n        return false;\n    }\n\n    function sellEnergy (uint _batteryID, uint _energyAmountToSell, uint _energyPrice) private returns (bool) {\n        uint newRemainingInvestment = SafeMath.add(\n            (VirtualPowerPlantContract.batteryInvestmentContract()).remainingInvestment(),\n            SafeMath.mul(\n                _energyAmountToSell,\n                _energyPrice\n            )\n        );\n        if ((VirtualPowerPlantContract.batteryInvestmentContract()).updateRemainingInvestment(newRemainingInvestment)) {\n            VirtualPowerPlantContract.chargeBattery(_batteryID, _energyAmountToSell);\n            return true;\n        }\n        return false;\n    }\n\n    // function sellEnergy (uint _batteryID) private returns (bool) {\n    //     uint newRemainingInvestment = SafeMath.add(\n    //         (VirtualPowerPlantContract.batteryInvestmentContract()).remainingInvestment(),\n    //         SafeMath.mul(\n    //             _energyAmountToSell,\n    //             _energyPrice\n    //         )\n    //     );\n    //     if ((VirtualPowerPlantContract.batteryInvestmentContract()).updateRemainingInvestment(newRemainingInvestment)) {\n    //         VirtualPowerPlantContract.chargeBattery(_batteryID, _energyAmountToSell);\n    //         return true;\n    //     }\n    //     return false;\n    // }\n\n\n}\n",
  "sourcePath": "/Users/yan-dev/Documents/virtual-power-plant/contracts/BatteryEnergy.sol",
  "compiler": {
    "name": "solc",
    "version": "0.5.0+commit.1d4f565a.Emscripten.clang"
  },
  "schemaVersion": "3.0.0",
  "updatedAt": "2019-01-13T06:35:04.794Z",
  "devdoc": {
    "methods": {}
  },
  "userdoc": {
    "methods": {}
  }
}