{
  "contractName": "BatteryEnergy",
  "abi": [
    {
      "constant": true,
      "inputs": [],
      "name": "purchaseInterval",
      "outputs": [
        {
          "name": "",
          "type": "uint256"
        }
      ],
      "payable": false,
      "stateMutability": "view",
      "type": "function"
    },
    {
      "constant": true,
      "inputs": [],
      "name": "batteryIDCounter",
      "outputs": [
        {
          "name": "",
          "type": "uint256"
        }
      ],
      "payable": false,
      "stateMutability": "view",
      "type": "function"
    },
    {
      "constant": true,
      "inputs": [],
      "name": "batchProcess",
      "outputs": [
        {
          "name": "",
          "type": "uint256"
        }
      ],
      "payable": false,
      "stateMutability": "view",
      "type": "function"
    },
    {
      "constant": true,
      "inputs": [],
      "name": "virtualPowerPlantAddress",
      "outputs": [
        {
          "name": "",
          "type": "address"
        }
      ],
      "payable": false,
      "stateMutability": "view",
      "type": "function"
    },
    {
      "inputs": [
        {
          "name": "_virtualPowerPlantAddress",
          "type": "address"
        }
      ],
      "payable": false,
      "stateMutability": "nonpayable",
      "type": "constructor"
    },
    {
      "anonymous": false,
      "inputs": [
        {
          "indexed": false,
          "name": "batteryID",
          "type": "uint256"
        }
      ],
      "name": "LogBatteryCheck",
      "type": "event"
    },
    {
      "anonymous": false,
      "inputs": [],
      "name": "LogBatteryCheckCompleted",
      "type": "event"
    },
    {
      "anonymous": false,
      "inputs": [
        {
          "indexed": false,
          "name": "serialNumber",
          "type": "bytes32"
        },
        {
          "indexed": false,
          "name": "energyTransacted",
          "type": "uint256"
        },
        {
          "indexed": false,
          "name": "energyPrice",
          "type": "uint256"
        }
      ],
      "name": "LogEnergyPurchased",
      "type": "event"
    },
    {
      "anonymous": false,
      "inputs": [
        {
          "indexed": false,
          "name": "serialNumber",
          "type": "bytes32"
        },
        {
          "indexed": false,
          "name": "energyTransacted",
          "type": "uint256"
        },
        {
          "indexed": false,
          "name": "energyPrice",
          "type": "uint256"
        }
      ],
      "name": "LogEnergySold",
      "type": "event"
    },
    {
      "constant": false,
      "inputs": [],
      "name": "checkBatteryEnergy",
      "outputs": [
        {
          "name": "",
          "type": "bool"
        }
      ],
      "payable": false,
      "stateMutability": "nonpayable",
      "type": "function"
    }
  ],
  "bytecode": "0x6080604052610e10600255600360045534801561001b57600080fd5b506040516020806114ac8339810180604052602081101561003b57600080fd5b810190808051906020019092919050505080600160006101000a81548173ffffffffffffffffffffffffffffffffffffffff021916908373ffffffffffffffffffffffffffffffffffffffff160217905550806000806101000a81548173ffffffffffffffffffffffffffffffffffffffff021916908373ffffffffffffffffffffffffffffffffffffffff160217905550506113cf806100dd6000396000f3fe60806040526004361061006d576000357c0100000000000000000000000000000000000000000000000000000000900463ffffffff1680630fc64691146100725780634fef23641461009d5780638f501a9b146100cc578063cdcf6316146100f7578063feb663d014610122575b600080fd5b34801561007e57600080fd5b50610087610179565b6040518082815260200191505060405180910390f35b3480156100a957600080fd5b506100b261017f565b604051808215151515815260200191505060405180910390f35b3480156100d857600080fd5b506100e161039e565b6040518082815260200191505060405180910390f35b34801561010357600080fd5b5061010c6103a4565b6040518082815260200191505060405180910390f35b34801561012e57600080fd5b506101376103aa565b604051808273ffffffffffffffffffffffffffffffffffffffff1673ffffffffffffffffffffffffffffffffffffffff16815260200191505060405180910390f35b60025481565b600080600080600090505b600454811015610393576000809054906101000a900473ffffffffffffffffffffffffffffffffffffffff1673ffffffffffffffffffffffffffffffffffffffff166364e980726003546040518263ffffffff167c01000000000000000000000000000000000000000000000000000000000281526004018082815260200191505060206040518083038186803b15801561022457600080fd5b505afa158015610238573d6000803e3d6000fd5b505050506040513d602081101561024e57600080fd5b8101908080519060200190929190505050925061026a836103d0565b8201915060016003600082825401925050819055506000809054906101000a900473ffffffffffffffffffffffffffffffffffffffff1673ffffffffffffffffffffffffffffffffffffffff16637ab9be186040518163ffffffff167c010000000000000000000000000000000000000000000000000000000002815260040160206040518083038186803b15801561030257600080fd5b505afa158015610316573d6000803e3d6000fd5b505050506040513d602081101561032c57600080fd5b810190808051906020019092919050505060035414156103865760006003819055507f2a337d71f9f377b9df07c7d0b3b45e113342364e6da3faa740095ae43dbfb67260405160405180910390a16001935050505061039b565b808060010191505061018a565b506000925050505b90565b60035481565b60045481565b600160009054906101000a900473ffffffffffffffffffffffffffffffffffffffff1681565b60008060006103dd610757565b90507f43e0d79edab99ad436795e03537a27e8192b11095f7d9e54e8748f538f75910c846040518082815260200191505060405180910390a160008060008060008060008060009054906101000a900473ffffffffffffffffffffffffffffffffffffffff1673ffffffffffffffffffffffffffffffffffffffff16633dcd20f48c6040518263ffffffff167c01000000000000000000000000000000000000000000000000000000000281526004018082815260200191505060e06040518083038186803b1580156104af57600080fd5b505afa1580156104c3573d6000803e3d6000fd5b505050506040513d60e08110156104d957600080fd5b81019080805190602001909291908051906020019092919080519060200190929190805190602001909291908051906020019092919080519060200190929190805190602001909291905050509650965096509650965096509650600115158215151415156105b0576040517f08c379a00000000000000000000000000000000000000000000000000000000081526004018080602001828103825260188152602001807f426174746572792073686f756c6420626520616374697665000000000000000081525060200191505060405180910390fd5b60006105bc858a610761565b90506001151581151514156107345760008060009054906101000a900473ffffffffffffffffffffffffffffffffffffffff1673ffffffffffffffffffffffffffffffffffffffff166369777fce6040518163ffffffff167c010000000000000000000000000000000000000000000000000000000002815260040160206040518083038186803b15801561065057600080fd5b505afa158015610664573d6000803e3d6000fd5b505050506040513d602081101561067a57600080fd5b810190808051906020019092919050505073ffffffffffffffffffffffffffffffffffffffff1663af5cfae86040518163ffffffff167c010000000000000000000000000000000000000000000000000000000002815260040160206040518083038186803b1580156106ec57600080fd5b505afa158015610700573d6000803e3d6000fd5b505050506040513d602081101561071657600080fd5b810190808051906020019092919050505011151561073357600080fd5b5b6107438c898989888e8761077f565b9950899a5050505050505050505050919050565b6000611388905090565b6000818311156107745760019050610779565b600090505b92915050565b600080610790600254610e10610aad565b905060008789039050600115158415151415610a3757600081111515610844576040517f08c379a00000000000000000000000000000000000000000000000000000000081526004018080602001828103825260398152602001807f426174746572792073686f756c6420686176652072656d61696e696e6720636181526020017f70616369747920696e206f7264657220746f206368617267650000000000000081525060400191505060405180910390fd5b6108576108518784610ad7565b82610b15565b925060008060009054906101000a900473ffffffffffffffffffffffffffffffffffffffff1673ffffffffffffffffffffffffffffffffffffffff166369777fce6040518163ffffffff167c010000000000000000000000000000000000000000000000000000000002815260040160206040518083038186803b1580156108de57600080fd5b505afa1580156108f2573d6000803e3d6000fd5b505050506040513d602081101561090857600080fd5b810190808051906020019092919050505073ffffffffffffffffffffffffffffffffffffffff1663af5cfae86040518163ffffffff167c010000000000000000000000000000000000000000000000000000000002815260040160206040518083038186803b15801561097a57600080fd5b505afa15801561098e573d6000803e3d6000fd5b505050506040513d60208110156109a457600080fd5b8101908080519060200190929190505050905060006109c38588610ad7565b9050818111156109dd578190506109da8288610aad565b94505b6109e88c8689610b2e565b507f296a30a2a2c9836b929a5bd912a99404f742866c6f1d2ccb40dbe91ae51d0c8b89868960405180848152602001838152602001828152602001935050505060405180910390a15050610aa0565b610a4a610a448784610ad7565b89610b15565b9250610a578a8487610f98565b507fa47998a00343b402e4fe19ddd70ec87f868ffa405b95a5e6a1d554a83f809e7c87848760405180848152602001838152602001828152602001935050505060405180910390a15b5050979650505050505050565b60008082111515610abd57600080fd5b60008284811515610aca57fe5b0490508091505092915050565b600080831415610aea5760009050610b0f565b60008284029050828482811515610afd57fe5b04141515610b0a57600080fd5b809150505b92915050565b6000818310610b245781610b26565b825b905092915050565b600080610c9d6000809054906101000a900473ffffffffffffffffffffffffffffffffffffffff1673ffffffffffffffffffffffffffffffffffffffff166369777fce6040518163ffffffff167c010000000000000000000000000000000000000000000000000000000002815260040160206040518083038186803b158015610bb757600080fd5b505afa158015610bcb573d6000803e3d6000fd5b505050506040513d6020811015610be157600080fd5b810190808051906020019092919050505073ffffffffffffffffffffffffffffffffffffffff1663af5cfae86040518163ffffffff167c010000000000000000000000000000000000000000000000000000000002815260040160206040518083038186803b158015610c5357600080fd5b505afa158015610c67573d6000803e3d6000fd5b505050506040513d6020811015610c7d57600080fd5b8101908080519060200190929190505050610c988686610ad7565b611360565b905060008110151515610d3e576040517f08c379a00000000000000000000000000000000000000000000000000000000081526004018080602001828103825260268152602001807f4e6f7420656e6f756768206d6f6e657920746f206d616b65207468697320707581526020017f726368617365000000000000000000000000000000000000000000000000000081525060400191505060405180910390fd5b6000809054906101000a900473ffffffffffffffffffffffffffffffffffffffff1673ffffffffffffffffffffffffffffffffffffffff166369777fce6040518163ffffffff167c010000000000000000000000000000000000000000000000000000000002815260040160206040518083038186803b158015610dc157600080fd5b505afa158015610dd5573d6000803e3d6000fd5b505050506040513d6020811015610deb57600080fd5b810190808051906020019092919050505073ffffffffffffffffffffffffffffffffffffffff1663a342766b826040518263ffffffff167c010000000000000000000000000000000000000000000000000000000002815260040180828152602001915050602060405180830381600087803b158015610e6a57600080fd5b505af1158015610e7e573d6000803e3d6000fd5b505050506040513d6020811015610e9457600080fd5b810190808051906020019092919050505015610f8b576000809054906101000a900473ffffffffffffffffffffffffffffffffffffffff1673ffffffffffffffffffffffffffffffffffffffff1663460fafbc86866000036040518363ffffffff167c01000000000000000000000000000000000000000000000000000000000281526004018083815260200182815260200192505050602060405180830381600087803b158015610f4557600080fd5b505af1158015610f59573d6000803e3d6000fd5b505050506040513d6020811015610f6f57600080fd5b8101908080519060200190929190505050506001915050610f91565b60009150505b9392505050565b6000806111076000809054906101000a900473ffffffffffffffffffffffffffffffffffffffff1673ffffffffffffffffffffffffffffffffffffffff166369777fce6040518163ffffffff167c010000000000000000000000000000000000000000000000000000000002815260040160206040518083038186803b15801561102157600080fd5b505afa158015611035573d6000803e3d6000fd5b505050506040513d602081101561104b57600080fd5b810190808051906020019092919050505073ffffffffffffffffffffffffffffffffffffffff1663af5cfae86040518163ffffffff167c010000000000000000000000000000000000000000000000000000000002815260040160206040518083038186803b1580156110bd57600080fd5b505afa1580156110d1573d6000803e3d6000fd5b505050506040513d60208110156110e757600080fd5b81019080805190602001909291905050506111028686610ad7565b611382565b90506000809054906101000a900473ffffffffffffffffffffffffffffffffffffffff1673ffffffffffffffffffffffffffffffffffffffff166369777fce6040518163ffffffff167c010000000000000000000000000000000000000000000000000000000002815260040160206040518083038186803b15801561118c57600080fd5b505afa1580156111a0573d6000803e3d6000fd5b505050506040513d60208110156111b657600080fd5b810190808051906020019092919050505073ffffffffffffffffffffffffffffffffffffffff1663a342766b826040518263ffffffff167c010000000000000000000000000000000000000000000000000000000002815260040180828152602001915050602060405180830381600087803b15801561123557600080fd5b505af1158015611249573d6000803e3d6000fd5b505050506040513d602081101561125f57600080fd5b810190808051906020019092919050505015611353576000809054906101000a900473ffffffffffffffffffffffffffffffffffffffff1673ffffffffffffffffffffffffffffffffffffffff1663460fafbc86866040518363ffffffff167c01000000000000000000000000000000000000000000000000000000000281526004018083815260200182815260200192505050602060405180830381600087803b15801561130d57600080fd5b505af1158015611321573d6000803e3d6000fd5b505050506040513d602081101561133757600080fd5b8101908080519060200190929190505050506001915050611359565b60009150505b9392505050565b600082821115151561137157600080fd5b600082840390508091505092915050565b600080828401905083811015151561139957600080fd5b809150509291505056fea165627a7a7230582024c7399095a5a69b4881cb866d6d7bc77029518eae125625fee6717f567206fa0029",
  "source": "pragma solidity >=0.5.0;\n\nimport \"./VirtualPowerPlant.sol\";\nimport \"./SafeMath.sol\";\nimport \"./Math.sol\";\n\n/// @author Yan Man\n/// @title Manage charging/discharging of batteries\ncontract BatteryEnergy {\n\n    // Type declarations\n    VirtualPowerPlant VirtualPowerPlantContract;\n\n    // State variables\n    address public virtualPowerPlantAddress; // address of parent contract deploying battery investment\n    uint public purchaseInterval = 3600; // in sec, prescribed time between energy tx\n    uint public batteryIDCounter; // for batch processes; the latest battery ID processed\n    uint public batchProcess = 3; // number of batteries in the batch to process at once\n\n    // Events\n    // event Log(uint counter);\n    event LogBatteryCheck(uint batteryID);\n    event LogBatteryCheckCompleted();\n    event LogEnergyPurchased(bytes32 serialNumber, uint energyTransacted, uint energyPrice);\n    event LogEnergySold(bytes32 serialNumber, uint energyTransacted, uint energyPrice);\n\n    // constructor\n    /// @param _virtualPowerPlantAddress address of parent contract deploying this contract\n    constructor (address _virtualPowerPlantAddress) public {\n        virtualPowerPlantAddress = _virtualPowerPlantAddress;\n        // create VirtualPowerPlant contract from parent contract address\n        VirtualPowerPlantContract = VirtualPowerPlant(_virtualPowerPlantAddress);\n    }\n\n    /// @notice check each battery's energy level and charge/discharge based on\n    /// @notice current energy rate and battery's price threshold\n    /// @return whether all batteries were successfully checked\n    function checkBatteryEnergy () external returns (bool) {\n        uint batteryID;\n        uint totalEnergyPurchase;\n        for (uint i = 0; i < batchProcess; i++) {\n            batteryID = VirtualPowerPlantContract.batteryMapping(batteryIDCounter);\n            totalEnergyPurchase += executeBatteryTransaction(batteryID);\n            batteryIDCounter += 1;\n            if(batteryIDCounter == VirtualPowerPlantContract.numBatteries()){\n                batteryIDCounter = 0;\n                emit LogBatteryCheckCompleted();\n                return true;\n            }\n        }\n        return false;\n    }\n\n    /// @notice buy or sell energy and update battery status\n    /// @return amount of energy to transact\n    function transactEnergy\n    (\n        uint _batteryID,\n        uint _capacity,\n        uint _currentFilled,\n        bytes32 _serialNumber,\n        uint _chargeRate,\n        uint _energyPrice,\n        bool _chargeBattery\n    )\n        private\n        returns (uint calculateEnergyToTransact)\n    {\n        // convert seconds to hours\n        uint purchaseIntervalHours = SafeMath.div(purchaseInterval, 3600);\n        // how much energy is available in battery\n        uint emptyCapacity = _capacity - _currentFilled;\n\n        // if decision is to charge battery\n        if (_chargeBattery == true) {\n            // to add energy to battery, it must have available capacity\n            require(emptyCapacity > 0, \"Battery should have remaining capacity in order to charge\");\n            // charge rate * time interval gives total energy amount to be added\n            // but energy amount cannot exceed empty capacity\n            calculateEnergyToTransact = Math.min(SafeMath.mul(_chargeRate, purchaseIntervalHours), emptyCapacity);\n            // find remaining investment in fund\n            uint remainingInvestment = (VirtualPowerPlantContract.batteryInvestmentContract()).remainingInvestment();\n            // cost = energy amount * energy price\n            uint costOfEnergyPurchase = SafeMath.mul(calculateEnergyToTransact, _energyPrice);\n            // make sure there is enough investment to cover energy purchase\n            if (costOfEnergyPurchase > remainingInvestment) {\n                // energy purchase costs at most are the remaining investment\n                costOfEnergyPurchase = remainingInvestment;\n                // back calculate the energy based on the max eth available\n                calculateEnergyToTransact = SafeMath.div(remainingInvestment, _energyPrice);\n            }\n            // purchase energy\n            buyEnergy(_batteryID, calculateEnergyToTransact, _energyPrice);\n            emit LogEnergyPurchased(\n                _serialNumber,\n                calculateEnergyToTransact,\n                _energyPrice\n            );\n        } else {\n            // maximum energy to sell is the current amount in the battery\n            calculateEnergyToTransact = Math.min(SafeMath.mul(_chargeRate, purchaseIntervalHours), _currentFilled);\n            sellEnergy(_batteryID, calculateEnergyToTransact, _energyPrice);\n            emit LogEnergySold(\n                _serialNumber,\n                calculateEnergyToTransact,\n                _energyPrice\n            );\n        }\n    }\n\n    /// @notice buy energy\n    /// @param _batteryID battery identifier\n    /// @param _energyAmountToPurchase amount to purchase\n    /// @param _energyPrice current energy price\n    /// @return whether energy successfully sold\n    function buyEnergy (\n        uint _batteryID,\n        uint _energyAmountToPurchase,\n        uint _energyPrice\n    ) private returns (bool) {\n        // calculate remaining investment money after energy purchase\n        uint newRemainingInvestment = SafeMath.sub(\n            (VirtualPowerPlantContract.batteryInvestmentContract()).remainingInvestment(),\n            SafeMath.mul(\n                _energyAmountToPurchase,\n                _energyPrice\n            )\n        );\n        // require sufficient investment remaining after purchase to continue\n        require(newRemainingInvestment >= 0, \"Not enough money to make this purchase\");\n        if ((VirtualPowerPlantContract.batteryInvestmentContract()).updateRemainingInvestment(newRemainingInvestment)) {\n            // update battery characteristics based on energy charged\n            VirtualPowerPlantContract.chargeBattery(_batteryID, -_energyAmountToPurchase);\n            return true;\n        }\n        return false;\n    }\n\n    /// @notice sell energy\n    /// @param _batteryID battery identifier\n    /// @param _energyAmountToSell amount to sell\n    /// @param _energyPrice current energy price\n    /// @return whether energy successfully sold\n    function sellEnergy (\n        uint _batteryID,\n        uint _energyAmountToSell,\n        uint _energyPrice\n    ) private returns (bool) {\n        uint newRemainingInvestment = SafeMath.add(\n            (VirtualPowerPlantContract.batteryInvestmentContract()).remainingInvestment(),\n            SafeMath.mul(\n                _energyAmountToSell,\n                _energyPrice\n            )\n        );\n        if ((VirtualPowerPlantContract.batteryInvestmentContract()).updateRemainingInvestment(newRemainingInvestment)) {\n            VirtualPowerPlantContract.chargeBattery(_batteryID, _energyAmountToSell);\n            return true;\n        }\n        return false;\n    }\n\n    /// @notice for each battery execute the battery transaction by making decision\n    /// @notice on charging/discharging\n    /// @return amount of energy to transact\n    function executeBatteryTransaction (uint _batteryID) private returns (uint) {\n\n        uint energyAmountToTransact;\n        // first retrieve current price of energy\n        uint energyPrice = getRealTimeEnergyPrice();\n        emit LogBatteryCheck(_batteryID);\n        // retrieve relevant battery info for specific battery based on ID\n        (\n            uint capacity,\n            uint currentFilled,\n            bytes32 serialNumber,\n            uint priceThreshold,\n            uint chargeRate,\n            bool isActive,\n            uint mapIndex\n        ) = VirtualPowerPlantContract.getRelevantBatteryInfo(_batteryID);\n        // battery must be active to proceed\n        require(isActive == true, \"Battery should be active\");\n        // retrive decision on whether to buy or sell energy\n        bool chargeBattery = energyDecisionAlgorithm(priceThreshold, energyPrice);\n        // check whether to charge or discharge battery\n        if (chargeBattery == true) {\n            // require remaining investment to be valid to purchase energy\n            require((VirtualPowerPlantContract.batteryInvestmentContract()).remainingInvestment() > 0);\n        }\n        // buy or sell energy, update battery status\n        energyAmountToTransact = transactEnergy(\n            _batteryID,\n            capacity,\n            currentFilled,\n            serialNumber,\n            chargeRate,\n            energyPrice,\n            chargeBattery\n        );\n        return energyAmountToTransact;\n    }\n\n    /// @notice basic function to retrieve real time energy price. For now,\n    /// @notice hardcode a static value\n    function getRealTimeEnergyPrice () private pure returns (uint realTimePrice) {\n        realTimePrice = 5000;\n    }\n\n    /// @notice make a decision on whether to buy or sell energy\n    /// @return true to buy energy\n    /// @return false to sell energy\n    function energyDecisionAlgorithm (uint _priceThreshold, uint _energyPrice)\n        private\n        pure\n        returns (bool)\n    {\n        // for now, simple algo. If current price is less than threshold, buy\n        if (_priceThreshold > _energyPrice) {\n            return true;\n        } else{\n            return false;\n        }\n    }\n\n}\n",
  "sourcePath": "/Users/yan-dev/Documents/final-project-yan-man/contracts/BatteryEnergy.sol",
  "compiler": {
    "name": "solc",
    "version": "0.5.0+commit.1d4f565a.Emscripten.clang"
  },
  "schemaVersion": "3.0.0",
  "updatedAt": "2019-01-28T03:08:18.589Z",
  "devdoc": {
    "author": "Yan Man",
    "methods": {
      "checkBatteryEnergy()": {
        "return": "whether all batteries were successfully checked"
      },
      "constructor": {
        "params": {
          "_virtualPowerPlantAddress": "address of parent contract deploying this contract"
        }
      }
    },
    "title": "Manage charging/discharging of batteries"
  },
  "userdoc": {
    "methods": {
      "checkBatteryEnergy()": {
        "notice": "check each battery's energy level and charge/discharge based oncurrent energy rate and battery's price threshold"
      }
    }
  }
}