{
  "contractName": "BatteryEnergy",
  "abi": [
    {
      "constant": true,
      "inputs": [],
      "name": "purchaseInterval",
      "outputs": [
        {
          "name": "",
          "type": "uint256"
        }
      ],
      "payable": false,
      "stateMutability": "view",
      "type": "function"
    },
    {
      "constant": true,
      "inputs": [],
      "name": "batteryIDCounter",
      "outputs": [
        {
          "name": "",
          "type": "uint256"
        }
      ],
      "payable": false,
      "stateMutability": "view",
      "type": "function"
    },
    {
      "constant": true,
      "inputs": [],
      "name": "batchProcess",
      "outputs": [
        {
          "name": "",
          "type": "uint256"
        }
      ],
      "payable": false,
      "stateMutability": "view",
      "type": "function"
    },
    {
      "constant": true,
      "inputs": [],
      "name": "virtualPowerPlantAddress",
      "outputs": [
        {
          "name": "",
          "type": "address"
        }
      ],
      "payable": false,
      "stateMutability": "view",
      "type": "function"
    },
    {
      "inputs": [
        {
          "name": "_virtualPowerPlantAddress",
          "type": "address"
        }
      ],
      "payable": false,
      "stateMutability": "nonpayable",
      "type": "constructor"
    },
    {
      "anonymous": false,
      "inputs": [
        {
          "indexed": false,
          "name": "batteryID",
          "type": "uint256"
        }
      ],
      "name": "LogBatteryCheck",
      "type": "event"
    },
    {
      "anonymous": false,
      "inputs": [],
      "name": "LogBatteryCheckCompleted",
      "type": "event"
    },
    {
      "anonymous": false,
      "inputs": [
        {
          "indexed": false,
          "name": "serialNumber",
          "type": "bytes32"
        },
        {
          "indexed": false,
          "name": "energyTransacted",
          "type": "uint256"
        },
        {
          "indexed": false,
          "name": "energyPrice",
          "type": "uint256"
        },
        {
          "indexed": false,
          "name": "remainingInvestment",
          "type": "uint256"
        }
      ],
      "name": "LogEnergyPurchased",
      "type": "event"
    },
    {
      "anonymous": false,
      "inputs": [
        {
          "indexed": false,
          "name": "serialNumber",
          "type": "bytes32"
        },
        {
          "indexed": false,
          "name": "energyTransacted",
          "type": "uint256"
        },
        {
          "indexed": false,
          "name": "energyPrice",
          "type": "uint256"
        },
        {
          "indexed": false,
          "name": "remainingInvestment",
          "type": "uint256"
        }
      ],
      "name": "LogEnergySold",
      "type": "event"
    },
    {
      "constant": false,
      "inputs": [],
      "name": "checkBatteryEnergy",
      "outputs": [
        {
          "name": "",
          "type": "bool"
        }
      ],
      "payable": false,
      "stateMutability": "nonpayable",
      "type": "function"
    },
    {
      "constant": false,
      "inputs": [
        {
          "name": "_batteryID",
          "type": "uint256"
        }
      ],
      "name": "executeBatteryTransaction",
      "outputs": [
        {
          "name": "",
          "type": "uint256"
        }
      ],
      "payable": false,
      "stateMutability": "nonpayable",
      "type": "function"
    }
  ],
  "bytecode": "0x6080604052610e10600255600360045534801561001b57600080fd5b506040516020806117b78339810180604052602081101561003b57600080fd5b810190808051906020019092919050505080600160006101000a81548173ffffffffffffffffffffffffffffffffffffffff021916908373ffffffffffffffffffffffffffffffffffffffff160217905550806000806101000a81548173ffffffffffffffffffffffffffffffffffffffff021916908373ffffffffffffffffffffffffffffffffffffffff160217905550506116da806100dd6000396000f3fe608060405260043610610078576000357c0100000000000000000000000000000000000000000000000000000000900463ffffffff1680630fc646911461007d5780634fef2364146100a85780638f501a9b146100d7578063cdcf631614610102578063d5fbc71d1461012d578063feb663d01461017c575b600080fd5b34801561008957600080fd5b506100926101d3565b6040518082815260200191505060405180910390f35b3480156100b457600080fd5b506100bd6101d9565b604051808215151515815260200191505060405180910390f35b3480156100e357600080fd5b506100ec6103f8565b6040518082815260200191505060405180910390f35b34801561010e57600080fd5b506101176103fe565b6040518082815260200191505060405180910390f35b34801561013957600080fd5b506101666004803603602081101561015057600080fd5b8101908080359060200190929190505050610404565b6040518082815260200191505060405180910390f35b34801561018857600080fd5b5061019161077a565b604051808273ffffffffffffffffffffffffffffffffffffffff1673ffffffffffffffffffffffffffffffffffffffff16815260200191505060405180910390f35b60025481565b600080600080600090505b6004548110156103ed576000809054906101000a900473ffffffffffffffffffffffffffffffffffffffff1673ffffffffffffffffffffffffffffffffffffffff166364e980726003546040518263ffffffff167c01000000000000000000000000000000000000000000000000000000000281526004018082815260200191505060206040518083038186803b15801561027e57600080fd5b505afa158015610292573d6000803e3d6000fd5b505050506040513d60208110156102a857600080fd5b810190808051906020019092919050505092506102c483610404565b8201915060016003600082825401925050819055506000809054906101000a900473ffffffffffffffffffffffffffffffffffffffff1673ffffffffffffffffffffffffffffffffffffffff16637ab9be186040518163ffffffff167c010000000000000000000000000000000000000000000000000000000002815260040160206040518083038186803b15801561035c57600080fd5b505afa158015610370573d6000803e3d6000fd5b505050506040513d602081101561038657600080fd5b810190808051906020019092919050505060035414156103e05760006003819055507f2a337d71f9f377b9df07c7d0b3b45e113342364e6da3faa740095ae43dbfb67260405160405180910390a1600193505050506103f5565b80806001019150506101e4565b506000925050505b90565b60035481565b60045481565b60008060006104116107a0565b90507f43e0d79edab99ad436795e03537a27e8192b11095f7d9e54e8748f538f75910c846040518082815260200191505060405180910390a160008060009054906101000a900473ffffffffffffffffffffffffffffffffffffffff1673ffffffffffffffffffffffffffffffffffffffff166369777fce6040518163ffffffff167c010000000000000000000000000000000000000000000000000000000002815260040160206040518083038186803b1580156104cf57600080fd5b505afa1580156104e3573d6000803e3d6000fd5b505050506040513d60208110156104f957600080fd5b810190808051906020019092919050505073ffffffffffffffffffffffffffffffffffffffff1663af5cfae86040518163ffffffff167c010000000000000000000000000000000000000000000000000000000002815260040160206040518083038186803b15801561056b57600080fd5b505afa15801561057f573d6000803e3d6000fd5b505050506040513d602081101561059557600080fd5b81019080805190602001909291905050501115156105b257600080fd5b60008060008060008060008060009054906101000a900473ffffffffffffffffffffffffffffffffffffffff1673ffffffffffffffffffffffffffffffffffffffff16633dcd20f48c6040518263ffffffff167c01000000000000000000000000000000000000000000000000000000000281526004018082815260200191505060e06040518083038186803b15801561064b57600080fd5b505afa15801561065f573d6000803e3d6000fd5b505050506040513d60e081101561067557600080fd5b810190808051906020019092919080519060200190929190805190602001909291908051906020019092919080519060200190929190805190602001909291908051906020019092919050505096509650965096509650965096506001151582151514151561074c576040517f08c379a00000000000000000000000000000000000000000000000000000000081526004018080602001828103825260188152602001807f426174746572792073686f756c6420626520616374697665000000000000000081525060200191505060405180910390fd5b6000610758858a6107aa565b90506107698c898989888e876107c8565b995050505050505050505050919050565b600160009054906101000a900473ffffffffffffffffffffffffffffffffffffffff1681565b6000611388905090565b6000818311156107bd57600190506107c2565b600090505b92915050565b6000806107d9600254610e10610db8565b905060008789039050600115158415151415610be15760008111151561088d576040517f08c379a00000000000000000000000000000000000000000000000000000000081526004018080602001828103825260398152602001807f426174746572792073686f756c6420686176652072656d61696e696e6720636181526020017f70616369747920696e206f7264657220746f206368617267650000000000000081525060400191505060405180910390fd5b6108a061089a8784610de2565b82610e20565b925060008060009054906101000a900473ffffffffffffffffffffffffffffffffffffffff1673ffffffffffffffffffffffffffffffffffffffff166369777fce6040518163ffffffff167c010000000000000000000000000000000000000000000000000000000002815260040160206040518083038186803b15801561092757600080fd5b505afa15801561093b573d6000803e3d6000fd5b505050506040513d602081101561095157600080fd5b810190808051906020019092919050505073ffffffffffffffffffffffffffffffffffffffff1663af5cfae86040518163ffffffff167c010000000000000000000000000000000000000000000000000000000002815260040160206040518083038186803b1580156109c357600080fd5b505afa1580156109d7573d6000803e3d6000fd5b505050506040513d60208110156109ed57600080fd5b810190808051906020019092919050505090506000610a0c8588610de2565b905081811115610a2657819050610a238288610db8565b94505b610a318c8689610e39565b507fe921c141ec599faf4d493fedfbb3af7c689ff38c273ed12108fd131c50f654a78986896000809054906101000a900473ffffffffffffffffffffffffffffffffffffffff1673ffffffffffffffffffffffffffffffffffffffff166369777fce6040518163ffffffff167c010000000000000000000000000000000000000000000000000000000002815260040160206040518083038186803b158015610ad957600080fd5b505afa158015610aed573d6000803e3d6000fd5b505050506040513d6020811015610b0357600080fd5b810190808051906020019092919050505073ffffffffffffffffffffffffffffffffffffffff1663af5cfae86040518163ffffffff167c010000000000000000000000000000000000000000000000000000000002815260040160206040518083038186803b158015610b7557600080fd5b505afa158015610b89573d6000803e3d6000fd5b505050506040513d6020811015610b9f57600080fd5b81019080805190602001909291905050506040518085815260200184815260200183815260200182815260200194505050505060405180910390a15050610dab565b610bf4610bee8784610de2565b89610e20565b9250610c018a84876112a3565b507f1eb90c2aa597b0bffa4231991db228ac204daee844c46a996ce98a8da13b71d18784876000809054906101000a900473ffffffffffffffffffffffffffffffffffffffff1673ffffffffffffffffffffffffffffffffffffffff166369777fce6040518163ffffffff167c010000000000000000000000000000000000000000000000000000000002815260040160206040518083038186803b158015610ca957600080fd5b505afa158015610cbd573d6000803e3d6000fd5b505050506040513d6020811015610cd357600080fd5b810190808051906020019092919050505073ffffffffffffffffffffffffffffffffffffffff1663af5cfae86040518163ffffffff167c010000000000000000000000000000000000000000000000000000000002815260040160206040518083038186803b158015610d4557600080fd5b505afa158015610d59573d6000803e3d6000fd5b505050506040513d6020811015610d6f57600080fd5b81019080805190602001909291905050506040518085815260200184815260200183815260200182815260200194505050505060405180910390a15b5050979650505050505050565b60008082111515610dc857600080fd5b60008284811515610dd557fe5b0490508091505092915050565b600080831415610df55760009050610e1a565b60008284029050828482811515610e0857fe5b04141515610e1557600080fd5b809150505b92915050565b6000818310610e2f5781610e31565b825b905092915050565b600080610fa86000809054906101000a900473ffffffffffffffffffffffffffffffffffffffff1673ffffffffffffffffffffffffffffffffffffffff166369777fce6040518163ffffffff167c010000000000000000000000000000000000000000000000000000000002815260040160206040518083038186803b158015610ec257600080fd5b505afa158015610ed6573d6000803e3d6000fd5b505050506040513d6020811015610eec57600080fd5b810190808051906020019092919050505073ffffffffffffffffffffffffffffffffffffffff1663af5cfae86040518163ffffffff167c010000000000000000000000000000000000000000000000000000000002815260040160206040518083038186803b158015610f5e57600080fd5b505afa158015610f72573d6000803e3d6000fd5b505050506040513d6020811015610f8857600080fd5b8101908080519060200190929190505050610fa38686610de2565b61166b565b905060008110151515611049576040517f08c379a00000000000000000000000000000000000000000000000000000000081526004018080602001828103825260268152602001807f4e6f7420656e6f756768206d6f6e657920746f206d616b65207468697320707581526020017f726368617365000000000000000000000000000000000000000000000000000081525060400191505060405180910390fd5b6000809054906101000a900473ffffffffffffffffffffffffffffffffffffffff1673ffffffffffffffffffffffffffffffffffffffff166369777fce6040518163ffffffff167c010000000000000000000000000000000000000000000000000000000002815260040160206040518083038186803b1580156110cc57600080fd5b505afa1580156110e0573d6000803e3d6000fd5b505050506040513d60208110156110f657600080fd5b810190808051906020019092919050505073ffffffffffffffffffffffffffffffffffffffff1663a342766b826040518263ffffffff167c010000000000000000000000000000000000000000000000000000000002815260040180828152602001915050602060405180830381600087803b15801561117557600080fd5b505af1158015611189573d6000803e3d6000fd5b505050506040513d602081101561119f57600080fd5b810190808051906020019092919050505015611296576000809054906101000a900473ffffffffffffffffffffffffffffffffffffffff1673ffffffffffffffffffffffffffffffffffffffff1663460fafbc86866000036040518363ffffffff167c01000000000000000000000000000000000000000000000000000000000281526004018083815260200182815260200192505050602060405180830381600087803b15801561125057600080fd5b505af1158015611264573d6000803e3d6000fd5b505050506040513d602081101561127a57600080fd5b810190808051906020019092919050505050600191505061129c565b60009150505b9392505050565b6000806114126000809054906101000a900473ffffffffffffffffffffffffffffffffffffffff1673ffffffffffffffffffffffffffffffffffffffff166369777fce6040518163ffffffff167c010000000000000000000000000000000000000000000000000000000002815260040160206040518083038186803b15801561132c57600080fd5b505afa158015611340573d6000803e3d6000fd5b505050506040513d602081101561135657600080fd5b810190808051906020019092919050505073ffffffffffffffffffffffffffffffffffffffff1663af5cfae86040518163ffffffff167c010000000000000000000000000000000000000000000000000000000002815260040160206040518083038186803b1580156113c857600080fd5b505afa1580156113dc573d6000803e3d6000fd5b505050506040513d60208110156113f257600080fd5b810190808051906020019092919050505061140d8686610de2565b61168d565b90506000809054906101000a900473ffffffffffffffffffffffffffffffffffffffff1673ffffffffffffffffffffffffffffffffffffffff166369777fce6040518163ffffffff167c010000000000000000000000000000000000000000000000000000000002815260040160206040518083038186803b15801561149757600080fd5b505afa1580156114ab573d6000803e3d6000fd5b505050506040513d60208110156114c157600080fd5b810190808051906020019092919050505073ffffffffffffffffffffffffffffffffffffffff1663a342766b826040518263ffffffff167c010000000000000000000000000000000000000000000000000000000002815260040180828152602001915050602060405180830381600087803b15801561154057600080fd5b505af1158015611554573d6000803e3d6000fd5b505050506040513d602081101561156a57600080fd5b81019080805190602001909291905050501561165e576000809054906101000a900473ffffffffffffffffffffffffffffffffffffffff1673ffffffffffffffffffffffffffffffffffffffff1663460fafbc86866040518363ffffffff167c01000000000000000000000000000000000000000000000000000000000281526004018083815260200182815260200192505050602060405180830381600087803b15801561161857600080fd5b505af115801561162c573d6000803e3d6000fd5b505050506040513d602081101561164257600080fd5b8101908080519060200190929190505050506001915050611664565b60009150505b9392505050565b600082821115151561167c57600080fd5b600082840390508091505092915050565b60008082840190508381101515156116a457600080fd5b809150509291505056fea165627a7a7230582020f5059c293a16081468abe835b4eeca7735b3f3708beb0610568b704f3187b70029",
  "source": "pragma solidity >=0.5.0;\n\nimport \"./VirtualPowerPlant.sol\";\n// import \"./BatteryLibrary.sol\";\nimport \"./SafeMath.sol\";\nimport \"./Math.sol\";\n\ncontract BatteryEnergy {\n\n    // Type declarations\n    VirtualPowerPlant VirtualPowerPlantContract;\n\n    // State variables\n    address public virtualPowerPlantAddress; // address of parent contract deploying battery investment\n    uint public purchaseInterval = 3600; // in sec,\n    uint public batteryIDCounter;\n    uint public batchProcess = 3;\n     // Battery[] public tempBattery;\n    // uint public temp;\n    // uint private remainingInvestment;  //\n\n    // Events\n    // event Log(uint counter);\n    event LogBatteryCheck(uint batteryID);\n    event LogBatteryCheckCompleted();\n    event LogEnergyPurchased(bytes32 serialNumber, uint energyTransacted, uint energyPrice, uint remainingInvestment);\n    event LogEnergySold(bytes32 serialNumber, uint energyTransacted, uint energyPrice, uint remainingInvestment);\n\n    // Modifiers\n\n\n\n    constructor (address _virtualPowerPlantAddress) public {\n        virtualPowerPlantAddress = _virtualPowerPlantAddress;\n        VirtualPowerPlantContract = VirtualPowerPlant(_virtualPowerPlantAddress);\n    }\n\n\n    function checkBatteryEnergy () external returns (bool) {\n        // uint batteryIDMax = VirtualPowerPlantContract.getBatteryIDMax();\n        // uint energyPrice = getRealTimeEnergyPrice();\n        // totalEnergyPurchase = 88;\n        uint batteryID;\n        uint totalEnergyPurchase;\n\n        for (uint i = 0; i < batchProcess; i++) {\n            batteryID = VirtualPowerPlantContract.batteryMapping(batteryIDCounter);\n            totalEnergyPurchase += executeBatteryTransaction(batteryID);\n            batteryIDCounter += 1;\n            if(batteryIDCounter == VirtualPowerPlantContract.numBatteries()){\n                batteryIDCounter = 0;\n                emit LogBatteryCheckCompleted();\n                // break;\n                return true;\n            }\n        }\n\n        return false;\n        // remainingInvestment = (VirtualPowerPlantContract.BatteryInvestmentContract()).remainingInvestment();\n    }\n\n    function executeBatteryTransaction (uint _batteryID) public returns (uint) {\n\n        uint energyAmountToTransact;\n        uint energyPrice = getRealTimeEnergyPrice();\n\n        emit LogBatteryCheck(_batteryID);\n        require((VirtualPowerPlantContract.batteryInvestmentContract()).remainingInvestment() > 0);\n        (\n            uint capacity,\n            uint currentFilled,\n            bytes32 serialNumber,\n            uint priceThreshold,\n            uint chargeRate,\n            bool isActive,\n            uint mapIndex\n        ) = VirtualPowerPlantContract.getRelevantBatteryInfo(_batteryID);\n        // uint emptyCapacity = VirtualPowerPlantContract.getBatteryCapacityRemaining(_batteryID);\n\n        // require(emptyCapacity > 0, \"Battery should have empty capacity for charge\");\n        require(isActive == true, \"Battery should be active\");\n        bool chargeBattery = energyDecisionAlgorithm(priceThreshold, energyPrice);\n        energyAmountToTransact = transactEnergy(\n            _batteryID,\n            capacity,\n            currentFilled,\n            serialNumber,\n            chargeRate,\n            energyPrice,\n            chargeBattery\n        );\n\n        // if (chargeBattery == true) {\n        //\n        //     buyEnergy(_batteryID, energyAmountToTransact, energyPrice);\n        //\n        //     // emit LogEnergyPurchased(\n        //     //     serialNumber,\n        //     //     energyAmountToPurchase,\n        //     //     energyPrice,\n        //     //     (VirtualPowerPlantContract.batteryInvestmentContract()).remainingInvestment()\n        //     // );\n        //     // return energyAmountToPurchase;\n        // } else {\n        //     // energyToSell = calculateEnergyToTransact(chargeRate, energyPrice, emptyCapacity);\n        //     sellEnergy(_batteryID, energyAmountToTransact, energyPrice);\n        //     // emit LogEnergySold(\n        //     //     serialNumber,\n        //     //     energyAmountToPurchase,\n        //     //     energyPrice,\n        //     //     (VirtualPowerPlantContract.batteryInvestmentContract()).remainingInvestment()\n        //     // );\n        // }\n        // return 0;\n\n\n    }\n\n\n    function energyDecisionAlgorithm (uint _priceThreshold, uint _energyPrice) private pure returns (bool) {\n        if (_priceThreshold > _energyPrice) {\n            return true;\n        } else{\n            return false;\n        }\n    }\n\n    function transactEnergy\n    (\n        uint _batteryID,\n        uint _capacity,\n        uint _currentFilled,\n        bytes32 _serialNumber,\n        uint _chargeRate,\n        uint _energyPrice,\n        bool _chargeBattery\n    )\n        private\n        returns (uint calculateEnergyToTransact)\n    {\n        uint purchaseIntervalHours = SafeMath.div(purchaseInterval, 3600);  // convert seconds to hours\n        uint emptyCapacity = _capacity - _currentFilled;\n\n        if (_chargeBattery == true) {\n            require(emptyCapacity > 0, \"Battery should have remaining capacity in order to charge\");\n\n            calculateEnergyToTransact = Math.min(SafeMath.mul(_chargeRate, purchaseIntervalHours), emptyCapacity);\n            uint remainingInvestment = (VirtualPowerPlantContract.batteryInvestmentContract()).remainingInvestment();\n            uint costOfEnergyPurchase = SafeMath.mul(calculateEnergyToTransact, _energyPrice);\n            if (costOfEnergyPurchase > remainingInvestment) {\n                costOfEnergyPurchase = remainingInvestment;\n                calculateEnergyToTransact = SafeMath.div(remainingInvestment, _energyPrice);\n            }\n\n            buyEnergy(_batteryID, calculateEnergyToTransact, _energyPrice);\n            emit LogEnergyPurchased(\n                _serialNumber,\n                calculateEnergyToTransact,\n                _energyPrice,\n                (VirtualPowerPlantContract.batteryInvestmentContract()).remainingInvestment()\n            );\n        } else {\n            calculateEnergyToTransact = Math.min(SafeMath.mul(_chargeRate, purchaseIntervalHours), _currentFilled);\n            sellEnergy(_batteryID, calculateEnergyToTransact, _energyPrice);\n            emit LogEnergySold(\n                _serialNumber,\n                calculateEnergyToTransact,\n                _energyPrice,\n                (VirtualPowerPlantContract.batteryInvestmentContract()).remainingInvestment()\n            );\n        }\n    }\n\n    function getRealTimeEnergyPrice () private pure returns (uint realTimePrice) {\n        realTimePrice = 5000;\n    }\n\n    function buyEnergy (uint _batteryID, uint _energyAmountToPurchase, uint _energyPrice) private returns (bool) {\n        uint newRemainingInvestment = SafeMath.sub(\n            (VirtualPowerPlantContract.batteryInvestmentContract()).remainingInvestment(),\n            SafeMath.mul(\n                _energyAmountToPurchase,\n                _energyPrice\n            )\n        );\n        require(newRemainingInvestment >= 0, \"Not enough money to make this purchase\");\n        if ((VirtualPowerPlantContract.batteryInvestmentContract()).updateRemainingInvestment(newRemainingInvestment)) {\n            // remainingInvestment = newRemainingInvestment;\n            VirtualPowerPlantContract.chargeBattery(_batteryID, -_energyAmountToPurchase);\n            return true;\n        }\n        return false;\n    }\n\n    function sellEnergy (uint _batteryID, uint _energyAmountToSell, uint _energyPrice) private returns (bool) {\n        uint newRemainingInvestment = SafeMath.add(\n            (VirtualPowerPlantContract.batteryInvestmentContract()).remainingInvestment(),\n            SafeMath.mul(\n                _energyAmountToSell,\n                _energyPrice\n            )\n        );\n        if ((VirtualPowerPlantContract.batteryInvestmentContract()).updateRemainingInvestment(newRemainingInvestment)) {\n            VirtualPowerPlantContract.chargeBattery(_batteryID, _energyAmountToSell);\n            return true;\n        }\n        return false;\n    }\n\n\n}\n",
  "sourcePath": "/Users/yan-dev/Documents/vpp-front-end/contracts/BatteryEnergy.sol",
  "compiler": {
    "name": "solc",
    "version": "0.5.0+commit.1d4f565a.Emscripten.clang"
  },
  "schemaVersion": "3.0.0",
  "updatedAt": "2019-01-26T05:34:38.397Z",
  "devdoc": {
    "methods": {}
  },
  "userdoc": {
    "methods": {}
  }
}