{
  "contractName": "BatteryInvestment",
  "abi": [
    {
      "constant": true,
      "inputs": [],
      "name": "totalInvestment",
      "outputs": [
        {
          "name": "",
          "type": "uint256"
        }
      ],
      "payable": false,
      "stateMutability": "view",
      "type": "function"
    },
    {
      "constant": true,
      "inputs": [
        {
          "name": "",
          "type": "uint256"
        }
      ],
      "name": "investorsList",
      "outputs": [
        {
          "name": "",
          "type": "address"
        }
      ],
      "payable": false,
      "stateMutability": "view",
      "type": "function"
    },
    {
      "constant": true,
      "inputs": [],
      "name": "dividendPercentage",
      "outputs": [
        {
          "name": "",
          "type": "uint256"
        }
      ],
      "payable": false,
      "stateMutability": "view",
      "type": "function"
    },
    {
      "constant": true,
      "inputs": [
        {
          "name": "",
          "type": "address"
        },
        {
          "name": "",
          "type": "uint256"
        }
      ],
      "name": "investors",
      "outputs": [
        {
          "name": "investorAddress",
          "type": "address"
        },
        {
          "name": "timestamp",
          "type": "uint256"
        },
        {
          "name": "investmentAmount",
          "type": "uint256"
        }
      ],
      "payable": false,
      "stateMutability": "view",
      "type": "function"
    },
    {
      "constant": true,
      "inputs": [],
      "name": "investmentPercentage",
      "outputs": [
        {
          "name": "",
          "type": "uint256"
        }
      ],
      "payable": false,
      "stateMutability": "view",
      "type": "function"
    },
    {
      "constant": true,
      "inputs": [],
      "name": "remainingInvestment",
      "outputs": [
        {
          "name": "",
          "type": "uint256"
        }
      ],
      "payable": false,
      "stateMutability": "view",
      "type": "function"
    },
    {
      "constant": true,
      "inputs": [
        {
          "name": "",
          "type": "uint256"
        }
      ],
      "name": "pendingTotalWithdrawals",
      "outputs": [
        {
          "name": "",
          "type": "uint256"
        }
      ],
      "payable": false,
      "stateMutability": "view",
      "type": "function"
    },
    {
      "constant": true,
      "inputs": [],
      "name": "numInvestorsWithdraw",
      "outputs": [
        {
          "name": "",
          "type": "uint256"
        }
      ],
      "payable": false,
      "stateMutability": "view",
      "type": "function"
    },
    {
      "constant": true,
      "inputs": [
        {
          "name": "",
          "type": "address"
        }
      ],
      "name": "pendingWithdrawals",
      "outputs": [
        {
          "name": "",
          "type": "uint256"
        }
      ],
      "payable": false,
      "stateMutability": "view",
      "type": "function"
    },
    {
      "inputs": [
        {
          "name": "_virtualPowerPlantAddress",
          "type": "address"
        },
        {
          "name": "_dividendPercentage",
          "type": "uint256"
        }
      ],
      "payable": false,
      "stateMutability": "nonpayable",
      "type": "constructor"
    },
    {
      "payable": false,
      "stateMutability": "nonpayable",
      "type": "fallback"
    },
    {
      "anonymous": false,
      "inputs": [
        {
          "indexed": false,
          "name": "investorAddress",
          "type": "address"
        },
        {
          "indexed": false,
          "name": "investmentAmount",
          "type": "uint256"
        }
      ],
      "name": "LogNewInvestment",
      "type": "event"
    },
    {
      "anonymous": false,
      "inputs": [
        {
          "indexed": false,
          "name": "investorAddress",
          "type": "address"
        },
        {
          "indexed": false,
          "name": "withdrawalAmount",
          "type": "uint256"
        }
      ],
      "name": "LogWithdrawalMade",
      "type": "event"
    },
    {
      "anonymous": false,
      "inputs": [
        {
          "indexed": false,
          "name": "investorAddress",
          "type": "address"
        },
        {
          "indexed": false,
          "name": "pendingWithdrawalAmount",
          "type": "uint256"
        }
      ],
      "name": "LogPendingWithdrawalAdded",
      "type": "event"
    },
    {
      "constant": false,
      "inputs": [
        {
          "name": "_remainingInvestment",
          "type": "uint256"
        }
      ],
      "name": "updateRemainingInvestment",
      "outputs": [
        {
          "name": "",
          "type": "bool"
        }
      ],
      "payable": false,
      "stateMutability": "nonpayable",
      "type": "function"
    },
    {
      "constant": false,
      "inputs": [],
      "name": "investMoney",
      "outputs": [],
      "payable": true,
      "stateMutability": "payable",
      "type": "function"
    },
    {
      "constant": false,
      "inputs": [],
      "name": "withdraw",
      "outputs": [],
      "payable": true,
      "stateMutability": "payable",
      "type": "function"
    },
    {
      "constant": false,
      "inputs": [],
      "name": "triggerDividend",
      "outputs": [
        {
          "name": "",
          "type": "bool"
        }
      ],
      "payable": false,
      "stateMutability": "nonpayable",
      "type": "function"
    },
    {
      "constant": false,
      "inputs": [
        {
          "name": "currentAddress",
          "type": "address"
        }
      ],
      "name": "addPendingWithdrawals",
      "outputs": [
        {
          "name": "",
          "type": "uint256"
        }
      ],
      "payable": false,
      "stateMutability": "nonpayable",
      "type": "function"
    },
    {
      "constant": true,
      "inputs": [
        {
          "name": "investorAddress",
          "type": "address"
        },
        {
          "name": "index",
          "type": "uint256"
        }
      ],
      "name": "getInvestorInvestment",
      "outputs": [
        {
          "name": "returnInvestment",
          "type": "uint256"
        }
      ],
      "payable": false,
      "stateMutability": "view",
      "type": "function"
    }
  ],
  "bytecode": "0x60806040526003600455600060065534801561001a57600080fd5b506040516040806115fe8339810180604052604081101561003a57600080fd5b81019080805190602001909291908051906020019092919050505080600381905550816000806101000a81548173ffffffffffffffffffffffffffffffffffffffff021916908373ffffffffffffffffffffffffffffffffffffffff16021790555060056000908060018154018082558091505090600182039060005260206000200160009091929091909150555060056000908060018154018082558091505090600182039060005260206000200160009091929091909150555050506114f7806101076000396000f3fe6080604052600436106100db576000357c0100000000000000000000000000000000000000000000000000000000900463ffffffff16806310ea13df146101565780632ccc872714610181578063370a3918146101fc5780633ccfd60b1461022b5780636bb80d511461023557806379ebb6c414610260578063973a9a82146103095780639b49969b14610313578063a342766b1461033e578063af5cfae814610391578063b9c8c449146103bc578063bd68f8f614610421578063c6778b2e14610470578063efabc746146104df578063f3f437031461050a575b3480156100e757600080fd5b506040517f08c379a00000000000000000000000000000000000000000000000000000000081526004018080602001828103825260118152602001807f46616c6c6261636b2066756e6374696f6e00000000000000000000000000000081525060200191505060405180910390fd5b34801561016257600080fd5b5061016b61056f565b6040518082815260200191505060405180910390f35b34801561018d57600080fd5b506101ba600480360360208110156101a457600080fd5b8101908080359060200190929190505050610575565b604051808273ffffffffffffffffffffffffffffffffffffffff1673ffffffffffffffffffffffffffffffffffffffff16815260200191505060405180910390f35b34801561020857600080fd5b506102116105b3565b604051808215151515815260200191505060405180910390f35b61023361090e565b005b34801561024157600080fd5b5061024a610d2b565b6040518082815260200191505060405180910390f35b34801561026c57600080fd5b506102b96004803603604081101561028357600080fd5b81019080803573ffffffffffffffffffffffffffffffffffffffff16906020019092919080359060200190929190505050610d31565b604051808473ffffffffffffffffffffffffffffffffffffffff1673ffffffffffffffffffffffffffffffffffffffff168152602001838152602001828152602001935050505060405180910390f35b610311610d97565b005b34801561031f57600080fd5b5061032861104e565b6040518082815260200191505060405180910390f35b34801561034a57600080fd5b506103776004803603602081101561036157600080fd5b8101908080359060200190929190505050611054565b604051808215151515815260200191505060405180910390f35b34801561039d57600080fd5b506103a6611066565b6040518082815260200191505060405180910390f35b3480156103c857600080fd5b5061040b600480360360208110156103df57600080fd5b81019080803573ffffffffffffffffffffffffffffffffffffffff16906020019092919050505061106c565b6040518082815260200191505060405180910390f35b34801561042d57600080fd5b5061045a6004803603602081101561044457600080fd5b8101908080359060200190929190505050611422565b6040518082815260200191505060405180910390f35b34801561047c57600080fd5b506104c96004803603604081101561049357600080fd5b81019080803573ffffffffffffffffffffffffffffffffffffffff16906020019092919080359060200190929190505050611445565b6040518082815260200191505060405180910390f35b3480156104eb57600080fd5b506104f46114ad565b6040518082815260200191505060405180910390f35b34801561051657600080fd5b506105596004803603602081101561052d57600080fd5b81019080803573ffffffffffffffffffffffffffffffffffffffff1690602001909291905050506114b3565b6040518082815260200191505060405180910390f35b60015481565b60078181548110151561058457fe5b906000526020600020016000915054906101000a900473ffffffffffffffffffffffffffffffffffffffff1681565b600033600115156000809054906101000a900473ffffffffffffffffffffffffffffffffffffffff1673ffffffffffffffffffffffffffffffffffffffff166324d7806c836040518263ffffffff167c0100000000000000000000000000000000000000000000000000000000028152600401808273ffffffffffffffffffffffffffffffffffffffff1673ffffffffffffffffffffffffffffffffffffffff16815260200191505060206040518083038186803b15801561067457600080fd5b505afa158015610688573d6000803e3d6000fd5b505050506040513d602081101561069e57600080fd5b810190808051906020019092919050505015151415156106bd57600080fd5b6000600254111515610737576040517f08c379a00000000000000000000000000000000000000000000000000000000081526004018080602001828103825260168152602001807f4e6f20617661696c61626c65206469766964656e64730000000000000000000081525060200191505060405180910390fd5b60646001546004540281151561074957fe5b0460025411151561080e576040517f08c379a00000000000000000000000000000000000000000000000000000000081526004018080602001828103825260458152602001807f4d757374206d61696e7461696e2061206365727461696e20696e766573746d6581526020017f6e74206c6576656c20696e206f7264657220746f20747269676765722064697681526020017f6964656e6400000000000000000000000000000000000000000000000000000081525060600191505060405180910390fd5b60006005600081548110151561082057fe5b90600052602060002001541415156108a0576040517f08c379a00000000000000000000000000000000000000000000000000000000081526004018080602001828103825260208152602001807f5374696c6c206f6e2070726576696f7573206469766964656e64206379636c6581525060200191505060405180910390fd5b60006064600354600254028115156108b457fe5b0490508060026000828254039250508190555080600560008154811015156108d857fe5b906000526020600020018190555080600560018154811015156108f757fe5b906000526020600020018190555060019250505090565b336000600960008373ffffffffffffffffffffffffffffffffffffffff1673ffffffffffffffffffffffffffffffffffffffff168152602001908152602001600020805490501115156109c9576040517f08c379a00000000000000000000000000000000000000000000000000000000081526004018080602001828103825260148152602001807f4e6f7420612076616c696420696e766573746f7200000000000000000000000081525060200191505060405180910390fd5b6000600860008373ffffffffffffffffffffffffffffffffffffffff1673ffffffffffffffffffffffffffffffffffffffff16815260200190815260200160002054111515610a80576040517f08c379a00000000000000000000000000000000000000000000000000000000081526004018080602001828103825260208152602001807f4164647265737320686173206e6f207769746864726177616c20616d6f756e7481525060200191505060405180910390fd5b600860008273ffffffffffffffffffffffffffffffffffffffff1673ffffffffffffffffffffffffffffffffffffffff1681526020019081526020016000205460056001815481101515610ad057fe5b9060005260206000200154111515610b50576040517f08c379a000000000000000000000000000000000000000000000000000000000815260040180806020018281038252601a8152602001807f4572726f72202d206e6f20617661696c61626c652066756e647300000000000081525060200191505060405180910390fd5b6000600860003373ffffffffffffffffffffffffffffffffffffffff1673ffffffffffffffffffffffffffffffffffffffff1681526020019081526020016000205490508060056001815481101515610ba557fe5b90600052602060002001600082825403925050819055506000600860003373ffffffffffffffffffffffffffffffffffffffff1673ffffffffffffffffffffffffffffffffffffffff168152602001908152602001600020819055506006600081548092919060010191905055506007805490506006541415610c75576000600681905550600060056000815481101515610c3c57fe5b906000526020600020018190555060056001815481101515610c5a57fe5b90600052602060002001546002600082825401925050819055505b3373ffffffffffffffffffffffffffffffffffffffff166108fc829081150290604051600060405180830381858888f19350505050158015610cbb573d6000803e3d6000fd5b507fa502fd41811afb69adfdfadf22b00a476d683cb0e8fcb04ecef9e331e2a26a6d3382604051808373ffffffffffffffffffffffffffffffffffffffff1673ffffffffffffffffffffffffffffffffffffffff1681526020018281526020019250505060405180910390a15050565b60035481565b600960205281600052604060002081815481101515610d4c57fe5b9060005260206000209060030201600091509150508060000160009054906101000a900473ffffffffffffffffffffffffffffffffffffffff16908060010154908060020154905083565b600034111515610e0f576040517f08c379a000000000000000000000000000000000000000000000000000000000815260040180806020018281038252601a8152602001807f41747461636820616e20696e766573746d656e742076616c756500000000000081525060200191505060405180910390fd5b60003490506000600960003373ffffffffffffffffffffffffffffffffffffffff1673ffffffffffffffffffffffffffffffffffffffff168152602001908152602001600020805490501415610ec65760073390806001815401808255809150509060018203906000526020600020016000909192909190916101000a81548173ffffffffffffffffffffffffffffffffffffffff021916908373ffffffffffffffffffffffffffffffffffffffff160217905550505b600960003373ffffffffffffffffffffffffffffffffffffffff1673ffffffffffffffffffffffffffffffffffffffff1681526020019081526020016000206060604051908101604052803373ffffffffffffffffffffffffffffffffffffffff168152602001428152602001838152509080600181540180825580915050906001820390600052602060002090600302016000909192909190915060008201518160000160006101000a81548173ffffffffffffffffffffffffffffffffffffffff021916908373ffffffffffffffffffffffffffffffffffffffff160217905550602082015181600101556040820151816002015550505080600160008282540192505081905550806002600082825401925050819055507f012335398b2ec0286f8c0396759e9608b4e163f51d06d11116dd801b2b47c60f3382604051808373ffffffffffffffffffffffffffffffffffffffff1673ffffffffffffffffffffffffffffffffffffffff1681526020018281526020019250505060405180910390a150565b60045481565b60008160028190555060019050919050565b60025481565b600033600115156000809054906101000a900473ffffffffffffffffffffffffffffffffffffffff1673ffffffffffffffffffffffffffffffffffffffff166324d7806c836040518263ffffffff167c0100000000000000000000000000000000000000000000000000000000028152600401808273ffffffffffffffffffffffffffffffffffffffff1673ffffffffffffffffffffffffffffffffffffffff16815260200191505060206040518083038186803b15801561112d57600080fd5b505afa158015611141573d6000803e3d6000fd5b505050506040513d602081101561115757600080fd5b8101908080519060200190929190505050151514151561117657600080fd5b600080905060008090505b600960008673ffffffffffffffffffffffffffffffffffffffff1673ffffffffffffffffffffffffffffffffffffffff168152602001908152602001600020805490508110156112f1578473ffffffffffffffffffffffffffffffffffffffff16600960008773ffffffffffffffffffffffffffffffffffffffff1673ffffffffffffffffffffffffffffffffffffffff1681526020019081526020016000208281548110151561122e57fe5b906000526020600020906003020160000160009054906101000a900473ffffffffffffffffffffffffffffffffffffffff1673ffffffffffffffffffffffffffffffffffffffff1614151561128257600080fd5b600960008673ffffffffffffffffffffffffffffffffffffffff1673ffffffffffffffffffffffffffffffffffffffff168152602001908152602001600020818154811015156112ce57fe5b906000526020600020906003020160020154820191508080600101915050611181565b506000600154826005600081548110151561130857fe5b90600052602060002001540281151561131d57fe5b04905080600860008773ffffffffffffffffffffffffffffffffffffffff1673ffffffffffffffffffffffffffffffffffffffff168152602001908152602001600020600082825401925050819055507f42f69d5213292b7ba6e1e5a1f251f6edca6f86e95f14e89871ebb5e9fa5099b885600860008873ffffffffffffffffffffffffffffffffffffffff1673ffffffffffffffffffffffffffffffffffffffff16815260200190815260200160002054604051808373ffffffffffffffffffffffffffffffffffffffff1673ffffffffffffffffffffffffffffffffffffffff1681526020018281526020019250505060405180910390a1809350505050919050565b60058181548110151561143157fe5b906000526020600020016000915090505481565b6000600960008473ffffffffffffffffffffffffffffffffffffffff1673ffffffffffffffffffffffffffffffffffffffff1681526020019081526020016000208281548110151561149357fe5b906000526020600020906003020160020154905092915050565b60065481565b6008602052806000526040600020600091509050548156fea165627a7a72305820d9f02db4abe567282789472d36eb1544edd8e116da531f948d849806f666d29e0029",
  "source": "pragma solidity >=0.5.0;\n\nimport \"./VirtualPowerPlant.sol\";\n\n/// @author Yan Man\n/// @title Manage energy investments for Virtual Power Plant\ncontract BatteryInvestment {\n\n    // Type declarations\n    // Contract which deployed this one\n    VirtualPowerPlant internal VirtualPowerPlantContract;\n    // defines an investment\n    struct Investment {\n        address investorAddress; // address of investor\n        uint timestamp; // timestamp of their investment\n        uint investmentAmount; // in wei\n    }\n    // State variables\n    uint public totalInvestment; // total investment (without accounting for purchases)\n    uint public remainingInvestment;  // remaining investment (total investment - battery purchases)\n    uint public dividendPercentage; // percentage of remaining investment money allowed to be used for dividends\n    uint public investmentPercentage = 3; // percentage of total investment which must remain for a dividend to be triggered\n    // already-triggered dividends an investor can retrieve\n    // pendingTotalWithdrawals[0]: original amount of dividends for the period.\n    // must reset to 0 to allow next dividend cycle to be triggered. Keep track of\n    // initial total dividend amount to calculate withdrawal amount for each investor\n    // pendingTotalWithdrawals[1]: remaining withdrawal remaining for the dividend period\n    uint[] public pendingTotalWithdrawals;\n    uint public numInvestorsWithdraw = 0; // keep track of # of investors who have withdrawn during this dividend period\n    address[] public investorsList; // list of investors for easier retrieval\n    mapping(address => uint) public pendingWithdrawals;  // pending withdrawals for each investor\n    mapping(address => Investment[]) public investors;  // to account for multiple investments per investor\n\n    // Events\n    event LogNewInvestment (address investorAddress, uint investmentAmount);\n    event LogWithdrawalMade (address investorAddress, uint withdrawalAmount);\n    event LogPendingWithdrawalAdded (address investorAddress, uint pendingWithdrawalAmount);\n\n    // Modifiers\n    modifier enoughInvestmentModifier { require(msg.value > 0, \"Attach an investment value\"); _; }\n    modifier isValidWithdrawalModifier (address investorAddress) {\n        // check that withdrawal is allowed. Must have an investment, existing\n        // withdrawals pending, and available funds for the withdrawal to proceed\n        require(investors[investorAddress].length > 0, \"Not a valid investor\");\n        require(pendingWithdrawals[investorAddress] > 0, \"Address has no withdrawal amount\");\n        require(pendingTotalWithdrawals[1] > pendingWithdrawals[investorAddress], \"Error - no available funds\");\n        _;\n    }\n\n    modifier isValidDividendTriggerModifier {\n        // dividend is only allowed if:\n        // there is remaining investment amount\n        // ensure remainingInvestment is within investmentPercentage of the total investment\n        // pendingTotalWithdrawals is reset to 0\n        require(remainingInvestment > 0, \"No available dividends\");\n        require(remainingInvestment > (investmentPercentage * totalInvestment) / 100, \"Must maintain a certain investment level in order to trigger dividend\");\n        require(pendingTotalWithdrawals[0] == 0, \"Still on previous dividend cycle\");\n        _;\n    }\n\n    // confirm user calling contract is admin\n    modifier isAdmin (address msgAddress) {\n        require(VirtualPowerPlantContract.isAdmin(msgAddress) == true);\n        _;\n    }\n\n    // contructor\n    /// @param _virtualPowerPlantAddress address of parent contract\n    /// @param _dividendPercentage set dividend percentage threshold\n    constructor (address _virtualPowerPlantAddress, uint _dividendPercentage) public {\n        dividendPercentage = _dividendPercentage;\n        // create VirtualPowerPlant contract from parent contract address\n        VirtualPowerPlantContract = VirtualPowerPlant(_virtualPowerPlantAddress);\n        // initialize pendingTotalWithdrawals with 0 for initial period\n        pendingTotalWithdrawals.push(0);\n        pendingTotalWithdrawals.push(0);\n    }\n\n    // fallback function\n    function () external{\n        revert(\"Fallback function\");\n    }\n\n    // External functions\n    /// @notice alter remaining investment\n    /// @param _remainingInvestment remaining investment value\n    /// @return whether var succesfully updated\n    function updateRemainingInvestment (uint _remainingInvestment) external returns (bool) {\n        remainingInvestment = _remainingInvestment;\n        return true;\n    }\n\n    /// @notice invest eth into fund\n    /// @dev must send ether to this function\n    function investMoney ()\n        external\n        payable\n        enoughInvestmentModifier\n    {\n        // investment amount is value attached to function call\n        uint investAmount = msg.value;\n        // if investor has not had previous investor, add them to the list\n        if(investors[msg.sender].length == 0){\n            investorsList.push(msg.sender);\n        }\n        // add investor struct to investor array\n        investors[msg.sender].push(Investment({\n            investorAddress: msg.sender,\n            timestamp: now,\n            investmentAmount: investAmount\n        }));\n        // update the total amount of investment\n        totalInvestment += investAmount;\n        // update the remaining amount of investment\n        remainingInvestment += investAmount;\n        emit LogNewInvestment(msg.sender, investAmount);\n    }\n\n    /// @notice withdraw dividend\n    /// @dev receive eth\n    function withdraw () external payable isValidWithdrawalModifier(msg.sender) {\n        uint withdrawalAmount = pendingWithdrawals[msg.sender];\n        // retrieve dividend amount for particular user\n        pendingTotalWithdrawals[1] -= withdrawalAmount;\n        // Zero the pending refund before\n        // sending to prevent re-entrancy attacks\n        pendingWithdrawals[msg.sender] = 0;\n        // increase the number of withdrawn dividends during current cycle\n        numInvestorsWithdraw++;\n        // if all investors have withdrawn their dividend, reset\n        if(numInvestorsWithdraw == investorsList.length){\n            numInvestorsWithdraw = 0;\n            pendingTotalWithdrawals[0] = 0;\n            remainingInvestment += pendingTotalWithdrawals[1];\n        }\n        msg.sender.transfer(withdrawalAmount);\n        emit LogWithdrawalMade(msg.sender, withdrawalAmount);\n    }\n\n    /// @notice admin can trigger a dividend to be paid out to investors\n    /// @return whether dividend triggered successfully\n    function triggerDividend ()\n        external\n        isAdmin(msg.sender)\n        isValidDividendTriggerModifier\n        returns (bool)\n    {\n        // dividend to be divided up among investors during this cycle\n        // a percentage of the remaining investment\n        uint totalCurrentDividend = (remainingInvestment * dividendPercentage) / (100);\n        // zero out value first\n        remainingInvestment -= totalCurrentDividend;\n        // set both values in the pendingTotalWithdrawals array\n        pendingTotalWithdrawals[0] = (totalCurrentDividend);\n        pendingTotalWithdrawals[1] = (totalCurrentDividend);\n        return true;\n    }\n\n    /// @notice add withdrawals, transfer from outstanding dividend to each\n    /// @notice individual investor\n    /// @param currentAddress investor address for dividend\n    function addPendingWithdrawals (address currentAddress)\n        external\n        isAdmin(msg.sender)\n        returns (uint)\n    {\n        // initialize current investor's summed investment amount\n        uint totalCurrentInvestorAmt = 0;\n        // loop through each investment made by current investor\n        for (uint i = 0; i < investors[currentAddress].length; i++) {\n            // require each investment was made by this investor\n            require(investors[currentAddress][i].investorAddress == currentAddress);\n            // sum up all investments made by current investor\n            totalCurrentInvestorAmt += investors[currentAddress][i].investmentAmount;\n        }\n        // calculate dividend based on ratio of investments made to the total fund\n        uint totalUserDividend = (pendingTotalWithdrawals[0] * totalCurrentInvestorAmt) / (totalInvestment);\n        // add new dividend to what remains in investor's withdrawal pool\n        pendingWithdrawals[currentAddress] += totalUserDividend;\n        emit LogPendingWithdrawalAdded(currentAddress, pendingWithdrawals[currentAddress]);\n        return totalUserDividend;\n    }\n\n    // External functions that are view\n    /// @notice retrieve investment amount for a particular investment, because\n    /// @notice multiple are available per user, submit index too\n    /// @param investorAddress investor address\n    /// @param index of their investment (for multiple investments) else should be 0\n    function getInvestorInvestment (address investorAddress, uint index)\n        external\n        view\n        returns (uint returnInvestment)\n    {\n        returnInvestment = investors[investorAddress][index].investmentAmount;\n    }\n\n\n}\n",
  "sourcePath": "/Users/yan-dev/Documents/virtual-power-plant/contracts/BatteryInvestment.sol",
  "compiler": {
    "name": "solc",
    "version": "0.5.0+commit.1d4f565a.Emscripten.clang"
  },
  "schemaVersion": "3.0.0",
  "updatedAt": "2019-01-26T17:44:44.939Z",
  "devdoc": {
    "author": "Yan Man",
    "methods": {
      "addPendingWithdrawals(address)": {
        "params": {
          "currentAddress": "investor address for dividend"
        }
      },
      "constructor": {
        "params": {
          "_dividendPercentage": "set dividend percentage threshold",
          "_virtualPowerPlantAddress": "address of parent contract"
        }
      },
      "getInvestorInvestment(address,uint256)": {
        "params": {
          "index": "of their investment (for multiple investments) else should be 0",
          "investorAddress": "investor address"
        }
      },
      "investMoney()": {
        "details": "must send ether to this function"
      },
      "triggerDividend()": {
        "return": "whether dividend triggered successfully"
      },
      "updateRemainingInvestment(uint256)": {
        "params": {
          "_remainingInvestment": "remaining investment value"
        },
        "return": "whether var succesfully updated"
      },
      "withdraw()": {
        "details": "receive eth"
      }
    },
    "title": "Manage energy investments for Virtual Power Plant"
  },
  "userdoc": {
    "methods": {
      "addPendingWithdrawals(address)": {
        "notice": "add withdrawals, transfer from outstanding dividend to eachindividual investor"
      },
      "getInvestorInvestment(address,uint256)": {
        "notice": "retrieve investment amount for a particular investment, becausemultiple are available per user, submit index too"
      },
      "investMoney()": {
        "notice": "invest eth into fund"
      },
      "triggerDividend()": {
        "notice": "admin can trigger a dividend to be paid out to investors"
      },
      "updateRemainingInvestment(uint256)": {
        "notice": "alter remaining investment"
      },
      "withdraw()": {
        "notice": "withdraw dividend"
      }
    }
  }
}