{
  "contractName": "BatteryEnergy",
  "abi": [
    {
      "constant": true,
      "inputs": [],
      "name": "purchaseInterval",
      "outputs": [
        {
          "name": "",
          "type": "uint256"
        }
      ],
      "payable": false,
      "stateMutability": "view",
      "type": "function"
    },
    {
      "constant": true,
      "inputs": [],
      "name": "virtualPowerPlantAddress",
      "outputs": [
        {
          "name": "",
          "type": "address"
        }
      ],
      "payable": false,
      "stateMutability": "view",
      "type": "function"
    },
    {
      "inputs": [
        {
          "name": "_virtualPowerPlantAddress",
          "type": "address"
        }
      ],
      "payable": false,
      "stateMutability": "nonpayable",
      "type": "constructor"
    },
    {
      "anonymous": false,
      "inputs": [
        {
          "indexed": false,
          "name": "batteryID",
          "type": "uint256"
        }
      ],
      "name": "LogBatteryCheck",
      "type": "event"
    },
    {
      "anonymous": false,
      "inputs": [
        {
          "indexed": false,
          "name": "serialNumber",
          "type": "bytes32"
        },
        {
          "indexed": false,
          "name": "energyTransacted",
          "type": "uint256"
        },
        {
          "indexed": false,
          "name": "energyPrice",
          "type": "uint256"
        },
        {
          "indexed": false,
          "name": "remainingInvestment",
          "type": "uint256"
        }
      ],
      "name": "LogEnergyPurchased",
      "type": "event"
    },
    {
      "anonymous": false,
      "inputs": [
        {
          "indexed": false,
          "name": "serialNumber",
          "type": "bytes32"
        },
        {
          "indexed": false,
          "name": "energyTransacted",
          "type": "uint256"
        },
        {
          "indexed": false,
          "name": "energyPrice",
          "type": "uint256"
        },
        {
          "indexed": false,
          "name": "remainingInvestment",
          "type": "uint256"
        }
      ],
      "name": "LogEnergySold",
      "type": "event"
    },
    {
      "constant": false,
      "inputs": [],
      "name": "checkBatteryEnergy",
      "outputs": [
        {
          "name": "",
          "type": "uint256"
        }
      ],
      "payable": false,
      "stateMutability": "nonpayable",
      "type": "function"
    },
    {
      "constant": false,
      "inputs": [
        {
          "name": "_batteryID",
          "type": "uint256"
        }
      ],
      "name": "executeBatteryTransaction",
      "outputs": [
        {
          "name": "",
          "type": "uint256"
        }
      ],
      "payable": false,
      "stateMutability": "nonpayable",
      "type": "function"
    }
  ],
  "bytecode": "0x6080604052610e1060025534801561001657600080fd5b506040516020806116d58339810180604052602081101561003657600080fd5b810190808051906020019092919050505080600160006101000a81548173ffffffffffffffffffffffffffffffffffffffff021916908373ffffffffffffffffffffffffffffffffffffffff160217905550806000806101000a81548173ffffffffffffffffffffffffffffffffffffffff021916908373ffffffffffffffffffffffffffffffffffffffff160217905550506115fd806100d86000396000f3fe608060405260043610610062576000357c0100000000000000000000000000000000000000000000000000000000900463ffffffff1680630fc64691146100675780634fef236414610092578063d5fbc71d146100bd578063feb663d01461010c575b600080fd5b34801561007357600080fd5b5061007c610163565b6040518082815260200191505060405180910390f35b34801561009e57600080fd5b506100a7610169565b6040518082815260200191505060405180910390f35b3480156100c957600080fd5b506100f6600480360360208110156100e057600080fd5b8101908080359060200190929190505050610327565b6040518082815260200191505060405180910390f35b34801561011857600080fd5b5061012161069d565b604051808273ffffffffffffffffffffffffffffffffffffffff1673ffffffffffffffffffffffffffffffffffffffff16815260200191505060405180910390f35b60025481565b600080600080600090505b6000809054906101000a900473ffffffffffffffffffffffffffffffffffffffff1673ffffffffffffffffffffffffffffffffffffffff16637ab9be186040518163ffffffff167c010000000000000000000000000000000000000000000000000000000002815260040160206040518083038186803b1580156101f757600080fd5b505afa15801561020b573d6000803e3d6000fd5b505050506040513d602081101561022157600080fd5b810190808051906020019092919050505081101561031e576000809054906101000a900473ffffffffffffffffffffffffffffffffffffffff1673ffffffffffffffffffffffffffffffffffffffff166364e98072826040518263ffffffff167c01000000000000000000000000000000000000000000000000000000000281526004018082815260200191505060206040518083038186803b1580156102c757600080fd5b505afa1580156102db573d6000803e3d6000fd5b505050506040513d60208110156102f157600080fd5b8101908080519060200190929190505050925061030d83610327565b820191508080600101915050610174565b50809250505090565b60008060006103346106c3565b90507f43e0d79edab99ad436795e03537a27e8192b11095f7d9e54e8748f538f75910c846040518082815260200191505060405180910390a160008060009054906101000a900473ffffffffffffffffffffffffffffffffffffffff1673ffffffffffffffffffffffffffffffffffffffff166369777fce6040518163ffffffff167c010000000000000000000000000000000000000000000000000000000002815260040160206040518083038186803b1580156103f257600080fd5b505afa158015610406573d6000803e3d6000fd5b505050506040513d602081101561041c57600080fd5b810190808051906020019092919050505073ffffffffffffffffffffffffffffffffffffffff1663af5cfae86040518163ffffffff167c010000000000000000000000000000000000000000000000000000000002815260040160206040518083038186803b15801561048e57600080fd5b505afa1580156104a2573d6000803e3d6000fd5b505050506040513d60208110156104b857600080fd5b81019080805190602001909291905050501115156104d557600080fd5b60008060008060008060008060009054906101000a900473ffffffffffffffffffffffffffffffffffffffff1673ffffffffffffffffffffffffffffffffffffffff16633dcd20f48c6040518263ffffffff167c01000000000000000000000000000000000000000000000000000000000281526004018082815260200191505060e06040518083038186803b15801561056e57600080fd5b505afa158015610582573d6000803e3d6000fd5b505050506040513d60e081101561059857600080fd5b810190808051906020019092919080519060200190929190805190602001909291908051906020019092919080519060200190929190805190602001909291908051906020019092919050505096509650965096509650965096506001151582151514151561066f576040517f08c379a00000000000000000000000000000000000000000000000000000000081526004018080602001828103825260188152602001807f426174746572792073686f756c6420626520616374697665000000000000000081525060200191505060405180910390fd5b600061067b858a6106cd565b905061068c8c898989888e876106eb565b995050505050505050505050919050565b600160009054906101000a900473ffffffffffffffffffffffffffffffffffffffff1681565b6000611388905090565b6000818311156106e057600190506106e5565b600090505b92915050565b6000806106fc600254610e10610cdb565b905060008789039050600115158415151415610b04576000811115156107b0576040517f08c379a00000000000000000000000000000000000000000000000000000000081526004018080602001828103825260398152602001807f426174746572792073686f756c6420686176652072656d61696e696e6720636181526020017f70616369747920696e206f7264657220746f206368617267650000000000000081525060400191505060405180910390fd5b6107c36107bd8784610d05565b82610d43565b925060008060009054906101000a900473ffffffffffffffffffffffffffffffffffffffff1673ffffffffffffffffffffffffffffffffffffffff166369777fce6040518163ffffffff167c010000000000000000000000000000000000000000000000000000000002815260040160206040518083038186803b15801561084a57600080fd5b505afa15801561085e573d6000803e3d6000fd5b505050506040513d602081101561087457600080fd5b810190808051906020019092919050505073ffffffffffffffffffffffffffffffffffffffff1663af5cfae86040518163ffffffff167c010000000000000000000000000000000000000000000000000000000002815260040160206040518083038186803b1580156108e657600080fd5b505afa1580156108fa573d6000803e3d6000fd5b505050506040513d602081101561091057600080fd5b81019080805190602001909291905050509050600061092f8588610d05565b905081811115610949578190506109468288610cdb565b94505b6109548c8689610d5c565b507fe921c141ec599faf4d493fedfbb3af7c689ff38c273ed12108fd131c50f654a78986896000809054906101000a900473ffffffffffffffffffffffffffffffffffffffff1673ffffffffffffffffffffffffffffffffffffffff166369777fce6040518163ffffffff167c010000000000000000000000000000000000000000000000000000000002815260040160206040518083038186803b1580156109fc57600080fd5b505afa158015610a10573d6000803e3d6000fd5b505050506040513d6020811015610a2657600080fd5b810190808051906020019092919050505073ffffffffffffffffffffffffffffffffffffffff1663af5cfae86040518163ffffffff167c010000000000000000000000000000000000000000000000000000000002815260040160206040518083038186803b158015610a9857600080fd5b505afa158015610aac573d6000803e3d6000fd5b505050506040513d6020811015610ac257600080fd5b81019080805190602001909291905050506040518085815260200184815260200183815260200182815260200194505050505060405180910390a15050610cce565b610b17610b118784610d05565b89610d43565b9250610b248a84876111c6565b507f1eb90c2aa597b0bffa4231991db228ac204daee844c46a996ce98a8da13b71d18784876000809054906101000a900473ffffffffffffffffffffffffffffffffffffffff1673ffffffffffffffffffffffffffffffffffffffff166369777fce6040518163ffffffff167c010000000000000000000000000000000000000000000000000000000002815260040160206040518083038186803b158015610bcc57600080fd5b505afa158015610be0573d6000803e3d6000fd5b505050506040513d6020811015610bf657600080fd5b810190808051906020019092919050505073ffffffffffffffffffffffffffffffffffffffff1663af5cfae86040518163ffffffff167c010000000000000000000000000000000000000000000000000000000002815260040160206040518083038186803b158015610c6857600080fd5b505afa158015610c7c573d6000803e3d6000fd5b505050506040513d6020811015610c9257600080fd5b81019080805190602001909291905050506040518085815260200184815260200183815260200182815260200194505050505060405180910390a15b5050979650505050505050565b60008082111515610ceb57600080fd5b60008284811515610cf857fe5b0490508091505092915050565b600080831415610d185760009050610d3d565b60008284029050828482811515610d2b57fe5b04141515610d3857600080fd5b809150505b92915050565b6000818310610d525781610d54565b825b905092915050565b600080610ecb6000809054906101000a900473ffffffffffffffffffffffffffffffffffffffff1673ffffffffffffffffffffffffffffffffffffffff166369777fce6040518163ffffffff167c010000000000000000000000000000000000000000000000000000000002815260040160206040518083038186803b158015610de557600080fd5b505afa158015610df9573d6000803e3d6000fd5b505050506040513d6020811015610e0f57600080fd5b810190808051906020019092919050505073ffffffffffffffffffffffffffffffffffffffff1663af5cfae86040518163ffffffff167c010000000000000000000000000000000000000000000000000000000002815260040160206040518083038186803b158015610e8157600080fd5b505afa158015610e95573d6000803e3d6000fd5b505050506040513d6020811015610eab57600080fd5b8101908080519060200190929190505050610ec68686610d05565b61158e565b905060008110151515610f6c576040517f08c379a00000000000000000000000000000000000000000000000000000000081526004018080602001828103825260268152602001807f4e6f7420656e6f756768206d6f6e657920746f206d616b65207468697320707581526020017f726368617365000000000000000000000000000000000000000000000000000081525060400191505060405180910390fd5b6000809054906101000a900473ffffffffffffffffffffffffffffffffffffffff1673ffffffffffffffffffffffffffffffffffffffff166369777fce6040518163ffffffff167c010000000000000000000000000000000000000000000000000000000002815260040160206040518083038186803b158015610fef57600080fd5b505afa158015611003573d6000803e3d6000fd5b505050506040513d602081101561101957600080fd5b810190808051906020019092919050505073ffffffffffffffffffffffffffffffffffffffff1663a342766b826040518263ffffffff167c010000000000000000000000000000000000000000000000000000000002815260040180828152602001915050602060405180830381600087803b15801561109857600080fd5b505af11580156110ac573d6000803e3d6000fd5b505050506040513d60208110156110c257600080fd5b8101908080519060200190929190505050156111b9576000809054906101000a900473ffffffffffffffffffffffffffffffffffffffff1673ffffffffffffffffffffffffffffffffffffffff1663460fafbc86866000036040518363ffffffff167c01000000000000000000000000000000000000000000000000000000000281526004018083815260200182815260200192505050602060405180830381600087803b15801561117357600080fd5b505af1158015611187573d6000803e3d6000fd5b505050506040513d602081101561119d57600080fd5b81019080805190602001909291905050505060019150506111bf565b60009150505b9392505050565b6000806113356000809054906101000a900473ffffffffffffffffffffffffffffffffffffffff1673ffffffffffffffffffffffffffffffffffffffff166369777fce6040518163ffffffff167c010000000000000000000000000000000000000000000000000000000002815260040160206040518083038186803b15801561124f57600080fd5b505afa158015611263573d6000803e3d6000fd5b505050506040513d602081101561127957600080fd5b810190808051906020019092919050505073ffffffffffffffffffffffffffffffffffffffff1663af5cfae86040518163ffffffff167c010000000000000000000000000000000000000000000000000000000002815260040160206040518083038186803b1580156112eb57600080fd5b505afa1580156112ff573d6000803e3d6000fd5b505050506040513d602081101561131557600080fd5b81019080805190602001909291905050506113308686610d05565b6115b0565b90506000809054906101000a900473ffffffffffffffffffffffffffffffffffffffff1673ffffffffffffffffffffffffffffffffffffffff166369777fce6040518163ffffffff167c010000000000000000000000000000000000000000000000000000000002815260040160206040518083038186803b1580156113ba57600080fd5b505afa1580156113ce573d6000803e3d6000fd5b505050506040513d60208110156113e457600080fd5b810190808051906020019092919050505073ffffffffffffffffffffffffffffffffffffffff1663a342766b826040518263ffffffff167c010000000000000000000000000000000000000000000000000000000002815260040180828152602001915050602060405180830381600087803b15801561146357600080fd5b505af1158015611477573d6000803e3d6000fd5b505050506040513d602081101561148d57600080fd5b810190808051906020019092919050505015611581576000809054906101000a900473ffffffffffffffffffffffffffffffffffffffff1673ffffffffffffffffffffffffffffffffffffffff1663460fafbc86866040518363ffffffff167c01000000000000000000000000000000000000000000000000000000000281526004018083815260200182815260200192505050602060405180830381600087803b15801561153b57600080fd5b505af115801561154f573d6000803e3d6000fd5b505050506040513d602081101561156557600080fd5b8101908080519060200190929190505050506001915050611587565b60009150505b9392505050565b600082821115151561159f57600080fd5b600082840390508091505092915050565b60008082840190508381101515156115c757600080fd5b809150509291505056fea165627a7a72305820b8070a06287bc7566b8e3929e7648c19112774315a7550fadcd32ed41889dff50029",
  "source": "pragma solidity >=0.5.0;\n\nimport \"./VirtualPowerPlant.sol\";\n// import \"./BatteryLibrary.sol\";\nimport \"./SafeMath.sol\";\nimport \"./Math.sol\";\n\ncontract BatteryEnergy {\n\n    // Type declarations\n    VirtualPowerPlant VirtualPowerPlantContract;\n\n    // State variables\n    address public virtualPowerPlantAddress; // address of parent contract deploying battery investment\n    uint public purchaseInterval = 3600; // in sec,\n     // Battery[] public tempBattery;\n    // uint public temp;\n    // uint private remainingInvestment;  //\n\n    // Events\n    // event Log(uint counter);\n    event LogBatteryCheck(uint batteryID);\n    event LogEnergyPurchased(bytes32 serialNumber, uint energyTransacted, uint energyPrice, uint remainingInvestment);\n    event LogEnergySold(bytes32 serialNumber, uint energyTransacted, uint energyPrice, uint remainingInvestment);\n\n\n    constructor (address _virtualPowerPlantAddress) public {\n        virtualPowerPlantAddress = _virtualPowerPlantAddress;\n        VirtualPowerPlantContract = VirtualPowerPlant(_virtualPowerPlantAddress);\n    }\n\n\n    function checkBatteryEnergy () public returns (uint) {\n        // uint batteryIDMax = VirtualPowerPlantContract.getBatteryIDMax();\n        // uint energyPrice = getRealTimeEnergyPrice();\n        // totalEnergyPurchase = 88;\n        uint batteryID;\n        uint totalEnergyPurchase;\n\n        for (uint i = 0; i < VirtualPowerPlantContract.numBatteries(); i++) {\n            batteryID = VirtualPowerPlantContract.batteryMapping(i);\n            totalEnergyPurchase += executeBatteryTransaction(batteryID);\n        }\n\n        return totalEnergyPurchase;\n        // remainingInvestment = (VirtualPowerPlantContract.BatteryInvestmentContract()).remainingInvestment();\n    }\n\n    function executeBatteryTransaction (uint _batteryID) public returns (uint) {\n\n        uint energyAmountToTransact;\n        uint energyPrice = getRealTimeEnergyPrice();\n\n        emit LogBatteryCheck(_batteryID);\n        require((VirtualPowerPlantContract.batteryInvestmentContract()).remainingInvestment() > 0);\n        (\n            uint capacity,\n            uint currentFilled,\n            bytes32 serialNumber,\n            uint priceThreshold,\n            uint chargeRate,\n            bool isActive,\n            uint mapIndex\n        ) = VirtualPowerPlantContract.getRelevantBatteryInfo(_batteryID);\n        // uint emptyCapacity = VirtualPowerPlantContract.getBatteryCapacityRemaining(_batteryID);\n\n        // require(emptyCapacity > 0, \"Battery should have empty capacity for charge\");\n        require(isActive == true, \"Battery should be active\");\n        bool chargeBattery = energyDecisionAlgorithm(priceThreshold, energyPrice);\n        energyAmountToTransact = transactEnergy(\n            _batteryID,\n            capacity,\n            currentFilled,\n            serialNumber,\n            chargeRate,\n            energyPrice,\n            chargeBattery\n        );\n\n        // if (chargeBattery == true) {\n        //\n        //     buyEnergy(_batteryID, energyAmountToTransact, energyPrice);\n        //\n        //     // emit LogEnergyPurchased(\n        //     //     serialNumber,\n        //     //     energyAmountToPurchase,\n        //     //     energyPrice,\n        //     //     (VirtualPowerPlantContract.batteryInvestmentContract()).remainingInvestment()\n        //     // );\n        //     // return energyAmountToPurchase;\n        // } else {\n        //     // energyToSell = calculateEnergyToTransact(chargeRate, energyPrice, emptyCapacity);\n        //     sellEnergy(_batteryID, energyAmountToTransact, energyPrice);\n        //     // emit LogEnergySold(\n        //     //     serialNumber,\n        //     //     energyAmountToPurchase,\n        //     //     energyPrice,\n        //     //     (VirtualPowerPlantContract.batteryInvestmentContract()).remainingInvestment()\n        //     // );\n        // }\n        // return 0;\n\n\n    }\n\n\n    function energyDecisionAlgorithm (uint _priceThreshold, uint _energyPrice) private pure returns (bool) {\n        if (_priceThreshold > _energyPrice) {\n            return true;\n        } else{\n            return false;\n        }\n    }\n\n    function transactEnergy\n    (\n        uint _batteryID,\n        uint _capacity,\n        uint _currentFilled,\n        bytes32 _serialNumber,\n        uint _chargeRate,\n        uint _energyPrice,\n        bool _chargeBattery\n    )\n    private\n    returns (uint calculateEnergyToTransact)\n    {\n        uint purchaseIntervalHours = SafeMath.div(purchaseInterval, 3600);  // convert seconds to hours\n        uint emptyCapacity = _capacity - _currentFilled;\n\n        if (_chargeBattery == true) {\n            require(emptyCapacity > 0, \"Battery should have remaining capacity in order to charge\");\n\n            calculateEnergyToTransact = Math.min(SafeMath.mul(_chargeRate, purchaseIntervalHours), emptyCapacity);\n            uint remainingInvestment = (VirtualPowerPlantContract.batteryInvestmentContract()).remainingInvestment();\n            uint costOfEnergyPurchase = SafeMath.mul(calculateEnergyToTransact, _energyPrice);\n            if (costOfEnergyPurchase > remainingInvestment) {\n                costOfEnergyPurchase = remainingInvestment;\n                calculateEnergyToTransact = SafeMath.div(remainingInvestment, _energyPrice);\n            }\n\n            buyEnergy(_batteryID, calculateEnergyToTransact, _energyPrice);\n            emit LogEnergyPurchased(\n                _serialNumber,\n                calculateEnergyToTransact,\n                _energyPrice,\n                (VirtualPowerPlantContract.batteryInvestmentContract()).remainingInvestment()\n            );\n        } else {\n            calculateEnergyToTransact = Math.min(SafeMath.mul(_chargeRate, purchaseIntervalHours), _currentFilled);\n            sellEnergy(_batteryID, calculateEnergyToTransact, _energyPrice);\n            emit LogEnergySold(\n                _serialNumber,\n                calculateEnergyToTransact,\n                _energyPrice,\n                (VirtualPowerPlantContract.batteryInvestmentContract()).remainingInvestment()\n            );\n        }\n    }\n\n    function getRealTimeEnergyPrice () private pure returns (uint realTimePrice) {\n        realTimePrice = 5000;\n    }\n\n    function buyEnergy (uint _batteryID, uint _energyAmountToPurchase, uint _energyPrice) private returns (bool) {\n        uint newRemainingInvestment = SafeMath.sub(\n            (VirtualPowerPlantContract.batteryInvestmentContract()).remainingInvestment(),\n            SafeMath.mul(\n                _energyAmountToPurchase,\n                _energyPrice\n            )\n        );\n        require(newRemainingInvestment >= 0, \"Not enough money to make this purchase\");\n        if ((VirtualPowerPlantContract.batteryInvestmentContract()).updateRemainingInvestment(newRemainingInvestment)) {\n            // remainingInvestment = newRemainingInvestment;\n            VirtualPowerPlantContract.chargeBattery(_batteryID, -_energyAmountToPurchase);\n            return true;\n        }\n        return false;\n    }\n\n    function sellEnergy (uint _batteryID, uint _energyAmountToSell, uint _energyPrice) private returns (bool) {\n        uint newRemainingInvestment = SafeMath.add(\n            (VirtualPowerPlantContract.batteryInvestmentContract()).remainingInvestment(),\n            SafeMath.mul(\n                _energyAmountToSell,\n                _energyPrice\n            )\n        );\n        if ((VirtualPowerPlantContract.batteryInvestmentContract()).updateRemainingInvestment(newRemainingInvestment)) {\n            VirtualPowerPlantContract.chargeBattery(_batteryID, _energyAmountToSell);\n            return true;\n        }\n        return false;\n    }\n\n\n}\n",
  "sourcePath": "/Users/yan-dev/Documents/virtual-power-plant/contracts/BatteryEnergy.sol",
  "compiler": {
    "name": "solc",
    "version": "0.5.0+commit.1d4f565a.Emscripten.clang"
  },
  "schemaVersion": "3.0.0",
  "updatedAt": "2019-01-13T03:38:13.135Z",
  "devdoc": {
    "methods": {}
  },
  "userdoc": {
    "methods": {}
  }
}