{
  "contractName": "BatteryInvestment",
  "abi": [
    {
      "constant": true,
      "inputs": [],
      "name": "totalInvestment",
      "outputs": [
        {
          "name": "",
          "type": "uint256"
        }
      ],
      "payable": false,
      "stateMutability": "view",
      "type": "function"
    },
    {
      "constant": true,
      "inputs": [
        {
          "name": "",
          "type": "uint256"
        }
      ],
      "name": "investorsList",
      "outputs": [
        {
          "name": "",
          "type": "address"
        }
      ],
      "payable": false,
      "stateMutability": "view",
      "type": "function"
    },
    {
      "constant": true,
      "inputs": [],
      "name": "dividendPercentage",
      "outputs": [
        {
          "name": "",
          "type": "uint256"
        }
      ],
      "payable": false,
      "stateMutability": "view",
      "type": "function"
    },
    {
      "constant": true,
      "inputs": [
        {
          "name": "",
          "type": "address"
        },
        {
          "name": "",
          "type": "uint256"
        }
      ],
      "name": "investors",
      "outputs": [
        {
          "name": "investorAddress",
          "type": "address"
        },
        {
          "name": "timestamp",
          "type": "uint256"
        },
        {
          "name": "investmentAmount",
          "type": "uint256"
        }
      ],
      "payable": false,
      "stateMutability": "view",
      "type": "function"
    },
    {
      "constant": true,
      "inputs": [],
      "name": "remainingInvestment",
      "outputs": [
        {
          "name": "",
          "type": "uint256"
        }
      ],
      "payable": false,
      "stateMutability": "view",
      "type": "function"
    },
    {
      "constant": true,
      "inputs": [
        {
          "name": "",
          "type": "uint256"
        }
      ],
      "name": "pendingTotalWithdrawals",
      "outputs": [
        {
          "name": "",
          "type": "uint256"
        }
      ],
      "payable": false,
      "stateMutability": "view",
      "type": "function"
    },
    {
      "constant": true,
      "inputs": [],
      "name": "numInvestorsWithdraw",
      "outputs": [
        {
          "name": "",
          "type": "uint256"
        }
      ],
      "payable": false,
      "stateMutability": "view",
      "type": "function"
    },
    {
      "constant": true,
      "inputs": [
        {
          "name": "",
          "type": "address"
        }
      ],
      "name": "pendingWithdrawals",
      "outputs": [
        {
          "name": "",
          "type": "uint256"
        }
      ],
      "payable": false,
      "stateMutability": "view",
      "type": "function"
    },
    {
      "constant": true,
      "inputs": [],
      "name": "virtualPowerPlantAddress",
      "outputs": [
        {
          "name": "",
          "type": "address"
        }
      ],
      "payable": false,
      "stateMutability": "view",
      "type": "function"
    },
    {
      "inputs": [
        {
          "name": "_virtualPowerPlantAddress",
          "type": "address"
        }
      ],
      "payable": false,
      "stateMutability": "nonpayable",
      "type": "constructor"
    },
    {
      "payable": false,
      "stateMutability": "nonpayable",
      "type": "fallback"
    },
    {
      "anonymous": false,
      "inputs": [
        {
          "indexed": false,
          "name": "investorAddress",
          "type": "address"
        },
        {
          "indexed": false,
          "name": "investmentAmount",
          "type": "uint256"
        }
      ],
      "name": "LogNewInvestment",
      "type": "event"
    },
    {
      "anonymous": false,
      "inputs": [
        {
          "indexed": false,
          "name": "investorAddress",
          "type": "address"
        },
        {
          "indexed": false,
          "name": "withdrawalAmount",
          "type": "uint256"
        }
      ],
      "name": "LogWithdrawalMade",
      "type": "event"
    },
    {
      "anonymous": false,
      "inputs": [
        {
          "indexed": false,
          "name": "investorAddress",
          "type": "address"
        },
        {
          "indexed": false,
          "name": "pendingWithdrawalAmount",
          "type": "uint256"
        }
      ],
      "name": "LogPendingWithdrawalAdded",
      "type": "event"
    },
    {
      "constant": true,
      "inputs": [
        {
          "name": "investorAddress",
          "type": "address"
        },
        {
          "name": "index",
          "type": "uint256"
        }
      ],
      "name": "getInvestorInvestment",
      "outputs": [
        {
          "name": "returnInvestment",
          "type": "uint256"
        }
      ],
      "payable": false,
      "stateMutability": "view",
      "type": "function"
    },
    {
      "constant": false,
      "inputs": [
        {
          "name": "_remainingInvestment",
          "type": "uint256"
        }
      ],
      "name": "updateRemainingInvestment",
      "outputs": [
        {
          "name": "",
          "type": "bool"
        }
      ],
      "payable": false,
      "stateMutability": "nonpayable",
      "type": "function"
    },
    {
      "constant": false,
      "inputs": [],
      "name": "investMoney",
      "outputs": [],
      "payable": true,
      "stateMutability": "payable",
      "type": "function"
    },
    {
      "constant": false,
      "inputs": [],
      "name": "withdraw",
      "outputs": [],
      "payable": true,
      "stateMutability": "payable",
      "type": "function"
    },
    {
      "constant": false,
      "inputs": [],
      "name": "triggerDividend",
      "outputs": [
        {
          "name": "",
          "type": "bool"
        }
      ],
      "payable": false,
      "stateMutability": "nonpayable",
      "type": "function"
    },
    {
      "constant": false,
      "inputs": [
        {
          "name": "currentAddress",
          "type": "address"
        }
      ],
      "name": "addPendingWithdrawals",
      "outputs": [
        {
          "name": "",
          "type": "uint256"
        }
      ],
      "payable": false,
      "stateMutability": "nonpayable",
      "type": "function"
    }
  ],
  "bytecode": "0x608060405260006002556002600555600060075534801561001f57600080fd5b506040516020806114ca8339810180604052602081101561003f57600080fd5b810190808051906020019092919050505080600160006101000a81548173ffffffffffffffffffffffffffffffffffffffff021916908373ffffffffffffffffffffffffffffffffffffffff160217905550806000806101000a81548173ffffffffffffffffffffffffffffffffffffffff021916908373ffffffffffffffffffffffffffffffffffffffff1602179055506006600090806001815401808255809150509060018203906000526020600020016000909192909190915055506006600090806001815401808255809150509060018203906000526020600020016000909192909190915055505061138f8061013b6000396000f3fe6080604052600436106100db576000357c0100000000000000000000000000000000000000000000000000000000900463ffffffff16806310ea13df146101565780632ccc872714610181578063370a3918146101fc5780633ccfd60b1461022b5780636bb80d511461023557806379ebb6c414610260578063973a9a8214610309578063a342766b14610313578063af5cfae814610366578063b9c8c44914610391578063bd68f8f6146103f6578063c6778b2e14610445578063efabc746146104b4578063f3f43703146104df578063feb663d014610544575b3480156100e757600080fd5b506040517f08c379a00000000000000000000000000000000000000000000000000000000081526004018080602001828103825260118152602001807f46616c6c6261636b2066756e6374696f6e00000000000000000000000000000081525060200191505060405180910390fd5b34801561016257600080fd5b5061016b61059b565b6040518082815260200191505060405180910390f35b34801561018d57600080fd5b506101ba600480360360208110156101a457600080fd5b81019080803590602001909291905050506105a1565b604051808273ffffffffffffffffffffffffffffffffffffffff1673ffffffffffffffffffffffffffffffffffffffff16815260200191505060405180910390f35b34801561020857600080fd5b506102116105df565b604051808215151515815260200191505060405180910390f35b61023361082a565b005b34801561024157600080fd5b5061024a610bdc565b6040518082815260200191505060405180910390f35b34801561026c57600080fd5b506102b96004803603604081101561028357600080fd5b81019080803573ffffffffffffffffffffffffffffffffffffffff16906020019092919080359060200190929190505050610be2565b604051808473ffffffffffffffffffffffffffffffffffffffff1673ffffffffffffffffffffffffffffffffffffffff168152602001838152602001828152602001935050505060405180910390f35b610311610c48565b005b34801561031f57600080fd5b5061034c6004803603602081101561033657600080fd5b8101908080359060200190929190505050610eff565b604051808215151515815260200191505060405180910390f35b34801561037257600080fd5b5061037b610f11565b6040518082815260200191505060405180910390f35b34801561039d57600080fd5b506103e0600480360360208110156103b457600080fd5b81019080803573ffffffffffffffffffffffffffffffffffffffff169060200190929190505050610f17565b6040518082815260200191505060405180910390f35b34801561040257600080fd5b5061042f6004803603602081101561041957600080fd5b8101908080359060200190929190505050611294565b6040518082815260200191505060405180910390f35b34801561045157600080fd5b5061049e6004803603604081101561046857600080fd5b81019080803573ffffffffffffffffffffffffffffffffffffffff169060200190929190803590602001909291905050506112b7565b6040518082815260200191505060405180910390f35b3480156104c057600080fd5b506104c961131f565b6040518082815260200191505060405180910390f35b3480156104eb57600080fd5b5061052e6004803603602081101561050257600080fd5b81019080803573ffffffffffffffffffffffffffffffffffffffff169060200190929190505050611325565b6040518082815260200191505060405180910390f35b34801561055057600080fd5b5061055961133d565b604051808273ffffffffffffffffffffffffffffffffffffffff1673ffffffffffffffffffffffffffffffffffffffff16815260200191505060405180910390f35b60035481565b6008818154811015156105b057fe5b906000526020600020016000915054906101000a900473ffffffffffffffffffffffffffffffffffffffff1681565b6000600115156000809054906101000a900473ffffffffffffffffffffffffffffffffffffffff1673ffffffffffffffffffffffffffffffffffffffff1663b6db75a06040518163ffffffff167c010000000000000000000000000000000000000000000000000000000002815260040160206040518083038186803b15801561066857600080fd5b505afa15801561067c573d6000803e3d6000fd5b505050506040513d602081101561069257600080fd5b810190808051906020019092919050505015151415156106b157600080fd5b600060045411151561072b576040517f08c379a00000000000000000000000000000000000000000000000000000000081526004018080602001828103825260168152602001807f4e6f20617661696c61626c65206469766964656e64730000000000000000000081525060200191505060405180910390fd5b60006006600081548110151561073d57fe5b90600052602060002001541415156107bd576040517f08c379a00000000000000000000000000000000000000000000000000000000081526004018080602001828103825260208152602001807f5374696c6c206f6e2070726576696f7573206469766964656e64206379636c6581525060200191505060405180910390fd5b60006064600554600454028115156107d157fe5b0490508060046000828254039250508190555080600660008154811015156107f557fe5b9060005260206000200181905550806006600181548110151561081457fe5b9060005260206000200181905550600191505090565b6000600a60003373ffffffffffffffffffffffffffffffffffffffff1673ffffffffffffffffffffffffffffffffffffffff168152602001908152602001600020805490501115156108e4576040517f08c379a00000000000000000000000000000000000000000000000000000000081526004018080602001828103825260148152602001807f6e6f7420612076616c696420696e766573746f7200000000000000000000000081525060200191505060405180910390fd5b6000600960003373ffffffffffffffffffffffffffffffffffffffff1673ffffffffffffffffffffffffffffffffffffffff1681526020019081526020016000205411151561099b576040517f08c379a00000000000000000000000000000000000000000000000000000000081526004018080602001828103825260208152602001807f4164647265737320686173206e6f207769746864726177616c20616d6f756e7481525060200191505060405180910390fd5b600960003373ffffffffffffffffffffffffffffffffffffffff1673ffffffffffffffffffffffffffffffffffffffff16815260200190815260200160002054600660018154811015156109eb57fe5b9060005260206000200154111515610a0257600080fd5b6000600960003373ffffffffffffffffffffffffffffffffffffffff1673ffffffffffffffffffffffffffffffffffffffff1681526020019081526020016000205490508060066001815481101515610a5757fe5b90600052602060002001600082825403925050819055506000600960003373ffffffffffffffffffffffffffffffffffffffff1673ffffffffffffffffffffffffffffffffffffffff168152602001908152602001600020819055506007600081548092919060010191905055506008805490506007541415610b27576000600781905550600060066000815481101515610aee57fe5b906000526020600020018190555060066001815481101515610b0c57fe5b90600052602060002001546004600082825401925050819055505b3373ffffffffffffffffffffffffffffffffffffffff166108fc829081150290604051600060405180830381858888f19350505050158015610b6d573d6000803e3d6000fd5b507fa502fd41811afb69adfdfadf22b00a476d683cb0e8fcb04ecef9e331e2a26a6d3382604051808373ffffffffffffffffffffffffffffffffffffffff1673ffffffffffffffffffffffffffffffffffffffff1681526020018281526020019250505060405180910390a150565b60055481565b600a60205281600052604060002081815481101515610bfd57fe5b9060005260206000209060030201600091509150508060000160009054906101000a900473ffffffffffffffffffffffffffffffffffffffff16908060010154908060020154905083565b600034111515610cc0576040517f08c379a000000000000000000000000000000000000000000000000000000000815260040180806020018281038252601a8152602001807f41747461636820616e20696e766573746d656e742076616c756500000000000081525060200191505060405180910390fd5b60003490506000600a60003373ffffffffffffffffffffffffffffffffffffffff1673ffffffffffffffffffffffffffffffffffffffff168152602001908152602001600020805490501415610d775760083390806001815401808255809150509060018203906000526020600020016000909192909190916101000a81548173ffffffffffffffffffffffffffffffffffffffff021916908373ffffffffffffffffffffffffffffffffffffffff160217905550505b600a60003373ffffffffffffffffffffffffffffffffffffffff1673ffffffffffffffffffffffffffffffffffffffff1681526020019081526020016000206060604051908101604052803373ffffffffffffffffffffffffffffffffffffffff168152602001428152602001838152509080600181540180825580915050906001820390600052602060002090600302016000909192909190915060008201518160000160006101000a81548173ffffffffffffffffffffffffffffffffffffffff021916908373ffffffffffffffffffffffffffffffffffffffff160217905550602082015181600101556040820151816002015550505080600360008282540192505081905550806004600082825401925050819055507f012335398b2ec0286f8c0396759e9608b4e163f51d06d11116dd801b2b47c60f3382604051808373ffffffffffffffffffffffffffffffffffffffff1673ffffffffffffffffffffffffffffffffffffffff1681526020018281526020019250505060405180910390a150565b60008160048190555060019050919050565b60045481565b6000600115156000809054906101000a900473ffffffffffffffffffffffffffffffffffffffff1673ffffffffffffffffffffffffffffffffffffffff1663b6db75a06040518163ffffffff167c010000000000000000000000000000000000000000000000000000000002815260040160206040518083038186803b158015610fa057600080fd5b505afa158015610fb4573d6000803e3d6000fd5b505050506040513d6020811015610fca57600080fd5b81019080805190602001909291905050501515141515610fe957600080fd5b600080905060008090505b600a60008573ffffffffffffffffffffffffffffffffffffffff1673ffffffffffffffffffffffffffffffffffffffff16815260200190815260200160002080549050811015611164578373ffffffffffffffffffffffffffffffffffffffff16600a60008673ffffffffffffffffffffffffffffffffffffffff1673ffffffffffffffffffffffffffffffffffffffff168152602001908152602001600020828154811015156110a157fe5b906000526020600020906003020160000160009054906101000a900473ffffffffffffffffffffffffffffffffffffffff1673ffffffffffffffffffffffffffffffffffffffff161415156110f557600080fd5b600a60008573ffffffffffffffffffffffffffffffffffffffff1673ffffffffffffffffffffffffffffffffffffffff1681526020019081526020016000208181548110151561114157fe5b906000526020600020906003020160020154820191508080600101915050610ff4565b506000600354826006600081548110151561117b57fe5b90600052602060002001540281151561119057fe5b04905080600960008673ffffffffffffffffffffffffffffffffffffffff1673ffffffffffffffffffffffffffffffffffffffff168152602001908152602001600020600082825401925050819055507f42f69d5213292b7ba6e1e5a1f251f6edca6f86e95f14e89871ebb5e9fa5099b884600960008773ffffffffffffffffffffffffffffffffffffffff1673ffffffffffffffffffffffffffffffffffffffff16815260200190815260200160002054604051808373ffffffffffffffffffffffffffffffffffffffff1673ffffffffffffffffffffffffffffffffffffffff1681526020018281526020019250505060405180910390a18092505050919050565b6006818154811015156112a357fe5b906000526020600020016000915090505481565b6000600a60008473ffffffffffffffffffffffffffffffffffffffff1673ffffffffffffffffffffffffffffffffffffffff1681526020019081526020016000208281548110151561130557fe5b906000526020600020906003020160020154905092915050565b60075481565b60096020528060005260406000206000915090505481565b600160009054906101000a900473ffffffffffffffffffffffffffffffffffffffff168156fea165627a7a723058204b419cfbb46655bb572d2da5bd6a8fcfc4c8a41dbe0750e8a06110fc0347a8480029",
  "source": "pragma solidity >=0.5.0;\n\nimport \"./VirtualPowerPlant.sol\";\n\n/// @author Yan Man\n/// @title Manage energy investments for Virtual Power Plant\ncontract BatteryInvestment {\n\n    // Type declarations\n    VirtualPowerPlant internal VirtualPowerPlantContract;\n    struct Investment {\n        address investorAddress; // address of investor\n        uint timestamp; // timestamp of their investment\n        uint investmentAmount; // how much invested\n    }\n    // State variables\n    address public virtualPowerPlantAddress; // internal\n    // uint public temp = 5;\n    uint withdrawalCounter = 0;\n    uint public totalInvestment; // called internally and allow External\n    uint public remainingInvestment;  // \"\"\n    uint public dividendPercentage = 2; // \"\"\n    uint[] public pendingTotalWithdrawals; // internal\n    // uint public totalCurrentDividend;\n    uint public numInvestorsWithdraw = 0;\n    address[] public investorsList;\n    mapping(address => uint) public pendingWithdrawals;  //\n    mapping(address => Investment[]) public investors;  // to account for multiple investments per investor\n\n    // Events\n    event LogNewInvestment (address investorAddress, uint investmentAmount);\n    event LogWithdrawalMade (address investorAddress, uint withdrawalAmount);\n    event LogPendingWithdrawalAdded (address investorAddress, uint pendingWithdrawalAmount);\n\n    // Modifiers\n    modifier enoughInvestmentModifier { require(msg.value > 0, \"Attach an investment value\"); _; }\n\n    constructor (address _virtualPowerPlantAddress) public {\n        virtualPowerPlantAddress = _virtualPowerPlantAddress;\n        VirtualPowerPlantContract = VirtualPowerPlant(_virtualPowerPlantAddress);\n        pendingTotalWithdrawals.push(0);\n        pendingTotalWithdrawals.push(0);\n    }\n\n    function () external{\n        revert(\"Fallback function\");\n    }\n\n    // External functions\n    // ...\n\n    // External functions that are view\n    // ...\n\n    // External functions that are pure\n    // ...\n\n    // Public functions\n    // ...\n\n    // Internal functions\n    // ...\n\n    // Private functions\n    // ...\n\n    function getInvestorInvestment (address investorAddress, uint index)\n        external\n        view\n        returns (uint returnInvestment)\n    {\n        returnInvestment = investors[investorAddress][index].investmentAmount;\n    }\n\n    function updateRemainingInvestment (uint _remainingInvestment) external returns (bool) {\n        remainingInvestment = _remainingInvestment;\n        return true;\n    }\n\n    function investMoney ()\n        external\n        payable\n        enoughInvestmentModifier\n    {\n        uint investAmount = msg.value;\n        if(investors[msg.sender].length == 0){\n            investorsList.push(msg.sender);\n        }\n        investors[msg.sender].push(Investment({investorAddress: msg.sender, timestamp: now, investmentAmount: investAmount}));\n        // investors[msg.sender]ot += investAmount;\n        totalInvestment += investAmount;\n        remainingInvestment += investAmount;\n        emit LogNewInvestment(msg.sender, investAmount);\n    }\n\n    function withdraw () external payable {\n\n        require(investors[msg.sender].length > 0, \"not a valid investor\");\n        // addPendingWithdrawals(msg.sender);\n\n        require(pendingWithdrawals[msg.sender] > 0, \"Address has no withdrawal amount\");\n        require(pendingTotalWithdrawals[1] > pendingWithdrawals[msg.sender]);\n\n        uint withdrawalAmount = pendingWithdrawals[msg.sender];\n        pendingTotalWithdrawals[1] -= withdrawalAmount;\n        // Remember to zero the pending refund before\n        // sending to prevent re-entrancy attacks\n        pendingWithdrawals[msg.sender] = 0;\n        numInvestorsWithdraw++;\n        if(numInvestorsWithdraw == investorsList.length){\n            numInvestorsWithdraw = 0;\n            pendingTotalWithdrawals[0] = 0;\n            remainingInvestment += pendingTotalWithdrawals[1];\n        }\n        msg.sender.transfer(withdrawalAmount);\n        emit LogWithdrawalMade(msg.sender, withdrawalAmount);\n        // return true;\n    }\n\n    function triggerDividend () external returns (bool) {\n        require(VirtualPowerPlantContract.isAdmin() == true);\n        require(remainingInvestment > 0, \"No available dividends\");\n        require(pendingTotalWithdrawals[0] == 0, \"Still on previous dividend cycle\");\n        uint totalCurrentDividend = (remainingInvestment * dividendPercentage) / (100);\n        remainingInvestment -= totalCurrentDividend;\n        pendingTotalWithdrawals[0] = (totalCurrentDividend);\n        pendingTotalWithdrawals[1] = (totalCurrentDividend);\n        return true;\n    }\n\n    // event LogTest (uint index, uint investmentAmount);\n\n    function addPendingWithdrawals (address currentAddress) external returns (uint) {\n\n        require(VirtualPowerPlantContract.isAdmin() == true);\n\n        // for (uint outer = 0; outer < investorsList.length; outer++) {\n        // address currentAddress = investorsList[outer];\n        uint totalCurrentInvestorAmt = 0;\n        for (uint i = 0; i < investors[currentAddress].length; i++) {\n            require(investors[currentAddress][i].investorAddress == currentAddress);\n            totalCurrentInvestorAmt += investors[currentAddress][i].investmentAmount;\n            // emit LogTest(outer, totalCurrentInvestorAmt);\n        }\n        uint totalUserDividend = (pendingTotalWithdrawals[0] * totalCurrentInvestorAmt) / (totalInvestment);\n        // pendingTotalWithdrawals[1] += totalUserDividend;\n        pendingWithdrawals[currentAddress] += totalUserDividend;\n        emit LogPendingWithdrawalAdded(currentAddress, pendingWithdrawals[currentAddress]);\n        // }\n        return totalUserDividend;\n    }\n\n    // function getPendingWithdrawal (address currentAddress) external returns (uint) {\n    //\n    //     return pendingWithdrawals[currentAddress].investmentAmount\n    //\n    //     // for (uint outer = 0; outer < investorsList.length; outer++) {\n    //     // address currentAddress = investorsList[outer];\n    //     uint totalCurrentInvestorAmt = 0;\n    //     for (uint i = 0; i < investors[currentAddress].length; i++) {\n    //         require(investors[currentAddress][i].investorAddress == currentAddress);\n    //         totalCurrentInvestorAmt += investors[currentAddress][i].investmentAmount;\n    //         // emit LogTest(outer, totalCurrentInvestorAmt);\n    //     }\n    //     uint totalUserDividend = (pendingTotalWithdrawals * totalCurrentInvestorAmt) / (totalInvestment);\n    //     // pendingTotalWithdrawals -= totalUserDividend;\n    //     pendingWithdrawals[currentAddress] += totalUserDividend;\n    //     emit LogPendingWithdrawalAdded(currentAddress, pendingWithdrawals[currentAddress]);\n    //     // }\n    //     return totalUserDividend;\n    // }\n\n}\n",
  "sourcePath": "/Users/yan-dev/Documents/virtual-power-plant/contracts/BatteryInvestment.sol",
  "compiler": {
    "name": "solc",
    "version": "0.5.0+commit.1d4f565a.Emscripten.clang"
  },
  "schemaVersion": "3.0.0",
  "updatedAt": "2019-01-13T06:35:04.787Z",
  "devdoc": {
    "author": "Yan Man",
    "methods": {},
    "title": "Manage energy investments for Virtual Power Plant"
  },
  "userdoc": {
    "methods": {}
  }
}