{
  "contractName": "BatteryInvestment",
  "abi": [
    {
      "constant": true,
      "inputs": [],
      "name": "pendingTotalWithdrawals",
      "outputs": [
        {
          "name": "",
          "type": "uint256"
        }
      ],
      "payable": false,
      "stateMutability": "view",
      "type": "function"
    },
    {
      "constant": true,
      "inputs": [],
      "name": "totalInvestment",
      "outputs": [
        {
          "name": "",
          "type": "uint256"
        }
      ],
      "payable": false,
      "stateMutability": "view",
      "type": "function"
    },
    {
      "constant": true,
      "inputs": [
        {
          "name": "",
          "type": "uint256"
        }
      ],
      "name": "investorsList",
      "outputs": [
        {
          "name": "",
          "type": "address"
        }
      ],
      "payable": false,
      "stateMutability": "view",
      "type": "function"
    },
    {
      "constant": true,
      "inputs": [],
      "name": "dividendPercentage",
      "outputs": [
        {
          "name": "",
          "type": "uint256"
        }
      ],
      "payable": false,
      "stateMutability": "view",
      "type": "function"
    },
    {
      "constant": true,
      "inputs": [
        {
          "name": "",
          "type": "address"
        },
        {
          "name": "",
          "type": "uint256"
        }
      ],
      "name": "investors",
      "outputs": [
        {
          "name": "investorAddress",
          "type": "address"
        },
        {
          "name": "timestamp",
          "type": "uint256"
        },
        {
          "name": "investmentAmount",
          "type": "uint256"
        }
      ],
      "payable": false,
      "stateMutability": "view",
      "type": "function"
    },
    {
      "constant": true,
      "inputs": [],
      "name": "remainingInvestment",
      "outputs": [
        {
          "name": "",
          "type": "uint256"
        }
      ],
      "payable": false,
      "stateMutability": "view",
      "type": "function"
    },
    {
      "constant": true,
      "inputs": [
        {
          "name": "",
          "type": "address"
        }
      ],
      "name": "pendingWithdrawals",
      "outputs": [
        {
          "name": "",
          "type": "uint256"
        }
      ],
      "payable": false,
      "stateMutability": "view",
      "type": "function"
    },
    {
      "constant": true,
      "inputs": [],
      "name": "virtualPowerPlantAddress",
      "outputs": [
        {
          "name": "",
          "type": "address"
        }
      ],
      "payable": false,
      "stateMutability": "view",
      "type": "function"
    },
    {
      "inputs": [
        {
          "name": "_virtualPowerPlantAddress",
          "type": "address"
        }
      ],
      "payable": false,
      "stateMutability": "nonpayable",
      "type": "constructor"
    },
    {
      "payable": false,
      "stateMutability": "nonpayable",
      "type": "fallback"
    },
    {
      "anonymous": false,
      "inputs": [
        {
          "indexed": false,
          "name": "investorAddress",
          "type": "address"
        },
        {
          "indexed": false,
          "name": "investmentAmount",
          "type": "uint256"
        }
      ],
      "name": "LogNewInvestment",
      "type": "event"
    },
    {
      "anonymous": false,
      "inputs": [
        {
          "indexed": false,
          "name": "investorAddress",
          "type": "address"
        },
        {
          "indexed": false,
          "name": "withdrawalAmount",
          "type": "uint256"
        }
      ],
      "name": "LogWithdrawalMade",
      "type": "event"
    },
    {
      "anonymous": false,
      "inputs": [
        {
          "indexed": false,
          "name": "investorAddress",
          "type": "address"
        },
        {
          "indexed": false,
          "name": "pendingWithdrawalAmount",
          "type": "uint256"
        }
      ],
      "name": "LogPendingWithdrawalAdded",
      "type": "event"
    },
    {
      "constant": false,
      "inputs": [
        {
          "name": "_remainingInvestment",
          "type": "uint256"
        }
      ],
      "name": "updateRemainingInvestment",
      "outputs": [
        {
          "name": "",
          "type": "bool"
        }
      ],
      "payable": false,
      "stateMutability": "nonpayable",
      "type": "function"
    },
    {
      "constant": false,
      "inputs": [],
      "name": "investMoney",
      "outputs": [],
      "payable": true,
      "stateMutability": "payable",
      "type": "function"
    },
    {
      "constant": false,
      "inputs": [],
      "name": "withdraw",
      "outputs": [],
      "payable": true,
      "stateMutability": "payable",
      "type": "function"
    },
    {
      "constant": false,
      "inputs": [],
      "name": "triggerDividend",
      "outputs": [
        {
          "name": "",
          "type": "bool"
        }
      ],
      "payable": false,
      "stateMutability": "nonpayable",
      "type": "function"
    }
  ],
  "bytecode": "0x6080604052600260045534801561001557600080fd5b50604051602080610f3b8339810180604052602081101561003557600080fd5b810190808051906020019092919050505080600160006101000a81548173ffffffffffffffffffffffffffffffffffffffff021916908373ffffffffffffffffffffffffffffffffffffffff160217905550806000806101000a81548173ffffffffffffffffffffffffffffffffffffffff021916908373ffffffffffffffffffffffffffffffffffffffff16021790555050610e64806100d76000396000f3fe6080604052600436106100ba576000357c0100000000000000000000000000000000000000000000000000000000900463ffffffff168063061c67941461013557806310ea13df146101605780632ccc87271461018b578063370a3918146102065780633ccfd60b146102355780636bb80d511461023f57806379ebb6c41461026a578063973a9a8214610313578063a342766b1461031d578063af5cfae814610370578063f3f437031461039b578063feb663d014610400575b3480156100c657600080fd5b506040517f08c379a00000000000000000000000000000000000000000000000000000000081526004018080602001828103825260118152602001807f46616c6c6261636b2066756e6374696f6e00000000000000000000000000000081525060200191505060405180910390fd5b34801561014157600080fd5b5061014a610457565b6040518082815260200191505060405180910390f35b34801561016c57600080fd5b5061017561045d565b6040518082815260200191505060405180910390f35b34801561019757600080fd5b506101c4600480360360208110156101ae57600080fd5b8101908080359060200190929190505050610463565b604051808273ffffffffffffffffffffffffffffffffffffffff1673ffffffffffffffffffffffffffffffffffffffff16815260200191505060405180910390f35b34801561021257600080fd5b5061021b6104a1565b604051808215151515815260200191505060405180910390f35b61023d610634565b005b34801561024b57600080fd5b50610254610829565b6040518082815260200191505060405180910390f35b34801561027657600080fd5b506102c36004803603604081101561028d57600080fd5b81019080803573ffffffffffffffffffffffffffffffffffffffff1690602001909291908035906020019092919050505061082f565b604051808473ffffffffffffffffffffffffffffffffffffffff1673ffffffffffffffffffffffffffffffffffffffff168152602001838152602001828152602001935050505060405180910390f35b61031b610895565b005b34801561032957600080fd5b506103566004803603602081101561034057600080fd5b8101908080359060200190929190505050610b00565b604051808215151515815260200191505060405180910390f35b34801561037c57600080fd5b50610385610b12565b6040518082815260200191505060405180910390f35b3480156103a757600080fd5b506103ea600480360360208110156103be57600080fd5b81019080803573ffffffffffffffffffffffffffffffffffffffff169060200190929190505050610b18565b6040518082815260200191505060405180910390f35b34801561040c57600080fd5b50610415610b30565b604051808273ffffffffffffffffffffffffffffffffffffffff1673ffffffffffffffffffffffffffffffffffffffff16815260200191505060405180910390f35b60055481565b60025481565b60068181548110151561047257fe5b906000526020600020016000915054906101000a900473ffffffffffffffffffffffffffffffffffffffff1681565b6000600115156000809054906101000a900473ffffffffffffffffffffffffffffffffffffffff1673ffffffffffffffffffffffffffffffffffffffff1663b6db75a06040518163ffffffff167c0100000000000000000000000000000000000000000000000000000000028152600401602060405180830381600087803b15801561052c57600080fd5b505af1158015610540573d6000803e3d6000fd5b505050506040513d602081101561055657600080fd5b8101908080519060200190929190505050151514151561057557600080fd5b60006003541115156105ef576040517f08c379a00000000000000000000000000000000000000000000000000000000081526004018080602001828103825260168152602001807f4e6f20617661696c61626c65206469766964656e64730000000000000000000081525060200191505060405180910390fd5b600060646004546003540281151561060357fe5b049050806003600082825403925050819055508060056000828254019250508190555061062e610b56565b91505090565b6000600760003373ffffffffffffffffffffffffffffffffffffffff1673ffffffffffffffffffffffffffffffffffffffff168152602001908152602001600020541115156106eb576040517f08c379a00000000000000000000000000000000000000000000000000000000081526004018080602001828103825260208152602001807f4164647265737320686173206e6f207769746864726177616c20616d6f756e7481525060200191505060405180910390fd5b6000600760003373ffffffffffffffffffffffffffffffffffffffff1673ffffffffffffffffffffffffffffffffffffffff1681526020019081526020016000205490506000600760003373ffffffffffffffffffffffffffffffffffffffff1673ffffffffffffffffffffffffffffffffffffffff168152602001908152602001600020819055503373ffffffffffffffffffffffffffffffffffffffff166108fc829081150290604051600060405180830381858888f193505050501580156107ba573d6000803e3d6000fd5b507fa502fd41811afb69adfdfadf22b00a476d683cb0e8fcb04ecef9e331e2a26a6d3382604051808373ffffffffffffffffffffffffffffffffffffffff1673ffffffffffffffffffffffffffffffffffffffff1681526020018281526020019250505060405180910390a150565b60045481565b60086020528160005260406000208181548110151561084a57fe5b9060005260206000209060030201600091509150508060000160009054906101000a900473ffffffffffffffffffffffffffffffffffffffff16908060010154908060020154905083565b60003411151561090d576040517f08c379a000000000000000000000000000000000000000000000000000000000815260040180806020018281038252601a8152602001807f41747461636820616e20696e766573746d656e742076616c756500000000000081525060200191505060405180910390fd5b6000349050600860003373ffffffffffffffffffffffffffffffffffffffff1673ffffffffffffffffffffffffffffffffffffffff1681526020019081526020016000206060604051908101604052803373ffffffffffffffffffffffffffffffffffffffff168152602001428152602001838152509080600181540180825580915050906001820390600052602060002090600302016000909192909190915060008201518160000160006101000a81548173ffffffffffffffffffffffffffffffffffffffff021916908373ffffffffffffffffffffffffffffffffffffffff160217905550602082015181600101556040820151816002015550505060063390806001815401808255809150509060018203906000526020600020016000909192909190916101000a81548173ffffffffffffffffffffffffffffffffffffffff021916908373ffffffffffffffffffffffffffffffffffffffff1602179055505080600260008282540192505081905550806003600082825401925050819055507f012335398b2ec0286f8c0396759e9608b4e163f51d06d11116dd801b2b47c60f3382604051808373ffffffffffffffffffffffffffffffffffffffff1673ffffffffffffffffffffffffffffffffffffffff1681526020018281526020019250505060405180910390a150565b60008160038190555060019050919050565b60035481565b60076020528060005260406000206000915090505481565b600160009054906101000a900473ffffffffffffffffffffffffffffffffffffffff1681565b600080600090505b600680549050811015610e10576000600682815481101515610b7c57fe5b9060005260206000200160009054906101000a900473ffffffffffffffffffffffffffffffffffffffff169050600080600090505b600860008473ffffffffffffffffffffffffffffffffffffffff1673ffffffffffffffffffffffffffffffffffffffff16815260200190815260200160002080549050811015610d21578273ffffffffffffffffffffffffffffffffffffffff16600860008573ffffffffffffffffffffffffffffffffffffffff1673ffffffffffffffffffffffffffffffffffffffff16815260200190815260200160002082815481101515610c5e57fe5b906000526020600020906003020160000160009054906101000a900473ffffffffffffffffffffffffffffffffffffffff1673ffffffffffffffffffffffffffffffffffffffff16141515610cb257600080fd5b600860008473ffffffffffffffffffffffffffffffffffffffff1673ffffffffffffffffffffffffffffffffffffffff16815260200190815260200160002081815481101515610cfe57fe5b906000526020600020906003020160020154820191508080600101915050610bb1565b5060006002548260055402811515610d3557fe5b0490508060056000828254039250508190555080600760008573ffffffffffffffffffffffffffffffffffffffff1673ffffffffffffffffffffffffffffffffffffffff168152602001908152602001600020600082825401925050819055507f42f69d5213292b7ba6e1e5a1f251f6edca6f86e95f14e89871ebb5e9fa5099b88382604051808373ffffffffffffffffffffffffffffffffffffffff1673ffffffffffffffffffffffffffffffffffffffff1681526020018281526020019250505060405180910390a15050508080600101915050610b5e565b506000600554905060006005819055508060036000828254019250508190555060019150509056fea165627a7a723058202557aa3d1f5c7901cda0057de3acad93ee9895e9b465101670242964f73bf0fe0029",
  "source": "pragma solidity >=0.5.0;\n\nimport \"./VirtualPowerPlant.sol\";\n\n/// @author Yan Man\n/// @title Manage energy investments for Virtual Power Plant\ncontract BatteryInvestment {\n\n    // Type declarations\n    VirtualPowerPlant internal VirtualPowerPlantContract;\n    struct Investment {\n        address investorAddress; // address of investor\n        uint timestamp; // timestamp of their investment\n        uint investmentAmount; // how much invested\n    }\n    // State variables\n    address public virtualPowerPlantAddress; // internal\n    // uint public temp = 5;\n    uint public totalInvestment; // called internally and allow External\n    uint public remainingInvestment;  // \"\"\n    uint public dividendPercentage = 2; // \"\"\n    uint public pendingTotalWithdrawals; // internal\n    address[] public investorsList;\n    mapping(address => uint) public pendingWithdrawals;  //\n    mapping(address => Investment[]) public investors;  // to account for multiple investments per investor\n\n    // Events\n    event LogNewInvestment (address investorAddress, uint investmentAmount);\n    event LogWithdrawalMade (address investorAddress, uint withdrawalAmount);\n    event LogPendingWithdrawalAdded (address investorAddress, uint pendingWithdrawalAmount);\n\n    // Modifiers\n    modifier enoughInvestmentModifier { require(msg.value > 0, \"Attach an investment value\"); _; }\n\n    constructor (address _virtualPowerPlantAddress) public {\n        virtualPowerPlantAddress = _virtualPowerPlantAddress;\n        VirtualPowerPlantContract = VirtualPowerPlant(_virtualPowerPlantAddress);\n    }\n\n    function () external{\n        revert(\"Fallback function\");\n    }\n\n    // External functions\n    // ...\n\n    // External functions that are view\n    // ...\n\n    // External functions that are pure\n    // ...\n\n    // Public functions\n    // ...\n\n    // Internal functions\n    // ...\n\n    // Private functions\n    // ...\n\n    function updateRemainingInvestment (uint _remainingInvestment) external returns (bool) {\n        remainingInvestment = _remainingInvestment;\n        return true;\n    }\n\n    function investMoney ()\n        external\n        payable\n        enoughInvestmentModifier\n    {\n        uint investAmount = msg.value;\n        investors[msg.sender].push(Investment({investorAddress: msg.sender, timestamp: now, investmentAmount: investAmount}));\n        investorsList.push(msg.sender);\n        // investors[msg.sender]ot += investAmount;\n        totalInvestment += investAmount;\n        remainingInvestment += investAmount;\n        emit LogNewInvestment(msg.sender, investAmount);\n    }\n\n    function withdraw () external payable {\n        require(pendingWithdrawals[msg.sender] > 0, \"Address has no withdrawal amount\");\n        uint withdrawalAmount = pendingWithdrawals[msg.sender];\n        // Remember to zero the pending refund before\n        // sending to prevent re-entrancy attacks\n        pendingWithdrawals[msg.sender] = 0;\n        msg.sender.transfer(withdrawalAmount);\n        emit LogWithdrawalMade(msg.sender, withdrawalAmount);\n    }\n\n    function triggerDividend () external returns (bool) {\n        require(VirtualPowerPlantContract.isAdmin() == true);\n        require(remainingInvestment > 0, \"No available dividends\");\n        uint totalDividend = (remainingInvestment * dividendPercentage) / (100);\n        remainingInvestment -= totalDividend;\n        pendingTotalWithdrawals += totalDividend;\n        return addPendingWithdrawals();\n    }\n\n    function addPendingWithdrawals () internal returns (bool) {\n\n        for (uint outer = 0; outer < investorsList.length; outer++) {\n            address currentAddress = investorsList[outer];\n            uint totalCurrentInvestorAmt;\n            for (uint i = 0; i < investors[currentAddress].length; i++) {\n                require(investors[currentAddress][i].investorAddress == currentAddress);\n                totalCurrentInvestorAmt += investors[currentAddress][i].investmentAmount;\n            }\n            uint totalUserDividend = (pendingTotalWithdrawals * totalCurrentInvestorAmt) / (totalInvestment);\n            pendingTotalWithdrawals -= totalUserDividend;\n            pendingWithdrawals[currentAddress] += totalUserDividend;\n            emit LogPendingWithdrawalAdded(currentAddress, totalUserDividend);\n        }\n        uint tempPendingTotalWithdrawals = pendingTotalWithdrawals;\n        pendingTotalWithdrawals = 0;\n        remainingInvestment += tempPendingTotalWithdrawals;\n        return true;\n    }\n\n}\n",
  "sourcePath": "/Users/yan-dev/Documents/virtual-power-plant/contracts/BatteryInvestment.sol",
  "compiler": {
    "name": "solc",
    "version": "0.5.0+commit.1d4f565a.Emscripten.clang"
  },
  "schemaVersion": "3.0.0",
  "updatedAt": "2019-01-08T22:08:39.952Z",
  "devdoc": {
    "author": "Yan Man",
    "methods": {},
    "title": "Manage energy investments for Virtual Power Plant"
  },
  "userdoc": {
    "methods": {}
  }
}