{
  "contractName": "VirtualPowerPlant",
  "abi": [
    {
      "constant": true,
      "inputs": [],
      "name": "numAdmins",
      "outputs": [
        {
          "name": "",
          "type": "uint256"
        }
      ],
      "payable": false,
      "stateMutability": "view",
      "type": "function",
      "signature": "0x0efd4989"
    },
    {
      "constant": true,
      "inputs": [],
      "name": "batteryEnergyContract",
      "outputs": [
        {
          "name": "",
          "type": "address"
        }
      ],
      "payable": false,
      "stateMutability": "view",
      "type": "function",
      "signature": "0x13c1d396"
    },
    {
      "constant": true,
      "inputs": [
        {
          "name": "",
          "type": "address"
        }
      ],
      "name": "admins",
      "outputs": [
        {
          "name": "",
          "type": "bool"
        }
      ],
      "payable": false,
      "stateMutability": "view",
      "type": "function",
      "signature": "0x429b62e5"
    },
    {
      "constant": true,
      "inputs": [
        {
          "name": "",
          "type": "uint256"
        }
      ],
      "name": "batteries",
      "outputs": [
        {
          "name": "capacity",
          "type": "uint256"
        },
        {
          "name": "currentFilled",
          "type": "uint256"
        },
        {
          "name": "dateAdded",
          "type": "uint256"
        },
        {
          "name": "cost",
          "type": "uint256"
        },
        {
          "name": "serialNumber",
          "type": "bytes32"
        },
        {
          "name": "priceThreshold",
          "type": "uint256"
        },
        {
          "name": "chargeRate",
          "type": "uint256"
        },
        {
          "name": "isActive",
          "type": "bool"
        },
        {
          "name": "mapIndex",
          "type": "uint256"
        }
      ],
      "payable": false,
      "stateMutability": "view",
      "type": "function",
      "signature": "0x5f392c90"
    },
    {
      "constant": true,
      "inputs": [
        {
          "name": "",
          "type": "uint256"
        }
      ],
      "name": "batteryMapping",
      "outputs": [
        {
          "name": "",
          "type": "uint256"
        }
      ],
      "payable": false,
      "stateMutability": "view",
      "type": "function",
      "signature": "0x64e98072"
    },
    {
      "constant": true,
      "inputs": [],
      "name": "batteryInvestmentContract",
      "outputs": [
        {
          "name": "",
          "type": "address"
        }
      ],
      "payable": false,
      "stateMutability": "view",
      "type": "function",
      "signature": "0x69777fce"
    },
    {
      "constant": true,
      "inputs": [
        {
          "name": "",
          "type": "uint256"
        }
      ],
      "name": "decommissionedBatteries",
      "outputs": [
        {
          "name": "capacity",
          "type": "uint256"
        },
        {
          "name": "currentFilled",
          "type": "uint256"
        },
        {
          "name": "dateAdded",
          "type": "uint256"
        },
        {
          "name": "cost",
          "type": "uint256"
        },
        {
          "name": "serialNumber",
          "type": "bytes32"
        },
        {
          "name": "priceThreshold",
          "type": "uint256"
        },
        {
          "name": "chargeRate",
          "type": "uint256"
        },
        {
          "name": "isActive",
          "type": "bool"
        },
        {
          "name": "mapIndex",
          "type": "uint256"
        }
      ],
      "payable": false,
      "stateMutability": "view",
      "type": "function",
      "signature": "0x70304e33"
    },
    {
      "constant": false,
      "inputs": [],
      "name": "renounceOwnership",
      "outputs": [],
      "payable": false,
      "stateMutability": "nonpayable",
      "type": "function",
      "signature": "0x715018a6"
    },
    {
      "constant": true,
      "inputs": [],
      "name": "numBatteries",
      "outputs": [
        {
          "name": "",
          "type": "uint256"
        }
      ],
      "payable": false,
      "stateMutability": "view",
      "type": "function",
      "signature": "0x7ab9be18"
    },
    {
      "constant": true,
      "inputs": [],
      "name": "owner",
      "outputs": [
        {
          "name": "",
          "type": "address"
        }
      ],
      "payable": false,
      "stateMutability": "view",
      "type": "function",
      "signature": "0x8da5cb5b"
    },
    {
      "constant": true,
      "inputs": [],
      "name": "isOwner",
      "outputs": [
        {
          "name": "",
          "type": "bool"
        }
      ],
      "payable": false,
      "stateMutability": "view",
      "type": "function",
      "signature": "0x8f32d59b"
    },
    {
      "constant": true,
      "inputs": [],
      "name": "batteryEnergyAddress",
      "outputs": [
        {
          "name": "",
          "type": "address"
        }
      ],
      "payable": false,
      "stateMutability": "view",
      "type": "function",
      "signature": "0xc7177dad"
    },
    {
      "constant": true,
      "inputs": [],
      "name": "batteryInvestmentAddress",
      "outputs": [
        {
          "name": "",
          "type": "address"
        }
      ],
      "payable": false,
      "stateMutability": "view",
      "type": "function",
      "signature": "0xdc4d0fd8"
    },
    {
      "constant": false,
      "inputs": [
        {
          "name": "newOwner",
          "type": "address"
        }
      ],
      "name": "transferOwnership",
      "outputs": [],
      "payable": false,
      "stateMutability": "nonpayable",
      "type": "function",
      "signature": "0xf2fde38b"
    },
    {
      "constant": true,
      "inputs": [],
      "name": "virtualPowerPlantAddress",
      "outputs": [
        {
          "name": "",
          "type": "address"
        }
      ],
      "payable": false,
      "stateMutability": "view",
      "type": "function",
      "signature": "0xfeb663d0"
    },
    {
      "inputs": [],
      "payable": false,
      "stateMutability": "nonpayable",
      "type": "constructor",
      "signature": "constructor"
    },
    {
      "payable": false,
      "stateMutability": "nonpayable",
      "type": "fallback"
    },
    {
      "anonymous": false,
      "inputs": [
        {
          "indexed": false,
          "name": "investorAddress",
          "type": "address"
        },
        {
          "indexed": false,
          "name": "investmentAmount",
          "type": "uint256"
        }
      ],
      "name": "LogNewInvestment",
      "type": "event",
      "signature": "0x012335398b2ec0286f8c0396759e9608b4e163f51d06d11116dd801b2b47c60f"
    },
    {
      "anonymous": false,
      "inputs": [
        {
          "indexed": false,
          "name": "investorAddress",
          "type": "address"
        },
        {
          "indexed": false,
          "name": "withdrawalAmount",
          "type": "uint256"
        }
      ],
      "name": "LogWithdrawalMade",
      "type": "event",
      "signature": "0xa502fd41811afb69adfdfadf22b00a476d683cb0e8fcb04ecef9e331e2a26a6d"
    },
    {
      "anonymous": false,
      "inputs": [
        {
          "indexed": false,
          "name": "adminAddress",
          "type": "address"
        },
        {
          "indexed": false,
          "name": "status",
          "type": "bool"
        }
      ],
      "name": "LogChangeAdmin",
      "type": "event",
      "signature": "0x845cf4219f3b3b9a965f9be9881c40cdd5a1d3d4cc0732a19c72d42e9464f51e"
    },
    {
      "anonymous": false,
      "inputs": [
        {
          "indexed": false,
          "name": "serialNumber",
          "type": "bytes32"
        },
        {
          "indexed": false,
          "name": "newStatus",
          "type": "bool"
        }
      ],
      "name": "LogBatteryActive",
      "type": "event",
      "signature": "0x30d85d5a522569ce310aa6c7c0440c91d487f54517033dbdf0842b674f82de07"
    },
    {
      "anonymous": false,
      "inputs": [
        {
          "indexed": false,
          "name": "newThreshold",
          "type": "uint256"
        }
      ],
      "name": "LogBatteryThresholdChanged",
      "type": "event",
      "signature": "0xa6551cf039439f591ebe17eb5c0e3a1605a7be4c97483192e842e778851f0114"
    },
    {
      "anonymous": false,
      "inputs": [
        {
          "indexed": true,
          "name": "previousOwner",
          "type": "address"
        },
        {
          "indexed": true,
          "name": "newOwner",
          "type": "address"
        }
      ],
      "name": "OwnershipTransferred",
      "type": "event",
      "signature": "0x8be0079c531659141344cd1fd0a4f28419497f9722a3daafe3b4186f6b6457e0"
    },
    {
      "constant": true,
      "inputs": [
        {
          "name": "adminAddress",
          "type": "address"
        }
      ],
      "name": "isAdmin",
      "outputs": [
        {
          "name": "",
          "type": "bool"
        }
      ],
      "payable": false,
      "stateMutability": "view",
      "type": "function",
      "signature": "0x24d7806c"
    },
    {
      "constant": false,
      "inputs": [
        {
          "name": "_capacity",
          "type": "uint256"
        },
        {
          "name": "_currentFilled",
          "type": "uint256"
        },
        {
          "name": "_cost",
          "type": "uint256"
        },
        {
          "name": "_serialNumber",
          "type": "bytes32"
        },
        {
          "name": "_priceThreshold",
          "type": "uint256"
        },
        {
          "name": "_chargeRate",
          "type": "uint256"
        }
      ],
      "name": "addBattery",
      "outputs": [
        {
          "name": "batteryID",
          "type": "uint256"
        }
      ],
      "payable": false,
      "stateMutability": "nonpayable",
      "type": "function",
      "signature": "0x839f81bd"
    },
    {
      "constant": false,
      "inputs": [
        {
          "name": "_batteryID",
          "type": "uint256"
        },
        {
          "name": "_chargeAmount",
          "type": "uint256"
        }
      ],
      "name": "chargeBattery",
      "outputs": [
        {
          "name": "",
          "type": "uint256"
        }
      ],
      "payable": false,
      "stateMutability": "nonpayable",
      "type": "function",
      "signature": "0x460fafbc"
    },
    {
      "constant": false,
      "inputs": [
        {
          "name": "_batteryID",
          "type": "uint256"
        },
        {
          "name": "_newThreshold",
          "type": "uint256"
        }
      ],
      "name": "changeBatteryThreshold",
      "outputs": [],
      "payable": false,
      "stateMutability": "nonpayable",
      "type": "function",
      "signature": "0xc312fe1a"
    },
    {
      "constant": false,
      "inputs": [
        {
          "name": "_batteryID",
          "type": "uint256"
        }
      ],
      "name": "decommissionBattery",
      "outputs": [
        {
          "name": "",
          "type": "uint256"
        }
      ],
      "payable": false,
      "stateMutability": "nonpayable",
      "type": "function",
      "signature": "0xa62e4a43"
    },
    {
      "constant": true,
      "inputs": [
        {
          "name": "_batteryID",
          "type": "uint256"
        }
      ],
      "name": "getRelevantBatteryInfo",
      "outputs": [
        {
          "name": "",
          "type": "uint256"
        },
        {
          "name": "",
          "type": "uint256"
        },
        {
          "name": "",
          "type": "bytes32"
        },
        {
          "name": "",
          "type": "uint256"
        },
        {
          "name": "",
          "type": "uint256"
        },
        {
          "name": "",
          "type": "bool"
        },
        {
          "name": "",
          "type": "uint256"
        }
      ],
      "payable": false,
      "stateMutability": "view",
      "type": "function",
      "signature": "0x3dcd20f4"
    },
    {
      "constant": true,
      "inputs": [
        {
          "name": "_batteryID",
          "type": "uint256"
        }
      ],
      "name": "getBatteryCapacityRemaining",
      "outputs": [
        {
          "name": "remaining",
          "type": "uint256"
        }
      ],
      "payable": false,
      "stateMutability": "view",
      "type": "function",
      "signature": "0xfc7c6a12"
    },
    {
      "constant": true,
      "inputs": [],
      "name": "getBatteryMapping",
      "outputs": [
        {
          "name": "",
          "type": "uint256[]"
        }
      ],
      "payable": false,
      "stateMutability": "view",
      "type": "function",
      "signature": "0xa2785352"
    },
    {
      "constant": true,
      "inputs": [
        {
          "name": "_batteryID",
          "type": "uint256"
        }
      ],
      "name": "getBatteryChargeRate",
      "outputs": [
        {
          "name": "",
          "type": "uint256"
        }
      ],
      "payable": false,
      "stateMutability": "view",
      "type": "function",
      "signature": "0xe58260ae"
    },
    {
      "constant": true,
      "inputs": [
        {
          "name": "_batteryID",
          "type": "uint256"
        }
      ],
      "name": "getBatteryMapIndex",
      "outputs": [
        {
          "name": "",
          "type": "uint256"
        }
      ],
      "payable": false,
      "stateMutability": "view",
      "type": "function",
      "signature": "0x7f4912c5"
    },
    {
      "constant": false,
      "inputs": [],
      "name": "toggleContractActive",
      "outputs": [],
      "payable": false,
      "stateMutability": "nonpayable",
      "type": "function",
      "signature": "0x1385d24c"
    },
    {
      "constant": false,
      "inputs": [
        {
          "name": "_newAdminAddress",
          "type": "address"
        },
        {
          "name": "_adminStatus",
          "type": "bool"
        }
      ],
      "name": "setAdmin",
      "outputs": [],
      "payable": false,
      "stateMutability": "nonpayable",
      "type": "function",
      "signature": "0x4b0bddd2"
    }
  ],
  "bytecode": "0x60806040526000600460146101000a81548160ff021916908315150217905550600060085560006009553480156200003657600080fd5b50336000806101000a81548173ffffffffffffffffffffffffffffffffffffffff021916908373ffffffffffffffffffffffffffffffffffffffff1602179055506000809054906101000a900473ffffffffffffffffffffffffffffffffffffffff1673ffffffffffffffffffffffffffffffffffffffff16600073ffffffffffffffffffffffffffffffffffffffff167f8be0079c531659141344cd1fd0a4f28419497f9722a3daafe3b4186f6b6457e060405160405180910390a36200010f336001620003ad640100000000026401000000009004565b60006001905030600560006101000a81548173ffffffffffffffffffffffffffffffffffffffff021916908373ffffffffffffffffffffffffffffffffffffffff160217905550600560009054906101000a900473ffffffffffffffffffffffffffffffffffffffff1681620001846200052d565b808373ffffffffffffffffffffffffffffffffffffffff1673ffffffffffffffffffffffffffffffffffffffff16815260200182815260200192505050604051809103906000f080158015620001de573d6000803e3d6000fd5b50600360006101000a81548173ffffffffffffffffffffffffffffffffffffffff021916908373ffffffffffffffffffffffffffffffffffffffff160217905550600360009054906101000a900473ffffffffffffffffffffffffffffffffffffffff16600660006101000a81548173ffffffffffffffffffffffffffffffffffffffff021916908373ffffffffffffffffffffffffffffffffffffffff160217905550600560009054906101000a900473ffffffffffffffffffffffffffffffffffffffff16620002af6200053e565b808273ffffffffffffffffffffffffffffffffffffffff1673ffffffffffffffffffffffffffffffffffffffff168152602001915050604051809103906000f08015801562000302573d6000803e3d6000fd5b50600460006101000a81548173ffffffffffffffffffffffffffffffffffffffff021916908373ffffffffffffffffffffffffffffffffffffffff160217905550600460009054906101000a900473ffffffffffffffffffffffffffffffffffffffff16600760006101000a81548173ffffffffffffffffffffffffffffffffffffffff021916908373ffffffffffffffffffffffffffffffffffffffff160217905550506200054f565b620003c6620004d6640100000000026401000000009004565b1515620003d257600080fd5b80600b60008473ffffffffffffffffffffffffffffffffffffffff1673ffffffffffffffffffffffffffffffffffffffff16815260200190815260200160002060006101000a81548160ff0219169083151502179055506001151581151514156200044f5760096000815480929190600101919050555062000463565b600960008154809291906001900391905055505b7f845cf4219f3b3b9a965f9be9881c40cdd5a1d3d4cc0732a19c72d42e9464f51e8282604051808373ffffffffffffffffffffffffffffffffffffffff1673ffffffffffffffffffffffffffffffffffffffff168152602001821515151581526020019250505060405180910390a15050565b60008060009054906101000a900473ffffffffffffffffffffffffffffffffffffffff1673ffffffffffffffffffffffffffffffffffffffff163373ffffffffffffffffffffffffffffffffffffffff1614905090565b6040516115fe8062002a7883390190565b6040516117b7806200407683390190565b612519806200055f6000396000f3fe60806040526004361061015f576000357c0100000000000000000000000000000000000000000000000000000000900463ffffffff1680630efd4989146101da5780631385d24c1461020557806313c1d3961461021c57806324d7806c146102735780633dcd20f4146102dc578063429b62e514610359578063460fafbc146103c25780634b0bddd21461041b5780635f392c901461047857806364e980721461050357806369777fce1461055257806370304e33146105a9578063715018a6146106345780637ab9be181461064b5780637f4912c514610676578063839f81bd146106c55780638da5cb5b146107465780638f32d59b1461079d578063a2785352146107cc578063a62e4a4314610838578063c312fe1a14610887578063c7177dad146108cc578063dc4d0fd814610923578063e58260ae1461097a578063f2fde38b146109c9578063fc7c6a1214610a1a578063feb663d014610a69575b34801561016b57600080fd5b506040517f08c379a00000000000000000000000000000000000000000000000000000000081526004018080602001828103825260088152602001807f46616c6c6261636b00000000000000000000000000000000000000000000000081525060200191505060405180910390fd5b3480156101e657600080fd5b506101ef610ac0565b6040518082815260200191505060405180910390f35b34801561021157600080fd5b5061021a610ac6565b005b34801561022857600080fd5b50610231610c6c565b604051808273ffffffffffffffffffffffffffffffffffffffff1673ffffffffffffffffffffffffffffffffffffffff16815260200191505060405180910390f35b34801561027f57600080fd5b506102c26004803603602081101561029657600080fd5b81019080803573ffffffffffffffffffffffffffffffffffffffff169060200190929190505050610c92565b604051808215151515815260200191505060405180910390f35b3480156102e857600080fd5b50610315600480360360208110156102ff57600080fd5b8101908080359060200190929190505050610e17565b604051808881526020018781526020018681526020018581526020018481526020018315151515815260200182815260200197505050505050505060405180910390f35b34801561036557600080fd5b506103a86004803603602081101561037c57600080fd5b81019080803573ffffffffffffffffffffffffffffffffffffffff169060200190929190505050610f2f565b604051808215151515815260200191505060405180910390f35b3480156103ce57600080fd5b50610405600480360360408110156103e557600080fd5b810190808035906020019092919080359060200190929190505050610f4f565b6040518082815260200191505060405180910390f35b34801561042757600080fd5b506104766004803603604081101561043e57600080fd5b81019080803573ffffffffffffffffffffffffffffffffffffffff16906020019092919080351515906020019092919050505061118c565b005b34801561048457600080fd5b506104b16004803603602081101561049b57600080fd5b81019080803590602001909291905050506112a1565b604051808a815260200189815260200188815260200187815260200186815260200185815260200184815260200183151515158152602001828152602001995050505050505050505060405180910390f35b34801561050f57600080fd5b5061053c6004803603602081101561052657600080fd5b810190808035906020019092919050505061130b565b6040518082815260200191505060405180910390f35b34801561055e57600080fd5b5061056761132e565b604051808273ffffffffffffffffffffffffffffffffffffffff1673ffffffffffffffffffffffffffffffffffffffff16815260200191505060405180910390f35b3480156105b557600080fd5b506105e2600480360360208110156105cc57600080fd5b8101908080359060200190929190505050611354565b604051808a815260200189815260200188815260200187815260200186815260200185815260200184815260200183151515158152602001828152602001995050505050505050505060405180910390f35b34801561064057600080fd5b506106496113be565b005b34801561065757600080fd5b50610660611490565b6040518082815260200191505060405180910390f35b34801561068257600080fd5b506106af6004803603602081101561069957600080fd5b8101908080359060200190929190505050611496565b6040518082815260200191505060405180910390f35b3480156106d157600080fd5b50610730600480360360c08110156106e857600080fd5b810190808035906020019092919080359060200190929190803590602001909291908035906020019092919080359060200190929190803590602001909291905050506114c0565b6040518082815260200191505060405180910390f35b34801561075257600080fd5b5061075b611c00565b604051808273ffffffffffffffffffffffffffffffffffffffff1673ffffffffffffffffffffffffffffffffffffffff16815260200191505060405180910390f35b3480156107a957600080fd5b506107b2611c29565b604051808215151515815260200191505060405180910390f35b3480156107d857600080fd5b506107e1611c80565b6040518080602001828103825283818151815260200191508051906020019060200280838360005b83811015610824578082015181840152602081019050610809565b505050509050019250505060405180910390f35b34801561084457600080fd5b506108716004803603602081101561085b57600080fd5b8101908080359060200190929190505050611cd8565b6040518082815260200191505060405180910390f35b34801561089357600080fd5b506108ca600480360360408110156108aa57600080fd5b81019080803590602001909291908035906020019092919050505061209d565b005b3480156108d857600080fd5b506108e1612287565b604051808273ffffffffffffffffffffffffffffffffffffffff1673ffffffffffffffffffffffffffffffffffffffff16815260200191505060405180910390f35b34801561092f57600080fd5b506109386122ad565b604051808273ffffffffffffffffffffffffffffffffffffffff1673ffffffffffffffffffffffffffffffffffffffff16815260200191505060405180910390f35b34801561098657600080fd5b506109b36004803603602081101561099d57600080fd5b81019080803590602001909291905050506122d3565b6040518082815260200191505060405180910390f35b3480156109d557600080fd5b50610a18600480360360208110156109ec57600080fd5b81019080803573ffffffffffffffffffffffffffffffffffffffff1690602001909291905050506122fd565b005b348015610a2657600080fd5b50610a5360048036036020811015610a3d57600080fd5b810190808035906020019092919050505061231c565b6040518082815260200191505060405180910390f35b348015610a7557600080fd5b50610a7e61237c565b604051808273ffffffffffffffffffffffffffffffffffffffff1673ffffffffffffffffffffffffffffffffffffffff16815260200191505060405180910390f35b60095481565b3360011515600b60008373ffffffffffffffffffffffffffffffffffffffff1673ffffffffffffffffffffffffffffffffffffffff16815260200190815260200160002060009054906101000a900460ff1615151480610b735750600660009054906101000a900473ffffffffffffffffffffffffffffffffffffffff1673ffffffffffffffffffffffffffffffffffffffff163373ffffffffffffffffffffffffffffffffffffffff16145b80610bcb5750600760009054906101000a900473ffffffffffffffffffffffffffffffffffffffff1673ffffffffffffffffffffffffffffffffffffffff163373ffffffffffffffffffffffffffffffffffffffff16145b1515610c3f576040517f08c379a00000000000000000000000000000000000000000000000000000000081526004018080602001828103825260118152602001807f6e6f7420612076616c69642041646d696e00000000000000000000000000000081525060200191505060405180910390fd5b600460149054906101000a900460ff1615600460146101000a81548160ff02191690831515021790555050565b600460009054906101000a900473ffffffffffffffffffffffffffffffffffffffff1681565b60008160011515600b60008373ffffffffffffffffffffffffffffffffffffffff1673ffffffffffffffffffffffffffffffffffffffff16815260200190815260200160002060009054906101000a900460ff1615151480610d415750600660009054906101000a900473ffffffffffffffffffffffffffffffffffffffff1673ffffffffffffffffffffffffffffffffffffffff163373ffffffffffffffffffffffffffffffffffffffff16145b80610d995750600760009054906101000a900473ffffffffffffffffffffffffffffffffffffffff1673ffffffffffffffffffffffffffffffffffffffff163373ffffffffffffffffffffffffffffffffffffffff16145b1515610e0d576040517f08c379a00000000000000000000000000000000000000000000000000000000081526004018080602001828103825260118152602001807f6e6f7420612076616c69642041646d696e00000000000000000000000000000081525060200191505060405180910390fd5b6001915050919050565b6000806000806000806000600188815481101515610e3157fe5b906000526020600020906009020160000154600189815481101515610e5257fe5b90600052602060002090600902016001015460018a815481101515610e7357fe5b90600052602060002090600902016004015460018b815481101515610e9457fe5b90600052602060002090600902016005015460018c815481101515610eb557fe5b90600052602060002090600902016006015460018d815481101515610ed657fe5b906000526020600020906009020160070160009054906101000a900460ff1660018e815481101515610f0457fe5b9060005260206000209060090201600801549650965096509650965096509650919395979092949650565b600b6020528060005260406000206000915054906101000a900460ff1681565b60003360011515600b60008373ffffffffffffffffffffffffffffffffffffffff1673ffffffffffffffffffffffffffffffffffffffff16815260200190815260200160002060009054906101000a900460ff1615151480610ffe5750600660009054906101000a900473ffffffffffffffffffffffffffffffffffffffff1673ffffffffffffffffffffffffffffffffffffffff163373ffffffffffffffffffffffffffffffffffffffff16145b806110565750600760009054906101000a900473ffffffffffffffffffffffffffffffffffffffff1673ffffffffffffffffffffffffffffffffffffffff163373ffffffffffffffffffffffffffffffffffffffff16145b15156110ca576040517f08c379a00000000000000000000000000000000000000000000000000000000081526004018080602001828103825260118152602001807f6e6f7420612076616c69642041646d696e00000000000000000000000000000081525060200191505060405180910390fd5b6001848154811015156110d957fe5b906000526020600020906009020160000154836001868154811015156110fb57fe5b906000526020600020906009020160010154011115151561111b57600080fd5b8260018581548110151561112b57fe5b9060005260206000209060090201600101540160018581548110151561114d57fe5b90600052602060002090600902016001018190555060018481548110151561117157fe5b90600052602060002090600902016001015491505092915050565b611194611c29565b151561119f57600080fd5b80600b60008473ffffffffffffffffffffffffffffffffffffffff1673ffffffffffffffffffffffffffffffffffffffff16815260200190815260200160002060006101000a81548160ff02191690831515021790555060011515811515141561121a5760096000815480929190600101919050555061122e565b600960008154809291906001900391905055505b7f845cf4219f3b3b9a965f9be9881c40cdd5a1d3d4cc0732a19c72d42e9464f51e8282604051808373ffffffffffffffffffffffffffffffffffffffff1673ffffffffffffffffffffffffffffffffffffffff168152602001821515151581526020019250505060405180910390a15050565b6001818154811015156112b057fe5b90600052602060002090600902016000915090508060000154908060010154908060020154908060030154908060040154908060050154908060060154908060070160009054906101000a900460ff16908060080154905089565b600a8181548110151561131a57fe5b906000526020600020016000915090505481565b600360009054906101000a900473ffffffffffffffffffffffffffffffffffffffff1681565b60028181548110151561136357fe5b90600052602060002090600902016000915090508060000154908060010154908060020154908060030154908060040154908060050154908060060154908060070160009054906101000a900460ff16908060080154905089565b6113c6611c29565b15156113d157600080fd5b600073ffffffffffffffffffffffffffffffffffffffff166000809054906101000a900473ffffffffffffffffffffffffffffffffffffffff1673ffffffffffffffffffffffffffffffffffffffff167f8be0079c531659141344cd1fd0a4f28419497f9722a3daafe3b4186f6b6457e060405160405180910390a360008060006101000a81548173ffffffffffffffffffffffffffffffffffffffff021916908373ffffffffffffffffffffffffffffffffffffffff160217905550565b60085481565b60006001828154811015156114a757fe5b9060005260206000209060090201600801549050919050565b60003360011515600b60008373ffffffffffffffffffffffffffffffffffffffff1673ffffffffffffffffffffffffffffffffffffffff16815260200190815260200160002060009054906101000a900460ff161515148061156f5750600660009054906101000a900473ffffffffffffffffffffffffffffffffffffffff1673ffffffffffffffffffffffffffffffffffffffff163373ffffffffffffffffffffffffffffffffffffffff16145b806115c75750600760009054906101000a900473ffffffffffffffffffffffffffffffffffffffff1673ffffffffffffffffffffffffffffffffffffffff163373ffffffffffffffffffffffffffffffffffffffff16145b151561163b576040517f08c379a00000000000000000000000000000000000000000000000000000000081526004018080602001828103825260118152602001807f6e6f7420612076616c69642041646d696e00000000000000000000000000000081525060200191505060405180910390fd5b878787868284101515156116dd576040517f08c379a00000000000000000000000000000000000000000000000000000000081526004018080602001828103825260228152602001807f4361706163697479206d7573742065786365656420616d6f756e742066696c6c81526020017f656400000000000000000000000000000000000000000000000000000000000081525060400191505060405180910390fd5b81600360009054906101000a900473ffffffffffffffffffffffffffffffffffffffff1673ffffffffffffffffffffffffffffffffffffffff1663af5cfae86040518163ffffffff167c010000000000000000000000000000000000000000000000000000000002815260040160206040518083038186803b15801561176257600080fd5b505afa158015611776573d6000803e3d6000fd5b505050506040513d602081101561178c57600080fd5b810190808051906020019092919050505010151515611839576040517f08c379a00000000000000000000000000000000000000000000000000000000081526004018080602001828103825260218152602001807f4e6f7420656e6f75676820696e766573746d656e7420746f207075726368617381526020017f650000000000000000000000000000000000000000000000000000000000000081525060400191505060405180910390fd5b600081101515156118d8576040517f08c379a00000000000000000000000000000000000000000000000000000000081526004018080602001828103825260218152602001807f4d757374206861766520612076616c6964207072696365207468726573686f6c81526020017f640000000000000000000000000000000000000000000000000000000000000081525060400191505060405180910390fd5b600460149054906101000a900460ff161515611bf15760018054905095506001610120604051908101604052808e81526020018d81526020014281526020018c81526020018b81526020018a81526020018981526020016001151581526020018881525090806001815401808255809150509060018203906000526020600020906009020160009091929091909150600082015181600001556020820151816001015560408201518160020155606082015181600301556080820151816004015560a0820151816005015560c0820151816006015560e08201518160070160006101000a81548160ff0219169083151502179055506101008201518160080155505050600860008154809291906001019190505550600a86908060018154018082558091505090600182039060005260206000200160009091929091909150555060008a600360009054906101000a900473ffffffffffffffffffffffffffffffffffffffff1673ffffffffffffffffffffffffffffffffffffffff1663af5cfae86040518163ffffffff167c010000000000000000000000000000000000000000000000000000000002815260040160206040518083038186803b158015611aa057600080fd5b505afa158015611ab4573d6000803e3d6000fd5b505050506040513d6020811015611aca57600080fd5b8101908080519060200190929190505050039050600360009054906101000a900473ffffffffffffffffffffffffffffffffffffffff1673ffffffffffffffffffffffffffffffffffffffff1663a342766b826040518263ffffffff167c010000000000000000000000000000000000000000000000000000000002815260040180828152602001915050602060405180830381600087803b158015611b6f57600080fd5b505af1158015611b83573d6000803e3d6000fd5b505050506040513d6020811015611b9957600080fd5b8101908080519060200190929190505050507f30d85d5a522569ce310aa6c7c0440c91d487f54517033dbdf0842b674f82de078a600160405180838152602001821515151581526020019250505060405180910390a1505b50505050509695505050505050565b60008060009054906101000a900473ffffffffffffffffffffffffffffffffffffffff16905090565b60008060009054906101000a900473ffffffffffffffffffffffffffffffffffffffff1673ffffffffffffffffffffffffffffffffffffffff163373ffffffffffffffffffffffffffffffffffffffff1614905090565b6060600a805480602002602001604051908101604052809291908181526020018280548015611cce57602002820191906000526020600020905b815481526020019060010190808311611cba575b5050505050905090565b60003360011515600b60008373ffffffffffffffffffffffffffffffffffffffff1673ffffffffffffffffffffffffffffffffffffffff16815260200190815260200160002060009054906101000a900460ff1615151480611d875750600660009054906101000a900473ffffffffffffffffffffffffffffffffffffffff1673ffffffffffffffffffffffffffffffffffffffff163373ffffffffffffffffffffffffffffffffffffffff16145b80611ddf5750600760009054906101000a900473ffffffffffffffffffffffffffffffffffffffff1673ffffffffffffffffffffffffffffffffffffffff163373ffffffffffffffffffffffffffffffffffffffff16145b1515611e53576040517f08c379a00000000000000000000000000000000000000000000000000000000081526004018080602001828103825260118152602001807f6e6f7420612076616c69642041646d696e00000000000000000000000000000081525060200191505060405180910390fd5b600183815481101515611e6257fe5b906000526020600020906009020160070160009054906101000a900460ff161515611e8c57600080fd5b6000600184815481101515611e9d57fe5b906000526020600020906009020160070160006101000a81548160ff0219169083151502179055506000600184815481101515611ed657fe5b90600052602060002090600902016004015490506002600185815481101515611efb57fe5b906000526020600020906009020190806001815401808255809150509060018203906000526020600020906009020160009091929091909150600082015481600001556001820154816001015560028201548160020155600382015481600301556004820154816004015560058201548160050155600682015481600601556007820160009054906101000a900460ff168160070160006101000a81548160ff02191690831515021790555060088201548160080155505050600184815481101515611fc357fe5b906000526020600020906009020160080154600180808054905003815481101515611fea57fe5b9060005260206000209060090201600801819055506001808054905003600a8581548110151561201657fe5b9060005260206000200181905550600a805480919060019003612039919061249c565b50600860008154809291906001900391905055507f30d85d5a522569ce310aa6c7c0440c91d487f54517033dbdf0842b674f82de0781600060405180838152602001821515151581526020019250505060405180910390a160085492505050919050565b3360011515600b60008373ffffffffffffffffffffffffffffffffffffffff1673ffffffffffffffffffffffffffffffffffffffff16815260200190815260200160002060009054906101000a900460ff161515148061214a5750600660009054906101000a900473ffffffffffffffffffffffffffffffffffffffff1673ffffffffffffffffffffffffffffffffffffffff163373ffffffffffffffffffffffffffffffffffffffff16145b806121a25750600760009054906101000a900473ffffffffffffffffffffffffffffffffffffffff1673ffffffffffffffffffffffffffffffffffffffff163373ffffffffffffffffffffffffffffffffffffffff16145b1515612216576040517f08c379a00000000000000000000000000000000000000000000000000000000081526004018080602001828103825260118152602001807f6e6f7420612076616c69642041646d696e00000000000000000000000000000081525060200191505060405180910390fd5b6000821015151561222657600080fd5b8160018481548110151561223657fe5b9060005260206000209060090201600501819055507fa6551cf039439f591ebe17eb5c0e3a1605a7be4c97483192e842e778851f0114826040518082815260200191505060405180910390a1505050565b600760009054906101000a900473ffffffffffffffffffffffffffffffffffffffff1681565b600660009054906101000a900473ffffffffffffffffffffffffffffffffffffffff1681565b60006001828154811015156122e457fe5b9060005260206000209060090201600601549050919050565b612305611c29565b151561231057600080fd5b612319816123a2565b50565b600060018281548110151561232d57fe5b90600052602060002090600902016001015460018381548110151561234e57fe5b9060005260206000209060090201600001540390506000811115156123765760009050612377565b5b919050565b600560009054906101000a900473ffffffffffffffffffffffffffffffffffffffff1681565b600073ffffffffffffffffffffffffffffffffffffffff168173ffffffffffffffffffffffffffffffffffffffff16141515156123de57600080fd5b8073ffffffffffffffffffffffffffffffffffffffff166000809054906101000a900473ffffffffffffffffffffffffffffffffffffffff1673ffffffffffffffffffffffffffffffffffffffff167f8be0079c531659141344cd1fd0a4f28419497f9722a3daafe3b4186f6b6457e060405160405180910390a3806000806101000a81548173ffffffffffffffffffffffffffffffffffffffff021916908373ffffffffffffffffffffffffffffffffffffffff16021790555050565b8154818355818111156124c3578183600052602060002091820191016124c291906124c8565b5b505050565b6124ea91905b808211156124e65760008160009055506001016124ce565b5090565b9056fea165627a7a72305820fd857444b94bc485b6caee578877f4536a8efd562daf451f77853129df4e942d002960806040526003600455600060065534801561001a57600080fd5b506040516040806115fe8339810180604052604081101561003a57600080fd5b81019080805190602001909291908051906020019092919050505080600381905550816000806101000a81548173ffffffffffffffffffffffffffffffffffffffff021916908373ffffffffffffffffffffffffffffffffffffffff16021790555060056000908060018154018082558091505090600182039060005260206000200160009091929091909150555060056000908060018154018082558091505090600182039060005260206000200160009091929091909150555050506114f7806101076000396000f3fe6080604052600436106100db576000357c0100000000000000000000000000000000000000000000000000000000900463ffffffff16806310ea13df146101565780632ccc872714610181578063370a3918146101fc5780633ccfd60b1461022b5780636bb80d511461023557806379ebb6c414610260578063973a9a82146103095780639b49969b14610313578063a342766b1461033e578063af5cfae814610391578063b9c8c449146103bc578063bd68f8f614610421578063c6778b2e14610470578063efabc746146104df578063f3f437031461050a575b3480156100e757600080fd5b506040517f08c379a00000000000000000000000000000000000000000000000000000000081526004018080602001828103825260118152602001807f46616c6c6261636b2066756e6374696f6e00000000000000000000000000000081525060200191505060405180910390fd5b34801561016257600080fd5b5061016b61056f565b6040518082815260200191505060405180910390f35b34801561018d57600080fd5b506101ba600480360360208110156101a457600080fd5b8101908080359060200190929190505050610575565b604051808273ffffffffffffffffffffffffffffffffffffffff1673ffffffffffffffffffffffffffffffffffffffff16815260200191505060405180910390f35b34801561020857600080fd5b506102116105b3565b604051808215151515815260200191505060405180910390f35b61023361090e565b005b34801561024157600080fd5b5061024a610d2b565b6040518082815260200191505060405180910390f35b34801561026c57600080fd5b506102b96004803603604081101561028357600080fd5b81019080803573ffffffffffffffffffffffffffffffffffffffff16906020019092919080359060200190929190505050610d31565b604051808473ffffffffffffffffffffffffffffffffffffffff1673ffffffffffffffffffffffffffffffffffffffff168152602001838152602001828152602001935050505060405180910390f35b610311610d97565b005b34801561031f57600080fd5b5061032861104e565b6040518082815260200191505060405180910390f35b34801561034a57600080fd5b506103776004803603602081101561036157600080fd5b8101908080359060200190929190505050611054565b604051808215151515815260200191505060405180910390f35b34801561039d57600080fd5b506103a6611066565b6040518082815260200191505060405180910390f35b3480156103c857600080fd5b5061040b600480360360208110156103df57600080fd5b81019080803573ffffffffffffffffffffffffffffffffffffffff16906020019092919050505061106c565b6040518082815260200191505060405180910390f35b34801561042d57600080fd5b5061045a6004803603602081101561044457600080fd5b8101908080359060200190929190505050611422565b6040518082815260200191505060405180910390f35b34801561047c57600080fd5b506104c96004803603604081101561049357600080fd5b81019080803573ffffffffffffffffffffffffffffffffffffffff16906020019092919080359060200190929190505050611445565b6040518082815260200191505060405180910390f35b3480156104eb57600080fd5b506104f46114ad565b6040518082815260200191505060405180910390f35b34801561051657600080fd5b506105596004803603602081101561052d57600080fd5b81019080803573ffffffffffffffffffffffffffffffffffffffff1690602001909291905050506114b3565b6040518082815260200191505060405180910390f35b60015481565b60078181548110151561058457fe5b906000526020600020016000915054906101000a900473ffffffffffffffffffffffffffffffffffffffff1681565b600033600115156000809054906101000a900473ffffffffffffffffffffffffffffffffffffffff1673ffffffffffffffffffffffffffffffffffffffff166324d7806c836040518263ffffffff167c0100000000000000000000000000000000000000000000000000000000028152600401808273ffffffffffffffffffffffffffffffffffffffff1673ffffffffffffffffffffffffffffffffffffffff16815260200191505060206040518083038186803b15801561067457600080fd5b505afa158015610688573d6000803e3d6000fd5b505050506040513d602081101561069e57600080fd5b810190808051906020019092919050505015151415156106bd57600080fd5b6000600254111515610737576040517f08c379a00000000000000000000000000000000000000000000000000000000081526004018080602001828103825260168152602001807f4e6f20617661696c61626c65206469766964656e64730000000000000000000081525060200191505060405180910390fd5b60646001546004540281151561074957fe5b0460025411151561080e576040517f08c379a00000000000000000000000000000000000000000000000000000000081526004018080602001828103825260458152602001807f4d757374206d61696e7461696e2061206365727461696e20696e766573746d6581526020017f6e74206c6576656c20696e206f7264657220746f20747269676765722064697681526020017f6964656e6400000000000000000000000000000000000000000000000000000081525060600191505060405180910390fd5b60006005600081548110151561082057fe5b90600052602060002001541415156108a0576040517f08c379a00000000000000000000000000000000000000000000000000000000081526004018080602001828103825260208152602001807f5374696c6c206f6e2070726576696f7573206469766964656e64206379636c6581525060200191505060405180910390fd5b60006064600354600254028115156108b457fe5b0490508060026000828254039250508190555080600560008154811015156108d857fe5b906000526020600020018190555080600560018154811015156108f757fe5b906000526020600020018190555060019250505090565b336000600960008373ffffffffffffffffffffffffffffffffffffffff1673ffffffffffffffffffffffffffffffffffffffff168152602001908152602001600020805490501115156109c9576040517f08c379a00000000000000000000000000000000000000000000000000000000081526004018080602001828103825260148152602001807f4e6f7420612076616c696420696e766573746f7200000000000000000000000081525060200191505060405180910390fd5b6000600860008373ffffffffffffffffffffffffffffffffffffffff1673ffffffffffffffffffffffffffffffffffffffff16815260200190815260200160002054111515610a80576040517f08c379a00000000000000000000000000000000000000000000000000000000081526004018080602001828103825260208152602001807f4164647265737320686173206e6f207769746864726177616c20616d6f756e7481525060200191505060405180910390fd5b600860008273ffffffffffffffffffffffffffffffffffffffff1673ffffffffffffffffffffffffffffffffffffffff1681526020019081526020016000205460056001815481101515610ad057fe5b9060005260206000200154111515610b50576040517f08c379a000000000000000000000000000000000000000000000000000000000815260040180806020018281038252601a8152602001807f4572726f72202d206e6f20617661696c61626c652066756e647300000000000081525060200191505060405180910390fd5b6000600860003373ffffffffffffffffffffffffffffffffffffffff1673ffffffffffffffffffffffffffffffffffffffff1681526020019081526020016000205490508060056001815481101515610ba557fe5b90600052602060002001600082825403925050819055506000600860003373ffffffffffffffffffffffffffffffffffffffff1673ffffffffffffffffffffffffffffffffffffffff168152602001908152602001600020819055506006600081548092919060010191905055506007805490506006541415610c75576000600681905550600060056000815481101515610c3c57fe5b906000526020600020018190555060056001815481101515610c5a57fe5b90600052602060002001546002600082825401925050819055505b3373ffffffffffffffffffffffffffffffffffffffff166108fc829081150290604051600060405180830381858888f19350505050158015610cbb573d6000803e3d6000fd5b507fa502fd41811afb69adfdfadf22b00a476d683cb0e8fcb04ecef9e331e2a26a6d3382604051808373ffffffffffffffffffffffffffffffffffffffff1673ffffffffffffffffffffffffffffffffffffffff1681526020018281526020019250505060405180910390a15050565b60035481565b600960205281600052604060002081815481101515610d4c57fe5b9060005260206000209060030201600091509150508060000160009054906101000a900473ffffffffffffffffffffffffffffffffffffffff16908060010154908060020154905083565b600034111515610e0f576040517f08c379a000000000000000000000000000000000000000000000000000000000815260040180806020018281038252601a8152602001807f41747461636820616e20696e766573746d656e742076616c756500000000000081525060200191505060405180910390fd5b60003490506000600960003373ffffffffffffffffffffffffffffffffffffffff1673ffffffffffffffffffffffffffffffffffffffff168152602001908152602001600020805490501415610ec65760073390806001815401808255809150509060018203906000526020600020016000909192909190916101000a81548173ffffffffffffffffffffffffffffffffffffffff021916908373ffffffffffffffffffffffffffffffffffffffff160217905550505b600960003373ffffffffffffffffffffffffffffffffffffffff1673ffffffffffffffffffffffffffffffffffffffff1681526020019081526020016000206060604051908101604052803373ffffffffffffffffffffffffffffffffffffffff168152602001428152602001838152509080600181540180825580915050906001820390600052602060002090600302016000909192909190915060008201518160000160006101000a81548173ffffffffffffffffffffffffffffffffffffffff021916908373ffffffffffffffffffffffffffffffffffffffff160217905550602082015181600101556040820151816002015550505080600160008282540192505081905550806002600082825401925050819055507f012335398b2ec0286f8c0396759e9608b4e163f51d06d11116dd801b2b47c60f3382604051808373ffffffffffffffffffffffffffffffffffffffff1673ffffffffffffffffffffffffffffffffffffffff1681526020018281526020019250505060405180910390a150565b60045481565b60008160028190555060019050919050565b60025481565b600033600115156000809054906101000a900473ffffffffffffffffffffffffffffffffffffffff1673ffffffffffffffffffffffffffffffffffffffff166324d7806c836040518263ffffffff167c0100000000000000000000000000000000000000000000000000000000028152600401808273ffffffffffffffffffffffffffffffffffffffff1673ffffffffffffffffffffffffffffffffffffffff16815260200191505060206040518083038186803b15801561112d57600080fd5b505afa158015611141573d6000803e3d6000fd5b505050506040513d602081101561115757600080fd5b8101908080519060200190929190505050151514151561117657600080fd5b600080905060008090505b600960008673ffffffffffffffffffffffffffffffffffffffff1673ffffffffffffffffffffffffffffffffffffffff168152602001908152602001600020805490508110156112f1578473ffffffffffffffffffffffffffffffffffffffff16600960008773ffffffffffffffffffffffffffffffffffffffff1673ffffffffffffffffffffffffffffffffffffffff1681526020019081526020016000208281548110151561122e57fe5b906000526020600020906003020160000160009054906101000a900473ffffffffffffffffffffffffffffffffffffffff1673ffffffffffffffffffffffffffffffffffffffff1614151561128257600080fd5b600960008673ffffffffffffffffffffffffffffffffffffffff1673ffffffffffffffffffffffffffffffffffffffff168152602001908152602001600020818154811015156112ce57fe5b906000526020600020906003020160020154820191508080600101915050611181565b506000600154826005600081548110151561130857fe5b90600052602060002001540281151561131d57fe5b04905080600860008773ffffffffffffffffffffffffffffffffffffffff1673ffffffffffffffffffffffffffffffffffffffff168152602001908152602001600020600082825401925050819055507f42f69d5213292b7ba6e1e5a1f251f6edca6f86e95f14e89871ebb5e9fa5099b885600860008873ffffffffffffffffffffffffffffffffffffffff1673ffffffffffffffffffffffffffffffffffffffff16815260200190815260200160002054604051808373ffffffffffffffffffffffffffffffffffffffff1673ffffffffffffffffffffffffffffffffffffffff1681526020018281526020019250505060405180910390a1809350505050919050565b60058181548110151561143157fe5b906000526020600020016000915090505481565b6000600960008473ffffffffffffffffffffffffffffffffffffffff1673ffffffffffffffffffffffffffffffffffffffff1681526020019081526020016000208281548110151561149357fe5b906000526020600020906003020160020154905092915050565b60065481565b6008602052806000526040600020600091509050548156fea165627a7a72305820737887300d533004dac6e97b14d3fdb77a5f61d026f222f2112e77688ce5b48900296080604052610e10600255600360045534801561001b57600080fd5b506040516020806117b78339810180604052602081101561003b57600080fd5b810190808051906020019092919050505080600160006101000a81548173ffffffffffffffffffffffffffffffffffffffff021916908373ffffffffffffffffffffffffffffffffffffffff160217905550806000806101000a81548173ffffffffffffffffffffffffffffffffffffffff021916908373ffffffffffffffffffffffffffffffffffffffff160217905550506116da806100dd6000396000f3fe608060405260043610610078576000357c0100000000000000000000000000000000000000000000000000000000900463ffffffff1680630fc646911461007d5780634fef2364146100a85780638f501a9b146100d7578063cdcf631614610102578063d5fbc71d1461012d578063feb663d01461017c575b600080fd5b34801561008957600080fd5b506100926101d3565b6040518082815260200191505060405180910390f35b3480156100b457600080fd5b506100bd6101d9565b604051808215151515815260200191505060405180910390f35b3480156100e357600080fd5b506100ec6103f8565b6040518082815260200191505060405180910390f35b34801561010e57600080fd5b506101176103fe565b6040518082815260200191505060405180910390f35b34801561013957600080fd5b506101666004803603602081101561015057600080fd5b8101908080359060200190929190505050610404565b6040518082815260200191505060405180910390f35b34801561018857600080fd5b5061019161077a565b604051808273ffffffffffffffffffffffffffffffffffffffff1673ffffffffffffffffffffffffffffffffffffffff16815260200191505060405180910390f35b60025481565b600080600080600090505b6004548110156103ed576000809054906101000a900473ffffffffffffffffffffffffffffffffffffffff1673ffffffffffffffffffffffffffffffffffffffff166364e980726003546040518263ffffffff167c01000000000000000000000000000000000000000000000000000000000281526004018082815260200191505060206040518083038186803b15801561027e57600080fd5b505afa158015610292573d6000803e3d6000fd5b505050506040513d60208110156102a857600080fd5b810190808051906020019092919050505092506102c483610404565b8201915060016003600082825401925050819055506000809054906101000a900473ffffffffffffffffffffffffffffffffffffffff1673ffffffffffffffffffffffffffffffffffffffff16637ab9be186040518163ffffffff167c010000000000000000000000000000000000000000000000000000000002815260040160206040518083038186803b15801561035c57600080fd5b505afa158015610370573d6000803e3d6000fd5b505050506040513d602081101561038657600080fd5b810190808051906020019092919050505060035414156103e05760006003819055507f2a337d71f9f377b9df07c7d0b3b45e113342364e6da3faa740095ae43dbfb67260405160405180910390a1600193505050506103f5565b80806001019150506101e4565b506000925050505b90565b60035481565b60045481565b60008060006104116107a0565b90507f43e0d79edab99ad436795e03537a27e8192b11095f7d9e54e8748f538f75910c846040518082815260200191505060405180910390a160008060009054906101000a900473ffffffffffffffffffffffffffffffffffffffff1673ffffffffffffffffffffffffffffffffffffffff166369777fce6040518163ffffffff167c010000000000000000000000000000000000000000000000000000000002815260040160206040518083038186803b1580156104cf57600080fd5b505afa1580156104e3573d6000803e3d6000fd5b505050506040513d60208110156104f957600080fd5b810190808051906020019092919050505073ffffffffffffffffffffffffffffffffffffffff1663af5cfae86040518163ffffffff167c010000000000000000000000000000000000000000000000000000000002815260040160206040518083038186803b15801561056b57600080fd5b505afa15801561057f573d6000803e3d6000fd5b505050506040513d602081101561059557600080fd5b81019080805190602001909291905050501115156105b257600080fd5b60008060008060008060008060009054906101000a900473ffffffffffffffffffffffffffffffffffffffff1673ffffffffffffffffffffffffffffffffffffffff16633dcd20f48c6040518263ffffffff167c01000000000000000000000000000000000000000000000000000000000281526004018082815260200191505060e06040518083038186803b15801561064b57600080fd5b505afa15801561065f573d6000803e3d6000fd5b505050506040513d60e081101561067557600080fd5b810190808051906020019092919080519060200190929190805190602001909291908051906020019092919080519060200190929190805190602001909291908051906020019092919050505096509650965096509650965096506001151582151514151561074c576040517f08c379a00000000000000000000000000000000000000000000000000000000081526004018080602001828103825260188152602001807f426174746572792073686f756c6420626520616374697665000000000000000081525060200191505060405180910390fd5b6000610758858a6107aa565b90506107698c898989888e876107c8565b995050505050505050505050919050565b600160009054906101000a900473ffffffffffffffffffffffffffffffffffffffff1681565b6000611388905090565b6000818311156107bd57600190506107c2565b600090505b92915050565b6000806107d9600254610e10610db8565b905060008789039050600115158415151415610be15760008111151561088d576040517f08c379a00000000000000000000000000000000000000000000000000000000081526004018080602001828103825260398152602001807f426174746572792073686f756c6420686176652072656d61696e696e6720636181526020017f70616369747920696e206f7264657220746f206368617267650000000000000081525060400191505060405180910390fd5b6108a061089a8784610de2565b82610e20565b925060008060009054906101000a900473ffffffffffffffffffffffffffffffffffffffff1673ffffffffffffffffffffffffffffffffffffffff166369777fce6040518163ffffffff167c010000000000000000000000000000000000000000000000000000000002815260040160206040518083038186803b15801561092757600080fd5b505afa15801561093b573d6000803e3d6000fd5b505050506040513d602081101561095157600080fd5b810190808051906020019092919050505073ffffffffffffffffffffffffffffffffffffffff1663af5cfae86040518163ffffffff167c010000000000000000000000000000000000000000000000000000000002815260040160206040518083038186803b1580156109c357600080fd5b505afa1580156109d7573d6000803e3d6000fd5b505050506040513d60208110156109ed57600080fd5b810190808051906020019092919050505090506000610a0c8588610de2565b905081811115610a2657819050610a238288610db8565b94505b610a318c8689610e39565b507fe921c141ec599faf4d493fedfbb3af7c689ff38c273ed12108fd131c50f654a78986896000809054906101000a900473ffffffffffffffffffffffffffffffffffffffff1673ffffffffffffffffffffffffffffffffffffffff166369777fce6040518163ffffffff167c010000000000000000000000000000000000000000000000000000000002815260040160206040518083038186803b158015610ad957600080fd5b505afa158015610aed573d6000803e3d6000fd5b505050506040513d6020811015610b0357600080fd5b810190808051906020019092919050505073ffffffffffffffffffffffffffffffffffffffff1663af5cfae86040518163ffffffff167c010000000000000000000000000000000000000000000000000000000002815260040160206040518083038186803b158015610b7557600080fd5b505afa158015610b89573d6000803e3d6000fd5b505050506040513d6020811015610b9f57600080fd5b81019080805190602001909291905050506040518085815260200184815260200183815260200182815260200194505050505060405180910390a15050610dab565b610bf4610bee8784610de2565b89610e20565b9250610c018a84876112a3565b507f1eb90c2aa597b0bffa4231991db228ac204daee844c46a996ce98a8da13b71d18784876000809054906101000a900473ffffffffffffffffffffffffffffffffffffffff1673ffffffffffffffffffffffffffffffffffffffff166369777fce6040518163ffffffff167c010000000000000000000000000000000000000000000000000000000002815260040160206040518083038186803b158015610ca957600080fd5b505afa158015610cbd573d6000803e3d6000fd5b505050506040513d6020811015610cd357600080fd5b810190808051906020019092919050505073ffffffffffffffffffffffffffffffffffffffff1663af5cfae86040518163ffffffff167c010000000000000000000000000000000000000000000000000000000002815260040160206040518083038186803b158015610d4557600080fd5b505afa158015610d59573d6000803e3d6000fd5b505050506040513d6020811015610d6f57600080fd5b81019080805190602001909291905050506040518085815260200184815260200183815260200182815260200194505050505060405180910390a15b5050979650505050505050565b60008082111515610dc857600080fd5b60008284811515610dd557fe5b0490508091505092915050565b600080831415610df55760009050610e1a565b60008284029050828482811515610e0857fe5b04141515610e1557600080fd5b809150505b92915050565b6000818310610e2f5781610e31565b825b905092915050565b600080610fa86000809054906101000a900473ffffffffffffffffffffffffffffffffffffffff1673ffffffffffffffffffffffffffffffffffffffff166369777fce6040518163ffffffff167c010000000000000000000000000000000000000000000000000000000002815260040160206040518083038186803b158015610ec257600080fd5b505afa158015610ed6573d6000803e3d6000fd5b505050506040513d6020811015610eec57600080fd5b810190808051906020019092919050505073ffffffffffffffffffffffffffffffffffffffff1663af5cfae86040518163ffffffff167c010000000000000000000000000000000000000000000000000000000002815260040160206040518083038186803b158015610f5e57600080fd5b505afa158015610f72573d6000803e3d6000fd5b505050506040513d6020811015610f8857600080fd5b8101908080519060200190929190505050610fa38686610de2565b61166b565b905060008110151515611049576040517f08c379a00000000000000000000000000000000000000000000000000000000081526004018080602001828103825260268152602001807f4e6f7420656e6f756768206d6f6e657920746f206d616b65207468697320707581526020017f726368617365000000000000000000000000000000000000000000000000000081525060400191505060405180910390fd5b6000809054906101000a900473ffffffffffffffffffffffffffffffffffffffff1673ffffffffffffffffffffffffffffffffffffffff166369777fce6040518163ffffffff167c010000000000000000000000000000000000000000000000000000000002815260040160206040518083038186803b1580156110cc57600080fd5b505afa1580156110e0573d6000803e3d6000fd5b505050506040513d60208110156110f657600080fd5b810190808051906020019092919050505073ffffffffffffffffffffffffffffffffffffffff1663a342766b826040518263ffffffff167c010000000000000000000000000000000000000000000000000000000002815260040180828152602001915050602060405180830381600087803b15801561117557600080fd5b505af1158015611189573d6000803e3d6000fd5b505050506040513d602081101561119f57600080fd5b810190808051906020019092919050505015611296576000809054906101000a900473ffffffffffffffffffffffffffffffffffffffff1673ffffffffffffffffffffffffffffffffffffffff1663460fafbc86866000036040518363ffffffff167c01000000000000000000000000000000000000000000000000000000000281526004018083815260200182815260200192505050602060405180830381600087803b15801561125057600080fd5b505af1158015611264573d6000803e3d6000fd5b505050506040513d602081101561127a57600080fd5b810190808051906020019092919050505050600191505061129c565b60009150505b9392505050565b6000806114126000809054906101000a900473ffffffffffffffffffffffffffffffffffffffff1673ffffffffffffffffffffffffffffffffffffffff166369777fce6040518163ffffffff167c010000000000000000000000000000000000000000000000000000000002815260040160206040518083038186803b15801561132c57600080fd5b505afa158015611340573d6000803e3d6000fd5b505050506040513d602081101561135657600080fd5b810190808051906020019092919050505073ffffffffffffffffffffffffffffffffffffffff1663af5cfae86040518163ffffffff167c010000000000000000000000000000000000000000000000000000000002815260040160206040518083038186803b1580156113c857600080fd5b505afa1580156113dc573d6000803e3d6000fd5b505050506040513d60208110156113f257600080fd5b810190808051906020019092919050505061140d8686610de2565b61168d565b90506000809054906101000a900473ffffffffffffffffffffffffffffffffffffffff1673ffffffffffffffffffffffffffffffffffffffff166369777fce6040518163ffffffff167c010000000000000000000000000000000000000000000000000000000002815260040160206040518083038186803b15801561149757600080fd5b505afa1580156114ab573d6000803e3d6000fd5b505050506040513d60208110156114c157600080fd5b810190808051906020019092919050505073ffffffffffffffffffffffffffffffffffffffff1663a342766b826040518263ffffffff167c010000000000000000000000000000000000000000000000000000000002815260040180828152602001915050602060405180830381600087803b15801561154057600080fd5b505af1158015611554573d6000803e3d6000fd5b505050506040513d602081101561156a57600080fd5b81019080805190602001909291905050501561165e576000809054906101000a900473ffffffffffffffffffffffffffffffffffffffff1673ffffffffffffffffffffffffffffffffffffffff1663460fafbc86866040518363ffffffff167c01000000000000000000000000000000000000000000000000000000000281526004018083815260200182815260200192505050602060405180830381600087803b15801561161857600080fd5b505af115801561162c573d6000803e3d6000fd5b505050506040513d602081101561164257600080fd5b8101908080519060200190929190505050506001915050611664565b60009150505b9392505050565b600082821115151561167c57600080fd5b600082840390508091505092915050565b60008082840190508381101515156116a457600080fd5b809150509291505056fea165627a7a7230582022ae55a7771a4f51a296834a6eab882c522d5d5f198e254b415af05df238eda20029",
  "source": "pragma solidity >=0.5.0;\n\nimport \"./BatteryInvestment.sol\";\nimport \"./BatteryEnergy.sol\";\nimport \"./Ownable.sol\"; // to manage ownership addresses\n\n/// @author Yan Man\n/// @title A Virtual Power Plant implementation. Consensys Final Project Winter 2018/19\ncontract VirtualPowerPlant is Ownable {\n\n    // Type declarations\n    // contains all necessary battery characteristics\n    struct Battery {\n        uint capacity; // max charge capacity\n        uint currentFilled; // current charge level\n        uint dateAdded;\n        uint cost;\n        bytes32 serialNumber; // for internal record keeping\n        uint priceThreshold; // energy price threshold; determines whether to purchase energy based on real time rate\n        uint chargeRate; // per hour, ie how much capacity can be filled in an hour\n        bool isActive; // active or decommissioned\n        uint mapIndex; // corresponds to the battery's index in batteryMapping array\n    }\n    Battery[] public batteries; // array of active batteries\n    Battery[] public decommissionedBatteries; // array of decommissioned batts\n    BatteryInvestment public batteryInvestmentContract; // deployed by this contract\n    BatteryEnergy public batteryEnergyContract; // deployed by this contract\n    // State variables\n    bool private stopped = false;\n    address public virtualPowerPlantAddress;\n    address public batteryInvestmentAddress;\n    address public batteryEnergyAddress;\n    uint public numBatteries = 0; // number of active batteries\n    uint public numAdmins = 0; // number of active admins\n    uint[] public batteryMapping; // array to log the battery's index in batteries array\n    mapping(address => bool) public admins; // addresses of admins\n\n    // Events\n    event LogNewInvestment (address investorAddress, uint investmentAmount);\n    event LogWithdrawalMade (address investorAddress, uint withdrawalAmount);\n    event LogChangeAdmin (address adminAddress, bool status); // when admin status is changed\n    event LogBatteryActive (bytes32 serialNumber, bool newStatus); // when battery is decommissioned or added\n    event LogBatteryThresholdChanged (uint newThreshold);\n\n    // Modifiers\n    // check address is a valid admin or calling from deployed contract\n    modifier isAdminModifier (address msgAddress) {\n        require(\n            admins[msgAddress] == true ||\n            msg.sender == batteryInvestmentAddress ||\n            msg.sender == batteryEnergyAddress,\n            \"not a valid Admin\"\n        );\n        _;\n    }\n    modifier stopInEmergency { if (!stopped) _; }\n    modifier onlyInEmergency { if (stopped) _; }\n    // check battery is valid:\n    // 1) amount of charge in the battery cannot exceed the charge\n    // 2) remaining investment has enough funds to pay for the cost of the battery\n    // 3) price threshold is positive\n    modifier isBatteryValidModifier (uint _capacity, uint _currentFilled, uint _cost, uint _priceThreshold) {\n        require(_capacity >= _currentFilled, \"Capacity must exceed amount filled\");\n        require(batteryInvestmentContract.remainingInvestment() >= _cost, \"Not enough investment to purchase\");\n        require(_priceThreshold >= 0, \"Must have a valid price threshold\");\n        _;\n    }\n\n    /// constructor\n    constructor () public {\n        setAdmin(msg.sender, true); // set contract deployer as admin\n        uint dividendPercentage = 1; // set amount of investment which will be used for dividend\n        // define contract addresses and contracts that are deployed\n        virtualPowerPlantAddress = address(this);\n        batteryInvestmentContract = new BatteryInvestment(virtualPowerPlantAddress, dividendPercentage);\n        batteryInvestmentAddress = address(batteryInvestmentContract);\n        batteryEnergyContract = new BatteryEnergy(virtualPowerPlantAddress);\n        batteryEnergyAddress = address(batteryEnergyContract);\n    }\n\n    /// fallback function\n    function () external {\n        revert(\"Fallback\");\n    }\n\n    // External functions\n    /// allow other contracts to check admin users\n    function isAdmin (address adminAddress)\n        external\n        view\n        isAdminModifier(adminAddress)\n        returns (bool)\n    {\n        return true;\n    }\n\n    /// add battery to array of storage assets\n    function addBattery (\n        uint _capacity,\n        uint _currentFilled,\n        uint _cost,\n        bytes32 _serialNumber,\n        uint _priceThreshold,\n        uint _chargeRate\n    )\n        external // external admin access\n        isAdminModifier(msg.sender)\n        isBatteryValidModifier(_capacity, _currentFilled, _cost, _priceThreshold)\n        stopInEmergency()\n        returns (uint batteryID)\n    {\n        batteryID = batteries.length; // index in the array, corresponds to current length of array\n        batteries.push(Battery({\n            capacity: _capacity,\n            currentFilled: _currentFilled,\n            dateAdded: now,\n            cost: _cost,\n            serialNumber: _serialNumber,\n            priceThreshold: _priceThreshold,\n            chargeRate: _chargeRate,\n            isActive: true,\n            mapIndex: batteryID\n        }));\n        numBatteries++; // number of active batteries is increased\n        batteryMapping.push(batteryID); // record battery ID in mapping\n        // update remaining investment with cost of battery\n        uint _newRemainingInvestment = batteryInvestmentContract.remainingInvestment() - _cost;\n        batteryInvestmentContract.updateRemainingInvestment(_newRemainingInvestment);\n        emit LogBatteryActive(_serialNumber, true);\n    }\n\n    /// charge battery, ie add to its currently filled charge\n    function chargeBattery (uint _batteryID, uint _chargeAmount)\n        external\n        isAdminModifier(msg.sender)\n        returns (uint)\n    {\n        // require the anount of charge to not exceed capacity\n        require(batteries[_batteryID].currentFilled + _chargeAmount  <= batteries[_batteryID].capacity);\n        // if valid, add charge to specific battery\n        batteries[_batteryID].currentFilled = batteries[_batteryID].currentFilled + _chargeAmount;\n        return batteries[_batteryID].currentFilled;\n    }\n\n    /// admin access to altering battery characteristics\n    function changeBatteryThreshold (uint _batteryID, uint _newThreshold)\n        external\n        isAdminModifier(msg.sender)\n    {\n        // require the price threshold to be positive\n        require(_newThreshold >= 0);\n        // set new threshold of specific battery\n        batteries[_batteryID].priceThreshold = _newThreshold;\n        emit LogBatteryThresholdChanged(_newThreshold);\n    }\n\n    /// decommission battery, ie set active to false and move to other array\n    function decommissionBattery (uint _batteryID)\n        external\n        isAdminModifier(msg.sender)\n        returns (uint)\n    {\n        // require the battery state to be active before it can be decommissioned\n        require(batteries[_batteryID].isActive);\n        batteries[_batteryID].isActive = false; // set active field to false\n        bytes32 serialNumber = batteries[_batteryID].serialNumber;\n        // add decommissioned battery to other mapping\n        decommissionedBatteries.push(batteries[_batteryID]);\n        // replace decommissioned battery in the array with battery at the end of current array\n        batteries[batteries.length - 1].mapIndex = batteries[_batteryID].mapIndex;\n        // also change index in batteryMapping\n        batteryMapping[_batteryID] = batteries.length - 1;\n        // remove last elements (which have been moved)\n        batteryMapping.length--;\n        numBatteries--;\n        emit LogBatteryActive(serialNumber, false); // log battery change activity\n        return numBatteries;\n    }\n\n    // External functions that are view\n    /// retrieve battery info from mapping\n    function getRelevantBatteryInfo (uint _batteryID)\n        external\n        view\n        returns (\n            uint,\n            uint,\n            bytes32,\n            uint,\n            uint,\n            bool,\n            uint\n        )\n    {\n        return (\n            batteries[_batteryID].capacity,\n            batteries[_batteryID].currentFilled,\n            batteries[_batteryID].serialNumber,\n            batteries[_batteryID].priceThreshold,\n            batteries[_batteryID].chargeRate,\n            batteries[_batteryID].isActive,\n            batteries[_batteryID].mapIndex\n        );\n    }\n\n    function getBatteryCapacityRemaining (uint _batteryID) external view returns (uint remaining) {\n        remaining = batteries[_batteryID].capacity -  batteries[_batteryID].currentFilled;\n        if(remaining <= 0){\n            return 0;\n        }\n    }\n\n    function getBatteryMapping () external view returns (uint[] memory) {\n        return batteryMapping;\n    }\n\n    function getBatteryChargeRate (uint _batteryID) external view returns (uint) {\n        return batteries[_batteryID].chargeRate;\n    }\n\n    function getBatteryMapIndex (uint _batteryID) external view returns (uint) {\n        return batteries[_batteryID].mapIndex;\n    }\n\n    // Public functions\n    function toggleContractActive() isAdminModifier(msg.sender) public {\n        stopped = !stopped;\n    }\n\n    function setAdmin (address _newAdminAddress, bool _adminStatus)\n        public\n        onlyOwner\n    {\n        admins[_newAdminAddress] = _adminStatus;\n        if (_adminStatus == true) {\n            numAdmins++;\n        } else {\n            numAdmins--;\n        }\n        emit LogChangeAdmin(_newAdminAddress, _adminStatus);\n    }\n\n\n}\n",
  "sourcePath": "/Users/yan-dev/Documents/virtual-power-plant/contracts/VirtualPowerPlant.sol",
  "compiler": {
    "name": "solc",
    "version": "0.5.0+commit.1d4f565a.Emscripten.clang"
  },
  "schemaVersion": "3.0.0",
  "updatedAt": "2019-01-26T13:31:28.395Z",
  "devdoc": {
    "author": "Yan Man",
    "methods": {
      "isOwner()": {
        "return": "true if `msg.sender` is the owner of the contract."
      },
      "owner()": {
        "return": "the address of the owner."
      },
      "renounceOwnership()": {
        "details": "Allows the current owner to relinquish control of the contract."
      },
      "transferOwnership(address)": {
        "details": "Allows the current owner to transfer control of the contract to a newOwner.",
        "params": {
          "newOwner": "The address to transfer ownership to."
        }
      }
    },
    "title": "A Virtual Power Plant implementation. Consensys Final Project Winter 2018/19"
  },
  "userdoc": {
    "methods": {
      "addBattery(uint256,uint256,uint256,bytes32,uint256,uint256)": {
        "notice": "add battery to array of storage assets"
      },
      "changeBatteryThreshold(uint256,uint256)": {
        "notice": "admin access to altering battery characteristics"
      },
      "chargeBattery(uint256,uint256)": {
        "notice": "charge battery, ie add to its currently filled charge"
      },
      "constructor": "constructor",
      "decommissionBattery(uint256)": {
        "notice": "decommission battery, ie set active to false and move to other array"
      },
      "getRelevantBatteryInfo(uint256)": {
        "notice": "retrieve battery info from mapping"
      },
      "isAdmin(address)": {
        "notice": "allow other contracts to check admin users"
      },
      "renounceOwnership()": {
        "notice": "Renouncing to ownership will leave the contract without an owner. It will not be possible to call the functions with the `onlyOwner` modifier anymore."
      }
    }
  }
}