{
  "contractName": "VirtualPowerPlant",
  "abi": [
    {
      "constant": true,
      "inputs": [],
      "name": "numAdmins",
      "outputs": [
        {
          "name": "",
          "type": "uint256"
        }
      ],
      "payable": false,
      "stateMutability": "view",
      "type": "function",
      "signature": "0x0efd4989"
    },
    {
      "constant": true,
      "inputs": [],
      "name": "batteryEnergyContract",
      "outputs": [
        {
          "name": "",
          "type": "address"
        }
      ],
      "payable": false,
      "stateMutability": "view",
      "type": "function",
      "signature": "0x13c1d396"
    },
    {
      "constant": true,
      "inputs": [
        {
          "name": "",
          "type": "address"
        }
      ],
      "name": "admins",
      "outputs": [
        {
          "name": "",
          "type": "bool"
        }
      ],
      "payable": false,
      "stateMutability": "view",
      "type": "function",
      "signature": "0x429b62e5"
    },
    {
      "constant": true,
      "inputs": [
        {
          "name": "",
          "type": "uint256"
        }
      ],
      "name": "batteries",
      "outputs": [
        {
          "name": "capacity",
          "type": "uint256"
        },
        {
          "name": "currentFilled",
          "type": "uint256"
        },
        {
          "name": "dateAdded",
          "type": "uint256"
        },
        {
          "name": "cost",
          "type": "uint256"
        },
        {
          "name": "serialNumber",
          "type": "string"
        },
        {
          "name": "priceThreshold",
          "type": "uint256"
        },
        {
          "name": "chargeRate",
          "type": "uint256"
        },
        {
          "name": "active",
          "type": "bool"
        }
      ],
      "payable": false,
      "stateMutability": "view",
      "type": "function",
      "signature": "0x5f392c90"
    },
    {
      "constant": true,
      "inputs": [],
      "name": "batteryInvestmentContract",
      "outputs": [
        {
          "name": "",
          "type": "address"
        }
      ],
      "payable": false,
      "stateMutability": "view",
      "type": "function",
      "signature": "0x69777fce"
    },
    {
      "constant": true,
      "inputs": [],
      "name": "dividendPercentage",
      "outputs": [
        {
          "name": "",
          "type": "uint256"
        }
      ],
      "payable": false,
      "stateMutability": "view",
      "type": "function",
      "signature": "0x6bb80d51"
    },
    {
      "constant": false,
      "inputs": [],
      "name": "renounceOwnership",
      "outputs": [],
      "payable": false,
      "stateMutability": "nonpayable",
      "type": "function",
      "signature": "0x715018a6"
    },
    {
      "constant": true,
      "inputs": [],
      "name": "numBatteries",
      "outputs": [
        {
          "name": "",
          "type": "uint256"
        }
      ],
      "payable": false,
      "stateMutability": "view",
      "type": "function",
      "signature": "0x7ab9be18"
    },
    {
      "constant": true,
      "inputs": [],
      "name": "owner",
      "outputs": [
        {
          "name": "",
          "type": "address"
        }
      ],
      "payable": false,
      "stateMutability": "view",
      "type": "function",
      "signature": "0x8da5cb5b"
    },
    {
      "constant": true,
      "inputs": [],
      "name": "isOwner",
      "outputs": [
        {
          "name": "",
          "type": "bool"
        }
      ],
      "payable": false,
      "stateMutability": "view",
      "type": "function",
      "signature": "0x8f32d59b"
    },
    {
      "constant": true,
      "inputs": [],
      "name": "batteryEnergyAddress",
      "outputs": [
        {
          "name": "",
          "type": "address"
        }
      ],
      "payable": false,
      "stateMutability": "view",
      "type": "function",
      "signature": "0xc7177dad"
    },
    {
      "constant": true,
      "inputs": [],
      "name": "batteryInvestmentAddress",
      "outputs": [
        {
          "name": "",
          "type": "address"
        }
      ],
      "payable": false,
      "stateMutability": "view",
      "type": "function",
      "signature": "0xdc4d0fd8"
    },
    {
      "constant": false,
      "inputs": [
        {
          "name": "newOwner",
          "type": "address"
        }
      ],
      "name": "transferOwnership",
      "outputs": [],
      "payable": false,
      "stateMutability": "nonpayable",
      "type": "function",
      "signature": "0xf2fde38b"
    },
    {
      "constant": true,
      "inputs": [],
      "name": "virtualPowerPlantAddress",
      "outputs": [
        {
          "name": "",
          "type": "address"
        }
      ],
      "payable": false,
      "stateMutability": "view",
      "type": "function",
      "signature": "0xfeb663d0"
    },
    {
      "inputs": [],
      "payable": false,
      "stateMutability": "nonpayable",
      "type": "constructor",
      "signature": "constructor"
    },
    {
      "payable": false,
      "stateMutability": "nonpayable",
      "type": "fallback"
    },
    {
      "anonymous": false,
      "inputs": [
        {
          "indexed": false,
          "name": "investorAddress",
          "type": "address"
        },
        {
          "indexed": false,
          "name": "investmentAmount",
          "type": "uint256"
        }
      ],
      "name": "LogNewInvestment",
      "type": "event",
      "signature": "0x012335398b2ec0286f8c0396759e9608b4e163f51d06d11116dd801b2b47c60f"
    },
    {
      "anonymous": false,
      "inputs": [
        {
          "indexed": false,
          "name": "investorAddress",
          "type": "address"
        },
        {
          "indexed": false,
          "name": "withdrawalAmount",
          "type": "uint256"
        }
      ],
      "name": "LogWithdrawalMade",
      "type": "event",
      "signature": "0xa502fd41811afb69adfdfadf22b00a476d683cb0e8fcb04ecef9e331e2a26a6d"
    },
    {
      "anonymous": false,
      "inputs": [
        {
          "indexed": false,
          "name": "adminAddress",
          "type": "address"
        },
        {
          "indexed": false,
          "name": "status",
          "type": "bool"
        }
      ],
      "name": "LogChangeAdmin",
      "type": "event",
      "signature": "0x845cf4219f3b3b9a965f9be9881c40cdd5a1d3d4cc0732a19c72d42e9464f51e"
    },
    {
      "anonymous": false,
      "inputs": [
        {
          "indexed": false,
          "name": "serialNumber",
          "type": "string"
        },
        {
          "indexed": false,
          "name": "newStatus",
          "type": "bool"
        }
      ],
      "name": "LogBatteryActive",
      "type": "event",
      "signature": "0xeb63fe36f7fe71236106afdf166485094bc0b2c5d09a2d01506b815ec2973581"
    },
    {
      "anonymous": false,
      "inputs": [
        {
          "indexed": false,
          "name": "newThreshold",
          "type": "uint256"
        }
      ],
      "name": "LogBatteryThresholdChanged",
      "type": "event",
      "signature": "0xa6551cf039439f591ebe17eb5c0e3a1605a7be4c97483192e842e778851f0114"
    },
    {
      "anonymous": false,
      "inputs": [
        {
          "indexed": true,
          "name": "previousOwner",
          "type": "address"
        },
        {
          "indexed": true,
          "name": "newOwner",
          "type": "address"
        }
      ],
      "name": "OwnershipTransferred",
      "type": "event",
      "signature": "0x8be0079c531659141344cd1fd0a4f28419497f9722a3daafe3b4186f6b6457e0"
    },
    {
      "constant": false,
      "inputs": [
        {
          "name": "_capacity",
          "type": "uint256"
        },
        {
          "name": "_currentFilled",
          "type": "uint256"
        },
        {
          "name": "_cost",
          "type": "uint256"
        },
        {
          "name": "_serialNumber",
          "type": "string"
        },
        {
          "name": "_priceThreshold",
          "type": "uint256"
        },
        {
          "name": "_chargeRate",
          "type": "uint256"
        }
      ],
      "name": "addBattery",
      "outputs": [
        {
          "name": "batteryID",
          "type": "uint256"
        }
      ],
      "payable": false,
      "stateMutability": "nonpayable",
      "type": "function",
      "signature": "0xf6253de7"
    },
    {
      "constant": false,
      "inputs": [
        {
          "name": "_batteryID",
          "type": "uint256"
        },
        {
          "name": "_newThreshold",
          "type": "uint256"
        }
      ],
      "name": "changeBatteryThreshold",
      "outputs": [],
      "payable": false,
      "stateMutability": "nonpayable",
      "type": "function",
      "signature": "0xc312fe1a"
    },
    {
      "constant": false,
      "inputs": [
        {
          "name": "_batteryID",
          "type": "uint256"
        }
      ],
      "name": "decomissionBattery",
      "outputs": [],
      "payable": false,
      "stateMutability": "nonpayable",
      "type": "function",
      "signature": "0xecbc67ed"
    },
    {
      "constant": true,
      "inputs": [],
      "name": "getBatteryIDMax",
      "outputs": [
        {
          "name": "",
          "type": "uint256"
        }
      ],
      "payable": false,
      "stateMutability": "view",
      "type": "function",
      "signature": "0xcd54d44a"
    },
    {
      "constant": true,
      "inputs": [
        {
          "name": "_batteryID",
          "type": "uint256"
        }
      ],
      "name": "getBatteryCapacityRemaining",
      "outputs": [
        {
          "name": "remaining",
          "type": "uint256"
        }
      ],
      "payable": false,
      "stateMutability": "view",
      "type": "function",
      "signature": "0xfc7c6a12"
    },
    {
      "constant": true,
      "inputs": [
        {
          "name": "_batteryID",
          "type": "uint256"
        }
      ],
      "name": "getBatteryChargeRate",
      "outputs": [
        {
          "name": "",
          "type": "uint256"
        }
      ],
      "payable": false,
      "stateMutability": "view",
      "type": "function",
      "signature": "0xe58260ae"
    },
    {
      "constant": false,
      "inputs": [
        {
          "name": "_newAdminAddress",
          "type": "address"
        },
        {
          "name": "_adminStatus",
          "type": "bool"
        }
      ],
      "name": "changeAdmin",
      "outputs": [],
      "payable": false,
      "stateMutability": "nonpayable",
      "type": "function",
      "signature": "0xdc11a496"
    }
  ],
  "bytecode": "0x6080604052600060075560006008553480156200001b57600080fd5b50336000806101000a81548173ffffffffffffffffffffffffffffffffffffffff021916908373ffffffffffffffffffffffffffffffffffffffff1602179055506000809054906101000a900473ffffffffffffffffffffffffffffffffffffffff1673ffffffffffffffffffffffffffffffffffffffff16600073ffffffffffffffffffffffffffffffffffffffff167f8be0079c531659141344cd1fd0a4f28419497f9722a3daafe3b4186f6b6457e060405160405180910390a360016009819055506001600a60003373ffffffffffffffffffffffffffffffffffffffff1673ffffffffffffffffffffffffffffffffffffffff16815260200190815260200160002060006101000a81548160ff02191690831515021790555030600460006101000a81548173ffffffffffffffffffffffffffffffffffffffff021916908373ffffffffffffffffffffffffffffffffffffffff160217905550600460009054906101000a900473ffffffffffffffffffffffffffffffffffffffff16620001a6620003c7565b808273ffffffffffffffffffffffffffffffffffffffff1673ffffffffffffffffffffffffffffffffffffffff168152602001915050604051809103906000f080158015620001f9573d6000803e3d6000fd5b50600260006101000a81548173ffffffffffffffffffffffffffffffffffffffff021916908373ffffffffffffffffffffffffffffffffffffffff160217905550600260009054906101000a900473ffffffffffffffffffffffffffffffffffffffff16600560006101000a81548173ffffffffffffffffffffffffffffffffffffffff021916908373ffffffffffffffffffffffffffffffffffffffff160217905550600460009054906101000a900473ffffffffffffffffffffffffffffffffffffffff16620002ca620003d8565b808273ffffffffffffffffffffffffffffffffffffffff1673ffffffffffffffffffffffffffffffffffffffff168152602001915050604051809103906000f0801580156200031d573d6000803e3d6000fd5b50600360006101000a81548173ffffffffffffffffffffffffffffffffffffffff021916908373ffffffffffffffffffffffffffffffffffffffff160217905550600360009054906101000a900473ffffffffffffffffffffffffffffffffffffffff16600660006101000a81548173ffffffffffffffffffffffffffffffffffffffff021916908373ffffffffffffffffffffffffffffffffffffffff160217905550620003e9565b604051610d408062001d2983390190565b604051610ec98062002a6983390190565b61193080620003f96000396000f3fe60806040526004361061011d576000357c0100000000000000000000000000000000000000000000000000000000900463ffffffff1680630efd49891461012f57806313c1d3961461015a578063429b62e5146101b15780635f392c901461021a57806369777fce146103035780636bb80d511461035a578063715018a6146103855780637ab9be181461039c5780638da5cb5b146103c75780638f32d59b1461041e578063c312fe1a1461044d578063c7177dad14610492578063cd54d44a146104e9578063dc11a49614610514578063dc4d0fd814610571578063e58260ae146105c8578063ecbc67ed14610617578063f2fde38b14610652578063f6253de7146106a3578063fc7c6a12146107b1578063feb663d014610800575b34801561012957600080fd5b50600080fd5b34801561013b57600080fd5b50610144610857565b6040518082815260200191505060405180910390f35b34801561016657600080fd5b5061016f61085d565b604051808273ffffffffffffffffffffffffffffffffffffffff1673ffffffffffffffffffffffffffffffffffffffff16815260200191505060405180910390f35b3480156101bd57600080fd5b50610200600480360360208110156101d457600080fd5b81019080803573ffffffffffffffffffffffffffffffffffffffff169060200190929190505050610883565b604051808215151515815260200191505060405180910390f35b34801561022657600080fd5b506102536004803603602081101561023d57600080fd5b81019080803590602001909291905050506108a3565b604051808981526020018881526020018781526020018681526020018060200185815260200184815260200183151515158152602001828103825286818151815260200191508051906020019080838360005b838110156102c15780820151818401526020810190506102a6565b50505050905090810190601f1680156102ee5780820380516001836020036101000a031916815260200191505b50995050505050505050505060405180910390f35b34801561030f57600080fd5b5061031861099f565b604051808273ffffffffffffffffffffffffffffffffffffffff1673ffffffffffffffffffffffffffffffffffffffff16815260200191505060405180910390f35b34801561036657600080fd5b5061036f6109c5565b6040518082815260200191505060405180910390f35b34801561039157600080fd5b5061039a6109cb565b005b3480156103a857600080fd5b506103b1610a9d565b6040518082815260200191505060405180910390f35b3480156103d357600080fd5b506103dc610aa3565b604051808273ffffffffffffffffffffffffffffffffffffffff1673ffffffffffffffffffffffffffffffffffffffff16815260200191505060405180910390f35b34801561042a57600080fd5b50610433610acc565b604051808215151515815260200191505060405180910390f35b34801561045957600080fd5b506104906004803603604081101561047057600080fd5b810190808035906020019092919080359060200190929190505050610b23565b005b34801561049e57600080fd5b506104a7610c5b565b604051808273ffffffffffffffffffffffffffffffffffffffff1673ffffffffffffffffffffffffffffffffffffffff16815260200191505060405180910390f35b3480156104f557600080fd5b506104fe610c81565b6040518082815260200191505060405180910390f35b34801561052057600080fd5b5061056f6004803603604081101561053757600080fd5b81019080803573ffffffffffffffffffffffffffffffffffffffff169060200190929190803515159060200190929190505050610c8e565b005b34801561057d57600080fd5b50610586610da3565b604051808273ffffffffffffffffffffffffffffffffffffffff1673ffffffffffffffffffffffffffffffffffffffff16815260200191505060405180910390f35b3480156105d457600080fd5b50610601600480360360208110156105eb57600080fd5b8101908080359060200190929190505050610dc9565b6040518082815260200191505060405180910390f35b34801561062357600080fd5b506106506004803603602081101561063a57600080fd5b8101908080359060200190929190505050610df3565b005b34801561065e57600080fd5b506106a16004803603602081101561067557600080fd5b81019080803573ffffffffffffffffffffffffffffffffffffffff169060200190929190505050611015565b005b3480156106af57600080fd5b5061079b600480360360c08110156106c657600080fd5b810190808035906020019092919080359060200190929190803590602001909291908035906020019064010000000081111561070157600080fd5b82018360208201111561071357600080fd5b8035906020019184600183028401116401000000008311171561073557600080fd5b91908080601f016020809104026020016040519081016040528093929190818152602001838380828437600081840152601f19601f8201169050808301925050505050505091929192908035906020019092919080359060200190929190505050611034565b6040518082815260200191505060405180910390f35b3480156107bd57600080fd5b506107ea600480360360208110156107d457600080fd5b81019080803590602001909291905050506116df565b6040518082815260200191505060405180910390f35b34801561080c57600080fd5b5061081561173f565b604051808273ffffffffffffffffffffffffffffffffffffffff1673ffffffffffffffffffffffffffffffffffffffff16815260200191505060405180910390f35b60085481565b600360009054906101000a900473ffffffffffffffffffffffffffffffffffffffff1681565b600a6020528060005260406000206000915054906101000a900460ff1681565b6001818154811015156108b257fe5b9060005260206000209060080201600091509050806000015490806001015490806002015490806003015490806004018054600181600116156101000203166002900480601f0160208091040260200160405190810160405280929190818152602001828054600181600116156101000203166002900480156109765780601f1061094b57610100808354040283529160200191610976565b820191906000526020600020905b81548152906001019060200180831161095957829003601f168201915b5050505050908060050154908060060154908060070160009054906101000a900460ff16905088565b600260009054906101000a900473ffffffffffffffffffffffffffffffffffffffff1681565b60095481565b6109d3610acc565b15156109de57600080fd5b600073ffffffffffffffffffffffffffffffffffffffff166000809054906101000a900473ffffffffffffffffffffffffffffffffffffffff1673ffffffffffffffffffffffffffffffffffffffff167f8be0079c531659141344cd1fd0a4f28419497f9722a3daafe3b4186f6b6457e060405160405180910390a360008060006101000a81548173ffffffffffffffffffffffffffffffffffffffff021916908373ffffffffffffffffffffffffffffffffffffffff160217905550565b60075481565b60008060009054906101000a900473ffffffffffffffffffffffffffffffffffffffff16905090565b60008060009054906101000a900473ffffffffffffffffffffffffffffffffffffffff1673ffffffffffffffffffffffffffffffffffffffff163373ffffffffffffffffffffffffffffffffffffffff1614905090565b60011515600a60003373ffffffffffffffffffffffffffffffffffffffff1673ffffffffffffffffffffffffffffffffffffffff16815260200190815260200160002060009054906101000a900460ff161515141515610beb576040517f08c379a00000000000000000000000000000000000000000000000000000000081526004018080602001828103825260118152602001807f6e6f7420612076616c69642041646d696e00000000000000000000000000000081525060200191505060405180910390fd5b60008110151515610bfb57600080fd5b80600183815481101515610c0b57fe5b9060005260206000209060080201600501819055507fa6551cf039439f591ebe17eb5c0e3a1605a7be4c97483192e842e778851f0114816040518082815260200191505060405180910390a15050565b600660009054906101000a900473ffffffffffffffffffffffffffffffffffffffff1681565b6000600180549050905090565b610c96610acc565b1515610ca157600080fd5b80600a60008473ffffffffffffffffffffffffffffffffffffffff1673ffffffffffffffffffffffffffffffffffffffff16815260200190815260200160002060006101000a81548160ff021916908315150217905550600115158115151415610d1c57600860008154809291906001019190505550610d30565b600860008154809291906001900391905055505b7f845cf4219f3b3b9a965f9be9881c40cdd5a1d3d4cc0732a19c72d42e9464f51e8282604051808373ffffffffffffffffffffffffffffffffffffffff1673ffffffffffffffffffffffffffffffffffffffff168152602001821515151581526020019250505060405180910390a15050565b600560009054906101000a900473ffffffffffffffffffffffffffffffffffffffff1681565b6000600182815481101515610dda57fe5b9060005260206000209060080201600601549050919050565b60011515600a60003373ffffffffffffffffffffffffffffffffffffffff1673ffffffffffffffffffffffffffffffffffffffff16815260200190815260200160002060009054906101000a900460ff161515141515610ebb576040517f08c379a00000000000000000000000000000000000000000000000000000000081526004018080602001828103825260118152602001807f6e6f7420612076616c69642041646d696e00000000000000000000000000000081525060200191505060405180910390fd5b600181815481101515610eca57fe5b906000526020600020906008020160070160009054906101000a900460ff161515610ef457600080fd5b6000600182815481101515610f0557fe5b906000526020600020906008020160070160006101000a81548160ff0219169083151502179055507feb63fe36f7fe71236106afdf166485094bc0b2c5d09a2d01506b815ec2973581600182815481101515610f5d57fe5b906000526020600020906008020160040160006040518080602001831515151581526020018281038252848181546001816001161561010002031660029004815260200191508054600181600116156101000203166002900480156110035780601f10610fd857610100808354040283529160200191611003565b820191906000526020600020905b815481529060010190602001808311610fe657829003601f168201915b5050935050505060405180910390a150565b61101d610acc565b151561102857600080fd5b61103181611765565b50565b600060011515600a60003373ffffffffffffffffffffffffffffffffffffffff1673ffffffffffffffffffffffffffffffffffffffff16815260200190815260200160002060009054906101000a900460ff1615151415156110fe576040517f08c379a00000000000000000000000000000000000000000000000000000000081526004018080602001828103825260118152602001807f6e6f7420612076616c69642041646d696e00000000000000000000000000000081525060200191505060405180910390fd5b868686858284101515156111a0576040517f08c379a00000000000000000000000000000000000000000000000000000000081526004018080602001828103825260228152602001807f4361706163697479206d7573742065786365656420616d6f756e742066696c6c81526020017f656400000000000000000000000000000000000000000000000000000000000081525060400191505060405180910390fd5b81600260009054906101000a900473ffffffffffffffffffffffffffffffffffffffff1673ffffffffffffffffffffffffffffffffffffffff1663af5cfae86040518163ffffffff167c010000000000000000000000000000000000000000000000000000000002815260040160206040518083038186803b15801561122557600080fd5b505afa158015611239573d6000803e3d6000fd5b505050506040513d602081101561124f57600080fd5b8101908080519060200190929190505050101515156112fc576040517f08c379a00000000000000000000000000000000000000000000000000000000081526004018080602001828103825260218152602001807f4e6f7420656e6f75676820696e766573746d656e7420746f207075726368617381526020017f650000000000000000000000000000000000000000000000000000000000000081525060400191505060405180910390fd5b6000811015151561139b576040517f08c379a00000000000000000000000000000000000000000000000000000000081526004018080602001828103825260218152602001807f4d757374206861766520612076616c6964207072696365207468726573686f6c81526020017f640000000000000000000000000000000000000000000000000000000000000081525060400191505060405180910390fd5b6001610100604051908101604052808d81526020018c81526020014281526020018b81526020018a8152602001898152602001888152602001600115158152509080600181540180825580915050906001820390600052602060002090600802016000909192909190915060008201518160000155602082015181600101556040820151816002015560608201518160030155608082015181600401908051906020019061144a92919061185f565b5060a0820151816005015560c0820151816006015560e08201518160070160006101000a81548160ff02191690831515021790555050505060076000815480929190600101919050559450600089600260009054906101000a900473ffffffffffffffffffffffffffffffffffffffff1673ffffffffffffffffffffffffffffffffffffffff1663af5cfae86040518163ffffffff167c010000000000000000000000000000000000000000000000000000000002815260040160206040518083038186803b15801561151c57600080fd5b505afa158015611530573d6000803e3d6000fd5b505050506040513d602081101561154657600080fd5b8101908080519060200190929190505050039050600260009054906101000a900473ffffffffffffffffffffffffffffffffffffffff1673ffffffffffffffffffffffffffffffffffffffff1663a342766b826040518263ffffffff167c010000000000000000000000000000000000000000000000000000000002815260040180828152602001915050602060405180830381600087803b1580156115eb57600080fd5b505af11580156115ff573d6000803e3d6000fd5b505050506040513d602081101561161557600080fd5b8101908080519060200190929190505050507feb63fe36f7fe71236106afdf166485094bc0b2c5d09a2d01506b815ec2973581896001604051808060200183151515158152602001828103825284818151815260200191508051906020019080838360005b8381101561169557808201518184015260208101905061167a565b50505050905090810190601f1680156116c25780820380516001836020036101000a031916815260200191505b50935050505060405180910390a150505050509695505050505050565b60006001828154811015156116f057fe5b90600052602060002090600802016001015460018381548110151561171157fe5b906000526020600020906008020160000154039050600081111515611739576000905061173a565b5b919050565b600460009054906101000a900473ffffffffffffffffffffffffffffffffffffffff1681565b600073ffffffffffffffffffffffffffffffffffffffff168173ffffffffffffffffffffffffffffffffffffffff16141515156117a157600080fd5b8073ffffffffffffffffffffffffffffffffffffffff166000809054906101000a900473ffffffffffffffffffffffffffffffffffffffff1673ffffffffffffffffffffffffffffffffffffffff167f8be0079c531659141344cd1fd0a4f28419497f9722a3daafe3b4186f6b6457e060405160405180910390a3806000806101000a81548173ffffffffffffffffffffffffffffffffffffffff021916908373ffffffffffffffffffffffffffffffffffffffff16021790555050565b828054600181600116156101000203166002900490600052602060002090601f016020900481019282601f106118a057805160ff19168380011785556118ce565b828001600101855582156118ce579182015b828111156118cd5782518255916020019190600101906118b2565b5b5090506118db91906118df565b5090565b61190191905b808211156118fd5760008160009055506001016118e5565b5090565b9056fea165627a7a723058200d0fa9db8c601240649f01d8e04bd3a4c937bc69631fa5344410f350d7f3791a002960806040526001805534801561001457600080fd5b50604051602080610d408339810180604052602081101561003457600080fd5b8101908080519060200190929190505050806000806101000a81548173ffffffffffffffffffffffffffffffffffffffff021916908373ffffffffffffffffffffffffffffffffffffffff16021790555050610cab806100956000396000f3fe6080604052600436106100ba576000357c0100000000000000000000000000000000000000000000000000000000900463ffffffff168063061c67941461013557806310ea13df146101605780632ccc87271461018b578063370a3918146102065780633ccfd60b146102355780636bb80d511461023f57806379ebb6c41461026a578063973a9a8214610313578063a342766b1461031d578063af5cfae814610370578063f3f437031461039b578063feb663d014610400575b3480156100c657600080fd5b506040517f08c379a00000000000000000000000000000000000000000000000000000000081526004018080602001828103825260118152602001807f46616c6c6261636b2066756e6374696f6e00000000000000000000000000000081525060200191505060405180910390fd5b34801561014157600080fd5b5061014a610457565b6040518082815260200191505060405180910390f35b34801561016c57600080fd5b5061017561045d565b6040518082815260200191505060405180910390f35b34801561019757600080fd5b506101c4600480360360208110156101ae57600080fd5b8101908080359060200190929190505050610463565b604051808273ffffffffffffffffffffffffffffffffffffffff1673ffffffffffffffffffffffffffffffffffffffff16815260200191505060405180910390f35b34801561021257600080fd5b5061021b6104a1565b604051808215151515815260200191505060405180910390f35b61023d610551565b005b34801561024b57600080fd5b50610254610746565b6040518082815260200191505060405180910390f35b34801561027657600080fd5b506102c36004803603604081101561028d57600080fd5b81019080803573ffffffffffffffffffffffffffffffffffffffff1690602001909291908035906020019092919050505061074c565b604051808473ffffffffffffffffffffffffffffffffffffffff1673ffffffffffffffffffffffffffffffffffffffff168152602001838152602001828152602001935050505060405180910390f35b61031b6107b2565b005b34801561032957600080fd5b506103566004803603602081101561034057600080fd5b8101908080359060200190929190505050610a1f565b604051808215151515815260200191505060405180910390f35b34801561037c57600080fd5b50610385610a31565b6040518082815260200191505060405180910390f35b3480156103a757600080fd5b506103ea600480360360208110156103be57600080fd5b81019080803573ffffffffffffffffffffffffffffffffffffffff169060200190929190505050610a37565b6040518082815260200191505060405180910390f35b34801561040c57600080fd5b50610415610a4f565b604051808273ffffffffffffffffffffffffffffffffffffffff1673ffffffffffffffffffffffffffffffffffffffff16815260200191505060405180910390f35b60045481565b60015481565b60058181548110151561047257fe5b906000526020600020016000915054906101000a900473ffffffffffffffffffffffffffffffffffffffff1681565b60008060025411151561051c576040517f08c379a00000000000000000000000000000000000000000000000000000000081526004018080602001828103825260168152602001807f4e6f20617661696c61626c65206469766964656e64730000000000000000000081525060200191505060405180910390fd5b600060646003546002540281151561053057fe5b0490508060046000828254019250508190555061054b610a74565b91505090565b6000600660003373ffffffffffffffffffffffffffffffffffffffff1673ffffffffffffffffffffffffffffffffffffffff16815260200190815260200160002054111515610608576040517f08c379a00000000000000000000000000000000000000000000000000000000081526004018080602001828103825260208152602001807f4164647265737320686173206e6f207769746864726177616c20616d6f756e7481525060200191505060405180910390fd5b6000600660003373ffffffffffffffffffffffffffffffffffffffff1673ffffffffffffffffffffffffffffffffffffffff1681526020019081526020016000205490506000600660003373ffffffffffffffffffffffffffffffffffffffff1673ffffffffffffffffffffffffffffffffffffffff168152602001908152602001600020819055503373ffffffffffffffffffffffffffffffffffffffff166108fc829081150290604051600060405180830381858888f193505050501580156106d7573d6000803e3d6000fd5b507fa502fd41811afb69adfdfadf22b00a476d683cb0e8fcb04ecef9e331e2a26a6d3382604051808373ffffffffffffffffffffffffffffffffffffffff1673ffffffffffffffffffffffffffffffffffffffff1681526020018281526020019250505060405180910390a150565b60035481565b60076020528160005260406000208181548110151561076757fe5b9060005260206000209060030201600091509150508060000160009054906101000a900473ffffffffffffffffffffffffffffffffffffffff16908060010154908060020154905083565b60003411151561082a576040517f08c379a000000000000000000000000000000000000000000000000000000000815260040180806020018281038252601a8152602001807f41747461636820616e20696e766573746d656e742076616c756500000000000081525060200191505060405180910390fd5b6000349050600760003373ffffffffffffffffffffffffffffffffffffffff1673ffffffffffffffffffffffffffffffffffffffff1681526020019081526020016000206060604051908101604052803373ffffffffffffffffffffffffffffffffffffffff168152602001428152602001838152509080600181540180825580915050906001820390600052602060002090600302016000909192909190915060008201518160000160006101000a81548173ffffffffffffffffffffffffffffffffffffffff021916908373ffffffffffffffffffffffffffffffffffffffff160217905550602082015181600101556040820151816002015550505060053390806001815401808255809150509060018203906000526020600020016000909192909190916101000a81548173ffffffffffffffffffffffffffffffffffffffff021916908373ffffffffffffffffffffffffffffffffffffffff16021790555050806001600082825401925050819055506002546002600082825401925050819055507f012335398b2ec0286f8c0396759e9608b4e163f51d06d11116dd801b2b47c60f3382604051808373ffffffffffffffffffffffffffffffffffffffff1673ffffffffffffffffffffffffffffffffffffffff1681526020018281526020019250505060405180910390a150565b60008160028190555060019050919050565b60025481565b60066020528060005260406000206000915090505481565b6000809054906101000a900473ffffffffffffffffffffffffffffffffffffffff1681565b600080600090505b600580549050811015610c77576000600582815481101515610a9a57fe5b9060005260206000200160009054906101000a900473ffffffffffffffffffffffffffffffffffffffff169050600080600090505b600760008473ffffffffffffffffffffffffffffffffffffffff1673ffffffffffffffffffffffffffffffffffffffff16815260200190815260200160002080549050811015610b8857600760008473ffffffffffffffffffffffffffffffffffffffff1673ffffffffffffffffffffffffffffffffffffffff16815260200190815260200160002081815481101515610b6557fe5b906000526020600020906003020160020154820191508080600101915050610acf565b5060006001548260045402811515610b9c57fe5b04905080600660008573ffffffffffffffffffffffffffffffffffffffff1673ffffffffffffffffffffffffffffffffffffffff16815260200190815260200160002060008282540192505081905550806004600082825403925050819055507f42f69d5213292b7ba6e1e5a1f251f6edca6f86e95f14e89871ebb5e9fa5099b88382604051808373ffffffffffffffffffffffffffffffffffffffff1673ffffffffffffffffffffffffffffffffffffffff1681526020018281526020019250505060405180910390a15050508080600101915050610a7c565b50600190509056fea165627a7a72305820240b5c9ac840bab5d44d67478d9046bb9b6d3bbae0eb3d65b08f9e9307a6b3e300296080604052610e1060025534801561001657600080fd5b50604051602080610ec98339810180604052602081101561003657600080fd5b810190808051906020019092919050505080600160006101000a81548173ffffffffffffffffffffffffffffffffffffffff021916908373ffffffffffffffffffffffffffffffffffffffff160217905550806000806101000a81548173ffffffffffffffffffffffffffffffffffffffff021916908373ffffffffffffffffffffffffffffffffffffffff16021790555050610df1806100d86000396000f3fe608060405260043610610057576000357c0100000000000000000000000000000000000000000000000000000000900463ffffffff1680630fc646911461005c5780634fef236414610087578063feb663d0146100b2575b600080fd5b34801561006857600080fd5b50610071610109565b6040518082815260200191505060405180910390f35b34801561009357600080fd5b5061009c61010f565b6040518082815260200191505060405180910390f35b3480156100be57600080fd5b506100c761079e565b604051808273ffffffffffffffffffffffffffffffffffffffff1673ffffffffffffffffffffffffffffffffffffffff16815260200191505060405180910390f35b60025481565b6000806000809054906101000a900473ffffffffffffffffffffffffffffffffffffffff1673ffffffffffffffffffffffffffffffffffffffff1663cd54d44a6040518163ffffffff167c010000000000000000000000000000000000000000000000000000000002815260040160206040518083038186803b15801561019557600080fd5b505afa1580156101a9573d6000803e3d6000fd5b505050506040513d60208110156101bf57600080fd5b8101908080519060200190929190505050905060006101dc6107c4565b905060008090505b82811015610798577f43e0d79edab99ad436795e03537a27e8192b11095f7d9e54e8748f538f75910c816040518082815260200191505060405180910390a160008060009054906101000a900473ffffffffffffffffffffffffffffffffffffffff1673ffffffffffffffffffffffffffffffffffffffff166369777fce6040518163ffffffff167c010000000000000000000000000000000000000000000000000000000002815260040160206040518083038186803b1580156102a857600080fd5b505afa1580156102bc573d6000803e3d6000fd5b505050506040513d60208110156102d257600080fd5b810190808051906020019092919050505073ffffffffffffffffffffffffffffffffffffffff1663af5cfae86040518163ffffffff167c010000000000000000000000000000000000000000000000000000000002815260040160206040518083038186803b15801561034457600080fd5b505afa158015610358573d6000803e3d6000fd5b505050506040513d602081101561036e57600080fd5b810190808051906020019092919050505011151561038b57600080fd5b600080600080606060008060008060009054906101000a900473ffffffffffffffffffffffffffffffffffffffff1673ffffffffffffffffffffffffffffffffffffffff16635f392c908a6040518263ffffffff167c01000000000000000000000000000000000000000000000000000000000281526004018082815260200191505060006040518083038186803b15801561042657600080fd5b505afa15801561043a573d6000803e3d6000fd5b505050506040513d6000823e3d601f19601f8201168201806040525061010081101561046557600080fd5b810190808051906020019092919080519060200190929190805190602001909291908051906020019092919080516401000000008111156104a557600080fd5b828101905060208101848111156104bb57600080fd5b81518560018202830111640100000000821117156104d857600080fd5b5050929190602001805190602001909291908051906020019092919080519060200190929190505050975097509750975097509750975097506000878903905060008111158061052c575060001515821515145b1561053f5750505050505050505061078b565b610549848c6107cd565b1561078157600061055b848d846107da565b9050610567818d610990565b1561077f577f0b653bfdddfc30eea8a7592c320068fc3d8b9bd02cd23b28868c34542a7d60d886828e6000809054906101000a900473ffffffffffffffffffffffffffffffffffffffff1673ffffffffffffffffffffffffffffffffffffffff166369777fce6040518163ffffffff167c010000000000000000000000000000000000000000000000000000000002815260040160206040518083038186803b15801561061357600080fd5b505afa158015610627573d6000803e3d6000fd5b505050506040513d602081101561063d57600080fd5b810190808051906020019092919050505073ffffffffffffffffffffffffffffffffffffffff1663af5cfae86040518163ffffffff167c010000000000000000000000000000000000000000000000000000000002815260040160206040518083038186803b1580156106af57600080fd5b505afa1580156106c3573d6000803e3d6000fd5b505050506040513d60208110156106d957600080fd5b81019080805190602001909291905050506040518080602001858152602001848152602001838152602001828103825286818151815260200191508051906020019080838360005b8381101561073c578082015181840152602081019050610721565b50505050905090810190601f1680156107695780820380516001836020036101000a031916815260200191505b509550505050505060405180910390a1808e019d505b505b5050505050505050505b80806001019150506101e4565b50505090565b600160009054906101000a900473ffffffffffffffffffffffffffffffffffffffff1681565b60006001905090565b6000818311905092915050565b6000806107eb600254610e10610d22565b90506108006107fa8683610d4c565b84610d8a565b915060008060009054906101000a900473ffffffffffffffffffffffffffffffffffffffff1673ffffffffffffffffffffffffffffffffffffffff166369777fce6040518163ffffffff167c010000000000000000000000000000000000000000000000000000000002815260040160206040518083038186803b15801561088757600080fd5b505afa15801561089b573d6000803e3d6000fd5b505050506040513d60208110156108b157600080fd5b810190808051906020019092919050505073ffffffffffffffffffffffffffffffffffffffff1663af5cfae86040518163ffffffff167c010000000000000000000000000000000000000000000000000000000002815260040160206040518083038186803b15801561092357600080fd5b505afa158015610937573d6000803e3d6000fd5b505050506040513d602081101561094d57600080fd5b81019080805190602001909291905050509050600061096c8487610d4c565b905081811115610986578190506109838287610d22565b93505b5050509392505050565b600080610aff6000809054906101000a900473ffffffffffffffffffffffffffffffffffffffff1673ffffffffffffffffffffffffffffffffffffffff166369777fce6040518163ffffffff167c010000000000000000000000000000000000000000000000000000000002815260040160206040518083038186803b158015610a1957600080fd5b505afa158015610a2d573d6000803e3d6000fd5b505050506040513d6020811015610a4357600080fd5b810190808051906020019092919050505073ffffffffffffffffffffffffffffffffffffffff1663af5cfae86040518163ffffffff167c010000000000000000000000000000000000000000000000000000000002815260040160206040518083038186803b158015610ab557600080fd5b505afa158015610ac9573d6000803e3d6000fd5b505050506040513d6020811015610adf57600080fd5b8101908080519060200190929190505050610afa8686610d4c565b610da3565b905060008110151515610ba0576040517f08c379a00000000000000000000000000000000000000000000000000000000081526004018080602001828103825260268152602001807f4e6f7420656e6f756768206d6f6e657920746f206d616b65207468697320707581526020017f726368617365000000000000000000000000000000000000000000000000000081525060400191505060405180910390fd5b6000809054906101000a900473ffffffffffffffffffffffffffffffffffffffff1673ffffffffffffffffffffffffffffffffffffffff166369777fce6040518163ffffffff167c010000000000000000000000000000000000000000000000000000000002815260040160206040518083038186803b158015610c2357600080fd5b505afa158015610c37573d6000803e3d6000fd5b505050506040513d6020811015610c4d57600080fd5b810190808051906020019092919050505073ffffffffffffffffffffffffffffffffffffffff1663a342766b826040518263ffffffff167c010000000000000000000000000000000000000000000000000000000002815260040180828152602001915050602060405180830381600087803b158015610ccc57600080fd5b505af1158015610ce0573d6000803e3d6000fd5b505050506040513d6020811015610cf657600080fd5b810190808051906020019092919050505015610d16576001915050610d1c565b60009150505b92915050565b60008082111515610d3257600080fd5b60008284811515610d3f57fe5b0490508091505092915050565b600080831415610d5f5760009050610d84565b60008284029050828482811515610d7257fe5b04141515610d7f57600080fd5b809150505b92915050565b6000818310610d995781610d9b565b825b905092915050565b6000828211151515610db457600080fd5b60008284039050809150509291505056fea165627a7a72305820e381086d86cbb20cbcebd880b0a1466bb5df7222c522d04df8a52ffd58410f4d0029",
  "source": "pragma solidity >=0.5.0;\n\nimport \"./BatteryInvestment.sol\";\nimport \"./BatteryEnergy.sol\";\nimport \"./Ownable.sol\";\n\n/// @author Yan Man\n/// @title A Virtual Power Plant implementation. Consensys Final Project Winter 2018\ncontract VirtualPowerPlant is Ownable {\n\n    // Type declarations\n    struct Battery {\n        uint capacity;\n        uint currentFilled;\n        uint dateAdded;\n        uint cost;\n        string serialNumber;\n        uint priceThreshold;\n        uint chargeRate;\n        bool active;\n    }\n    Battery[] public batteries; //internal\n    BatteryInvestment public batteryInvestmentContract; // maybe external\n    BatteryEnergy public batteryEnergyContract;\n    // State variables\n    // address public owner;\n    address public virtualPowerPlantAddress;\n    address public batteryInvestmentAddress; //maybe external, only accessed by other contracts\n    address public batteryEnergyAddress;  //maybe can be external\n    uint public numBatteries = 0;\n    uint public numAdmins = 0;\n    uint public dividendPercentage;\n    // mapping(string => uint) public batteryMapping;\n    mapping(address => bool) public admins;\n\n    // Events\n    event LogNewInvestment (address investorAddress, uint investmentAmount);\n    event LogWithdrawalMade (address investorAddress, uint withdrawalAmount);\n    event LogChangeAdmin (address adminAddress, bool status);\n    event LogBatteryActive (string serialNumber, bool newStatus);\n    event LogBatteryThresholdChanged (uint newThreshold);\n\n    // Modifiers\n    // modifier onlyOwner { require(msg.sender == owner, \"not the valid Owner\"); _; }\n    modifier isAdminModifier { require(admins[msg.sender] == true, \"not a valid Admin\"); _; }\n    modifier isBatteryValidModifier (uint _capacity, uint _currentFilled, uint _cost, uint _priceThreshold) {\n        require(_capacity >= _currentFilled, \"Capacity must exceed amount filled\");\n        require(batteryInvestmentContract.remainingInvestment() >= _cost, \"Not enough investment to purchase\");\n        require(_priceThreshold >= 0, \"Must have a valid price threshold\");\n        _;\n    }\n\n    constructor () public {\n        // owner = msg.sender;\n        dividendPercentage = 1;\n        admins[msg.sender] = true;\n        virtualPowerPlantAddress = address(this);\n        batteryInvestmentContract = new BatteryInvestment(virtualPowerPlantAddress);\n        batteryInvestmentAddress = address(batteryInvestmentContract);\n        batteryEnergyContract = new BatteryEnergy(virtualPowerPlantAddress);\n        batteryEnergyAddress = address(batteryEnergyContract);\n    }\n\n    function () external {\n        revert();\n    }\n\n    // External functions\n    // ...\n\n    // External functions that are view\n    // ...\n\n    // External functions that are pure\n    // ...\n\n    // Public functions\n    // ...\n\n    // Internal functions\n    // ...\n\n    // Private functions\n    // ...\n\n    function addBattery (\n        uint _capacity,\n        uint _currentFilled,\n        uint _cost,\n        string memory _serialNumber,\n        uint _priceThreshold,\n        uint _chargeRate\n    )\n        public\n        isAdminModifier\n        isBatteryValidModifier(_capacity, _currentFilled, _cost, _priceThreshold)\n        returns (uint batteryID)\n    {\n        batteries.push(Battery({\n            capacity: _capacity,\n            currentFilled: _currentFilled,\n            dateAdded: now,\n            cost: _cost,\n            serialNumber: _serialNumber,\n            priceThreshold: _priceThreshold,\n            chargeRate: _chargeRate,\n            active: true\n        }));\n        batteryID = numBatteries++;\n        // batteryMapping[_serialNumber] = batteryID;\n        uint _newRemainingInvestment = batteryInvestmentContract.remainingInvestment() - _cost;\n        batteryInvestmentContract.updateRemainingInvestment(_newRemainingInvestment);\n        //   batteryInvestmentAddress.delegatecall(bytes4(keccak256(\"updateTotalInvestment(uint256)\")), _newTotalInvestment);\n        //   _contract.delegatecall(bytes4(keccak256(\"updateMyVariable(uint256)\")), newVar);\n        emit LogBatteryActive(_serialNumber, true);\n    }\n\n    function changeBatteryThreshold (uint _batteryID, uint _newThreshold)\n        public\n        isAdminModifier\n    {\n        require(_newThreshold >= 0);\n        batteries[_batteryID].priceThreshold = _newThreshold;\n        emit LogBatteryThresholdChanged(_newThreshold);\n    }\n\n    function decomissionBattery (uint _batteryID)\n        public\n        isAdminModifier\n    {\n        require(batteries[_batteryID].active);\n        batteries[_batteryID].active = false;\n        emit LogBatteryActive(batteries[_batteryID].serialNumber, false);\n    }\n\n    function getBatteryIDMax () public view returns (uint) {\n        return batteries.length;\n    }\n\n    function getBatteryCapacityRemaining (uint _batteryID) public view returns (uint remaining) {\n        remaining = batteries[_batteryID].capacity -  batteries[_batteryID].currentFilled;\n        if(remaining <= 0){\n            return 0;\n        }\n    }\n\n    function getBatteryChargeRate (uint _batteryID) public view returns (uint) {\n        return batteries[_batteryID].chargeRate;\n    }\n\n    function changeAdmin (address _newAdminAddress, bool _adminStatus)\n        public\n        onlyOwner\n    {\n        admins[_newAdminAddress] = _adminStatus;\n        if (_adminStatus == true) {\n            numAdmins++;\n        } else {\n            numAdmins--;\n        }\n        emit LogChangeAdmin(_newAdminAddress, _adminStatus);\n    }\n\n\n\n}\n",
  "sourcePath": "/Users/yan-dev/Documents/virtual-power-plant/contracts/VirtualPowerPlant.sol",
  "compiler": {
    "name": "solc",
    "version": "0.5.0+commit.1d4f565a.Emscripten.clang"
  },
  "schemaVersion": "3.0.0",
  "updatedAt": "2019-01-04T23:41:07.040Z",
  "devdoc": {
    "author": "Yan Man",
    "methods": {
      "isOwner()": {
        "return": "true if `msg.sender` is the owner of the contract."
      },
      "owner()": {
        "return": "the address of the owner."
      },
      "renounceOwnership()": {
        "details": "Allows the current owner to relinquish control of the contract."
      },
      "transferOwnership(address)": {
        "details": "Allows the current owner to transfer control of the contract to a newOwner.",
        "params": {
          "newOwner": "The address to transfer ownership to."
        }
      }
    },
    "title": "A Virtual Power Plant implementation. Consensys Final Project Winter 2018"
  },
  "userdoc": {
    "methods": {
      "renounceOwnership()": {
        "notice": "Renouncing to ownership will leave the contract without an owner. It will not be possible to call the functions with the `onlyOwner` modifier anymore."
      }
    }
  }
}