{
  "contractName": "VirtualPowerPlant",
  "abi": [
    {
      "constant": true,
      "inputs": [],
      "name": "numAdmins",
      "outputs": [
        {
          "name": "",
          "type": "uint256"
        }
      ],
      "payable": false,
      "stateMutability": "view",
      "type": "function",
      "signature": "0x0efd4989"
    },
    {
      "constant": true,
      "inputs": [],
      "name": "batteryEnergyContract",
      "outputs": [
        {
          "name": "",
          "type": "address"
        }
      ],
      "payable": false,
      "stateMutability": "view",
      "type": "function",
      "signature": "0x13c1d396"
    },
    {
      "constant": true,
      "inputs": [
        {
          "name": "",
          "type": "address"
        }
      ],
      "name": "admins",
      "outputs": [
        {
          "name": "",
          "type": "bool"
        }
      ],
      "payable": false,
      "stateMutability": "view",
      "type": "function",
      "signature": "0x429b62e5"
    },
    {
      "constant": true,
      "inputs": [
        {
          "name": "",
          "type": "uint256"
        }
      ],
      "name": "batteries",
      "outputs": [
        {
          "name": "capacity",
          "type": "uint256"
        },
        {
          "name": "currentFilled",
          "type": "uint256"
        },
        {
          "name": "dateAdded",
          "type": "uint256"
        },
        {
          "name": "cost",
          "type": "uint256"
        },
        {
          "name": "serialNumber",
          "type": "bytes32"
        },
        {
          "name": "priceThreshold",
          "type": "uint256"
        },
        {
          "name": "chargeRate",
          "type": "uint256"
        },
        {
          "name": "isActive",
          "type": "bool"
        },
        {
          "name": "mapIndex",
          "type": "uint256"
        }
      ],
      "payable": false,
      "stateMutability": "view",
      "type": "function",
      "signature": "0x5f392c90"
    },
    {
      "constant": true,
      "inputs": [
        {
          "name": "",
          "type": "uint256"
        }
      ],
      "name": "batteryMapping",
      "outputs": [
        {
          "name": "",
          "type": "uint256"
        }
      ],
      "payable": false,
      "stateMutability": "view",
      "type": "function",
      "signature": "0x64e98072"
    },
    {
      "constant": true,
      "inputs": [],
      "name": "batteryInvestmentContract",
      "outputs": [
        {
          "name": "",
          "type": "address"
        }
      ],
      "payable": false,
      "stateMutability": "view",
      "type": "function",
      "signature": "0x69777fce"
    },
    {
      "constant": true,
      "inputs": [
        {
          "name": "",
          "type": "uint256"
        }
      ],
      "name": "decommissionedBatteries",
      "outputs": [
        {
          "name": "capacity",
          "type": "uint256"
        },
        {
          "name": "currentFilled",
          "type": "uint256"
        },
        {
          "name": "dateAdded",
          "type": "uint256"
        },
        {
          "name": "cost",
          "type": "uint256"
        },
        {
          "name": "serialNumber",
          "type": "bytes32"
        },
        {
          "name": "priceThreshold",
          "type": "uint256"
        },
        {
          "name": "chargeRate",
          "type": "uint256"
        },
        {
          "name": "isActive",
          "type": "bool"
        },
        {
          "name": "mapIndex",
          "type": "uint256"
        }
      ],
      "payable": false,
      "stateMutability": "view",
      "type": "function",
      "signature": "0x70304e33"
    },
    {
      "constant": false,
      "inputs": [],
      "name": "renounceOwnership",
      "outputs": [],
      "payable": false,
      "stateMutability": "nonpayable",
      "type": "function",
      "signature": "0x715018a6"
    },
    {
      "constant": true,
      "inputs": [],
      "name": "numBatteries",
      "outputs": [
        {
          "name": "",
          "type": "uint256"
        }
      ],
      "payable": false,
      "stateMutability": "view",
      "type": "function",
      "signature": "0x7ab9be18"
    },
    {
      "constant": true,
      "inputs": [],
      "name": "owner",
      "outputs": [
        {
          "name": "",
          "type": "address"
        }
      ],
      "payable": false,
      "stateMutability": "view",
      "type": "function",
      "signature": "0x8da5cb5b"
    },
    {
      "constant": true,
      "inputs": [],
      "name": "isOwner",
      "outputs": [
        {
          "name": "",
          "type": "bool"
        }
      ],
      "payable": false,
      "stateMutability": "view",
      "type": "function",
      "signature": "0x8f32d59b"
    },
    {
      "constant": true,
      "inputs": [],
      "name": "batteryEnergyAddress",
      "outputs": [
        {
          "name": "",
          "type": "address"
        }
      ],
      "payable": false,
      "stateMutability": "view",
      "type": "function",
      "signature": "0xc7177dad"
    },
    {
      "constant": true,
      "inputs": [],
      "name": "batteryInvestmentAddress",
      "outputs": [
        {
          "name": "",
          "type": "address"
        }
      ],
      "payable": false,
      "stateMutability": "view",
      "type": "function",
      "signature": "0xdc4d0fd8"
    },
    {
      "constant": false,
      "inputs": [
        {
          "name": "newOwner",
          "type": "address"
        }
      ],
      "name": "transferOwnership",
      "outputs": [],
      "payable": false,
      "stateMutability": "nonpayable",
      "type": "function",
      "signature": "0xf2fde38b"
    },
    {
      "constant": true,
      "inputs": [],
      "name": "virtualPowerPlantAddress",
      "outputs": [
        {
          "name": "",
          "type": "address"
        }
      ],
      "payable": false,
      "stateMutability": "view",
      "type": "function",
      "signature": "0xfeb663d0"
    },
    {
      "inputs": [],
      "payable": false,
      "stateMutability": "nonpayable",
      "type": "constructor",
      "signature": "constructor"
    },
    {
      "anonymous": false,
      "inputs": [
        {
          "indexed": false,
          "name": "investorAddress",
          "type": "address"
        },
        {
          "indexed": false,
          "name": "investmentAmount",
          "type": "uint256"
        }
      ],
      "name": "LogNewInvestment",
      "type": "event",
      "signature": "0x012335398b2ec0286f8c0396759e9608b4e163f51d06d11116dd801b2b47c60f"
    },
    {
      "anonymous": false,
      "inputs": [
        {
          "indexed": false,
          "name": "investorAddress",
          "type": "address"
        },
        {
          "indexed": false,
          "name": "withdrawalAmount",
          "type": "uint256"
        }
      ],
      "name": "LogWithdrawalMade",
      "type": "event",
      "signature": "0xa502fd41811afb69adfdfadf22b00a476d683cb0e8fcb04ecef9e331e2a26a6d"
    },
    {
      "anonymous": false,
      "inputs": [
        {
          "indexed": false,
          "name": "adminAddress",
          "type": "address"
        },
        {
          "indexed": false,
          "name": "status",
          "type": "bool"
        }
      ],
      "name": "LogChangeAdmin",
      "type": "event",
      "signature": "0x845cf4219f3b3b9a965f9be9881c40cdd5a1d3d4cc0732a19c72d42e9464f51e"
    },
    {
      "anonymous": false,
      "inputs": [
        {
          "indexed": false,
          "name": "serialNumber",
          "type": "bytes32"
        },
        {
          "indexed": false,
          "name": "newStatus",
          "type": "bool"
        }
      ],
      "name": "LogBatteryActive",
      "type": "event",
      "signature": "0x30d85d5a522569ce310aa6c7c0440c91d487f54517033dbdf0842b674f82de07"
    },
    {
      "anonymous": false,
      "inputs": [
        {
          "indexed": false,
          "name": "newThreshold",
          "type": "uint256"
        }
      ],
      "name": "LogBatteryThresholdChanged",
      "type": "event",
      "signature": "0xa6551cf039439f591ebe17eb5c0e3a1605a7be4c97483192e842e778851f0114"
    },
    {
      "anonymous": false,
      "inputs": [
        {
          "indexed": true,
          "name": "previousOwner",
          "type": "address"
        },
        {
          "indexed": true,
          "name": "newOwner",
          "type": "address"
        }
      ],
      "name": "OwnershipTransferred",
      "type": "event",
      "signature": "0x8be0079c531659141344cd1fd0a4f28419497f9722a3daafe3b4186f6b6457e0"
    },
    {
      "constant": true,
      "inputs": [
        {
          "name": "adminAddress",
          "type": "address"
        }
      ],
      "name": "isAdmin",
      "outputs": [
        {
          "name": "",
          "type": "bool"
        }
      ],
      "payable": false,
      "stateMutability": "view",
      "type": "function",
      "signature": "0x24d7806c"
    },
    {
      "constant": false,
      "inputs": [
        {
          "name": "_capacity",
          "type": "uint256"
        },
        {
          "name": "_currentFilled",
          "type": "uint256"
        },
        {
          "name": "_cost",
          "type": "uint256"
        },
        {
          "name": "_serialNumber",
          "type": "bytes32"
        },
        {
          "name": "_priceThreshold",
          "type": "uint256"
        },
        {
          "name": "_chargeRate",
          "type": "uint256"
        }
      ],
      "name": "addBattery",
      "outputs": [
        {
          "name": "batteryID",
          "type": "uint256"
        }
      ],
      "payable": false,
      "stateMutability": "nonpayable",
      "type": "function",
      "signature": "0x839f81bd"
    },
    {
      "constant": false,
      "inputs": [
        {
          "name": "_batteryID",
          "type": "uint256"
        },
        {
          "name": "_chargeAmount",
          "type": "uint256"
        }
      ],
      "name": "chargeBattery",
      "outputs": [
        {
          "name": "",
          "type": "uint256"
        }
      ],
      "payable": false,
      "stateMutability": "nonpayable",
      "type": "function",
      "signature": "0x460fafbc"
    },
    {
      "constant": false,
      "inputs": [
        {
          "name": "_batteryID",
          "type": "uint256"
        },
        {
          "name": "_newThreshold",
          "type": "uint256"
        }
      ],
      "name": "changeBatteryThreshold",
      "outputs": [],
      "payable": false,
      "stateMutability": "nonpayable",
      "type": "function",
      "signature": "0xc312fe1a"
    },
    {
      "constant": false,
      "inputs": [
        {
          "name": "_batteryID",
          "type": "uint256"
        }
      ],
      "name": "decommissionBattery",
      "outputs": [
        {
          "name": "",
          "type": "uint256"
        }
      ],
      "payable": false,
      "stateMutability": "nonpayable",
      "type": "function",
      "signature": "0xa62e4a43"
    },
    {
      "constant": true,
      "inputs": [
        {
          "name": "_batteryID",
          "type": "uint256"
        }
      ],
      "name": "getRelevantBatteryInfo",
      "outputs": [
        {
          "name": "",
          "type": "uint256"
        },
        {
          "name": "",
          "type": "uint256"
        },
        {
          "name": "",
          "type": "bytes32"
        },
        {
          "name": "",
          "type": "uint256"
        },
        {
          "name": "",
          "type": "uint256"
        },
        {
          "name": "",
          "type": "bool"
        },
        {
          "name": "",
          "type": "uint256"
        }
      ],
      "payable": false,
      "stateMutability": "view",
      "type": "function",
      "signature": "0x3dcd20f4"
    },
    {
      "constant": true,
      "inputs": [
        {
          "name": "_batteryID",
          "type": "uint256"
        }
      ],
      "name": "getBatteryCapacityRemaining",
      "outputs": [
        {
          "name": "remaining",
          "type": "uint256"
        }
      ],
      "payable": false,
      "stateMutability": "view",
      "type": "function",
      "signature": "0xfc7c6a12"
    },
    {
      "constant": true,
      "inputs": [
        {
          "name": "_batteryID",
          "type": "uint256"
        }
      ],
      "name": "getBatteryChargeRate",
      "outputs": [
        {
          "name": "",
          "type": "uint256"
        }
      ],
      "payable": false,
      "stateMutability": "view",
      "type": "function",
      "signature": "0xe58260ae"
    },
    {
      "constant": true,
      "inputs": [
        {
          "name": "_batteryID",
          "type": "uint256"
        }
      ],
      "name": "getBatteryMapIndex",
      "outputs": [
        {
          "name": "",
          "type": "uint256"
        }
      ],
      "payable": false,
      "stateMutability": "view",
      "type": "function",
      "signature": "0x7f4912c5"
    },
    {
      "constant": false,
      "inputs": [],
      "name": "toggleContractActive",
      "outputs": [],
      "payable": false,
      "stateMutability": "nonpayable",
      "type": "function",
      "signature": "0x1385d24c"
    },
    {
      "constant": false,
      "inputs": [
        {
          "name": "_newAdminAddress",
          "type": "address"
        },
        {
          "name": "_adminStatus",
          "type": "bool"
        }
      ],
      "name": "setAdmin",
      "outputs": [],
      "payable": false,
      "stateMutability": "nonpayable",
      "type": "function",
      "signature": "0x4b0bddd2"
    }
  ],
  "bytecode": "0x60806040526000600460146101000a81548160ff021916908315150217905550600060085560006009553480156200003657600080fd5b50336000806101000a81548173ffffffffffffffffffffffffffffffffffffffff021916908373ffffffffffffffffffffffffffffffffffffffff1602179055506000809054906101000a900473ffffffffffffffffffffffffffffffffffffffff1673ffffffffffffffffffffffffffffffffffffffff16600073ffffffffffffffffffffffffffffffffffffffff167f8be0079c531659141344cd1fd0a4f28419497f9722a3daafe3b4186f6b6457e060405160405180910390a36200010f336001620003ad640100000000026401000000009004565b60006001905030600560006101000a81548173ffffffffffffffffffffffffffffffffffffffff021916908373ffffffffffffffffffffffffffffffffffffffff160217905550600560009054906101000a900473ffffffffffffffffffffffffffffffffffffffff1681620001846200052d565b808373ffffffffffffffffffffffffffffffffffffffff1673ffffffffffffffffffffffffffffffffffffffff16815260200182815260200192505050604051809103906000f080158015620001de573d6000803e3d6000fd5b50600360006101000a81548173ffffffffffffffffffffffffffffffffffffffff021916908373ffffffffffffffffffffffffffffffffffffffff160217905550600360009054906101000a900473ffffffffffffffffffffffffffffffffffffffff16600660006101000a81548173ffffffffffffffffffffffffffffffffffffffff021916908373ffffffffffffffffffffffffffffffffffffffff160217905550600560009054906101000a900473ffffffffffffffffffffffffffffffffffffffff16620002af6200053e565b808273ffffffffffffffffffffffffffffffffffffffff1673ffffffffffffffffffffffffffffffffffffffff168152602001915050604051809103906000f08015801562000302573d6000803e3d6000fd5b50600460006101000a81548173ffffffffffffffffffffffffffffffffffffffff021916908373ffffffffffffffffffffffffffffffffffffffff160217905550600460009054906101000a900473ffffffffffffffffffffffffffffffffffffffff16600760006101000a81548173ffffffffffffffffffffffffffffffffffffffff021916908373ffffffffffffffffffffffffffffffffffffffff160217905550506200054f565b620003c6620004d6640100000000026401000000009004565b1515620003d257600080fd5b80600b60008473ffffffffffffffffffffffffffffffffffffffff1673ffffffffffffffffffffffffffffffffffffffff16815260200190815260200160002060006101000a81548160ff0219169083151502179055506001151581151514156200044f5760096000815480929190600101919050555062000463565b600960008154809291906001900391905055505b7f845cf4219f3b3b9a965f9be9881c40cdd5a1d3d4cc0732a19c72d42e9464f51e8282604051808373ffffffffffffffffffffffffffffffffffffffff1673ffffffffffffffffffffffffffffffffffffffff168152602001821515151581526020019250505060405180910390a15050565b60008060009054906101000a900473ffffffffffffffffffffffffffffffffffffffff1673ffffffffffffffffffffffffffffffffffffffff163373ffffffffffffffffffffffffffffffffffffffff1614905090565b604051611588806200297883390190565b6040516114ac8062003f0083390190565b612419806200055f6000396000f3fe608060405260043610610154576000357c0100000000000000000000000000000000000000000000000000000000900463ffffffff1680630efd4989146101595780631385d24c1461018457806313c1d3961461019b57806324d7806c146101f25780633dcd20f41461025b578063429b62e5146102d8578063460fafbc146103415780634b0bddd21461039a5780635f392c90146103f757806364e980721461048257806369777fce146104d157806370304e3314610528578063715018a6146105b35780637ab9be18146105ca5780637f4912c5146105f5578063839f81bd146106445780638da5cb5b146106c55780638f32d59b1461071c578063a62e4a431461074b578063c312fe1a1461079a578063c7177dad146107df578063dc4d0fd814610836578063e58260ae1461088d578063f2fde38b146108dc578063fc7c6a121461092d578063feb663d01461097c575b600080fd5b34801561016557600080fd5b5061016e6109d3565b6040518082815260200191505060405180910390f35b34801561019057600080fd5b506101996109d9565b005b3480156101a757600080fd5b506101b0610b7f565b604051808273ffffffffffffffffffffffffffffffffffffffff1673ffffffffffffffffffffffffffffffffffffffff16815260200191505060405180910390f35b3480156101fe57600080fd5b506102416004803603602081101561021557600080fd5b81019080803573ffffffffffffffffffffffffffffffffffffffff169060200190929190505050610ba5565b604051808215151515815260200191505060405180910390f35b34801561026757600080fd5b506102946004803603602081101561027e57600080fd5b8101908080359060200190929190505050610d2a565b604051808881526020018781526020018681526020018581526020018481526020018315151515815260200182815260200197505050505050505060405180910390f35b3480156102e457600080fd5b50610327600480360360208110156102fb57600080fd5b81019080803573ffffffffffffffffffffffffffffffffffffffff169060200190929190505050610e42565b604051808215151515815260200191505060405180910390f35b34801561034d57600080fd5b506103846004803603604081101561036457600080fd5b810190808035906020019092919080359060200190929190505050610e62565b6040518082815260200191505060405180910390f35b3480156103a657600080fd5b506103f5600480360360408110156103bd57600080fd5b81019080803573ffffffffffffffffffffffffffffffffffffffff1690602001909291908035151590602001909291905050506110b6565b005b34801561040357600080fd5b506104306004803603602081101561041a57600080fd5b81019080803590602001909291905050506111cb565b604051808a815260200189815260200188815260200187815260200186815260200185815260200184815260200183151515158152602001828152602001995050505050505050505060405180910390f35b34801561048e57600080fd5b506104bb600480360360208110156104a557600080fd5b8101908080359060200190929190505050611235565b6040518082815260200191505060405180910390f35b3480156104dd57600080fd5b506104e6611258565b604051808273ffffffffffffffffffffffffffffffffffffffff1673ffffffffffffffffffffffffffffffffffffffff16815260200191505060405180910390f35b34801561053457600080fd5b506105616004803603602081101561054b57600080fd5b810190808035906020019092919050505061127e565b604051808a815260200189815260200188815260200187815260200186815260200185815260200184815260200183151515158152602001828152602001995050505050505050505060405180910390f35b3480156105bf57600080fd5b506105c86112e8565b005b3480156105d657600080fd5b506105df6113ba565b6040518082815260200191505060405180910390f35b34801561060157600080fd5b5061062e6004803603602081101561061857600080fd5b81019080803590602001909291905050506113c0565b6040518082815260200191505060405180910390f35b34801561065057600080fd5b506106af600480360360c081101561066757600080fd5b810190808035906020019092919080359060200190929190803590602001909291908035906020019092919080359060200190929190803590602001909291905050506113ea565b6040518082815260200191505060405180910390f35b3480156106d157600080fd5b506106da611b2a565b604051808273ffffffffffffffffffffffffffffffffffffffff1673ffffffffffffffffffffffffffffffffffffffff16815260200191505060405180910390f35b34801561072857600080fd5b50610731611b53565b604051808215151515815260200191505060405180910390f35b34801561075757600080fd5b506107846004803603602081101561076e57600080fd5b8101908080359060200190929190505050611baa565b6040518082815260200191505060405180910390f35b3480156107a657600080fd5b506107dd600480360360408110156107bd57600080fd5b810190808035906020019092919080359060200190929190505050611f86565b005b3480156107eb57600080fd5b506107f4612187565b604051808273ffffffffffffffffffffffffffffffffffffffff1673ffffffffffffffffffffffffffffffffffffffff16815260200191505060405180910390f35b34801561084257600080fd5b5061084b6121ad565b604051808273ffffffffffffffffffffffffffffffffffffffff1673ffffffffffffffffffffffffffffffffffffffff16815260200191505060405180910390f35b34801561089957600080fd5b506108c6600480360360208110156108b057600080fd5b81019080803590602001909291905050506121d3565b6040518082815260200191505060405180910390f35b3480156108e857600080fd5b5061092b600480360360208110156108ff57600080fd5b81019080803573ffffffffffffffffffffffffffffffffffffffff1690602001909291905050506121fd565b005b34801561093957600080fd5b506109666004803603602081101561095057600080fd5b810190808035906020019092919050505061221c565b6040518082815260200191505060405180910390f35b34801561098857600080fd5b5061099161227c565b604051808273ffffffffffffffffffffffffffffffffffffffff1673ffffffffffffffffffffffffffffffffffffffff16815260200191505060405180910390f35b60095481565b3360011515600b60008373ffffffffffffffffffffffffffffffffffffffff1673ffffffffffffffffffffffffffffffffffffffff16815260200190815260200160002060009054906101000a900460ff1615151480610a865750600660009054906101000a900473ffffffffffffffffffffffffffffffffffffffff1673ffffffffffffffffffffffffffffffffffffffff163373ffffffffffffffffffffffffffffffffffffffff16145b80610ade5750600760009054906101000a900473ffffffffffffffffffffffffffffffffffffffff1673ffffffffffffffffffffffffffffffffffffffff163373ffffffffffffffffffffffffffffffffffffffff16145b1515610b52576040517f08c379a00000000000000000000000000000000000000000000000000000000081526004018080602001828103825260118152602001807f6e6f7420612076616c69642041646d696e00000000000000000000000000000081525060200191505060405180910390fd5b600460149054906101000a900460ff1615600460146101000a81548160ff02191690831515021790555050565b600460009054906101000a900473ffffffffffffffffffffffffffffffffffffffff1681565b60008160011515600b60008373ffffffffffffffffffffffffffffffffffffffff1673ffffffffffffffffffffffffffffffffffffffff16815260200190815260200160002060009054906101000a900460ff1615151480610c545750600660009054906101000a900473ffffffffffffffffffffffffffffffffffffffff1673ffffffffffffffffffffffffffffffffffffffff163373ffffffffffffffffffffffffffffffffffffffff16145b80610cac5750600760009054906101000a900473ffffffffffffffffffffffffffffffffffffffff1673ffffffffffffffffffffffffffffffffffffffff163373ffffffffffffffffffffffffffffffffffffffff16145b1515610d20576040517f08c379a00000000000000000000000000000000000000000000000000000000081526004018080602001828103825260118152602001807f6e6f7420612076616c69642041646d696e00000000000000000000000000000081525060200191505060405180910390fd5b6001915050919050565b6000806000806000806000600188815481101515610d4457fe5b906000526020600020906009020160000154600189815481101515610d6557fe5b90600052602060002090600902016001015460018a815481101515610d8657fe5b90600052602060002090600902016004015460018b815481101515610da757fe5b90600052602060002090600902016005015460018c815481101515610dc857fe5b90600052602060002090600902016006015460018d815481101515610de957fe5b906000526020600020906009020160070160009054906101000a900460ff1660018e815481101515610e1757fe5b9060005260206000209060090201600801549650965096509650965096509650919395979092949650565b600b6020528060005260406000206000915054906101000a900460ff1681565b60003360011515600b60008373ffffffffffffffffffffffffffffffffffffffff1673ffffffffffffffffffffffffffffffffffffffff16815260200190815260200160002060009054906101000a900460ff1615151480610f115750600660009054906101000a900473ffffffffffffffffffffffffffffffffffffffff1673ffffffffffffffffffffffffffffffffffffffff163373ffffffffffffffffffffffffffffffffffffffff16145b80610f695750600760009054906101000a900473ffffffffffffffffffffffffffffffffffffffff1673ffffffffffffffffffffffffffffffffffffffff163373ffffffffffffffffffffffffffffffffffffffff16145b1515610fdd576040517f08c379a00000000000000000000000000000000000000000000000000000000081526004018080602001828103825260118152602001807f6e6f7420612076616c69642041646d696e00000000000000000000000000000081525060200191505060405180910390fd5b600460149054906101000a900460ff1615156110af5760018481548110151561100257fe5b9060005260206000209060090201600001548360018681548110151561102457fe5b906000526020600020906009020160010154011115151561104457600080fd5b8260018581548110151561105457fe5b9060005260206000209060090201600101540160018581548110151561107657fe5b90600052602060002090600902016001018190555060018481548110151561109a57fe5b90600052602060002090600902016001015491505b5092915050565b6110be611b53565b15156110c957600080fd5b80600b60008473ffffffffffffffffffffffffffffffffffffffff1673ffffffffffffffffffffffffffffffffffffffff16815260200190815260200160002060006101000a81548160ff02191690831515021790555060011515811515141561114457600960008154809291906001019190505550611158565b600960008154809291906001900391905055505b7f845cf4219f3b3b9a965f9be9881c40cdd5a1d3d4cc0732a19c72d42e9464f51e8282604051808373ffffffffffffffffffffffffffffffffffffffff1673ffffffffffffffffffffffffffffffffffffffff168152602001821515151581526020019250505060405180910390a15050565b6001818154811015156111da57fe5b90600052602060002090600902016000915090508060000154908060010154908060020154908060030154908060040154908060050154908060060154908060070160009054906101000a900460ff16908060080154905089565b600a8181548110151561124457fe5b906000526020600020016000915090505481565b600360009054906101000a900473ffffffffffffffffffffffffffffffffffffffff1681565b60028181548110151561128d57fe5b90600052602060002090600902016000915090508060000154908060010154908060020154908060030154908060040154908060050154908060060154908060070160009054906101000a900460ff16908060080154905089565b6112f0611b53565b15156112fb57600080fd5b600073ffffffffffffffffffffffffffffffffffffffff166000809054906101000a900473ffffffffffffffffffffffffffffffffffffffff1673ffffffffffffffffffffffffffffffffffffffff167f8be0079c531659141344cd1fd0a4f28419497f9722a3daafe3b4186f6b6457e060405160405180910390a360008060006101000a81548173ffffffffffffffffffffffffffffffffffffffff021916908373ffffffffffffffffffffffffffffffffffffffff160217905550565b60085481565b60006001828154811015156113d157fe5b9060005260206000209060090201600801549050919050565b60003360011515600b60008373ffffffffffffffffffffffffffffffffffffffff1673ffffffffffffffffffffffffffffffffffffffff16815260200190815260200160002060009054906101000a900460ff16151514806114995750600660009054906101000a900473ffffffffffffffffffffffffffffffffffffffff1673ffffffffffffffffffffffffffffffffffffffff163373ffffffffffffffffffffffffffffffffffffffff16145b806114f15750600760009054906101000a900473ffffffffffffffffffffffffffffffffffffffff1673ffffffffffffffffffffffffffffffffffffffff163373ffffffffffffffffffffffffffffffffffffffff16145b1515611565576040517f08c379a00000000000000000000000000000000000000000000000000000000081526004018080602001828103825260118152602001807f6e6f7420612076616c69642041646d696e00000000000000000000000000000081525060200191505060405180910390fd5b87878786828410151515611607576040517f08c379a00000000000000000000000000000000000000000000000000000000081526004018080602001828103825260228152602001807f4361706163697479206d7573742065786365656420616d6f756e742066696c6c81526020017f656400000000000000000000000000000000000000000000000000000000000081525060400191505060405180910390fd5b81600360009054906101000a900473ffffffffffffffffffffffffffffffffffffffff1673ffffffffffffffffffffffffffffffffffffffff1663af5cfae86040518163ffffffff167c010000000000000000000000000000000000000000000000000000000002815260040160206040518083038186803b15801561168c57600080fd5b505afa1580156116a0573d6000803e3d6000fd5b505050506040513d60208110156116b657600080fd5b810190808051906020019092919050505010151515611763576040517f08c379a00000000000000000000000000000000000000000000000000000000081526004018080602001828103825260218152602001807f4e6f7420656e6f75676820696e766573746d656e7420746f207075726368617381526020017f650000000000000000000000000000000000000000000000000000000000000081525060400191505060405180910390fd5b60008110151515611802576040517f08c379a00000000000000000000000000000000000000000000000000000000081526004018080602001828103825260218152602001807f4d757374206861766520612076616c6964207072696365207468726573686f6c81526020017f640000000000000000000000000000000000000000000000000000000000000081525060400191505060405180910390fd5b600460149054906101000a900460ff161515611b1b5760018054905095506001610120604051908101604052808e81526020018d81526020014281526020018c81526020018b81526020018a81526020018981526020016001151581526020018881525090806001815401808255809150509060018203906000526020600020906009020160009091929091909150600082015181600001556020820151816001015560408201518160020155606082015181600301556080820151816004015560a0820151816005015560c0820151816006015560e08201518160070160006101000a81548160ff0219169083151502179055506101008201518160080155505050600860008154809291906001019190505550600a86908060018154018082558091505090600182039060005260206000200160009091929091909150555060008a600360009054906101000a900473ffffffffffffffffffffffffffffffffffffffff1673ffffffffffffffffffffffffffffffffffffffff1663af5cfae86040518163ffffffff167c010000000000000000000000000000000000000000000000000000000002815260040160206040518083038186803b1580156119ca57600080fd5b505afa1580156119de573d6000803e3d6000fd5b505050506040513d60208110156119f457600080fd5b8101908080519060200190929190505050039050600360009054906101000a900473ffffffffffffffffffffffffffffffffffffffff1673ffffffffffffffffffffffffffffffffffffffff1663a342766b826040518263ffffffff167c010000000000000000000000000000000000000000000000000000000002815260040180828152602001915050602060405180830381600087803b158015611a9957600080fd5b505af1158015611aad573d6000803e3d6000fd5b505050506040513d6020811015611ac357600080fd5b8101908080519060200190929190505050507f30d85d5a522569ce310aa6c7c0440c91d487f54517033dbdf0842b674f82de078a600160405180838152602001821515151581526020019250505060405180910390a1505b50505050509695505050505050565b60008060009054906101000a900473ffffffffffffffffffffffffffffffffffffffff16905090565b60008060009054906101000a900473ffffffffffffffffffffffffffffffffffffffff1673ffffffffffffffffffffffffffffffffffffffff163373ffffffffffffffffffffffffffffffffffffffff1614905090565b6000600460149054906101000a900460ff161515611f81573360011515600b60008373ffffffffffffffffffffffffffffffffffffffff1673ffffffffffffffffffffffffffffffffffffffff16815260200190815260200160002060009054906101000a900460ff1615151480611c6f5750600660009054906101000a900473ffffffffffffffffffffffffffffffffffffffff1673ffffffffffffffffffffffffffffffffffffffff163373ffffffffffffffffffffffffffffffffffffffff16145b80611cc75750600760009054906101000a900473ffffffffffffffffffffffffffffffffffffffff1673ffffffffffffffffffffffffffffffffffffffff163373ffffffffffffffffffffffffffffffffffffffff16145b1515611d3b576040517f08c379a00000000000000000000000000000000000000000000000000000000081526004018080602001828103825260118152602001807f6e6f7420612076616c69642041646d696e00000000000000000000000000000081525060200191505060405180910390fd5b600183815481101515611d4a57fe5b906000526020600020906009020160070160009054906101000a900460ff161515611d7457600080fd5b6000600184815481101515611d8557fe5b906000526020600020906009020160070160006101000a81548160ff0219169083151502179055506000600184815481101515611dbe57fe5b90600052602060002090600902016004015490506002600185815481101515611de357fe5b906000526020600020906009020190806001815401808255809150509060018203906000526020600020906009020160009091929091909150600082015481600001556001820154816001015560028201548160020155600382015481600301556004820154816004015560058201548160050155600682015481600601556007820160009054906101000a900460ff168160070160006101000a81548160ff02191690831515021790555060088201548160080155505050600184815481101515611eab57fe5b906000526020600020906009020160080154600180808054905003815481101515611ed257fe5b9060005260206000209060090201600801819055506001808054905003600a85815481101515611efe57fe5b9060005260206000200181905550600a805480919060019003611f21919061239c565b50600860008154809291906001900391905055507f30d85d5a522569ce310aa6c7c0440c91d487f54517033dbdf0842b674f82de0781600060405180838152602001821515151581526020019250505060405180910390a1600854925050505b919050565b600460149054906101000a900460ff161515612183573360011515600b60008373ffffffffffffffffffffffffffffffffffffffff1673ffffffffffffffffffffffffffffffffffffffff16815260200190815260200160002060009054906101000a900460ff16151514806120495750600660009054906101000a900473ffffffffffffffffffffffffffffffffffffffff1673ffffffffffffffffffffffffffffffffffffffff163373ffffffffffffffffffffffffffffffffffffffff16145b806120a15750600760009054906101000a900473ffffffffffffffffffffffffffffffffffffffff1673ffffffffffffffffffffffffffffffffffffffff163373ffffffffffffffffffffffffffffffffffffffff16145b1515612115576040517f08c379a00000000000000000000000000000000000000000000000000000000081526004018080602001828103825260118152602001807f6e6f7420612076616c69642041646d696e00000000000000000000000000000081525060200191505060405180910390fd5b6000821015151561212557600080fd5b8160018481548110151561213557fe5b9060005260206000209060090201600501819055507fa6551cf039439f591ebe17eb5c0e3a1605a7be4c97483192e842e778851f0114826040518082815260200191505060405180910390a1505b5050565b600760009054906101000a900473ffffffffffffffffffffffffffffffffffffffff1681565b600660009054906101000a900473ffffffffffffffffffffffffffffffffffffffff1681565b60006001828154811015156121e457fe5b9060005260206000209060090201600601549050919050565b612205611b53565b151561221057600080fd5b612219816122a2565b50565b600060018281548110151561222d57fe5b90600052602060002090600902016001015460018381548110151561224e57fe5b9060005260206000209060090201600001540390506000811115156122765760009050612277565b5b919050565b600560009054906101000a900473ffffffffffffffffffffffffffffffffffffffff1681565b600073ffffffffffffffffffffffffffffffffffffffff168173ffffffffffffffffffffffffffffffffffffffff16141515156122de57600080fd5b8073ffffffffffffffffffffffffffffffffffffffff166000809054906101000a900473ffffffffffffffffffffffffffffffffffffffff1673ffffffffffffffffffffffffffffffffffffffff167f8be0079c531659141344cd1fd0a4f28419497f9722a3daafe3b4186f6b6457e060405160405180910390a3806000806101000a81548173ffffffffffffffffffffffffffffffffffffffff021916908373ffffffffffffffffffffffffffffffffffffffff16021790555050565b8154818355818111156123c3578183600052602060002091820191016123c291906123c8565b5b505050565b6123ea91905b808211156123e65760008160009055506001016123ce565b5090565b9056fea165627a7a72305820a3a624ad5b8aa74e34c3edc1f602174e6fdd38973b462e94a6f96cdf53c092e5002960806040526003600455600060065534801561001a57600080fd5b506040516040806115888339810180604052604081101561003a57600080fd5b81019080805190602001909291908051906020019092919050505080600381905550816000806101000a81548173ffffffffffffffffffffffffffffffffffffffff021916908373ffffffffffffffffffffffffffffffffffffffff1602179055506005600090806001815401808255809150509060018203906000526020600020016000909192909190915055506005600090806001815401808255809150509060018203906000526020600020016000909192909190915055505050611481806101076000396000f3fe6080604052600436106100db576000357c0100000000000000000000000000000000000000000000000000000000900463ffffffff16806310ea13df146100e05780632ccc87271461010b578063370a3918146101865780633ccfd60b146101b55780636bb80d51146101bf57806379ebb6c4146101ea578063973a9a82146102935780639b49969b1461029d578063a342766b146102c8578063af5cfae81461031b578063b9c8c44914610346578063bd68f8f6146103ab578063c6778b2e146103fa578063efabc74614610469578063f3f4370314610494575b600080fd5b3480156100ec57600080fd5b506100f56104f9565b6040518082815260200191505060405180910390f35b34801561011757600080fd5b506101446004803603602081101561012e57600080fd5b81019080803590602001909291905050506104ff565b604051808273ffffffffffffffffffffffffffffffffffffffff1673ffffffffffffffffffffffffffffffffffffffff16815260200191505060405180910390f35b34801561019257600080fd5b5061019b61053d565b604051808215151515815260200191505060405180910390f35b6101bd610898565b005b3480156101cb57600080fd5b506101d4610cb5565b6040518082815260200191505060405180910390f35b3480156101f657600080fd5b506102436004803603604081101561020d57600080fd5b81019080803573ffffffffffffffffffffffffffffffffffffffff16906020019092919080359060200190929190505050610cbb565b604051808473ffffffffffffffffffffffffffffffffffffffff1673ffffffffffffffffffffffffffffffffffffffff168152602001838152602001828152602001935050505060405180910390f35b61029b610d21565b005b3480156102a957600080fd5b506102b2610fd8565b6040518082815260200191505060405180910390f35b3480156102d457600080fd5b50610301600480360360208110156102eb57600080fd5b8101908080359060200190929190505050610fde565b604051808215151515815260200191505060405180910390f35b34801561032757600080fd5b50610330610ff0565b6040518082815260200191505060405180910390f35b34801561035257600080fd5b506103956004803603602081101561036957600080fd5b81019080803573ffffffffffffffffffffffffffffffffffffffff169060200190929190505050610ff6565b6040518082815260200191505060405180910390f35b3480156103b757600080fd5b506103e4600480360360208110156103ce57600080fd5b81019080803590602001909291905050506113ac565b6040518082815260200191505060405180910390f35b34801561040657600080fd5b506104536004803603604081101561041d57600080fd5b81019080803573ffffffffffffffffffffffffffffffffffffffff169060200190929190803590602001909291905050506113cf565b6040518082815260200191505060405180910390f35b34801561047557600080fd5b5061047e611437565b6040518082815260200191505060405180910390f35b3480156104a057600080fd5b506104e3600480360360208110156104b757600080fd5b81019080803573ffffffffffffffffffffffffffffffffffffffff16906020019092919050505061143d565b6040518082815260200191505060405180910390f35b60015481565b60078181548110151561050e57fe5b906000526020600020016000915054906101000a900473ffffffffffffffffffffffffffffffffffffffff1681565b600033600115156000809054906101000a900473ffffffffffffffffffffffffffffffffffffffff1673ffffffffffffffffffffffffffffffffffffffff166324d7806c836040518263ffffffff167c0100000000000000000000000000000000000000000000000000000000028152600401808273ffffffffffffffffffffffffffffffffffffffff1673ffffffffffffffffffffffffffffffffffffffff16815260200191505060206040518083038186803b1580156105fe57600080fd5b505afa158015610612573d6000803e3d6000fd5b505050506040513d602081101561062857600080fd5b8101908080519060200190929190505050151514151561064757600080fd5b60006002541115156106c1576040517f08c379a00000000000000000000000000000000000000000000000000000000081526004018080602001828103825260168152602001807f4e6f20617661696c61626c65206469766964656e64730000000000000000000081525060200191505060405180910390fd5b6064600154600454028115156106d357fe5b04600254111515610798576040517f08c379a00000000000000000000000000000000000000000000000000000000081526004018080602001828103825260458152602001807f4d757374206d61696e7461696e2061206365727461696e20696e766573746d6581526020017f6e74206c6576656c20696e206f7264657220746f20747269676765722064697681526020017f6964656e6400000000000000000000000000000000000000000000000000000081525060600191505060405180910390fd5b6000600560008154811015156107aa57fe5b906000526020600020015414151561082a576040517f08c379a00000000000000000000000000000000000000000000000000000000081526004018080602001828103825260208152602001807f5374696c6c206f6e2070726576696f7573206469766964656e64206379636c6581525060200191505060405180910390fd5b600060646003546002540281151561083e57fe5b04905080600260008282540392505081905550806005600081548110151561086257fe5b9060005260206000200181905550806005600181548110151561088157fe5b906000526020600020018190555060019250505090565b336000600960008373ffffffffffffffffffffffffffffffffffffffff1673ffffffffffffffffffffffffffffffffffffffff16815260200190815260200160002080549050111515610953576040517f08c379a00000000000000000000000000000000000000000000000000000000081526004018080602001828103825260148152602001807f4e6f7420612076616c696420696e766573746f7200000000000000000000000081525060200191505060405180910390fd5b6000600860008373ffffffffffffffffffffffffffffffffffffffff1673ffffffffffffffffffffffffffffffffffffffff16815260200190815260200160002054111515610a0a576040517f08c379a00000000000000000000000000000000000000000000000000000000081526004018080602001828103825260208152602001807f4164647265737320686173206e6f207769746864726177616c20616d6f756e7481525060200191505060405180910390fd5b600860008273ffffffffffffffffffffffffffffffffffffffff1673ffffffffffffffffffffffffffffffffffffffff1681526020019081526020016000205460056001815481101515610a5a57fe5b9060005260206000200154111515610ada576040517f08c379a000000000000000000000000000000000000000000000000000000000815260040180806020018281038252601a8152602001807f4572726f72202d206e6f20617661696c61626c652066756e647300000000000081525060200191505060405180910390fd5b6000600860003373ffffffffffffffffffffffffffffffffffffffff1673ffffffffffffffffffffffffffffffffffffffff1681526020019081526020016000205490508060056001815481101515610b2f57fe5b90600052602060002001600082825403925050819055506000600860003373ffffffffffffffffffffffffffffffffffffffff1673ffffffffffffffffffffffffffffffffffffffff168152602001908152602001600020819055506006600081548092919060010191905055506007805490506006541415610bff576000600681905550600060056000815481101515610bc657fe5b906000526020600020018190555060056001815481101515610be457fe5b90600052602060002001546002600082825401925050819055505b3373ffffffffffffffffffffffffffffffffffffffff166108fc829081150290604051600060405180830381858888f19350505050158015610c45573d6000803e3d6000fd5b507fa502fd41811afb69adfdfadf22b00a476d683cb0e8fcb04ecef9e331e2a26a6d3382604051808373ffffffffffffffffffffffffffffffffffffffff1673ffffffffffffffffffffffffffffffffffffffff1681526020018281526020019250505060405180910390a15050565b60035481565b600960205281600052604060002081815481101515610cd657fe5b9060005260206000209060030201600091509150508060000160009054906101000a900473ffffffffffffffffffffffffffffffffffffffff16908060010154908060020154905083565b600034111515610d99576040517f08c379a000000000000000000000000000000000000000000000000000000000815260040180806020018281038252601a8152602001807f41747461636820616e20696e766573746d656e742076616c756500000000000081525060200191505060405180910390fd5b60003490506000600960003373ffffffffffffffffffffffffffffffffffffffff1673ffffffffffffffffffffffffffffffffffffffff168152602001908152602001600020805490501415610e505760073390806001815401808255809150509060018203906000526020600020016000909192909190916101000a81548173ffffffffffffffffffffffffffffffffffffffff021916908373ffffffffffffffffffffffffffffffffffffffff160217905550505b600960003373ffffffffffffffffffffffffffffffffffffffff1673ffffffffffffffffffffffffffffffffffffffff1681526020019081526020016000206060604051908101604052803373ffffffffffffffffffffffffffffffffffffffff168152602001428152602001838152509080600181540180825580915050906001820390600052602060002090600302016000909192909190915060008201518160000160006101000a81548173ffffffffffffffffffffffffffffffffffffffff021916908373ffffffffffffffffffffffffffffffffffffffff160217905550602082015181600101556040820151816002015550505080600160008282540192505081905550806002600082825401925050819055507f012335398b2ec0286f8c0396759e9608b4e163f51d06d11116dd801b2b47c60f3382604051808373ffffffffffffffffffffffffffffffffffffffff1673ffffffffffffffffffffffffffffffffffffffff1681526020018281526020019250505060405180910390a150565b60045481565b60008160028190555060019050919050565b60025481565b600033600115156000809054906101000a900473ffffffffffffffffffffffffffffffffffffffff1673ffffffffffffffffffffffffffffffffffffffff166324d7806c836040518263ffffffff167c0100000000000000000000000000000000000000000000000000000000028152600401808273ffffffffffffffffffffffffffffffffffffffff1673ffffffffffffffffffffffffffffffffffffffff16815260200191505060206040518083038186803b1580156110b757600080fd5b505afa1580156110cb573d6000803e3d6000fd5b505050506040513d60208110156110e157600080fd5b8101908080519060200190929190505050151514151561110057600080fd5b600080905060008090505b600960008673ffffffffffffffffffffffffffffffffffffffff1673ffffffffffffffffffffffffffffffffffffffff1681526020019081526020016000208054905081101561127b578473ffffffffffffffffffffffffffffffffffffffff16600960008773ffffffffffffffffffffffffffffffffffffffff1673ffffffffffffffffffffffffffffffffffffffff168152602001908152602001600020828154811015156111b857fe5b906000526020600020906003020160000160009054906101000a900473ffffffffffffffffffffffffffffffffffffffff1673ffffffffffffffffffffffffffffffffffffffff1614151561120c57600080fd5b600960008673ffffffffffffffffffffffffffffffffffffffff1673ffffffffffffffffffffffffffffffffffffffff1681526020019081526020016000208181548110151561125857fe5b90600052602060002090600302016002015482019150808060010191505061110b565b506000600154826005600081548110151561129257fe5b9060005260206000200154028115156112a757fe5b04905080600860008773ffffffffffffffffffffffffffffffffffffffff1673ffffffffffffffffffffffffffffffffffffffff168152602001908152602001600020600082825401925050819055507f42f69d5213292b7ba6e1e5a1f251f6edca6f86e95f14e89871ebb5e9fa5099b885600860008873ffffffffffffffffffffffffffffffffffffffff1673ffffffffffffffffffffffffffffffffffffffff16815260200190815260200160002054604051808373ffffffffffffffffffffffffffffffffffffffff1673ffffffffffffffffffffffffffffffffffffffff1681526020018281526020019250505060405180910390a1809350505050919050565b6005818154811015156113bb57fe5b906000526020600020016000915090505481565b6000600960008473ffffffffffffffffffffffffffffffffffffffff1673ffffffffffffffffffffffffffffffffffffffff1681526020019081526020016000208281548110151561141d57fe5b906000526020600020906003020160020154905092915050565b60065481565b6008602052806000526040600020600091509050548156fea165627a7a72305820d73a0abf9c05f985b89a8d1c7e1411bf47cd992a53a0d9ab4fd7df09ef8b242900296080604052610e10600255600360045534801561001b57600080fd5b506040516020806114ac8339810180604052602081101561003b57600080fd5b810190808051906020019092919050505080600160006101000a81548173ffffffffffffffffffffffffffffffffffffffff021916908373ffffffffffffffffffffffffffffffffffffffff160217905550806000806101000a81548173ffffffffffffffffffffffffffffffffffffffff021916908373ffffffffffffffffffffffffffffffffffffffff160217905550506113cf806100dd6000396000f3fe60806040526004361061006d576000357c0100000000000000000000000000000000000000000000000000000000900463ffffffff1680630fc64691146100725780634fef23641461009d5780638f501a9b146100cc578063cdcf6316146100f7578063feb663d014610122575b600080fd5b34801561007e57600080fd5b50610087610179565b6040518082815260200191505060405180910390f35b3480156100a957600080fd5b506100b261017f565b604051808215151515815260200191505060405180910390f35b3480156100d857600080fd5b506100e161039e565b6040518082815260200191505060405180910390f35b34801561010357600080fd5b5061010c6103a4565b6040518082815260200191505060405180910390f35b34801561012e57600080fd5b506101376103aa565b604051808273ffffffffffffffffffffffffffffffffffffffff1673ffffffffffffffffffffffffffffffffffffffff16815260200191505060405180910390f35b60025481565b600080600080600090505b600454811015610393576000809054906101000a900473ffffffffffffffffffffffffffffffffffffffff1673ffffffffffffffffffffffffffffffffffffffff166364e980726003546040518263ffffffff167c01000000000000000000000000000000000000000000000000000000000281526004018082815260200191505060206040518083038186803b15801561022457600080fd5b505afa158015610238573d6000803e3d6000fd5b505050506040513d602081101561024e57600080fd5b8101908080519060200190929190505050925061026a836103d0565b8201915060016003600082825401925050819055506000809054906101000a900473ffffffffffffffffffffffffffffffffffffffff1673ffffffffffffffffffffffffffffffffffffffff16637ab9be186040518163ffffffff167c010000000000000000000000000000000000000000000000000000000002815260040160206040518083038186803b15801561030257600080fd5b505afa158015610316573d6000803e3d6000fd5b505050506040513d602081101561032c57600080fd5b810190808051906020019092919050505060035414156103865760006003819055507f2a337d71f9f377b9df07c7d0b3b45e113342364e6da3faa740095ae43dbfb67260405160405180910390a16001935050505061039b565b808060010191505061018a565b506000925050505b90565b60035481565b60045481565b600160009054906101000a900473ffffffffffffffffffffffffffffffffffffffff1681565b60008060006103dd610757565b90507f43e0d79edab99ad436795e03537a27e8192b11095f7d9e54e8748f538f75910c846040518082815260200191505060405180910390a160008060008060008060008060009054906101000a900473ffffffffffffffffffffffffffffffffffffffff1673ffffffffffffffffffffffffffffffffffffffff16633dcd20f48c6040518263ffffffff167c01000000000000000000000000000000000000000000000000000000000281526004018082815260200191505060e06040518083038186803b1580156104af57600080fd5b505afa1580156104c3573d6000803e3d6000fd5b505050506040513d60e08110156104d957600080fd5b81019080805190602001909291908051906020019092919080519060200190929190805190602001909291908051906020019092919080519060200190929190805190602001909291905050509650965096509650965096509650600115158215151415156105b0576040517f08c379a00000000000000000000000000000000000000000000000000000000081526004018080602001828103825260188152602001807f426174746572792073686f756c6420626520616374697665000000000000000081525060200191505060405180910390fd5b60006105bc858a610761565b90506001151581151514156107345760008060009054906101000a900473ffffffffffffffffffffffffffffffffffffffff1673ffffffffffffffffffffffffffffffffffffffff166369777fce6040518163ffffffff167c010000000000000000000000000000000000000000000000000000000002815260040160206040518083038186803b15801561065057600080fd5b505afa158015610664573d6000803e3d6000fd5b505050506040513d602081101561067a57600080fd5b810190808051906020019092919050505073ffffffffffffffffffffffffffffffffffffffff1663af5cfae86040518163ffffffff167c010000000000000000000000000000000000000000000000000000000002815260040160206040518083038186803b1580156106ec57600080fd5b505afa158015610700573d6000803e3d6000fd5b505050506040513d602081101561071657600080fd5b810190808051906020019092919050505011151561073357600080fd5b5b6107438c898989888e8761077f565b9950899a5050505050505050505050919050565b6000611388905090565b6000818311156107745760019050610779565b600090505b92915050565b600080610790600254610e10610aad565b905060008789039050600115158415151415610a3757600081111515610844576040517f08c379a00000000000000000000000000000000000000000000000000000000081526004018080602001828103825260398152602001807f426174746572792073686f756c6420686176652072656d61696e696e6720636181526020017f70616369747920696e206f7264657220746f206368617267650000000000000081525060400191505060405180910390fd5b6108576108518784610ad7565b82610b15565b925060008060009054906101000a900473ffffffffffffffffffffffffffffffffffffffff1673ffffffffffffffffffffffffffffffffffffffff166369777fce6040518163ffffffff167c010000000000000000000000000000000000000000000000000000000002815260040160206040518083038186803b1580156108de57600080fd5b505afa1580156108f2573d6000803e3d6000fd5b505050506040513d602081101561090857600080fd5b810190808051906020019092919050505073ffffffffffffffffffffffffffffffffffffffff1663af5cfae86040518163ffffffff167c010000000000000000000000000000000000000000000000000000000002815260040160206040518083038186803b15801561097a57600080fd5b505afa15801561098e573d6000803e3d6000fd5b505050506040513d60208110156109a457600080fd5b8101908080519060200190929190505050905060006109c38588610ad7565b9050818111156109dd578190506109da8288610aad565b94505b6109e88c8689610b2e565b507f296a30a2a2c9836b929a5bd912a99404f742866c6f1d2ccb40dbe91ae51d0c8b89868960405180848152602001838152602001828152602001935050505060405180910390a15050610aa0565b610a4a610a448784610ad7565b89610b15565b9250610a578a8487610f98565b507fa47998a00343b402e4fe19ddd70ec87f868ffa405b95a5e6a1d554a83f809e7c87848760405180848152602001838152602001828152602001935050505060405180910390a15b5050979650505050505050565b60008082111515610abd57600080fd5b60008284811515610aca57fe5b0490508091505092915050565b600080831415610aea5760009050610b0f565b60008284029050828482811515610afd57fe5b04141515610b0a57600080fd5b809150505b92915050565b6000818310610b245781610b26565b825b905092915050565b600080610c9d6000809054906101000a900473ffffffffffffffffffffffffffffffffffffffff1673ffffffffffffffffffffffffffffffffffffffff166369777fce6040518163ffffffff167c010000000000000000000000000000000000000000000000000000000002815260040160206040518083038186803b158015610bb757600080fd5b505afa158015610bcb573d6000803e3d6000fd5b505050506040513d6020811015610be157600080fd5b810190808051906020019092919050505073ffffffffffffffffffffffffffffffffffffffff1663af5cfae86040518163ffffffff167c010000000000000000000000000000000000000000000000000000000002815260040160206040518083038186803b158015610c5357600080fd5b505afa158015610c67573d6000803e3d6000fd5b505050506040513d6020811015610c7d57600080fd5b8101908080519060200190929190505050610c988686610ad7565b611360565b905060008110151515610d3e576040517f08c379a00000000000000000000000000000000000000000000000000000000081526004018080602001828103825260268152602001807f4e6f7420656e6f756768206d6f6e657920746f206d616b65207468697320707581526020017f726368617365000000000000000000000000000000000000000000000000000081525060400191505060405180910390fd5b6000809054906101000a900473ffffffffffffffffffffffffffffffffffffffff1673ffffffffffffffffffffffffffffffffffffffff166369777fce6040518163ffffffff167c010000000000000000000000000000000000000000000000000000000002815260040160206040518083038186803b158015610dc157600080fd5b505afa158015610dd5573d6000803e3d6000fd5b505050506040513d6020811015610deb57600080fd5b810190808051906020019092919050505073ffffffffffffffffffffffffffffffffffffffff1663a342766b826040518263ffffffff167c010000000000000000000000000000000000000000000000000000000002815260040180828152602001915050602060405180830381600087803b158015610e6a57600080fd5b505af1158015610e7e573d6000803e3d6000fd5b505050506040513d6020811015610e9457600080fd5b810190808051906020019092919050505015610f8b576000809054906101000a900473ffffffffffffffffffffffffffffffffffffffff1673ffffffffffffffffffffffffffffffffffffffff1663460fafbc86866000036040518363ffffffff167c01000000000000000000000000000000000000000000000000000000000281526004018083815260200182815260200192505050602060405180830381600087803b158015610f4557600080fd5b505af1158015610f59573d6000803e3d6000fd5b505050506040513d6020811015610f6f57600080fd5b8101908080519060200190929190505050506001915050610f91565b60009150505b9392505050565b6000806111076000809054906101000a900473ffffffffffffffffffffffffffffffffffffffff1673ffffffffffffffffffffffffffffffffffffffff166369777fce6040518163ffffffff167c010000000000000000000000000000000000000000000000000000000002815260040160206040518083038186803b15801561102157600080fd5b505afa158015611035573d6000803e3d6000fd5b505050506040513d602081101561104b57600080fd5b810190808051906020019092919050505073ffffffffffffffffffffffffffffffffffffffff1663af5cfae86040518163ffffffff167c010000000000000000000000000000000000000000000000000000000002815260040160206040518083038186803b1580156110bd57600080fd5b505afa1580156110d1573d6000803e3d6000fd5b505050506040513d60208110156110e757600080fd5b81019080805190602001909291905050506111028686610ad7565b611382565b90506000809054906101000a900473ffffffffffffffffffffffffffffffffffffffff1673ffffffffffffffffffffffffffffffffffffffff166369777fce6040518163ffffffff167c010000000000000000000000000000000000000000000000000000000002815260040160206040518083038186803b15801561118c57600080fd5b505afa1580156111a0573d6000803e3d6000fd5b505050506040513d60208110156111b657600080fd5b810190808051906020019092919050505073ffffffffffffffffffffffffffffffffffffffff1663a342766b826040518263ffffffff167c010000000000000000000000000000000000000000000000000000000002815260040180828152602001915050602060405180830381600087803b15801561123557600080fd5b505af1158015611249573d6000803e3d6000fd5b505050506040513d602081101561125f57600080fd5b810190808051906020019092919050505015611353576000809054906101000a900473ffffffffffffffffffffffffffffffffffffffff1673ffffffffffffffffffffffffffffffffffffffff1663460fafbc86866040518363ffffffff167c01000000000000000000000000000000000000000000000000000000000281526004018083815260200182815260200192505050602060405180830381600087803b15801561130d57600080fd5b505af1158015611321573d6000803e3d6000fd5b505050506040513d602081101561133757600080fd5b8101908080519060200190929190505050506001915050611359565b60009150505b9392505050565b600082821115151561137157600080fd5b600082840390508091505092915050565b600080828401905083811015151561139957600080fd5b809150509291505056fea165627a7a7230582024c7399095a5a69b4881cb866d6d7bc77029518eae125625fee6717f567206fa0029",
  "source": "pragma solidity >=0.5.0;\n\nimport \"./BatteryInvestment.sol\";\nimport \"./BatteryEnergy.sol\";\nimport \"./Ownable.sol\"; // to manage ownership addresses\n\n/// @author Yan Man\n/// @title A Virtual Power Plant implementation. Consensys Final Project Winter 2018/19\ncontract VirtualPowerPlant is Ownable {\n\n    // Type declarations\n    // Battery contains all necessary battery characteristics\n    struct Battery {\n        uint capacity; // max charge capacity\n        uint currentFilled; // current charge level\n        uint dateAdded; // keep track of timestamp battery was added\n        uint cost;  // cost of the battery in eth\n        bytes32 serialNumber; // for internal record keeping\n        uint priceThreshold; // energy price threshold; whether to purchase energy based on real time rate\n        uint chargeRate; // per hour, ie how much capacity can be charged/discharged\n        bool isActive; // active or decommissioned\n        uint mapIndex; // corresponds to the battery's index in batteryMapping array\n    }\n    Battery[] public batteries; // array of active batteries\n    Battery[] public decommissionedBatteries; // array of decommissioned batts\n    BatteryInvestment public batteryInvestmentContract; // deployed by this contract\n    BatteryEnergy public batteryEnergyContract; // deployed by this contract\n    // State variables\n    bool private stopped = false; // circuit breaker design\n    address public virtualPowerPlantAddress;\n    address public batteryInvestmentAddress;\n    address public batteryEnergyAddress;\n    uint public numBatteries = 0; // number of active batteries\n    uint public numAdmins = 0; // number of active admins\n    uint[] public batteryMapping; // array to log the battery's index in batteries array\n    mapping(address => bool) public admins; // addresses of admins\n\n    // Events\n    event LogNewInvestment (address investorAddress, uint investmentAmount);\n    event LogWithdrawalMade (address investorAddress, uint withdrawalAmount);\n    event LogChangeAdmin (address adminAddress, bool status); // when admin status is changed\n    event LogBatteryActive (bytes32 serialNumber, bool newStatus); // when battery is decommissioned or added\n    event LogBatteryThresholdChanged (uint newThreshold);\n\n    // Modifiers\n    // check address is a valid admin or calling from deployed contract\n    modifier isAdminModifier (address msgAddress) {\n        require(\n            admins[msgAddress] == true ||\n            msg.sender == batteryInvestmentAddress ||\n            msg.sender == batteryEnergyAddress,\n            \"not a valid Admin\"\n        );\n        _;\n    }\n    // circuit breaker design\n    modifier stopInEmergency { if (!stopped) _; }\n    modifier onlyInEmergency { if (stopped) _; }\n    // check battery is valid:\n    // - amount of charge in the battery cannot exceed the charge\n    // - remaining investment has enough funds to pay for the cost of the battery\n    // - price threshold is positive\n    modifier isBatteryValidModifier (uint _capacity, uint _currentFilled, uint _cost, uint _priceThreshold) {\n        require(_capacity >= _currentFilled, \"Capacity must exceed amount filled\");\n        require(batteryInvestmentContract.remainingInvestment() >= _cost, \"Not enough investment to purchase\");\n        require(_priceThreshold >= 0, \"Must have a valid price threshold\");\n        _;\n    }\n\n    /// @notice constructor\n    constructor () public {\n        setAdmin(msg.sender, true); // set contract deployer as admin\n        uint dividendPercentage = 1; // set amount of investment which will be used for dividend\n        // define contract addresses and contracts that are deployed\n        virtualPowerPlantAddress = address(this);\n        batteryInvestmentContract = new BatteryInvestment(virtualPowerPlantAddress, dividendPercentage);\n        batteryInvestmentAddress = address(batteryInvestmentContract);\n        batteryEnergyContract = new BatteryEnergy(virtualPowerPlantAddress);\n        batteryEnergyAddress = address(batteryEnergyContract);\n    }\n\n    // External functions\n    /// @notice allow other contracts to check admin users\n    /// @return whether address is an admin user\n    function isAdmin (address adminAddress)\n        external\n        view\n        isAdminModifier(adminAddress)\n        returns (bool)\n    {\n        return true;\n    }\n\n    /// @notice add battery to array of storage assets\n    /// @return battery ID of battery added\n    function addBattery (\n        uint _capacity,\n        uint _currentFilled,\n        uint _cost,\n        bytes32 _serialNumber,\n        uint _priceThreshold,\n        uint _chargeRate\n    )\n        external\n        isAdminModifier(msg.sender)\n        isBatteryValidModifier(_capacity, _currentFilled, _cost, _priceThreshold)\n        stopInEmergency()\n        returns (uint batteryID)\n    {\n        batteryID = batteries.length; // index in the array, corresponds to current length of array\n        // add each characteristic to create Battery struct, push to array\n        batteries.push(Battery({\n            capacity: _capacity,\n            currentFilled: _currentFilled,\n            dateAdded: now,\n            cost: _cost,\n            serialNumber: _serialNumber,\n            priceThreshold: _priceThreshold,\n            chargeRate: _chargeRate,\n            isActive: true,\n            mapIndex: batteryID\n        }));\n        numBatteries++; // increase number of active batteries\n        batteryMapping.push(batteryID); // record battery ID in mapping\n        // update remaining investment with cost of battery\n        uint _newRemainingInvestment = batteryInvestmentContract.remainingInvestment() - _cost;\n        batteryInvestmentContract.updateRemainingInvestment(_newRemainingInvestment);\n        emit LogBatteryActive(_serialNumber, true);\n    }\n\n    /// @notice add/subtract charge to battery\n    /// @param _batteryID battery identifier\n    /// @param _chargeAmount amount of charge to add/subtract\n    /// @return new amount of charge currently filled\n    function chargeBattery (uint _batteryID, uint _chargeAmount)\n        external\n        isAdminModifier(msg.sender)\n        stopInEmergency()\n        returns (uint)\n    {\n        // require the anount of charge to not exceed capacity\n        require(batteries[_batteryID].currentFilled + _chargeAmount  <= batteries[_batteryID].capacity);\n        // if valid, add charge to specific battery\n        batteries[_batteryID].currentFilled = batteries[_batteryID].currentFilled + _chargeAmount;\n        return batteries[_batteryID].currentFilled;\n    }\n\n    /// @notice alter battery threshold that determines charge/discharge decision\n    /// @param _batteryID battery identifier\n    /// @param _newThreshold new threshold value to change to\n    function changeBatteryThreshold (uint _batteryID, uint _newThreshold)\n        external\n        stopInEmergency()\n        isAdminModifier(msg.sender)\n    {\n        // require the price threshold to be positive\n        require(_newThreshold >= 0);\n        // set new threshold of specific battery\n        batteries[_batteryID].priceThreshold = _newThreshold;\n        emit LogBatteryThresholdChanged(_newThreshold);\n    }\n\n    /// @notice decommission battery, ie set active to false and move to other array\n    /// @param _batteryID battery identifier\n    /// @return number of batteries after batt has been decommissioned\n    function decommissionBattery (uint _batteryID)\n        external\n        stopInEmergency()\n        isAdminModifier(msg.sender)\n        returns (uint)\n    {\n        // require the battery state to be active before it can be decommissioned\n        require(batteries[_batteryID].isActive);\n        batteries[_batteryID].isActive = false; // set battery to inactive\n        bytes32 serialNumber = batteries[_batteryID].serialNumber;\n        // add decommissioned battery to separate array\n        decommissionedBatteries.push(batteries[_batteryID]);\n        // replace decommissioned battery in the array with battery at the end of current array\n        batteries[batteries.length - 1].mapIndex = batteries[_batteryID].mapIndex;\n        // also change index in batteryMapping\n        batteryMapping[_batteryID] = batteries.length - 1;\n        // remove last elements (which have been moved)\n        batteryMapping.length--;\n        // decrement number of batteries\n        numBatteries--;\n        emit LogBatteryActive(serialNumber, false); // log battery change activity\n        return numBatteries;\n    }\n\n    // External functions that are view\n    /// @notice retrieve battery info\n    /// @param _batteryID battery identifier\n    /// @return battery characteristics as list of values\n    function getRelevantBatteryInfo (uint _batteryID)\n        external\n        view\n        returns (\n            uint,\n            uint,\n            bytes32,\n            uint,\n            uint,\n            bool,\n            uint\n        )\n    {\n        return (\n            batteries[_batteryID].capacity,\n            batteries[_batteryID].currentFilled,\n            batteries[_batteryID].serialNumber,\n            batteries[_batteryID].priceThreshold,\n            batteries[_batteryID].chargeRate,\n            batteries[_batteryID].isActive,\n            batteries[_batteryID].mapIndex\n        );\n    }\n\n    /// @notice retrieve battery capacity remaining\n    /// @param _batteryID battery identifier\n    /// @return battery capacity remaining\n    function getBatteryCapacityRemaining (uint _batteryID) external view returns (uint remaining) {\n        remaining = batteries[_batteryID].capacity -  batteries[_batteryID].currentFilled;\n        if(remaining <= 0){\n            return 0;\n        }\n    }\n\n    /// @notice retrieve battery charge rate\n    /// @param _batteryID battery identifier\n    /// @return battery charge rate\n    function getBatteryChargeRate (uint _batteryID) external view returns (uint) {\n        return batteries[_batteryID].chargeRate;\n    }\n\n    /// @notice mapIndex of the battery\n    /// @param _batteryID battery identifier\n    /// @return index of battery within batteryMapping\n    function getBatteryMapIndex (uint _batteryID) external view returns (uint) {\n        return batteries[_batteryID].mapIndex;\n    }\n\n    // Public functions\n\n    /// @notice toggle stopped variable for circuit breaker design\n    function toggleContractActive() isAdminModifier(msg.sender) public {\n        stopped = !stopped;\n    }\n\n    /// @notice add or remove admins\n    function setAdmin (address _newAdminAddress, bool _adminStatus)\n        public\n        onlyOwner\n    {\n        // set admin at address\n        admins[_newAdminAddress] = _adminStatus;\n        // if true, increment # of admins\n        if (_adminStatus == true) {\n            numAdmins++;\n        } else {\n            numAdmins--;\n        }\n        emit LogChangeAdmin(_newAdminAddress, _adminStatus);\n    }\n\n\n}\n",
  "sourcePath": "/Users/yan-dev/Documents/final-project-yan-man/contracts/VirtualPowerPlant.sol",
  "compiler": {
    "name": "solc",
    "version": "0.5.0+commit.1d4f565a.Emscripten.clang"
  },
  "schemaVersion": "3.0.0",
  "updatedAt": "2019-01-28T03:38:30.567Z",
  "devdoc": {
    "author": "Yan Man",
    "methods": {
      "addBattery(uint256,uint256,uint256,bytes32,uint256,uint256)": {
        "return": "battery ID of battery added"
      },
      "changeBatteryThreshold(uint256,uint256)": {
        "params": {
          "_batteryID": "battery identifier",
          "_newThreshold": "new threshold value to change to"
        }
      },
      "chargeBattery(uint256,uint256)": {
        "params": {
          "_batteryID": "battery identifier",
          "_chargeAmount": "amount of charge to add/subtract"
        },
        "return": "new amount of charge currently filled"
      },
      "decommissionBattery(uint256)": {
        "params": {
          "_batteryID": "battery identifier"
        },
        "return": "number of batteries after batt has been decommissioned"
      },
      "getBatteryCapacityRemaining(uint256)": {
        "params": {
          "_batteryID": "battery identifier"
        },
        "return": "battery capacity remaining"
      },
      "getBatteryChargeRate(uint256)": {
        "params": {
          "_batteryID": "battery identifier"
        },
        "return": "battery charge rate"
      },
      "getBatteryMapIndex(uint256)": {
        "params": {
          "_batteryID": "battery identifier"
        },
        "return": "index of battery within batteryMapping"
      },
      "getRelevantBatteryInfo(uint256)": {
        "params": {
          "_batteryID": "battery identifier"
        },
        "return": "battery characteristics as list of values"
      },
      "isAdmin(address)": {
        "return": "whether address is an admin user"
      },
      "isOwner()": {
        "return": "true if `msg.sender` is the owner of the contract."
      },
      "owner()": {
        "return": "the address of the owner."
      },
      "renounceOwnership()": {
        "details": "Allows the current owner to relinquish control of the contract."
      },
      "transferOwnership(address)": {
        "details": "Allows the current owner to transfer control of the contract to a newOwner.",
        "params": {
          "newOwner": "The address to transfer ownership to."
        }
      }
    },
    "title": "A Virtual Power Plant implementation. Consensys Final Project Winter 2018/19"
  },
  "userdoc": {
    "methods": {
      "addBattery(uint256,uint256,uint256,bytes32,uint256,uint256)": {
        "notice": "add battery to array of storage assets"
      },
      "changeBatteryThreshold(uint256,uint256)": {
        "notice": "alter battery threshold that determines charge/discharge decision"
      },
      "chargeBattery(uint256,uint256)": {
        "notice": "add/subtract charge to battery"
      },
      "constructor": "constructor",
      "decommissionBattery(uint256)": {
        "notice": "decommission battery, ie set active to false and move to other array"
      },
      "getBatteryCapacityRemaining(uint256)": {
        "notice": "retrieve battery capacity remaining"
      },
      "getBatteryChargeRate(uint256)": {
        "notice": "retrieve battery charge rate"
      },
      "getBatteryMapIndex(uint256)": {
        "notice": "mapIndex of the battery"
      },
      "getRelevantBatteryInfo(uint256)": {
        "notice": "retrieve battery info"
      },
      "isAdmin(address)": {
        "notice": "allow other contracts to check admin users"
      },
      "renounceOwnership()": {
        "notice": "Renouncing to ownership will leave the contract without an owner. It will not be possible to call the functions with the `onlyOwner` modifier anymore."
      },
      "setAdmin(address,bool)": {
        "notice": "add or remove admins"
      },
      "toggleContractActive()": {
        "notice": "toggle stopped variable for circuit breaker design"
      }
    }
  }
}