{
  "contractName": "VirtualPowerPlant",
  "abi": [
    {
      "constant": true,
      "inputs": [],
      "name": "numAdmins",
      "outputs": [
        {
          "name": "",
          "type": "uint256"
        }
      ],
      "payable": false,
      "stateMutability": "view",
      "type": "function",
      "signature": "0x0efd4989"
    },
    {
      "constant": true,
      "inputs": [],
      "name": "batteryEnergyContract",
      "outputs": [
        {
          "name": "",
          "type": "address"
        }
      ],
      "payable": false,
      "stateMutability": "view",
      "type": "function",
      "signature": "0x13c1d396"
    },
    {
      "constant": true,
      "inputs": [
        {
          "name": "",
          "type": "address"
        }
      ],
      "name": "admins",
      "outputs": [
        {
          "name": "",
          "type": "bool"
        }
      ],
      "payable": false,
      "stateMutability": "view",
      "type": "function",
      "signature": "0x429b62e5"
    },
    {
      "constant": true,
      "inputs": [
        {
          "name": "",
          "type": "uint256"
        }
      ],
      "name": "batteries",
      "outputs": [
        {
          "name": "capacity",
          "type": "uint256"
        },
        {
          "name": "currentFilled",
          "type": "uint256"
        },
        {
          "name": "dateAdded",
          "type": "uint256"
        },
        {
          "name": "cost",
          "type": "uint256"
        },
        {
          "name": "serialNumber",
          "type": "bytes32"
        },
        {
          "name": "priceThreshold",
          "type": "uint256"
        },
        {
          "name": "chargeRate",
          "type": "uint256"
        },
        {
          "name": "isActive",
          "type": "bool"
        },
        {
          "name": "mapIndex",
          "type": "uint256"
        }
      ],
      "payable": false,
      "stateMutability": "view",
      "type": "function",
      "signature": "0x5f392c90"
    },
    {
      "constant": true,
      "inputs": [
        {
          "name": "",
          "type": "uint256"
        }
      ],
      "name": "batteryMapping",
      "outputs": [
        {
          "name": "",
          "type": "uint256"
        }
      ],
      "payable": false,
      "stateMutability": "view",
      "type": "function",
      "signature": "0x64e98072"
    },
    {
      "constant": true,
      "inputs": [],
      "name": "batteryInvestmentContract",
      "outputs": [
        {
          "name": "",
          "type": "address"
        }
      ],
      "payable": false,
      "stateMutability": "view",
      "type": "function",
      "signature": "0x69777fce"
    },
    {
      "constant": true,
      "inputs": [],
      "name": "dividendPercentage",
      "outputs": [
        {
          "name": "",
          "type": "uint256"
        }
      ],
      "payable": false,
      "stateMutability": "view",
      "type": "function",
      "signature": "0x6bb80d51"
    },
    {
      "constant": true,
      "inputs": [
        {
          "name": "",
          "type": "uint256"
        }
      ],
      "name": "decommissionedBatteries",
      "outputs": [
        {
          "name": "capacity",
          "type": "uint256"
        },
        {
          "name": "currentFilled",
          "type": "uint256"
        },
        {
          "name": "dateAdded",
          "type": "uint256"
        },
        {
          "name": "cost",
          "type": "uint256"
        },
        {
          "name": "serialNumber",
          "type": "bytes32"
        },
        {
          "name": "priceThreshold",
          "type": "uint256"
        },
        {
          "name": "chargeRate",
          "type": "uint256"
        },
        {
          "name": "isActive",
          "type": "bool"
        },
        {
          "name": "mapIndex",
          "type": "uint256"
        }
      ],
      "payable": false,
      "stateMutability": "view",
      "type": "function",
      "signature": "0x70304e33"
    },
    {
      "constant": false,
      "inputs": [],
      "name": "renounceOwnership",
      "outputs": [],
      "payable": false,
      "stateMutability": "nonpayable",
      "type": "function",
      "signature": "0x715018a6"
    },
    {
      "constant": true,
      "inputs": [],
      "name": "numBatteries",
      "outputs": [
        {
          "name": "",
          "type": "uint256"
        }
      ],
      "payable": false,
      "stateMutability": "view",
      "type": "function",
      "signature": "0x7ab9be18"
    },
    {
      "constant": true,
      "inputs": [],
      "name": "owner",
      "outputs": [
        {
          "name": "",
          "type": "address"
        }
      ],
      "payable": false,
      "stateMutability": "view",
      "type": "function",
      "signature": "0x8da5cb5b"
    },
    {
      "constant": true,
      "inputs": [],
      "name": "isOwner",
      "outputs": [
        {
          "name": "",
          "type": "bool"
        }
      ],
      "payable": false,
      "stateMutability": "view",
      "type": "function",
      "signature": "0x8f32d59b"
    },
    {
      "constant": true,
      "inputs": [],
      "name": "batteryEnergyAddress",
      "outputs": [
        {
          "name": "",
          "type": "address"
        }
      ],
      "payable": false,
      "stateMutability": "view",
      "type": "function",
      "signature": "0xc7177dad"
    },
    {
      "constant": true,
      "inputs": [],
      "name": "batteryInvestmentAddress",
      "outputs": [
        {
          "name": "",
          "type": "address"
        }
      ],
      "payable": false,
      "stateMutability": "view",
      "type": "function",
      "signature": "0xdc4d0fd8"
    },
    {
      "constant": false,
      "inputs": [
        {
          "name": "newOwner",
          "type": "address"
        }
      ],
      "name": "transferOwnership",
      "outputs": [],
      "payable": false,
      "stateMutability": "nonpayable",
      "type": "function",
      "signature": "0xf2fde38b"
    },
    {
      "constant": true,
      "inputs": [],
      "name": "virtualPowerPlantAddress",
      "outputs": [
        {
          "name": "",
          "type": "address"
        }
      ],
      "payable": false,
      "stateMutability": "view",
      "type": "function",
      "signature": "0xfeb663d0"
    },
    {
      "inputs": [],
      "payable": false,
      "stateMutability": "nonpayable",
      "type": "constructor",
      "signature": "constructor"
    },
    {
      "payable": false,
      "stateMutability": "nonpayable",
      "type": "fallback"
    },
    {
      "anonymous": false,
      "inputs": [
        {
          "indexed": false,
          "name": "investorAddress",
          "type": "address"
        },
        {
          "indexed": false,
          "name": "investmentAmount",
          "type": "uint256"
        }
      ],
      "name": "LogNewInvestment",
      "type": "event",
      "signature": "0x012335398b2ec0286f8c0396759e9608b4e163f51d06d11116dd801b2b47c60f"
    },
    {
      "anonymous": false,
      "inputs": [
        {
          "indexed": false,
          "name": "investorAddress",
          "type": "address"
        },
        {
          "indexed": false,
          "name": "withdrawalAmount",
          "type": "uint256"
        }
      ],
      "name": "LogWithdrawalMade",
      "type": "event",
      "signature": "0xa502fd41811afb69adfdfadf22b00a476d683cb0e8fcb04ecef9e331e2a26a6d"
    },
    {
      "anonymous": false,
      "inputs": [
        {
          "indexed": false,
          "name": "adminAddress",
          "type": "address"
        },
        {
          "indexed": false,
          "name": "status",
          "type": "bool"
        }
      ],
      "name": "LogChangeAdmin",
      "type": "event",
      "signature": "0x845cf4219f3b3b9a965f9be9881c40cdd5a1d3d4cc0732a19c72d42e9464f51e"
    },
    {
      "anonymous": false,
      "inputs": [
        {
          "indexed": false,
          "name": "serialNumber",
          "type": "bytes32"
        },
        {
          "indexed": false,
          "name": "newStatus",
          "type": "bool"
        }
      ],
      "name": "LogBatteryActive",
      "type": "event",
      "signature": "0x30d85d5a522569ce310aa6c7c0440c91d487f54517033dbdf0842b674f82de07"
    },
    {
      "anonymous": false,
      "inputs": [
        {
          "indexed": false,
          "name": "newThreshold",
          "type": "uint256"
        }
      ],
      "name": "LogBatteryThresholdChanged",
      "type": "event",
      "signature": "0xa6551cf039439f591ebe17eb5c0e3a1605a7be4c97483192e842e778851f0114"
    },
    {
      "anonymous": false,
      "inputs": [
        {
          "indexed": true,
          "name": "previousOwner",
          "type": "address"
        },
        {
          "indexed": true,
          "name": "newOwner",
          "type": "address"
        }
      ],
      "name": "OwnershipTransferred",
      "type": "event",
      "signature": "0x8be0079c531659141344cd1fd0a4f28419497f9722a3daafe3b4186f6b6457e0"
    },
    {
      "constant": false,
      "inputs": [],
      "name": "isAdmin",
      "outputs": [
        {
          "name": "",
          "type": "bool"
        }
      ],
      "payable": false,
      "stateMutability": "nonpayable",
      "type": "function",
      "signature": "0xb6db75a0"
    },
    {
      "constant": false,
      "inputs": [
        {
          "name": "_capacity",
          "type": "uint256"
        },
        {
          "name": "_currentFilled",
          "type": "uint256"
        },
        {
          "name": "_cost",
          "type": "uint256"
        },
        {
          "name": "_serialNumber",
          "type": "bytes32"
        },
        {
          "name": "_priceThreshold",
          "type": "uint256"
        },
        {
          "name": "_chargeRate",
          "type": "uint256"
        }
      ],
      "name": "addBattery",
      "outputs": [
        {
          "name": "batteryID",
          "type": "uint256"
        }
      ],
      "payable": false,
      "stateMutability": "nonpayable",
      "type": "function",
      "signature": "0x839f81bd"
    },
    {
      "constant": false,
      "inputs": [
        {
          "name": "_batteryID",
          "type": "uint256"
        },
        {
          "name": "_chargeAmount",
          "type": "uint256"
        }
      ],
      "name": "chargeBattery",
      "outputs": [
        {
          "name": "",
          "type": "uint256"
        }
      ],
      "payable": false,
      "stateMutability": "nonpayable",
      "type": "function",
      "signature": "0x460fafbc"
    },
    {
      "constant": false,
      "inputs": [
        {
          "name": "_batteryID",
          "type": "uint256"
        },
        {
          "name": "_newThreshold",
          "type": "uint256"
        }
      ],
      "name": "changeBatteryThreshold",
      "outputs": [],
      "payable": false,
      "stateMutability": "nonpayable",
      "type": "function",
      "signature": "0xc312fe1a"
    },
    {
      "constant": false,
      "inputs": [
        {
          "name": "_batteryID",
          "type": "uint256"
        }
      ],
      "name": "decommissionBattery",
      "outputs": [
        {
          "name": "",
          "type": "uint256"
        }
      ],
      "payable": false,
      "stateMutability": "nonpayable",
      "type": "function",
      "signature": "0xa62e4a43"
    },
    {
      "constant": true,
      "inputs": [
        {
          "name": "_batteryID",
          "type": "uint256"
        }
      ],
      "name": "getRelevantBatteryInfo",
      "outputs": [
        {
          "name": "",
          "type": "uint256"
        },
        {
          "name": "",
          "type": "uint256"
        },
        {
          "name": "",
          "type": "bytes32"
        },
        {
          "name": "",
          "type": "uint256"
        },
        {
          "name": "",
          "type": "uint256"
        },
        {
          "name": "",
          "type": "bool"
        },
        {
          "name": "",
          "type": "uint256"
        }
      ],
      "payable": false,
      "stateMutability": "view",
      "type": "function",
      "signature": "0x3dcd20f4"
    },
    {
      "constant": true,
      "inputs": [
        {
          "name": "_batteryID",
          "type": "uint256"
        }
      ],
      "name": "getBatteryCapacityRemaining",
      "outputs": [
        {
          "name": "remaining",
          "type": "uint256"
        }
      ],
      "payable": false,
      "stateMutability": "view",
      "type": "function",
      "signature": "0xfc7c6a12"
    },
    {
      "constant": true,
      "inputs": [
        {
          "name": "_batteryID",
          "type": "uint256"
        }
      ],
      "name": "getBatteryChargeRate",
      "outputs": [
        {
          "name": "",
          "type": "uint256"
        }
      ],
      "payable": false,
      "stateMutability": "view",
      "type": "function",
      "signature": "0xe58260ae"
    },
    {
      "constant": true,
      "inputs": [
        {
          "name": "_batteryID",
          "type": "uint256"
        }
      ],
      "name": "getBatteryMapIndex",
      "outputs": [
        {
          "name": "",
          "type": "uint256"
        }
      ],
      "payable": false,
      "stateMutability": "view",
      "type": "function",
      "signature": "0x7f4912c5"
    },
    {
      "constant": false,
      "inputs": [
        {
          "name": "_newAdminAddress",
          "type": "address"
        },
        {
          "name": "_adminStatus",
          "type": "bool"
        }
      ],
      "name": "changeAdmin",
      "outputs": [],
      "payable": false,
      "stateMutability": "nonpayable",
      "type": "function",
      "signature": "0xdc11a496"
    }
  ],
  "bytecode": "0x6080604052600060085560006009553480156200001b57600080fd5b50336000806101000a81548173ffffffffffffffffffffffffffffffffffffffff021916908373ffffffffffffffffffffffffffffffffffffffff1602179055506000809054906101000a900473ffffffffffffffffffffffffffffffffffffffff1673ffffffffffffffffffffffffffffffffffffffff16600073ffffffffffffffffffffffffffffffffffffffff167f8be0079c531659141344cd1fd0a4f28419497f9722a3daafe3b4186f6b6457e060405160405180910390a36001600a819055506001600c60003373ffffffffffffffffffffffffffffffffffffffff1673ffffffffffffffffffffffffffffffffffffffff16815260200190815260200160002060006101000a81548160ff02191690831515021790555030600560006101000a81548173ffffffffffffffffffffffffffffffffffffffff021916908373ffffffffffffffffffffffffffffffffffffffff160217905550600560009054906101000a900473ffffffffffffffffffffffffffffffffffffffff16620001a6620003c7565b808273ffffffffffffffffffffffffffffffffffffffff1673ffffffffffffffffffffffffffffffffffffffff168152602001915050604051809103906000f080158015620001f9573d6000803e3d6000fd5b50600360006101000a81548173ffffffffffffffffffffffffffffffffffffffff021916908373ffffffffffffffffffffffffffffffffffffffff160217905550600360009054906101000a900473ffffffffffffffffffffffffffffffffffffffff16600660006101000a81548173ffffffffffffffffffffffffffffffffffffffff021916908373ffffffffffffffffffffffffffffffffffffffff160217905550600560009054906101000a900473ffffffffffffffffffffffffffffffffffffffff16620002ca620003d8565b808273ffffffffffffffffffffffffffffffffffffffff1673ffffffffffffffffffffffffffffffffffffffff168152602001915050604051809103906000f0801580156200031d573d6000803e3d6000fd5b50600460006101000a81548173ffffffffffffffffffffffffffffffffffffffff021916908373ffffffffffffffffffffffffffffffffffffffff160217905550600460009054906101000a900473ffffffffffffffffffffffffffffffffffffffff16600760006101000a81548173ffffffffffffffffffffffffffffffffffffffff021916908373ffffffffffffffffffffffffffffffffffffffff160217905550620003e9565b604051610f3b806200276983390190565b6040516116d480620036a483390190565b61237080620003f96000396000f3fe608060405260043610610154576000357c0100000000000000000000000000000000000000000000000000000000900463ffffffff1680630efd49891461016657806313c1d396146101915780633dcd20f4146101e8578063429b62e514610265578063460fafbc146102ce5780635f392c901461032757806364e98072146103b257806369777fce146104015780636bb80d511461045857806370304e3314610483578063715018a61461050e5780637ab9be18146105255780637f4912c514610550578063839f81bd1461059f5780638da5cb5b146106205780638f32d59b14610677578063a62e4a43146106a6578063b6db75a0146106f5578063c312fe1a14610724578063c7177dad14610769578063dc11a496146107c0578063dc4d0fd81461081d578063e58260ae14610874578063f2fde38b146108c3578063fc7c6a1214610914578063feb663d014610963575b34801561016057600080fd5b50600080fd5b34801561017257600080fd5b5061017b6109ba565b6040518082815260200191505060405180910390f35b34801561019d57600080fd5b506101a66109c0565b604051808273ffffffffffffffffffffffffffffffffffffffff1673ffffffffffffffffffffffffffffffffffffffff16815260200191505060405180910390f35b3480156101f457600080fd5b506102216004803603602081101561020b57600080fd5b81019080803590602001909291905050506109e6565b604051808881526020018781526020018681526020018581526020018481526020018315151515815260200182815260200197505050505050505060405180910390f35b34801561027157600080fd5b506102b46004803603602081101561028857600080fd5b81019080803573ffffffffffffffffffffffffffffffffffffffff169060200190929190505050610c76565b604051808215151515815260200191505060405180910390f35b3480156102da57600080fd5b50610311600480360360408110156102f157600080fd5b810190808035906020019092919080359060200190929190505050610c96565b6040518082815260200191505060405180910390f35b34801561033357600080fd5b506103606004803603602081101561034a57600080fd5b8101908080359060200190929190505050610ed1565b604051808a815260200189815260200188815260200187815260200186815260200185815260200184815260200183151515158152602001828152602001995050505050505050505060405180910390f35b3480156103be57600080fd5b506103eb600480360360208110156103d557600080fd5b8101908080359060200190929190505050610f3b565b6040518082815260200191505060405180910390f35b34801561040d57600080fd5b50610416610f5e565b604051808273ffffffffffffffffffffffffffffffffffffffff1673ffffffffffffffffffffffffffffffffffffffff16815260200191505060405180910390f35b34801561046457600080fd5b5061046d610f84565b6040518082815260200191505060405180910390f35b34801561048f57600080fd5b506104bc600480360360208110156104a657600080fd5b8101908080359060200190929190505050610f8a565b604051808a815260200189815260200188815260200187815260200186815260200185815260200184815260200183151515158152602001828152602001995050505050505050505060405180910390f35b34801561051a57600080fd5b50610523610ff4565b005b34801561053157600080fd5b5061053a6110c6565b6040518082815260200191505060405180910390f35b34801561055c57600080fd5b506105896004803603602081101561057357600080fd5b81019080803590602001909291905050506110cc565b6040518082815260200191505060405180910390f35b3480156105ab57600080fd5b5061060a600480360360c08110156105c257600080fd5b810190808035906020019092919080359060200190929190803590602001909291908035906020019092919080359060200190929190803590602001909291905050506110f6565b6040518082815260200191505060405180910390f35b34801561062c57600080fd5b5061063561181d565b604051808273ffffffffffffffffffffffffffffffffffffffff1673ffffffffffffffffffffffffffffffffffffffff16815260200191505060405180910390f35b34801561068357600080fd5b5061068c611846565b604051808215151515815260200191505060405180910390f35b3480156106b257600080fd5b506106df600480360360208110156106c957600080fd5b810190808035906020019092919050505061189d565b6040518082815260200191505060405180910390f35b34801561070157600080fd5b5061070a611c60565b604051808215151515815260200191505060405180910390f35b34801561073057600080fd5b506107676004803603604081101561074757600080fd5b810190808035906020019092919080359060200190929190505050611de1565b005b34801561077557600080fd5b5061077e611fc9565b604051808273ffffffffffffffffffffffffffffffffffffffff1673ffffffffffffffffffffffffffffffffffffffff16815260200191505060405180910390f35b3480156107cc57600080fd5b5061081b600480360360408110156107e357600080fd5b81019080803573ffffffffffffffffffffffffffffffffffffffff169060200190929190803515159060200190929190505050611fef565b005b34801561082957600080fd5b50610832612104565b604051808273ffffffffffffffffffffffffffffffffffffffff1673ffffffffffffffffffffffffffffffffffffffff16815260200191505060405180910390f35b34801561088057600080fd5b506108ad6004803603602081101561089757600080fd5b810190808035906020019092919050505061212a565b6040518082815260200191505060405180910390f35b3480156108cf57600080fd5b50610912600480360360208110156108e657600080fd5b81019080803573ffffffffffffffffffffffffffffffffffffffff169060200190929190505050612154565b005b34801561092057600080fd5b5061094d6004803603602081101561093757600080fd5b8101908080359060200190929190505050612173565b6040518082815260200191505060405180910390f35b34801561096f57600080fd5b506109786121d3565b604051808273ffffffffffffffffffffffffffffffffffffffff1673ffffffffffffffffffffffffffffffffffffffff16815260200191505060405180910390f35b60095481565b600460009054906101000a900473ffffffffffffffffffffffffffffffffffffffff1681565b600080600080600080600060011515600c60003373ffffffffffffffffffffffffffffffffffffffff1673ffffffffffffffffffffffffffffffffffffffff16815260200190815260200160002060009054906101000a900460ff1615151480610a9d5750600660009054906101000a900473ffffffffffffffffffffffffffffffffffffffff1673ffffffffffffffffffffffffffffffffffffffff163373ffffffffffffffffffffffffffffffffffffffff16145b80610af55750600760009054906101000a900473ffffffffffffffffffffffffffffffffffffffff1673ffffffffffffffffffffffffffffffffffffffff163373ffffffffffffffffffffffffffffffffffffffff16145b1515610b69576040517f08c379a00000000000000000000000000000000000000000000000000000000081526004018080602001828103825260118152602001807f6e6f7420612076616c69642041646d696e00000000000000000000000000000081525060200191505060405180910390fd5b600188815481101515610b7857fe5b906000526020600020906009020160000154600189815481101515610b9957fe5b90600052602060002090600902016001015460018a815481101515610bba57fe5b90600052602060002090600902016004015460018b815481101515610bdb57fe5b90600052602060002090600902016005015460018c815481101515610bfc57fe5b90600052602060002090600902016006015460018d815481101515610c1d57fe5b906000526020600020906009020160070160009054906101000a900460ff1660018e815481101515610c4b57fe5b9060005260206000209060090201600801549650965096509650965096509650919395979092949650565b600c6020528060005260406000206000915054906101000a900460ff1681565b600060011515600c60003373ffffffffffffffffffffffffffffffffffffffff1673ffffffffffffffffffffffffffffffffffffffff16815260200190815260200160002060009054906101000a900460ff1615151480610d445750600660009054906101000a900473ffffffffffffffffffffffffffffffffffffffff1673ffffffffffffffffffffffffffffffffffffffff163373ffffffffffffffffffffffffffffffffffffffff16145b80610d9c5750600760009054906101000a900473ffffffffffffffffffffffffffffffffffffffff1673ffffffffffffffffffffffffffffffffffffffff163373ffffffffffffffffffffffffffffffffffffffff16145b1515610e10576040517f08c379a00000000000000000000000000000000000000000000000000000000081526004018080602001828103825260118152602001807f6e6f7420612076616c69642041646d696e00000000000000000000000000000081525060200191505060405180910390fd5b600183815481101515610e1f57fe5b90600052602060002090600902016000015482600185815481101515610e4157fe5b9060005260206000209060090201600101540111151515610e6157600080fd5b81600184815481101515610e7157fe5b90600052602060002090600902016001015401600184815481101515610e9357fe5b906000526020600020906009020160010181905550600183815481101515610eb757fe5b906000526020600020906009020160010154905092915050565b600181815481101515610ee057fe5b90600052602060002090600902016000915090508060000154908060010154908060020154908060030154908060040154908060050154908060060154908060070160009054906101000a900460ff16908060080154905089565b600b81815481101515610f4a57fe5b906000526020600020016000915090505481565b600360009054906101000a900473ffffffffffffffffffffffffffffffffffffffff1681565b600a5481565b600281815481101515610f9957fe5b90600052602060002090600902016000915090508060000154908060010154908060020154908060030154908060040154908060050154908060060154908060070160009054906101000a900460ff16908060080154905089565b610ffc611846565b151561100757600080fd5b600073ffffffffffffffffffffffffffffffffffffffff166000809054906101000a900473ffffffffffffffffffffffffffffffffffffffff1673ffffffffffffffffffffffffffffffffffffffff167f8be0079c531659141344cd1fd0a4f28419497f9722a3daafe3b4186f6b6457e060405160405180910390a360008060006101000a81548173ffffffffffffffffffffffffffffffffffffffff021916908373ffffffffffffffffffffffffffffffffffffffff160217905550565b60085481565b60006001828154811015156110dd57fe5b9060005260206000209060090201600801549050919050565b600060011515600c60003373ffffffffffffffffffffffffffffffffffffffff1673ffffffffffffffffffffffffffffffffffffffff16815260200190815260200160002060009054906101000a900460ff16151514806111a45750600660009054906101000a900473ffffffffffffffffffffffffffffffffffffffff1673ffffffffffffffffffffffffffffffffffffffff163373ffffffffffffffffffffffffffffffffffffffff16145b806111fc5750600760009054906101000a900473ffffffffffffffffffffffffffffffffffffffff1673ffffffffffffffffffffffffffffffffffffffff163373ffffffffffffffffffffffffffffffffffffffff16145b1515611270576040517f08c379a00000000000000000000000000000000000000000000000000000000081526004018080602001828103825260118152602001807f6e6f7420612076616c69642041646d696e00000000000000000000000000000081525060200191505060405180910390fd5b86868685828410151515611312576040517f08c379a00000000000000000000000000000000000000000000000000000000081526004018080602001828103825260228152602001807f4361706163697479206d7573742065786365656420616d6f756e742066696c6c81526020017f656400000000000000000000000000000000000000000000000000000000000081525060400191505060405180910390fd5b81600360009054906101000a900473ffffffffffffffffffffffffffffffffffffffff1673ffffffffffffffffffffffffffffffffffffffff1663af5cfae86040518163ffffffff167c010000000000000000000000000000000000000000000000000000000002815260040160206040518083038186803b15801561139757600080fd5b505afa1580156113ab573d6000803e3d6000fd5b505050506040513d60208110156113c157600080fd5b81019080805190602001909291905050501015151561146e576040517f08c379a00000000000000000000000000000000000000000000000000000000081526004018080602001828103825260218152602001807f4e6f7420656e6f75676820696e766573746d656e7420746f207075726368617381526020017f650000000000000000000000000000000000000000000000000000000000000081525060400191505060405180910390fd5b6000811015151561150d576040517f08c379a00000000000000000000000000000000000000000000000000000000081526004018080602001828103825260218152602001807f4d757374206861766520612076616c6964207072696365207468726573686f6c81526020017f640000000000000000000000000000000000000000000000000000000000000081525060400191505060405180910390fd5b60018054905094506001610120604051908101604052808d81526020018c81526020014281526020018b81526020018a81526020018981526020018881526020016001151581526020018781525090806001815401808255809150509060018203906000526020600020906009020160009091929091909150600082015181600001556020820151816001015560408201518160020155606082015181600301556080820151816004015560a0820151816005015560c0820151816006015560e08201518160070160006101000a81548160ff0219169083151502179055506101008201518160080155505050600860008154809291906001019190505550600b859080600181540180825580915050906001820390600052602060002001600090919290919091505550600089600360009054906101000a900473ffffffffffffffffffffffffffffffffffffffff1673ffffffffffffffffffffffffffffffffffffffff1663af5cfae86040518163ffffffff167c010000000000000000000000000000000000000000000000000000000002815260040160206040518083038186803b1580156116bf57600080fd5b505afa1580156116d3573d6000803e3d6000fd5b505050506040513d60208110156116e957600080fd5b8101908080519060200190929190505050039050600360009054906101000a900473ffffffffffffffffffffffffffffffffffffffff1673ffffffffffffffffffffffffffffffffffffffff1663a342766b826040518263ffffffff167c010000000000000000000000000000000000000000000000000000000002815260040180828152602001915050602060405180830381600087803b15801561178e57600080fd5b505af11580156117a2573d6000803e3d6000fd5b505050506040513d60208110156117b857600080fd5b8101908080519060200190929190505050507f30d85d5a522569ce310aa6c7c0440c91d487f54517033dbdf0842b674f82de0789600160405180838152602001821515151581526020019250505060405180910390a150505050509695505050505050565b60008060009054906101000a900473ffffffffffffffffffffffffffffffffffffffff16905090565b60008060009054906101000a900473ffffffffffffffffffffffffffffffffffffffff1673ffffffffffffffffffffffffffffffffffffffff163373ffffffffffffffffffffffffffffffffffffffff1614905090565b600060011515600c60003373ffffffffffffffffffffffffffffffffffffffff1673ffffffffffffffffffffffffffffffffffffffff16815260200190815260200160002060009054906101000a900460ff161515148061194b5750600660009054906101000a900473ffffffffffffffffffffffffffffffffffffffff1673ffffffffffffffffffffffffffffffffffffffff163373ffffffffffffffffffffffffffffffffffffffff16145b806119a35750600760009054906101000a900473ffffffffffffffffffffffffffffffffffffffff1673ffffffffffffffffffffffffffffffffffffffff163373ffffffffffffffffffffffffffffffffffffffff16145b1515611a17576040517f08c379a00000000000000000000000000000000000000000000000000000000081526004018080602001828103825260118152602001807f6e6f7420612076616c69642041646d696e00000000000000000000000000000081525060200191505060405180910390fd5b600182815481101515611a2657fe5b906000526020600020906009020160070160009054906101000a900460ff161515611a5057600080fd5b6000600183815481101515611a6157fe5b906000526020600020906009020160070160006101000a81548160ff0219169083151502179055506000600183815481101515611a9a57fe5b90600052602060002090600902016004015490506002600184815481101515611abf57fe5b906000526020600020906009020190806001815401808255809150509060018203906000526020600020906009020160009091929091909150600082015481600001556001820154816001015560028201548160020155600382015481600301556004820154816004015560058201548160050155600682015481600601556007820160009054906101000a900460ff168160070160006101000a81548160ff02191690831515021790555060088201548160080155505050600183815481101515611b8757fe5b906000526020600020906009020160080154600180808054905003815481101515611bae57fe5b9060005260206000209060090201600801819055506001808054905003600b84815481101515611bda57fe5b9060005260206000200181905550600b805480919060019003611bfd91906122f3565b50600860008154809291906001900391905055507f30d85d5a522569ce310aa6c7c0440c91d487f54517033dbdf0842b674f82de0781600060405180838152602001821515151581526020019250505060405180910390a1600854915050919050565b600060011515600c60003373ffffffffffffffffffffffffffffffffffffffff1673ffffffffffffffffffffffffffffffffffffffff16815260200190815260200160002060009054906101000a900460ff1615151480611d0e5750600660009054906101000a900473ffffffffffffffffffffffffffffffffffffffff1673ffffffffffffffffffffffffffffffffffffffff163373ffffffffffffffffffffffffffffffffffffffff16145b80611d665750600760009054906101000a900473ffffffffffffffffffffffffffffffffffffffff1673ffffffffffffffffffffffffffffffffffffffff163373ffffffffffffffffffffffffffffffffffffffff16145b1515611dda576040517f08c379a00000000000000000000000000000000000000000000000000000000081526004018080602001828103825260118152602001807f6e6f7420612076616c69642041646d696e00000000000000000000000000000081525060200191505060405180910390fd5b6001905090565b60011515600c60003373ffffffffffffffffffffffffffffffffffffffff1673ffffffffffffffffffffffffffffffffffffffff16815260200190815260200160002060009054906101000a900460ff1615151480611e8d5750600660009054906101000a900473ffffffffffffffffffffffffffffffffffffffff1673ffffffffffffffffffffffffffffffffffffffff163373ffffffffffffffffffffffffffffffffffffffff16145b80611ee55750600760009054906101000a900473ffffffffffffffffffffffffffffffffffffffff1673ffffffffffffffffffffffffffffffffffffffff163373ffffffffffffffffffffffffffffffffffffffff16145b1515611f59576040517f08c379a00000000000000000000000000000000000000000000000000000000081526004018080602001828103825260118152602001807f6e6f7420612076616c69642041646d696e00000000000000000000000000000081525060200191505060405180910390fd5b60008110151515611f6957600080fd5b80600183815481101515611f7957fe5b9060005260206000209060090201600501819055507fa6551cf039439f591ebe17eb5c0e3a1605a7be4c97483192e842e778851f0114816040518082815260200191505060405180910390a15050565b600760009054906101000a900473ffffffffffffffffffffffffffffffffffffffff1681565b611ff7611846565b151561200257600080fd5b80600c60008473ffffffffffffffffffffffffffffffffffffffff1673ffffffffffffffffffffffffffffffffffffffff16815260200190815260200160002060006101000a81548160ff02191690831515021790555060011515811515141561207d57600960008154809291906001019190505550612091565b600960008154809291906001900391905055505b7f845cf4219f3b3b9a965f9be9881c40cdd5a1d3d4cc0732a19c72d42e9464f51e8282604051808373ffffffffffffffffffffffffffffffffffffffff1673ffffffffffffffffffffffffffffffffffffffff168152602001821515151581526020019250505060405180910390a15050565b600660009054906101000a900473ffffffffffffffffffffffffffffffffffffffff1681565b600060018281548110151561213b57fe5b9060005260206000209060090201600601549050919050565b61215c611846565b151561216757600080fd5b612170816121f9565b50565b600060018281548110151561218457fe5b9060005260206000209060090201600101546001838154811015156121a557fe5b9060005260206000209060090201600001540390506000811115156121cd57600090506121ce565b5b919050565b600560009054906101000a900473ffffffffffffffffffffffffffffffffffffffff1681565b600073ffffffffffffffffffffffffffffffffffffffff168173ffffffffffffffffffffffffffffffffffffffff161415151561223557600080fd5b8073ffffffffffffffffffffffffffffffffffffffff166000809054906101000a900473ffffffffffffffffffffffffffffffffffffffff1673ffffffffffffffffffffffffffffffffffffffff167f8be0079c531659141344cd1fd0a4f28419497f9722a3daafe3b4186f6b6457e060405160405180910390a3806000806101000a81548173ffffffffffffffffffffffffffffffffffffffff021916908373ffffffffffffffffffffffffffffffffffffffff16021790555050565b81548183558181111561231a57818360005260206000209182019101612319919061231f565b5b505050565b61234191905b8082111561233d576000816000905550600101612325565b5090565b9056fea165627a7a72305820a7a06bb29631c4f3cb80260a4b97ea4f3960994af7739887ac2b6c83c07eef2600296080604052600260045534801561001557600080fd5b50604051602080610f3b8339810180604052602081101561003557600080fd5b810190808051906020019092919050505080600160006101000a81548173ffffffffffffffffffffffffffffffffffffffff021916908373ffffffffffffffffffffffffffffffffffffffff160217905550806000806101000a81548173ffffffffffffffffffffffffffffffffffffffff021916908373ffffffffffffffffffffffffffffffffffffffff16021790555050610e64806100d76000396000f3fe6080604052600436106100ba576000357c0100000000000000000000000000000000000000000000000000000000900463ffffffff168063061c67941461013557806310ea13df146101605780632ccc87271461018b578063370a3918146102065780633ccfd60b146102355780636bb80d511461023f57806379ebb6c41461026a578063973a9a8214610313578063a342766b1461031d578063af5cfae814610370578063f3f437031461039b578063feb663d014610400575b3480156100c657600080fd5b506040517f08c379a00000000000000000000000000000000000000000000000000000000081526004018080602001828103825260118152602001807f46616c6c6261636b2066756e6374696f6e00000000000000000000000000000081525060200191505060405180910390fd5b34801561014157600080fd5b5061014a610457565b6040518082815260200191505060405180910390f35b34801561016c57600080fd5b5061017561045d565b6040518082815260200191505060405180910390f35b34801561019757600080fd5b506101c4600480360360208110156101ae57600080fd5b8101908080359060200190929190505050610463565b604051808273ffffffffffffffffffffffffffffffffffffffff1673ffffffffffffffffffffffffffffffffffffffff16815260200191505060405180910390f35b34801561021257600080fd5b5061021b6104a1565b604051808215151515815260200191505060405180910390f35b61023d610634565b005b34801561024b57600080fd5b50610254610829565b6040518082815260200191505060405180910390f35b34801561027657600080fd5b506102c36004803603604081101561028d57600080fd5b81019080803573ffffffffffffffffffffffffffffffffffffffff1690602001909291908035906020019092919050505061082f565b604051808473ffffffffffffffffffffffffffffffffffffffff1673ffffffffffffffffffffffffffffffffffffffff168152602001838152602001828152602001935050505060405180910390f35b61031b610895565b005b34801561032957600080fd5b506103566004803603602081101561034057600080fd5b8101908080359060200190929190505050610b00565b604051808215151515815260200191505060405180910390f35b34801561037c57600080fd5b50610385610b12565b6040518082815260200191505060405180910390f35b3480156103a757600080fd5b506103ea600480360360208110156103be57600080fd5b81019080803573ffffffffffffffffffffffffffffffffffffffff169060200190929190505050610b18565b6040518082815260200191505060405180910390f35b34801561040c57600080fd5b50610415610b30565b604051808273ffffffffffffffffffffffffffffffffffffffff1673ffffffffffffffffffffffffffffffffffffffff16815260200191505060405180910390f35b60055481565b60025481565b60068181548110151561047257fe5b906000526020600020016000915054906101000a900473ffffffffffffffffffffffffffffffffffffffff1681565b6000600115156000809054906101000a900473ffffffffffffffffffffffffffffffffffffffff1673ffffffffffffffffffffffffffffffffffffffff1663b6db75a06040518163ffffffff167c0100000000000000000000000000000000000000000000000000000000028152600401602060405180830381600087803b15801561052c57600080fd5b505af1158015610540573d6000803e3d6000fd5b505050506040513d602081101561055657600080fd5b8101908080519060200190929190505050151514151561057557600080fd5b60006003541115156105ef576040517f08c379a00000000000000000000000000000000000000000000000000000000081526004018080602001828103825260168152602001807f4e6f20617661696c61626c65206469766964656e64730000000000000000000081525060200191505060405180910390fd5b600060646004546003540281151561060357fe5b049050806003600082825403925050819055508060056000828254019250508190555061062e610b56565b91505090565b6000600760003373ffffffffffffffffffffffffffffffffffffffff1673ffffffffffffffffffffffffffffffffffffffff168152602001908152602001600020541115156106eb576040517f08c379a00000000000000000000000000000000000000000000000000000000081526004018080602001828103825260208152602001807f4164647265737320686173206e6f207769746864726177616c20616d6f756e7481525060200191505060405180910390fd5b6000600760003373ffffffffffffffffffffffffffffffffffffffff1673ffffffffffffffffffffffffffffffffffffffff1681526020019081526020016000205490506000600760003373ffffffffffffffffffffffffffffffffffffffff1673ffffffffffffffffffffffffffffffffffffffff168152602001908152602001600020819055503373ffffffffffffffffffffffffffffffffffffffff166108fc829081150290604051600060405180830381858888f193505050501580156107ba573d6000803e3d6000fd5b507fa502fd41811afb69adfdfadf22b00a476d683cb0e8fcb04ecef9e331e2a26a6d3382604051808373ffffffffffffffffffffffffffffffffffffffff1673ffffffffffffffffffffffffffffffffffffffff1681526020018281526020019250505060405180910390a150565b60045481565b60086020528160005260406000208181548110151561084a57fe5b9060005260206000209060030201600091509150508060000160009054906101000a900473ffffffffffffffffffffffffffffffffffffffff16908060010154908060020154905083565b60003411151561090d576040517f08c379a000000000000000000000000000000000000000000000000000000000815260040180806020018281038252601a8152602001807f41747461636820616e20696e766573746d656e742076616c756500000000000081525060200191505060405180910390fd5b6000349050600860003373ffffffffffffffffffffffffffffffffffffffff1673ffffffffffffffffffffffffffffffffffffffff1681526020019081526020016000206060604051908101604052803373ffffffffffffffffffffffffffffffffffffffff168152602001428152602001838152509080600181540180825580915050906001820390600052602060002090600302016000909192909190915060008201518160000160006101000a81548173ffffffffffffffffffffffffffffffffffffffff021916908373ffffffffffffffffffffffffffffffffffffffff160217905550602082015181600101556040820151816002015550505060063390806001815401808255809150509060018203906000526020600020016000909192909190916101000a81548173ffffffffffffffffffffffffffffffffffffffff021916908373ffffffffffffffffffffffffffffffffffffffff1602179055505080600260008282540192505081905550806003600082825401925050819055507f012335398b2ec0286f8c0396759e9608b4e163f51d06d11116dd801b2b47c60f3382604051808373ffffffffffffffffffffffffffffffffffffffff1673ffffffffffffffffffffffffffffffffffffffff1681526020018281526020019250505060405180910390a150565b60008160038190555060019050919050565b60035481565b60076020528060005260406000206000915090505481565b600160009054906101000a900473ffffffffffffffffffffffffffffffffffffffff1681565b600080600090505b600680549050811015610e10576000600682815481101515610b7c57fe5b9060005260206000200160009054906101000a900473ffffffffffffffffffffffffffffffffffffffff169050600080600090505b600860008473ffffffffffffffffffffffffffffffffffffffff1673ffffffffffffffffffffffffffffffffffffffff16815260200190815260200160002080549050811015610d21578273ffffffffffffffffffffffffffffffffffffffff16600860008573ffffffffffffffffffffffffffffffffffffffff1673ffffffffffffffffffffffffffffffffffffffff16815260200190815260200160002082815481101515610c5e57fe5b906000526020600020906003020160000160009054906101000a900473ffffffffffffffffffffffffffffffffffffffff1673ffffffffffffffffffffffffffffffffffffffff16141515610cb257600080fd5b600860008473ffffffffffffffffffffffffffffffffffffffff1673ffffffffffffffffffffffffffffffffffffffff16815260200190815260200160002081815481101515610cfe57fe5b906000526020600020906003020160020154820191508080600101915050610bb1565b5060006002548260055402811515610d3557fe5b0490508060056000828254039250508190555080600760008573ffffffffffffffffffffffffffffffffffffffff1673ffffffffffffffffffffffffffffffffffffffff168152602001908152602001600020600082825401925050819055507f42f69d5213292b7ba6e1e5a1f251f6edca6f86e95f14e89871ebb5e9fa5099b88382604051808373ffffffffffffffffffffffffffffffffffffffff1673ffffffffffffffffffffffffffffffffffffffff1681526020018281526020019250505060405180910390a15050508080600101915050610b5e565b506000600554905060006005819055508060036000828254019250508190555060019150509056fea165627a7a723058202557aa3d1f5c7901cda0057de3acad93ee9895e9b465101670242964f73bf0fe00296080604052610e1060025534801561001657600080fd5b506040516020806116d48339810180604052602081101561003657600080fd5b810190808051906020019092919050505080600160006101000a81548173ffffffffffffffffffffffffffffffffffffffff021916908373ffffffffffffffffffffffffffffffffffffffff160217905550806000806101000a81548173ffffffffffffffffffffffffffffffffffffffff021916908373ffffffffffffffffffffffffffffffffffffffff160217905550506115fc806100d86000396000f3fe608060405260043610610062576000357c0100000000000000000000000000000000000000000000000000000000900463ffffffff1680630fc64691146100675780634fef236414610092578063d5fbc71d146100bd578063feb663d01461010c575b600080fd5b34801561007357600080fd5b5061007c610163565b6040518082815260200191505060405180910390f35b34801561009e57600080fd5b506100a7610169565b6040518082815260200191505060405180910390f35b3480156100c957600080fd5b506100f6600480360360208110156100e057600080fd5b8101908080359060200190929190505050610327565b6040518082815260200191505060405180910390f35b34801561011857600080fd5b5061012161069d565b604051808273ffffffffffffffffffffffffffffffffffffffff1673ffffffffffffffffffffffffffffffffffffffff16815260200191505060405180910390f35b60025481565b600080600080600090505b6000809054906101000a900473ffffffffffffffffffffffffffffffffffffffff1673ffffffffffffffffffffffffffffffffffffffff16637ab9be186040518163ffffffff167c010000000000000000000000000000000000000000000000000000000002815260040160206040518083038186803b1580156101f757600080fd5b505afa15801561020b573d6000803e3d6000fd5b505050506040513d602081101561022157600080fd5b810190808051906020019092919050505081101561031e576000809054906101000a900473ffffffffffffffffffffffffffffffffffffffff1673ffffffffffffffffffffffffffffffffffffffff166364e98072826040518263ffffffff167c01000000000000000000000000000000000000000000000000000000000281526004018082815260200191505060206040518083038186803b1580156102c757600080fd5b505afa1580156102db573d6000803e3d6000fd5b505050506040513d60208110156102f157600080fd5b8101908080519060200190929190505050925061030d83610327565b820191508080600101915050610174565b50809250505090565b60008060006103346106c3565b90507f43e0d79edab99ad436795e03537a27e8192b11095f7d9e54e8748f538f75910c846040518082815260200191505060405180910390a160008060009054906101000a900473ffffffffffffffffffffffffffffffffffffffff1673ffffffffffffffffffffffffffffffffffffffff166369777fce6040518163ffffffff167c010000000000000000000000000000000000000000000000000000000002815260040160206040518083038186803b1580156103f257600080fd5b505afa158015610406573d6000803e3d6000fd5b505050506040513d602081101561041c57600080fd5b810190808051906020019092919050505073ffffffffffffffffffffffffffffffffffffffff1663af5cfae86040518163ffffffff167c010000000000000000000000000000000000000000000000000000000002815260040160206040518083038186803b15801561048e57600080fd5b505afa1580156104a2573d6000803e3d6000fd5b505050506040513d60208110156104b857600080fd5b81019080805190602001909291905050501115156104d557600080fd5b60008060008060008060008060009054906101000a900473ffffffffffffffffffffffffffffffffffffffff1673ffffffffffffffffffffffffffffffffffffffff16633dcd20f48c6040518263ffffffff167c01000000000000000000000000000000000000000000000000000000000281526004018082815260200191505060e06040518083038186803b15801561056e57600080fd5b505afa158015610582573d6000803e3d6000fd5b505050506040513d60e081101561059857600080fd5b810190808051906020019092919080519060200190929190805190602001909291908051906020019092919080519060200190929190805190602001909291908051906020019092919050505096509650965096509650965096506001151582151514151561066f576040517f08c379a00000000000000000000000000000000000000000000000000000000081526004018080602001828103825260188152602001807f426174746572792073686f756c6420626520616374697665000000000000000081525060200191505060405180910390fd5b600061067b858a6106cc565b905061068c8c898989888e876106ea565b995050505050505050505050919050565b600160009054906101000a900473ffffffffffffffffffffffffffffffffffffffff1681565b60006005905090565b6000818311156106df57600190506106e4565b600090505b92915050565b6000806106fb600254610e10610cda565b905060008789039050600115158415151415610b03576000811115156107af576040517f08c379a000000000000000000000000000000000000000000000000000000000815260040180806020018281038252602d8152602001807f426174746572792073686f756c64206861766520656d7074792063617061636981526020017f747920666f72206368617267650000000000000000000000000000000000000081525060400191505060405180910390fd5b6107c26107bc8784610d04565b82610d42565b925060008060009054906101000a900473ffffffffffffffffffffffffffffffffffffffff1673ffffffffffffffffffffffffffffffffffffffff166369777fce6040518163ffffffff167c010000000000000000000000000000000000000000000000000000000002815260040160206040518083038186803b15801561084957600080fd5b505afa15801561085d573d6000803e3d6000fd5b505050506040513d602081101561087357600080fd5b810190808051906020019092919050505073ffffffffffffffffffffffffffffffffffffffff1663af5cfae86040518163ffffffff167c010000000000000000000000000000000000000000000000000000000002815260040160206040518083038186803b1580156108e557600080fd5b505afa1580156108f9573d6000803e3d6000fd5b505050506040513d602081101561090f57600080fd5b81019080805190602001909291905050509050600061092e8588610d04565b905081811115610948578190506109458288610cda565b94505b6109538c8689610d5b565b507fe921c141ec599faf4d493fedfbb3af7c689ff38c273ed12108fd131c50f654a78986896000809054906101000a900473ffffffffffffffffffffffffffffffffffffffff1673ffffffffffffffffffffffffffffffffffffffff166369777fce6040518163ffffffff167c010000000000000000000000000000000000000000000000000000000002815260040160206040518083038186803b1580156109fb57600080fd5b505afa158015610a0f573d6000803e3d6000fd5b505050506040513d6020811015610a2557600080fd5b810190808051906020019092919050505073ffffffffffffffffffffffffffffffffffffffff1663af5cfae86040518163ffffffff167c010000000000000000000000000000000000000000000000000000000002815260040160206040518083038186803b158015610a9757600080fd5b505afa158015610aab573d6000803e3d6000fd5b505050506040513d6020811015610ac157600080fd5b81019080805190602001909291905050506040518085815260200184815260200183815260200182815260200194505050505060405180910390a15050610ccd565b610b16610b108784610d04565b89610d42565b9250610b238a84876111c2565b507f1eb90c2aa597b0bffa4231991db228ac204daee844c46a996ce98a8da13b71d18784876000809054906101000a900473ffffffffffffffffffffffffffffffffffffffff1673ffffffffffffffffffffffffffffffffffffffff166369777fce6040518163ffffffff167c010000000000000000000000000000000000000000000000000000000002815260040160206040518083038186803b158015610bcb57600080fd5b505afa158015610bdf573d6000803e3d6000fd5b505050506040513d6020811015610bf557600080fd5b810190808051906020019092919050505073ffffffffffffffffffffffffffffffffffffffff1663af5cfae86040518163ffffffff167c010000000000000000000000000000000000000000000000000000000002815260040160206040518083038186803b158015610c6757600080fd5b505afa158015610c7b573d6000803e3d6000fd5b505050506040513d6020811015610c9157600080fd5b81019080805190602001909291905050506040518085815260200184815260200183815260200182815260200194505050505060405180910390a15b5050979650505050505050565b60008082111515610cea57600080fd5b60008284811515610cf757fe5b0490508091505092915050565b600080831415610d175760009050610d3c565b60008284029050828482811515610d2a57fe5b04141515610d3757600080fd5b809150505b92915050565b6000818310610d515781610d53565b825b905092915050565b600080610eca6000809054906101000a900473ffffffffffffffffffffffffffffffffffffffff1673ffffffffffffffffffffffffffffffffffffffff166369777fce6040518163ffffffff167c010000000000000000000000000000000000000000000000000000000002815260040160206040518083038186803b158015610de457600080fd5b505afa158015610df8573d6000803e3d6000fd5b505050506040513d6020811015610e0e57600080fd5b810190808051906020019092919050505073ffffffffffffffffffffffffffffffffffffffff1663af5cfae86040518163ffffffff167c010000000000000000000000000000000000000000000000000000000002815260040160206040518083038186803b158015610e8057600080fd5b505afa158015610e94573d6000803e3d6000fd5b505050506040513d6020811015610eaa57600080fd5b8101908080519060200190929190505050610ec58686610d04565b61158d565b905060008110151515610f6b576040517f08c379a00000000000000000000000000000000000000000000000000000000081526004018080602001828103825260268152602001807f4e6f7420656e6f756768206d6f6e657920746f206d616b65207468697320707581526020017f726368617365000000000000000000000000000000000000000000000000000081525060400191505060405180910390fd5b6000809054906101000a900473ffffffffffffffffffffffffffffffffffffffff1673ffffffffffffffffffffffffffffffffffffffff166369777fce6040518163ffffffff167c010000000000000000000000000000000000000000000000000000000002815260040160206040518083038186803b158015610fee57600080fd5b505afa158015611002573d6000803e3d6000fd5b505050506040513d602081101561101857600080fd5b810190808051906020019092919050505073ffffffffffffffffffffffffffffffffffffffff1663a342766b826040518263ffffffff167c010000000000000000000000000000000000000000000000000000000002815260040180828152602001915050602060405180830381600087803b15801561109757600080fd5b505af11580156110ab573d6000803e3d6000fd5b505050506040513d60208110156110c157600080fd5b8101908080519060200190929190505050156111b5576000809054906101000a900473ffffffffffffffffffffffffffffffffffffffff1673ffffffffffffffffffffffffffffffffffffffff1663460fafbc86866040518363ffffffff167c01000000000000000000000000000000000000000000000000000000000281526004018083815260200182815260200192505050602060405180830381600087803b15801561116f57600080fd5b505af1158015611183573d6000803e3d6000fd5b505050506040513d602081101561119957600080fd5b81019080805190602001909291905050505060019150506111bb565b60009150505b9392505050565b6000806113316000809054906101000a900473ffffffffffffffffffffffffffffffffffffffff1673ffffffffffffffffffffffffffffffffffffffff166369777fce6040518163ffffffff167c010000000000000000000000000000000000000000000000000000000002815260040160206040518083038186803b15801561124b57600080fd5b505afa15801561125f573d6000803e3d6000fd5b505050506040513d602081101561127557600080fd5b810190808051906020019092919050505073ffffffffffffffffffffffffffffffffffffffff1663af5cfae86040518163ffffffff167c010000000000000000000000000000000000000000000000000000000002815260040160206040518083038186803b1580156112e757600080fd5b505afa1580156112fb573d6000803e3d6000fd5b505050506040513d602081101561131157600080fd5b810190808051906020019092919050505061132c8686610d04565b6115af565b90506000809054906101000a900473ffffffffffffffffffffffffffffffffffffffff1673ffffffffffffffffffffffffffffffffffffffff166369777fce6040518163ffffffff167c010000000000000000000000000000000000000000000000000000000002815260040160206040518083038186803b1580156113b657600080fd5b505afa1580156113ca573d6000803e3d6000fd5b505050506040513d60208110156113e057600080fd5b810190808051906020019092919050505073ffffffffffffffffffffffffffffffffffffffff1663a342766b826040518263ffffffff167c010000000000000000000000000000000000000000000000000000000002815260040180828152602001915050602060405180830381600087803b15801561145f57600080fd5b505af1158015611473573d6000803e3d6000fd5b505050506040513d602081101561148957600080fd5b810190808051906020019092919050505015611580576000809054906101000a900473ffffffffffffffffffffffffffffffffffffffff1673ffffffffffffffffffffffffffffffffffffffff1663460fafbc86866000036040518363ffffffff167c01000000000000000000000000000000000000000000000000000000000281526004018083815260200182815260200192505050602060405180830381600087803b15801561153a57600080fd5b505af115801561154e573d6000803e3d6000fd5b505050506040513d602081101561156457600080fd5b8101908080519060200190929190505050506001915050611586565b60009150505b9392505050565b600082821115151561159e57600080fd5b600082840390508091505092915050565b60008082840190508381101515156115c657600080fd5b809150509291505056fea165627a7a723058208b57af930333a29dfd1e944e6767afb4c425285c8d04817bf83dd3a0840466960029",
  "source": "pragma solidity >=0.5.0;\n\nimport \"./BatteryInvestment.sol\";\nimport \"./BatteryEnergy.sol\";\nimport \"./Ownable.sol\";\n\n/// @author Yan Man\n/// @title A Virtual Power Plant implementation. Consensys Final Project Winter 2018\ncontract VirtualPowerPlant is Ownable {\n\n    // Type declarations\n    struct Battery {\n        uint capacity;\n        uint currentFilled;\n        uint dateAdded;\n        uint cost;\n        bytes32 serialNumber;\n        uint priceThreshold;\n        uint chargeRate;\n        bool isActive;\n        uint mapIndex;\n    }\n    Battery[] public batteries; //internal\n    Battery[] public decommissionedBatteries; //internal\n    BatteryInvestment public batteryInvestmentContract; // maybe external\n    BatteryEnergy public batteryEnergyContract;\n    // State variables\n    // address public owner;\n    address public virtualPowerPlantAddress;\n    address public batteryInvestmentAddress; //maybe external, only accessed by other contracts\n    address public batteryEnergyAddress;  //maybe can be external\n    uint public numBatteries = 0;\n    uint public numAdmins = 0;\n    uint public dividendPercentage;\n    uint[] public batteryMapping;\n    mapping(address => bool) public admins;\n\n    // Events\n    event LogNewInvestment (address investorAddress, uint investmentAmount);\n    event LogWithdrawalMade (address investorAddress, uint withdrawalAmount);\n    event LogChangeAdmin (address adminAddress, bool status);\n    event LogBatteryActive (bytes32 serialNumber, bool newStatus);\n    event LogBatteryThresholdChanged (uint newThreshold);\n\n    // Modifiers\n    // modifier onlyOwner { require(msg.sender == owner, \"not the valid Owner\"); _; }\n    modifier isAdminModifier { require(\n        admins[msg.sender] == true ||\n        msg.sender == batteryInvestmentAddress ||\n        msg.sender == batteryEnergyAddress\n        , \"not a valid Admin\"); _; }\n\n    modifier isBatteryValidModifier (uint _capacity, uint _currentFilled, uint _cost, uint _priceThreshold) {\n        require(_capacity >= _currentFilled, \"Capacity must exceed amount filled\");\n        require(batteryInvestmentContract.remainingInvestment() >= _cost, \"Not enough investment to purchase\");\n        require(_priceThreshold >= 0, \"Must have a valid price threshold\");\n        _;\n    }\n\n    constructor () public {\n        // owner = msg.sender;\n        dividendPercentage = 1;\n        admins[msg.sender] = true;\n        virtualPowerPlantAddress = address(this);\n        batteryInvestmentContract = new BatteryInvestment(virtualPowerPlantAddress);\n        batteryInvestmentAddress = address(batteryInvestmentContract);\n        batteryEnergyContract = new BatteryEnergy(virtualPowerPlantAddress);\n        batteryEnergyAddress = address(batteryEnergyContract);\n    }\n\n    function () external {\n        revert();\n    }\n\n    // External functions\n    // ...\n\n    // External functions that are view\n    // ...\n\n    // External functions that are pure\n    // ...\n\n    // Public functions\n    // ...\n\n    // Internal functions\n    // ...\n\n    // Private functions\n    // ...\n\n    function isAdmin ()\n        public\n        isAdminModifier\n        returns (bool)\n    {\n        return true;\n    }\n\n    function addBattery (\n        uint _capacity,\n        uint _currentFilled,\n        uint _cost,\n        bytes32 _serialNumber,\n        uint _priceThreshold,\n        uint _chargeRate\n    )\n        public\n        isAdminModifier\n        isBatteryValidModifier(_capacity, _currentFilled, _cost, _priceThreshold)\n        returns (uint batteryID)\n    {\n        batteryID = batteries.length;\n        batteries.push(Battery({\n            capacity: _capacity,\n            currentFilled: _currentFilled,\n            dateAdded: now,\n            cost: _cost,\n            serialNumber: _serialNumber,\n            priceThreshold: _priceThreshold,\n            chargeRate: _chargeRate,\n            isActive: true,\n            mapIndex: batteryID\n        }));\n        numBatteries++;\n        batteryMapping.push(batteryID);\n        // batteryMapping[_serialNumber] = batteryID;\n        uint _newRemainingInvestment = batteryInvestmentContract.remainingInvestment() - _cost;\n        batteryInvestmentContract.updateRemainingInvestment(_newRemainingInvestment);\n        //   batteryInvestmentAddress.delegatecall(bytes4(keccak256(\"updateTotalInvestment(uint256)\")), _newTotalInvestment);\n        //   _contract.delegatecall(bytes4(keccak256(\"updateMyVariable(uint256)\")), newVar);\n        emit LogBatteryActive(_serialNumber, true);\n    }\n\n    function chargeBattery (uint _batteryID, uint _chargeAmount)\n        public\n        isAdminModifier\n        returns (uint)\n    {\n        require(batteries[_batteryID].currentFilled + _chargeAmount  <= batteries[_batteryID].capacity);\n        batteries[_batteryID].currentFilled = batteries[_batteryID].currentFilled + _chargeAmount;\n        return batteries[_batteryID].currentFilled;\n    }\n\n    function changeBatteryThreshold (uint _batteryID, uint _newThreshold)\n        public\n        isAdminModifier\n    {\n        require(_newThreshold >= 0);\n        batteries[_batteryID].priceThreshold = _newThreshold;\n        emit LogBatteryThresholdChanged(_newThreshold);\n    }\n\n    function decommissionBattery (uint _batteryID)\n        public\n        isAdminModifier\n        returns (uint)\n    {\n        require(batteries[_batteryID].isActive);\n        batteries[_batteryID].isActive = false;\n        bytes32 serialNumber = batteries[_batteryID].serialNumber;\n        decommissionedBatteries.push(batteries[_batteryID]);\n        // batteries[_batteryID] = batteries[batteries.length - 1];\n        // batteries.length--;\n        batteries[batteries.length - 1].mapIndex = batteries[_batteryID].mapIndex;\n        batteryMapping[_batteryID] = batteries.length - 1;\n        batteryMapping.length--;\n        numBatteries--;\n        emit LogBatteryActive(serialNumber, false);\n        return numBatteries;\n    }\n\n    // function getBatteryIDMax () public view returns (uint) {\n    //     return batteries.length;\n    // }\n\n    function getRelevantBatteryInfo (uint _batteryID) public view isAdminModifier returns (\n        uint,\n        uint,\n        bytes32,\n        uint,\n        uint,\n        bool,\n        uint\n    ) {\n        return (\n            batteries[_batteryID].capacity,\n            batteries[_batteryID].currentFilled,\n            batteries[_batteryID].serialNumber,\n            batteries[_batteryID].priceThreshold,\n            batteries[_batteryID].chargeRate,\n            batteries[_batteryID].isActive,\n            batteries[_batteryID].mapIndex\n        );\n    }\n\n    function getBatteryCapacityRemaining (uint _batteryID) public view returns (uint remaining) {\n        remaining = batteries[_batteryID].capacity -  batteries[_batteryID].currentFilled;\n        if(remaining <= 0){\n            return 0;\n        }\n    }\n\n    function getBatteryChargeRate (uint _batteryID) public view returns (uint) {\n        return batteries[_batteryID].chargeRate;\n    }\n\n    function getBatteryMapIndex (uint _batteryID) public view returns (uint) {\n        return batteries[_batteryID].mapIndex;\n    }\n\n    function changeAdmin (address _newAdminAddress, bool _adminStatus)\n        public\n        onlyOwner\n    {\n        admins[_newAdminAddress] = _adminStatus;\n        if (_adminStatus == true) {\n            numAdmins++;\n        } else {\n            numAdmins--;\n        }\n        emit LogChangeAdmin(_newAdminAddress, _adminStatus);\n    }\n\n\n\n}\n",
  "sourcePath": "/Users/yan-dev/Documents/virtual-power-plant/contracts/VirtualPowerPlant.sol",
  "compiler": {
    "name": "solc",
    "version": "0.5.0+commit.1d4f565a.Emscripten.clang"
  },
  "schemaVersion": "3.0.0",
  "updatedAt": "2019-01-08T22:08:40.739Z",
  "devdoc": {
    "author": "Yan Man",
    "methods": {
      "isOwner()": {
        "return": "true if `msg.sender` is the owner of the contract."
      },
      "owner()": {
        "return": "the address of the owner."
      },
      "renounceOwnership()": {
        "details": "Allows the current owner to relinquish control of the contract."
      },
      "transferOwnership(address)": {
        "details": "Allows the current owner to transfer control of the contract to a newOwner.",
        "params": {
          "newOwner": "The address to transfer ownership to."
        }
      }
    },
    "title": "A Virtual Power Plant implementation. Consensys Final Project Winter 2018"
  },
  "userdoc": {
    "methods": {
      "renounceOwnership()": {
        "notice": "Renouncing to ownership will leave the contract without an owner. It will not be possible to call the functions with the `onlyOwner` modifier anymore."
      }
    }
  }
}